{
  "abi": [
    {
      "type": "constructor",
      "inputs": [
        {
          "name": "name",
          "type": "string",
          "internalType": "string"
        },
        {
          "name": "symbol",
          "type": "string",
          "internalType": "string"
        },
        {
          "name": "_initialAdmin",
          "type": "address",
          "internalType": "address"
        },
        {
          "name": "_protocolTreasury",
          "type": "address",
          "internalType": "address"
        }
      ],
      "stateMutability": "nonpayable"
    },
    {
      "type": "function",
      "name": "DEFAULT_ADMIN_ROLE",
      "inputs": [],
      "outputs": [
        {
          "name": "",
          "type": "bytes32",
          "internalType": "bytes32"
        }
      ],
      "stateMutability": "view"
    },
    {
      "type": "function",
      "name": "MINTER_ROLE",
      "inputs": [],
      "outputs": [
        {
          "name": "",
          "type": "bytes32",
          "internalType": "bytes32"
        }
      ],
      "stateMutability": "view"
    },
    {
      "type": "function",
      "name": "PAUSER_ROLE",
      "inputs": [],
      "outputs": [
        {
          "name": "",
          "type": "bytes32",
          "internalType": "bytes32"
        }
      ],
      "stateMutability": "view"
    },
    {
      "type": "function",
      "name": "TREASURY_MANAGER_ROLE",
      "inputs": [],
      "outputs": [
        {
          "name": "",
          "type": "bytes32",
          "internalType": "bytes32"
        }
      ],
      "stateMutability": "view"
    },
    {
      "type": "function",
      "name": "UPGRADER_ROLE",
      "inputs": [],
      "outputs": [
        {
          "name": "",
          "type": "bytes32",
          "internalType": "bytes32"
        }
      ],
      "stateMutability": "view"
    },
    {
      "type": "function",
      "name": "UPGRADE_INTERFACE_VERSION",
      "inputs": [],
      "outputs": [
        {
          "name": "",
          "type": "string",
          "internalType": "string"
        }
      ],
      "stateMutability": "view"
    },
    {
      "type": "function",
      "name": "allowance",
      "inputs": [
        {
          "name": "owner",
          "type": "address",
          "internalType": "address"
        },
        {
          "name": "spender",
          "type": "address",
          "internalType": "address"
        }
      ],
      "outputs": [
        {
          "name": "",
          "type": "uint256",
          "internalType": "uint256"
        }
      ],
      "stateMutability": "view"
    },
    {
      "type": "function",
      "name": "approve",
      "inputs": [
        {
          "name": "spender",
          "type": "address",
          "internalType": "address"
        },
        {
          "name": "value",
          "type": "uint256",
          "internalType": "uint256"
        }
      ],
      "outputs": [
        {
          "name": "",
          "type": "bool",
          "internalType": "bool"
        }
      ],
      "stateMutability": "nonpayable"
    },
    {
      "type": "function",
      "name": "balanceOf",
      "inputs": [
        {
          "name": "account",
          "type": "address",
          "internalType": "address"
        }
      ],
      "outputs": [
        {
          "name": "",
          "type": "uint256",
          "internalType": "uint256"
        }
      ],
      "stateMutability": "view"
    },
    {
      "type": "function",
      "name": "burn",
      "inputs": [
        {
          "name": "value",
          "type": "uint256",
          "internalType": "uint256"
        }
      ],
      "outputs": [],
      "stateMutability": "nonpayable"
    },
    {
      "type": "function",
      "name": "burnFrom",
      "inputs": [
        {
          "name": "account",
          "type": "address",
          "internalType": "address"
        },
        {
          "name": "value",
          "type": "uint256",
          "internalType": "uint256"
        }
      ],
      "outputs": [],
      "stateMutability": "nonpayable"
    },
    {
      "type": "function",
      "name": "decimals",
      "inputs": [],
      "outputs": [
        {
          "name": "",
          "type": "uint8",
          "internalType": "uint8"
        }
      ],
      "stateMutability": "pure"
    },
    {
      "type": "function",
      "name": "getRoleAdmin",
      "inputs": [
        {
          "name": "role",
          "type": "bytes32",
          "internalType": "bytes32"
        }
      ],
      "outputs": [
        {
          "name": "",
          "type": "bytes32",
          "internalType": "bytes32"
        }
      ],
      "stateMutability": "view"
    },
    {
      "type": "function",
      "name": "grantRole",
      "inputs": [
        {
          "name": "role",
          "type": "bytes32",
          "internalType": "bytes32"
        },
        {
          "name": "account",
          "type": "address",
          "internalType": "address"
        }
      ],
      "outputs": [],
      "stateMutability": "nonpayable"
    },
    {
      "type": "function",
      "name": "hasRole",
      "inputs": [
        {
          "name": "role",
          "type": "bytes32",
          "internalType": "bytes32"
        },
        {
          "name": "account",
          "type": "address",
          "internalType": "address"
        }
      ],
      "outputs": [
        {
          "name": "",
          "type": "bool",
          "internalType": "bool"
        }
      ],
      "stateMutability": "view"
    },
    {
      "type": "function",
      "name": "mintToTreasury",
      "inputs": [
        {
          "name": "amount",
          "type": "uint256",
          "internalType": "uint256"
        }
      ],
      "outputs": [],
      "stateMutability": "nonpayable"
    },
    {
      "type": "function",
      "name": "name",
      "inputs": [],
      "outputs": [
        {
          "name": "",
          "type": "string",
          "internalType": "string"
        }
      ],
      "stateMutability": "view"
    },
    {
      "type": "function",
      "name": "pause",
      "inputs": [],
      "outputs": [],
      "stateMutability": "nonpayable"
    },
    {
      "type": "function",
      "name": "paused",
      "inputs": [],
      "outputs": [
        {
          "name": "",
          "type": "bool",
          "internalType": "bool"
        }
      ],
      "stateMutability": "view"
    },
    {
      "type": "function",
      "name": "protocolTreasury",
      "inputs": [],
      "outputs": [
        {
          "name": "",
          "type": "address",
          "internalType": "address"
        }
      ],
      "stateMutability": "view"
    },
    {
      "type": "function",
      "name": "proxiableUUID",
      "inputs": [],
      "outputs": [
        {
          "name": "",
          "type": "bytes32",
          "internalType": "bytes32"
        }
      ],
      "stateMutability": "view"
    },
    {
      "type": "function",
      "name": "renounceRole",
      "inputs": [
        {
          "name": "role",
          "type": "bytes32",
          "internalType": "bytes32"
        },
        {
          "name": "callerConfirmation",
          "type": "address",
          "internalType": "address"
        }
      ],
      "outputs": [],
      "stateMutability": "nonpayable"
    },
    {
      "type": "function",
      "name": "retireFromTreasury",
      "inputs": [
        {
          "name": "amount",
          "type": "uint256",
          "internalType": "uint256"
        },
        {
          "name": "reason",
          "type": "string",
          "internalType": "string"
        }
      ],
      "outputs": [],
      "stateMutability": "nonpayable"
    },
    {
      "type": "function",
      "name": "revokeRole",
      "inputs": [
        {
          "name": "role",
          "type": "bytes32",
          "internalType": "bytes32"
        },
        {
          "name": "account",
          "type": "address",
          "internalType": "address"
        }
      ],
      "outputs": [],
      "stateMutability": "nonpayable"
    },
    {
      "type": "function",
      "name": "setProtocolTreasury",
      "inputs": [
        {
          "name": "_newTreasury",
          "type": "address",
          "internalType": "address"
        }
      ],
      "outputs": [],
      "stateMutability": "nonpayable"
    },
    {
      "type": "function",
      "name": "supportsInterface",
      "inputs": [
        {
          "name": "interfaceId",
          "type": "bytes4",
          "internalType": "bytes4"
        }
      ],
      "outputs": [
        {
          "name": "",
          "type": "bool",
          "internalType": "bool"
        }
      ],
      "stateMutability": "view"
    },
    {
      "type": "function",
      "name": "symbol",
      "inputs": [],
      "outputs": [
        {
          "name": "",
          "type": "string",
          "internalType": "string"
        }
      ],
      "stateMutability": "view"
    },
    {
      "type": "function",
      "name": "totalSupply",
      "inputs": [],
      "outputs": [
        {
          "name": "",
          "type": "uint256",
          "internalType": "uint256"
        }
      ],
      "stateMutability": "view"
    },
    {
      "type": "function",
      "name": "transfer",
      "inputs": [
        {
          "name": "to",
          "type": "address",
          "internalType": "address"
        },
        {
          "name": "value",
          "type": "uint256",
          "internalType": "uint256"
        }
      ],
      "outputs": [
        {
          "name": "",
          "type": "bool",
          "internalType": "bool"
        }
      ],
      "stateMutability": "nonpayable"
    },
    {
      "type": "function",
      "name": "transferFrom",
      "inputs": [
        {
          "name": "from",
          "type": "address",
          "internalType": "address"
        },
        {
          "name": "to",
          "type": "address",
          "internalType": "address"
        },
        {
          "name": "value",
          "type": "uint256",
          "internalType": "uint256"
        }
      ],
      "outputs": [
        {
          "name": "",
          "type": "bool",
          "internalType": "bool"
        }
      ],
      "stateMutability": "nonpayable"
    },
    {
      "type": "function",
      "name": "transferFromTreasury",
      "inputs": [
        {
          "name": "to",
          "type": "address",
          "internalType": "address"
        },
        {
          "name": "amount",
          "type": "uint256",
          "internalType": "uint256"
        }
      ],
      "outputs": [],
      "stateMutability": "nonpayable"
    },
    {
      "type": "function",
      "name": "unpause",
      "inputs": [],
      "outputs": [],
      "stateMutability": "nonpayable"
    },
    {
      "type": "function",
      "name": "upgradeToAndCall",
      "inputs": [
        {
          "name": "newImplementation",
          "type": "address",
          "internalType": "address"
        },
        {
          "name": "data",
          "type": "bytes",
          "internalType": "bytes"
        }
      ],
      "outputs": [],
      "stateMutability": "payable"
    },
    {
      "type": "event",
      "name": "Approval",
      "inputs": [
        {
          "name": "owner",
          "type": "address",
          "indexed": true,
          "internalType": "address"
        },
        {
          "name": "spender",
          "type": "address",
          "indexed": true,
          "internalType": "address"
        },
        {
          "name": "value",
          "type": "uint256",
          "indexed": false,
          "internalType": "uint256"
        }
      ],
      "anonymous": false
    },
    {
      "type": "event",
      "name": "Paused",
      "inputs": [
        {
          "name": "account",
          "type": "address",
          "indexed": false,
          "internalType": "address"
        }
      ],
      "anonymous": false
    },
    {
      "type": "event",
      "name": "ProtocolTreasuryChanged",
      "inputs": [
        {
          "name": "newTreasury",
          "type": "address",
          "indexed": true,
          "internalType": "address"
        }
      ],
      "anonymous": false
    },
    {
      "type": "event",
      "name": "RoleAdminChanged",
      "inputs": [
        {
          "name": "role",
          "type": "bytes32",
          "indexed": true,
          "internalType": "bytes32"
        },
        {
          "name": "previousAdminRole",
          "type": "bytes32",
          "indexed": true,
          "internalType": "bytes32"
        },
        {
          "name": "newAdminRole",
          "type": "bytes32",
          "indexed": true,
          "internalType": "bytes32"
        }
      ],
      "anonymous": false
    },
    {
      "type": "event",
      "name": "RoleGranted",
      "inputs": [
        {
          "name": "role",
          "type": "bytes32",
          "indexed": true,
          "internalType": "bytes32"
        },
        {
          "name": "account",
          "type": "address",
          "indexed": true,
          "internalType": "address"
        },
        {
          "name": "sender",
          "type": "address",
          "indexed": true,
          "internalType": "address"
        }
      ],
      "anonymous": false
    },
    {
      "type": "event",
      "name": "RoleRevoked",
      "inputs": [
        {
          "name": "role",
          "type": "bytes32",
          "indexed": true,
          "internalType": "bytes32"
        },
        {
          "name": "account",
          "type": "address",
          "indexed": true,
          "internalType": "address"
        },
        {
          "name": "sender",
          "type": "address",
          "indexed": true,
          "internalType": "address"
        }
      ],
      "anonymous": false
    },
    {
      "type": "event",
      "name": "Transfer",
      "inputs": [
        {
          "name": "from",
          "type": "address",
          "indexed": true,
          "internalType": "address"
        },
        {
          "name": "to",
          "type": "address",
          "indexed": true,
          "internalType": "address"
        },
        {
          "name": "value",
          "type": "uint256",
          "indexed": false,
          "internalType": "uint256"
        }
      ],
      "anonymous": false
    },
    {
      "type": "event",
      "name": "TreasuryRetirement",
      "inputs": [
        {
          "name": "amount",
          "type": "uint256",
          "indexed": false,
          "internalType": "uint256"
        },
        {
          "name": "reason",
          "type": "string",
          "indexed": false,
          "internalType": "string"
        }
      ],
      "anonymous": false
    },
    {
      "type": "event",
      "name": "TreasuryTransfer",
      "inputs": [
        {
          "name": "to",
          "type": "address",
          "indexed": true,
          "internalType": "address"
        },
        {
          "name": "amount",
          "type": "uint256",
          "indexed": false,
          "internalType": "uint256"
        }
      ],
      "anonymous": false
    },
    {
      "type": "event",
      "name": "Unpaused",
      "inputs": [
        {
          "name": "account",
          "type": "address",
          "indexed": false,
          "internalType": "address"
        }
      ],
      "anonymous": false
    },
    {
      "type": "event",
      "name": "Upgraded",
      "inputs": [
        {
          "name": "implementation",
          "type": "address",
          "indexed": true,
          "internalType": "address"
        }
      ],
      "anonymous": false
    },
    {
      "type": "error",
      "name": "AccessControlBadConfirmation",
      "inputs": []
    },
    {
      "type": "error",
      "name": "AccessControlUnauthorizedAccount",
      "inputs": [
        {
          "name": "account",
          "type": "address",
          "internalType": "address"
        },
        {
          "name": "neededRole",
          "type": "bytes32",
          "internalType": "bytes32"
        }
      ]
    },
    {
      "type": "error",
      "name": "AddressEmptyCode",
      "inputs": [
        {
          "name": "target",
          "type": "address",
          "internalType": "address"
        }
      ]
    },
    {
      "type": "error",
      "name": "CallerNotMinter",
      "inputs": []
    },
    {
      "type": "error",
      "name": "CallerNotTreasuryManager",
      "inputs": []
    },
    {
      "type": "error",
      "name": "ERC1967InvalidImplementation",
      "inputs": [
        {
          "name": "implementation",
          "type": "address",
          "internalType": "address"
        }
      ]
    },
    {
      "type": "error",
      "name": "ERC1967NonPayable",
      "inputs": []
    },
    {
      "type": "error",
      "name": "ERC20InsufficientAllowance",
      "inputs": [
        {
          "name": "spender",
          "type": "address",
          "internalType": "address"
        },
        {
          "name": "allowance",
          "type": "uint256",
          "internalType": "uint256"
        },
        {
          "name": "needed",
          "type": "uint256",
          "internalType": "uint256"
        }
      ]
    },
    {
      "type": "error",
      "name": "ERC20InsufficientBalance",
      "inputs": [
        {
          "name": "sender",
          "type": "address",
          "internalType": "address"
        },
        {
          "name": "balance",
          "type": "uint256",
          "internalType": "uint256"
        },
        {
          "name": "needed",
          "type": "uint256",
          "internalType": "uint256"
        }
      ]
    },
    {
      "type": "error",
      "name": "ERC20InvalidApprover",
      "inputs": [
        {
          "name": "approver",
          "type": "address",
          "internalType": "address"
        }
      ]
    },
    {
      "type": "error",
      "name": "ERC20InvalidReceiver",
      "inputs": [
        {
          "name": "receiver",
          "type": "address",
          "internalType": "address"
        }
      ]
    },
    {
      "type": "error",
      "name": "ERC20InvalidSender",
      "inputs": [
        {
          "name": "sender",
          "type": "address",
          "internalType": "address"
        }
      ]
    },
    {
      "type": "error",
      "name": "ERC20InvalidSpender",
      "inputs": [
        {
          "name": "spender",
          "type": "address",
          "internalType": "address"
        }
      ]
    },
    {
      "type": "error",
      "name": "EnforcedPause",
      "inputs": []
    },
    {
      "type": "error",
      "name": "ExpectedPause",
      "inputs": []
    },
    {
      "type": "error",
      "name": "FailedCall",
      "inputs": []
    },
    {
      "type": "error",
      "name": "InvalidAmount",
      "inputs": [
        {
          "name": "amount",
          "type": "uint256",
          "internalType": "uint256"
        }
      ]
    },
    {
      "type": "error",
      "name": "UUPSUnauthorizedCallContext",
      "inputs": []
    },
    {
      "type": "error",
      "name": "UUPSUnsupportedProxiableUUID",
      "inputs": [
        {
          "name": "slot",
          "type": "bytes32",
          "internalType": "bytes32"
        }
      ]
    },
    {
      "type": "error",
      "name": "ZeroAddress",
      "inputs": []
    }
  ],
  "bytecode": {
    "object": "0x60a06040523461004a5761001d6100146101f4565b92919091610361565b61002561004f565b6128a16108f98239608051818181611ea601528181611f0b01526120c001526128a190f35b610055565b60405190565b5f80fd5b601f801991011690565b634e487b7160e01b5f52604160045260245ffd5b9061008190610059565b810190811060018060401b0382111761009957604052565b610063565b906100b16100aa61004f565b9283610077565b565b5f80fd5b5f80fd5b5f80fd5b5f80fd5b60018060401b0381116100df576100db602091610059565b0190565b610063565b90825f9392825e0152565b909291926101046100ff826100c3565b61009e565b938185526020850190828401116101205761011e926100e4565b565b6100bf565b9080601f8301121561014357816020610140935191016100ef565b90565b6100bb565b60018060a01b031690565b61015c90610148565b90565b61016881610153565b0361016f57565b5f80fd5b905051906101808261015f565b565b6080818303126101ef575f81015160018060401b0381116101ea57826101a9918301610125565b92602082015160018060401b0381116101e5576101cb846101e2928501610125565b936101d98160408601610173565b93606001610173565b90565b6100b7565b6100b7565b6100b3565b61021261319a803803806102078161009e565b928339810190610182565b90919293565b90565b90565b61023261022d61023792610218565b61021b565b610148565b90565b6102439061021e565b90565b5f0190565b90565b5f1b90565b61026761026261026c92610218565b61024e565b61024b565b90565b6102785f610253565b90565b7f65d7a28e3265b37a6474929f336521b332c1681b933f6cb9f3376673440d862a90565b7f189ab7a9244df0848122154315af71fe140f3db0fe014031783b0946b8c9d2e390565b7fede9dcdb0ce99dc7cec9c7be9246ad08b37853683ad91569c187b647ddf5e21c90565b60081b90565b90610300610100600160a81b03916102e7565b9181191691161790565b61031e61031961032392610148565b61021b565b610148565b90565b61032f9061030a565b90565b61033b90610326565b90565b90565b9061035661035161035d92610332565b61033e565b82546102ed565b9055565b9061036b91610487565b8061038661038061037b5f61023a565b610153565b91610153565b1461045f57816103a66103a061039b5f61023a565b610153565b91610153565b14610443576103f5906103c16103ba61026f565b82906107e5565b506103d46103cd61027b565b82906107e5565b506103e76103e061029f565b82906107e5565b506103f06102c3565b6107e5565b50610401816006610341565b61042b7f48919a8bb9d5ad92fa352adb62046eaabb006b67ba2fcf7566ed0879ab5a27c391610332565b9061043461004f565b8061043e81610246565b0390a2565b5f63d92e233d60e01b81528061045b60048201610246565b0390fd5b5f63d92e233d60e01b81528061047760048201610246565b0390fd5b61048490610326565b90565b906104919161049f565b61049a3061047b565b608052565b906104a9916104ab565b565b906104b5916104b7565b565b906104c1916104c3565b565b906104cd916104cf565b565b906104d9916104db565b565b906104e5916104e7565b565b906104f191610747565b565b5190565b634e487b7160e01b5f52602260045260245ffd5b906001600283049216801561052b575b602083101461052657565b6104f7565b91607f169161051b565b5f5260205f2090565b601f602091010490565b1b90565b919060086105679102916105615f1984610548565b92610548565b9181191691161790565b90565b61058861058361058d92610571565b61021b565b610571565b90565b90565b91906105a96105a46105b193610574565b610590565b90835461054c565b9055565b5f90565b6105cb916105c56105b5565b91610593565b565b5b8181106105d9575050565b806105e65f6001936105b9565b016105ce565b9190601f81116105fc575b505050565b61060861062d93610535565b9060206106148461053e565b83019310610635575b6106269061053e565b01906105cd565b5f80806105f7565b91506106268192905061061d565b1c90565b90610657905f1990600802610643565b191690565b8161066691610647565b906002021790565b90610678816104f3565b9060018060401b0382116107365761069a82610694855461050b565b856105ec565b602090601f83116001146106ce579180916106bd935f926106c2575b505061065c565b90555b565b90915001515f806106b6565b601f198316916106dd85610535565b925f5b81811061071e57509160029391856001969410610704575b505050020190556106c0565b610714910151601f841690610647565b90555f80806106f8565b919360206001819287870151815501950192016106e0565b610063565b906107459161066e565b565b9061075661075d92600361073b565b600461073b565b565b5f90565b151590565b6107719061024b565b90565b9061077e90610768565b5f5260205260405f2090565b9061079490610332565b5f5260205260405f2090565b906107ac60ff9161024e565b9181191691161790565b6107bf90610763565b90565b90565b906107da6107d56107e1926107b6565b6107c2565b82546107a0565b9055565b6107ed61075f565b506108026107fc8284906108bd565b15610763565b5f1461088b5761082a60016108255f61081d60058690610774565b01859061078a565b6107c5565b906108336108eb565b9061087061086a6108647f2f8788117e7eff1d82e926ec794901d17c78024a50270940304540a733656f0d95610768565b92610332565b92610332565b9261087961004f565b8061088381610246565b0390a4600190565b50505f90565b5f1c90565b60ff1690565b6108a86108ad91610891565b610896565b90565b6108ba905461089c565b90565b6108e4915f6108d96108df936108d161075f565b506005610774565b0161078a565b6108b0565b90565b5f90565b6108f36108e7565b50339056fe60806040526004361015610013575b610faf565b61001d5f3561022c565b806301ffc9a71461022757806306fdde0314610222578063095ea7b31461021d5780630c5a61f81461021857806318160ddd1461021357806323b872dd1461020e578063248a9ca3146102095780632f2ff15d14610204578063313ce567146101ff57806336568abe146101fa5780633f4ba83a146101f557806342966c68146101f057806348a490fb146101eb5780634f1ef286146101e657806352d1902d146101e15780635c975abb146101dc57806370a08231146101d757806379cc6790146101d2578063803db96d146101cd5780638456cb59146101c857806391d14854146101c357806395d89b41146101be578063a217fddf146101b9578063a65948a3146101b4578063a9059cbb146101af578063ad3cb1cc146101aa578063d5391393146101a5578063d547741f146101a0578063dd62ed3e1461019b578063e63ab1e914610196578063ebdf690f14610191578063f72c0d8b1461018c5763fd99b9220361000e57610f7b565b610eb9565b610e55565b610df1565b610d8c565b610d2b565b610cf6565b610c92565b610bc1565b610b8e565b610b59565b610ae9565b610ab3565b610a80565b610a4b565b6109b0565b61097b565b610946565b610911565b6108e7565b61078d565b61075a565b610709565b6106d5565b6106a0565b610644565b6105e2565b610546565b6104d7565b610482565b610429565b610367565b6102b8565b60e01c90565b60405190565b5f80fd5b5f80fd5b5f80fd5b63ffffffff60e01b1690565b61025981610244565b0361026057565b5f80fd5b9050359061027182610250565b565b9060208282031261028c57610289915f01610264565b90565b61023c565b151590565b61029f90610291565b9052565b91906102b6905f60208501940190610296565b565b346102e8576102e46102d36102ce366004610273565b610fb7565b6102db610232565b918291826102a3565b0390f35b610238565b5f9103126102f757565b61023c565b5190565b60209181520190565b90825f9392825e0152565b601f801991011690565b61033d61034660209361034b93610334816102fc565b93848093610300565b95869101610309565b610314565b0190565b6103649160208201915f81840391015261031e565b90565b34610397576103773660046102ed565b610393610382611113565b61038a610232565b9182918261034f565b0390f35b610238565b60018060a01b031690565b6103b09061039c565b90565b6103bc816103a7565b036103c357565b5f80fd5b905035906103d4826103b3565b565b90565b6103e2816103d6565b036103e957565b5f80fd5b905035906103fa826103d9565b565b91906040838203126104245780610418610421925f86016103c7565b936020016103ed565b90565b61023c565b3461045a5761045661044561043f3660046103fc565b90611129565b61044d610232565b918291826102a3565b0390f35b610238565b9060208282031261047857610475915f016103c7565b90565b61023c565b5f0190565b346104b05761049a61049536600461045f565b611294565b6104a2610232565b806104ac8161047d565b0390f35b610238565b6104be906103d6565b9052565b91906104d5905f602085019401906104b5565b565b34610507576104e73660046102ed565b6105036104f26112cc565b6104fa610232565b918291826104c2565b0390f35b610238565b90916060828403126105415761053e610527845f85016103c7565b9361053581602086016103c7565b936040016103ed565b90565b61023c565b346105775761057361056261055c36600461050c565b916112e2565b61056a610232565b918291826102a3565b0390f35b610238565b90565b6105888161057c565b0361058f57565b5f80fd5b905035906105a08261057f565b565b906020828203126105bb576105b8915f01610593565b90565b61023c565b6105c99061057c565b9052565b91906105e0905f602085019401906105c0565b565b346106125761060e6105fd6105f83660046105a2565b61135b565b610605610232565b918291826105cd565b0390f35b610238565b919060408382031261063f578061063361063c925f8601610593565b936020016103c7565b90565b61023c565b346106735761065d610657366004610617565b906113a7565b610665610232565b8061066f8161047d565b0390f35b610238565b60ff1690565b61068790610678565b9052565b919061069e905f6020850194019061067e565b565b346106d0576106b03660046102ed565b6106cc6106bb6113d6565b6106c3610232565b9182918261068b565b0390f35b610238565b34610704576106ee6106e8366004610617565b906113ec565b6106f6610232565b806107008161047d565b0390f35b610238565b34610737576107193660046102ed565b610721611458565b610729610232565b806107338161047d565b0390f35b610238565b9060208282031261075557610752915f016103ed565b90565b61023c565b346107885761077261076d36600461073c565b611462565b61077a610232565b806107848161047d565b0390f35b610238565b346107bc576107a66107a03660046103fc565b906115e6565b6107ae610232565b806107b88161047d565b0390f35b610238565b5f80fd5b5f80fd5b634e487b7160e01b5f52604160045260245ffd5b906107e790610314565b810190811067ffffffffffffffff82111761080157604052565b6107c9565b90610819610812610232565b92836107dd565b565b67ffffffffffffffff811161083957610835602091610314565b0190565b6107c9565b90825f939282370152565b9092919261085e6108598261081b565b610806565b9381855260208501908284011161087a576108789261083e565b565b6107c5565b9080601f8301121561089d5781602061089a93359101610849565b90565b6107c1565b9190916040818403126108e2576108bb835f83016103c7565b92602082013567ffffffffffffffff81116108dd576108da920161087f565b90565b610240565b61023c565b6108fb6108f53660046108a2565b9061161b565b610903610232565b8061090d8161047d565b0390f35b34610941576109213660046102ed565b61093d61092c611692565b610934610232565b918291826105cd565b0390f35b610238565b34610976576109563660046102ed565b6109726109616116cc565b610969610232565b918291826102a3565b0390f35b610238565b346109ab576109a761099661099136600461045f565b6116f8565b61099e610232565b918291826104c2565b0390f35b610238565b346109df576109c96109c33660046103fc565b90611716565b6109d1610232565b806109db8161047d565b0390f35b610238565b1c90565b60018060a01b031690565b610a03906008610a0893026109e4565b6109e8565b90565b90610a1691546109f3565b90565b610a266006600190610a0b565b90565b610a32906103a7565b9052565b9190610a49905f60208501940190610a29565b565b34610a7b57610a5b3660046102ed565b610a77610a66610a19565b610a6e610232565b91829182610a36565b0390f35b610238565b34610aae57610a903660046102ed565b610a98611759565b610aa0610232565b80610aaa8161047d565b0390f35b610238565b34610ae457610ae0610acf610ac9366004610617565b90611779565b610ad7610232565b918291826102a3565b0390f35b610238565b34610b1957610af93660046102ed565b610b15610b046117a3565b610b0c610232565b9182918261034f565b0390f35b610238565b90565b5f1b90565b610b3a610b35610b3f92610b1e565b610b21565b61057c565b90565b610b4b5f610b26565b90565b610b56610b42565b90565b34610b8957610b693660046102ed565b610b85610b74610b4e565b610b7c610232565b918291826105cd565b0390f35b610238565b34610bbc57610ba6610ba136600461073c565b61182e565b610bae610232565b80610bb88161047d565b0390f35b610238565b34610bf257610bee610bdd610bd73660046103fc565b90611839565b610be5610232565b918291826102a3565b0390f35b610238565b67ffffffffffffffff8111610c1557610c11602091610314565b0190565b6107c9565b90610c2c610c2783610bf7565b610806565b918252565b5f7f352e302e30000000000000000000000000000000000000000000000000000000910152565b610c626005610c1a565b90610c6f60208301610c31565b565b610c79610c58565b90565b610c84610c71565b90565b610c8f610c7c565b90565b34610cc257610ca23660046102ed565b610cbe610cad610c87565b610cb5610232565b9182918261034f565b0390f35b610238565b7f9f2df0fed2c77648de5860a4cc508cd0818c85b8b8a1ab4ceeef8d981c8956a690565b610cf3610cc7565b90565b34610d2657610d063660046102ed565b610d22610d11610ceb565b610d19610232565b918291826105cd565b0390f35b610238565b34610d5a57610d44610d3e366004610617565b90611885565b610d4c610232565b80610d568161047d565b0390f35b610238565b9190604083820312610d875780610d7b610d84925f86016103c7565b936020016103c7565b90565b61023c565b34610dbd57610db9610da8610da2366004610d5f565b906118a7565b610db0610232565b918291826104c2565b0390f35b610238565b7f65d7a28e3265b37a6474929f336521b332c1681b933f6cb9f3376673440d862a90565b610dee610dc2565b90565b34610e2157610e013660046102ed565b610e1d610e0c610de6565b610e14610232565b918291826105cd565b0390f35b610238565b7fede9dcdb0ce99dc7cec9c7be9246ad08b37853683ad91569c187b647ddf5e21c90565b610e52610e26565b90565b34610e8557610e653660046102ed565b610e81610e70610e4a565b610e78610232565b918291826105cd565b0390f35b610238565b7f189ab7a9244df0848122154315af71fe140f3db0fe014031783b0946b8c9d2e390565b610eb6610e8a565b90565b34610ee957610ec93660046102ed565b610ee5610ed4610eae565b610edc610232565b918291826105cd565b0390f35b610238565b5f80fd5b5f80fd5b909182601f83011215610f305781359167ffffffffffffffff8311610f2b576020019260018302840111610f2657565b610ef2565b610eee565b6107c1565b919091604081840312610f7657610f4e835f83016103ed565b92602082013567ffffffffffffffff8111610f7157610f6d9201610ef6565b9091565b610240565b61023c565b34610faa57610f94610f8e366004610f35565b91611a32565b610f9c610232565b80610fa68161047d565b0390f35b610238565b5f80fd5b5f90565b610fbf610fb3565b5080610fda610fd4637965db0b60e01b610244565b91610244565b14908115610fe7575b5090565b610ff19150611a3f565b5f610fe3565b606090565b634e487b7160e01b5f52602260045260245ffd5b9060016002830492168015611030575b602083101461102b57565b610ffc565b91607f1691611020565b60209181520190565b5f5260205f2090565b905f929180549061106661105f83611010565b809461103a565b916001811690815f146110bd5750600114611081575b505050565b61108e9192939450611043565b915f925b8184106110a557505001905f808061107c565b60018160209295939554848601520191019290611092565b92949550505060ff19168252151560200201905f808061107c565b906110e29161104c565b90565b906111056110fe926110f5610232565b938480926110d8565b03836107dd565b565b611110906110e5565b90565b61111b610ff7565b506111266003611107565b90565b61114691611135610fb3565b5061113e611a69565b919091611a76565b600190565b6111649061115f61115a610b42565b611a86565b61120b565b565b90565b61117d61117861118292610b1e565b611166565b61039c565b90565b61118e90611169565b90565b60081b90565b906111aa610100600160a81b0391611191565b9181191691161790565b6111c86111c36111cd9261039c565b611166565b61039c565b90565b6111d9906111b4565b90565b6111e5906111d0565b90565b90565b906112006111fb611207926111dc565b6111e8565b8254611197565b9055565b8061122661122061121b5f611185565b6103a7565b916103a7565b14611278576112368160066111eb565b6112607f48919a8bb9d5ad92fa352adb62046eaabb006b67ba2fcf7566ed0879ab5a27c3916111dc565b90611269610232565b806112738161047d565b0390a2565b5f63d92e233d60e01b8152806112906004820161047d565b0390fd5b61129d9061114b565b565b5f90565b5f1c90565b90565b6112b76112bc916112a3565b6112a8565b90565b6112c990546112ab565b90565b6112d461129f565b506112df60026112bf565b90565b9161130c926112ef610fb3565b506113046112fb611a69565b82908491611ada565b919091611b66565b600190565b5f90565b61131e9061057c565b90565b9061132b90611315565b5f5260205260405f2090565b90565b61134661134b916112a3565b611337565b90565b611358905461133a565b90565b600161137461137a9261136c611311565b506005611321565b0161134e565b90565b906113989161139361138e8261135b565b611a86565b61139a565b565b906113a491611c48565b50565b906113b19161137d565b565b5f90565b90565b6113ce6113c96113d3926113b7565b611166565b610678565b90565b6113de6113b3565b506113e960036113ba565b90565b90806114076114016113fc611a69565b6103a7565b916103a7565b036114185761141591611cf4565b50565b5f63334bd91960e11b8152806114306004820161047d565b0390fd5b61144461143f610dc2565b611a86565b61144c61144e565b565b611456611df6565b565b611460611434565b565b6114739061146e611a69565b611e00565b565b9061148791611482611e5f565b611489565b565b906114ac6114a6611498610e26565b6114a0611a69565b90611779565b15610291565b6114bb576114b99161151a565b565b5f639a03048360e01b8152806114d36004820161047d565b0390fd5b6114eb6114e66114f092610b1e565b611166565b6103d6565b90565b60081c90565b61150561150a916114f3565b6109e8565b90565b61151790546114f9565b90565b8061153561152f61152a5f611185565b6103a7565b916103a7565b146115ca578161154d6115475f6114d7565b916103d6565b146115ab5761156761155f600661150d565b828491611b66565b6115a66115947f0e0155fc4999bbb125969d44fd6a09db6b8682e20c096fe64f43c010ec14e1be926111dc565b9261159d610232565b918291826104c2565b0390a2565b6115c6825f918291633728b83d60e01b8352600483016104c2565b0390fd5b5f63d92e233d60e01b8152806115e26004820161047d565b0390fd5b906115f091611475565b565b90611604916115ff611e95565b611606565b565b906116199161161481611f4f565b611fb1565b565b90611625916115f2565b565b611638906116336120af565b611686565b90565b90565b61165261164d6116579261163b565b610b21565b61057c565b90565b6116837f360894a13ba1a3210667c828492db98dca3e2076cc3735a920a3ca505d382bbc61163e565b90565b5061168f61165a565b90565b6116a261169d611311565b611627565b90565b60ff1690565b6116b76116bc916112a3565b6116a5565b90565b6116c990546116ab565b90565b6116d4610fb3565b506116df60066116bf565b90565b906116ec906111dc565b5f5260205260405f2090565b61170e6117139161170761129f565b505f6116e2565b6112bf565b90565b906117339161172e81611727611a69565b8491611ada565b611e00565b565b611745611740610dc2565b611a86565b61174d61174f565b565b61175761216e565b565b611761611735565b565b9061176d906111dc565b5f5260205260405f2090565b6117a0915f61179561179b9361178d610fb3565b506005611321565b01611763565b6116bf565b90565b6117ab610ff7565b506117b66004611107565b90565b6117ca906117c5611e5f565b6117cc565b565b6117ee6117e86117da610cc7565b6117e2611a69565b90611779565b15610291565b6117fd576117fb90611819565b565b5f632f771b3d60e11b8152806118156004820161047d565b0390fd5b61182c90611827600661150d565b612178565b565b611837906117b9565b565b61185691611845610fb3565b5061184e611a69565b919091611b66565b600190565b906118769161187161186c8261135b565b611a86565b611878565b565b9061188291611cf4565b50565b9061188f9161185b565b565b9061189b906111dc565b5f5260205260405f2090565b6118cc916118c26118c7926118ba61129f565b506001611891565b6116e2565b6112bf565b90565b906118e292916118dd611e5f565b6118e4565b565b91906119086119026118f4610e26565b6118fc611a69565b90611779565b15610291565b611917576119159261198a565b565b5f639a03048360e01b81528061192f6004820161047d565b0390fd5b61193c906111d0565b90565b9190611959816119528161195e95610300565b809561083e565b610314565b0190565b9161198793919261197a60408201945f8301906104b5565b602081850391015261193f565b90565b919091806119a061199a5f6114d7565b916103d6565b14611a13576119c26119b2600661150d565b6119bb30611933565b8391611b66565b6119d56119ce30611933565b8290611e00565b919091611a0e7f74866c3dadb39b6f358b192f40eca4a6ffef6e13b51dceb59b483ed56a01731d93611a05610232565b93849384611962565b0390a1565b611a2e905f918291633728b83d60e01b8352600483016104c2565b0390fd5b90611a3d92916118cf565b565b611a47610fb3565b50611a61611a5b6301ffc9a760e01b610244565b91610244565b1490565b5f90565b611a71611a65565b503390565b91611a84929160019261222b565b565b611a9890611a92611a69565b9061235d565b565b604090611ac3611aca9496959396611ab960608401985f850190610a29565b60208301906104b5565b01906104b5565b565b90611ad791036103d6565b90565b929192611ae88183906118a7565b9081611afd611af75f196103d6565b916103d6565b10611b0a575b5050509050565b81611b1d611b17876103d6565b916103d6565b10611b4357611b3a9394611b32919392611acc565b905f9261222b565b805f8080611b03565b50611b62849291925f938493637dc7a0d960e11b855260048501611a9a565b0390fd5b9182611b82611b7c611b775f611185565b6103a7565b916103a7565b14611bdc5781611ba2611b9c611b975f611185565b6103a7565b916103a7565b14611bb557611bb392919091612398565b565b611bd8611bc15f611185565b5f91829163ec442f0560e01b835260048301610a36565b0390fd5b611bff611be85f611185565b5f918291634b637e8f60e11b835260048301610a36565b0390fd5b90611c0f60ff91610b21565b9181191691161790565b611c2290610291565b90565b90565b90611c3d611c38611c4492611c19565b611c25565b8254611c03565b9055565b611c50610fb3565b50611c65611c5f828490611779565b15610291565b5f14611cee57611c8d6001611c885f611c8060058690611321565b018590611763565b611c28565b90611c96611a69565b90611cd3611ccd611cc77f2f8788117e7eff1d82e926ec794901d17c78024a50270940304540a733656f0d95611315565b926111dc565b926111dc565b92611cdc610232565b80611ce68161047d565b0390a4600190565b50505f90565b611cfc610fb3565b50611d08818390611779565b5f14611d9057611d2f5f611d2a5f611d2260058690611321565b018590611763565b611c28565b90611d38611a69565b90611d75611d6f611d697ff6391f5c32d9c69d2a47ea670b442974b53935d1edc7fd64eb21e047a839171b95611315565b926111dc565b926111dc565b92611d7e610232565b80611d888161047d565b0390a4600190565b50505f90565b611d9e6123a7565b611da6611da8565b565b611db35f6006611c28565b611dbb611a69565b611df17f5db9ee0a495bf2e6ff9c91a7834c1ba4fdd244a5e8aa4e537bd38aeae4b073aa91611de8610232565b91829182610a36565b0390a1565b611dfe611d96565b565b9081611e1c611e16611e115f611185565b6103a7565b916103a7565b14611e3857611e369190611e2f5f611185565b9091612398565b565b611e5b611e445f611185565b5f918291634b637e8f60e11b835260048301610a36565b0390fd5b611e676116cc565b611e6d57565b5f63d93c066560e01b815280611e856004820161047d565b0390fd5b611e92906111d0565b90565b611e9e30611e89565b611ed0611eca7f00000000000000000000000000000000000000000000000000000000000000006103a7565b916103a7565b148015611efa575b611ede57565b5f63703e46dd60e11b815280611ef66004820161047d565b0390fd5b50611f036123fb565b611f35611f2f7f00000000000000000000000000000000000000000000000000000000000000006103a7565b916103a7565b1415611ed8565b50611f4d611f48610e8a565b611a86565b565b611f5890611f3c565b565b611f63906111b4565b90565b611f6f90611f5a565b90565b611f7b906111d0565b90565b60e01b90565b90505190611f918261057f565b565b90602082820312611fac57611fa9915f01611f84565b90565b61023c565b9190611fdf6020611fc9611fc486611f66565b611f72565b6352d1902d90611fd7610232565b938492611f7e565b82528180611fef6004820161047d565b03915afa80915f9261207f575b50155f1461203057505090600161201157505b565b61202c905f918291634c9c8ce360e01b835260048301610a36565b0390fd5b928361204b61204561204061165a565b61057c565b9161057c565b036120605761205b929350612425565b61200f565b61207b845f918291632a87526960e21b8352600483016105cd565b0390fd5b6120a191925060203d81116120a8575b61209981836107dd565b810190611f93565b905f611ffc565b503d61208f565b6120b830611e89565b6120ea6120e47f00000000000000000000000000000000000000000000000000000000000000006103a7565b916103a7565b036120f157565b5f63703e46dd60e11b8152806121096004820161047d565b0390fd5b612115611e5f565b61211d61211f565b565b61212b60016006611c28565b612133611a69565b6121697f62e78cea01bee320cd4e420270b5ea74000d11b0c9f74754ebdbfc544b05a25891612160610232565b91829182610a36565b0390a1565b61217661210d565b565b8061219361218d6121885f611185565b6103a7565b916103a7565b146121af576121ad916121a55f611185565b919091612398565b565b6121d26121bb5f611185565b5f91829163ec442f0560e01b835260048301610a36565b0390fd5b906121e25f1991610b21565b9181191691161790565b6122006121fb612205926103d6565b611166565b6103d6565b90565b90565b9061222061221b612227926121ec565b612208565b82546121d6565b9055565b90928161224861224261223d5f611185565b6103a7565b916103a7565b14612313578361226861226261225d5f611185565b6103a7565b916103a7565b146122ec5761228c8361228761228060018690611891565b87906116e2565b61220b565b612296575b505050565b9190916122e16122cf6122c97f8c5be1e5ebec7d5bd14f71427d1e84f3dd0314c0f7b2291e5b200ac8c7c3b925936111dc565b936111dc565b936122d8610232565b918291826104c2565b0390a35f8080612291565b61230f6122f85f611185565b5f918291634a1406b160e11b835260048301610a36565b0390fd5b61233661231f5f611185565b5f91829163e602df0560e01b835260048301610a36565b0390fd5b91602061235b92949361235460408201965f830190610a29565b01906105c0565b565b9061237261236c838390611779565b15610291565b61237a575050565b6123945f92839263e2517d3f60e01b84526004840161233a565b0390fd5b916123a5929190916124f5565b565b6123b86123b26116cc565b15610291565b6123be57565b5f638dfc202b60e01b8152806123d66004820161047d565b0390fd5b6123e66123eb916112a3565b6109e8565b90565b6123f890546123da565b90565b612403611a65565b5061241e5f61241861241361165a565b612664565b016123ee565b90565b5190565b9061242f826126a2565b8161245a7fbc7cd75a20ee27fd9adebab32041f755214dbc6bffa90cc0225b39da2e5c2d3b916111dc565b90612463610232565b8061246d8161047d565b0390a261247981612421565b61248b6124855f6114d7565b916103d6565b115f1461249f5761249b91612772565b505b565b50506124a96126f7565b61249d565b634e487b7160e01b5f52601160045260245ffd5b6124d16124d7919392936103d6565b926103d6565b82018092116124e257565b6124ae565b906124f291016103d6565b90565b9190918061251361250d6125085f611185565b6103a7565b916103a7565b145f146125f4576125376125308361252b60026112bf565b6124c2565b600261220b565b5b8261255361254d6125485f611185565b6103a7565b916103a7565b145f146125c8576125776125708361256b60026112bf565b611acc565b600261220b565b5b9190916125c36125b16125ab7fddf252ad1be2c89b69c2b068fc378daa952ba7f163c4a11628f55a4df523b3ef936111dc565b936111dc565b936125ba610232565b918291826104c2565b0390a3565b6125ef826125e96125da5f87906116e2565b916125e4836112bf565b6124e7565b9061220b565b612578565b6126076126025f83906116e2565b6112bf565b8061261a612614856103d6565b916103d6565b106126425761262d61263d918490611acc565b6126385f84906116e2565b61220b565b612538565b906126609091925f93849363391434e360e21b855260048501611a9a565b0390fd5b90565b9061267860018060a01b0391610b21565b9181191691161790565b9061269761269261269e926111dc565b6111e8565b8254612667565b9055565b803b6126b66126b05f6114d7565b916103d6565b146126d8576126d6905f6126d06126cb61165a565b612664565b01612682565b565b6126f3905f918291634c9c8ce360e01b835260048301610a36565b0390fd5b3461270a6127045f6114d7565b916103d6565b1161271157565b5f63b398979f60e01b8152806127296004820161047d565b0390fd5b606090565b9061274461273f8361081b565b610806565b918252565b3d5f14612764576127593d612732565b903d5f602084013e5b565b61276c61272d565b90612762565b5f8061279e9361278061272d565b508390602081019051915af490612795612749565b909190916127a1565b90565b906127b5906127ae61272d565b5015610291565b5f146127c15750612825565b6127ca82612421565b6127dc6127d65f6114d7565b916103d6565b148061280a575b6127eb575090565b612806905f918291639996b31560e01b835260048301610a36565b0390fd5b50803b61281f6128195f6114d7565b916103d6565b146127e3565b61282e81612421565b61284061283a5f6114d7565b916103d6565b115f1461284f57805190602001fd5b5f63d6bda27560e01b8152806128676004820161047d565b0390fdfea2646970667358221220e90ee2a8bcca647d5d5c19a4014fefd2457dfc71c791ecd07aa19ead1d14542c64736f6c634300081a0033",
    "linkReferences": {}
  },
  "methodIdentifiers": {
    "DEFAULT_ADMIN_ROLE()": "a217fddf",
    "MINTER_ROLE()": "d5391393",
    "PAUSER_ROLE()": "e63ab1e9",
    "TREASURY_MANAGER_ROLE()": "ebdf690f",
    "UPGRADER_ROLE()": "f72c0d8b",
    "UPGRADE_INTERFACE_VERSION()": "ad3cb1cc",
    "allowance(address,address)": "dd62ed3e",
    "approve(address,uint256)": "095ea7b3",
    "balanceOf(address)": "70a08231",
    "burn(uint256)": "42966c68",
    "burnFrom(address,uint256)": "79cc6790",
    "decimals()": "313ce567",
    "getRoleAdmin(bytes32)": "248a9ca3",
    "grantRole(bytes32,address)": "2f2ff15d",
    "hasRole(bytes32,address)": "91d14854",
    "mintToTreasury(uint256)": "a65948a3",
    "name()": "06fdde03",
    "pause()": "8456cb59",
    "paused()": "5c975abb",
    "protocolTreasury()": "803db96d",
    "proxiableUUID()": "52d1902d",
    "renounceRole(bytes32,address)": "36568abe",
    "retireFromTreasury(uint256,string)": "fd99b922",
    "revokeRole(bytes32,address)": "d547741f",
    "setProtocolTreasury(address)": "0c5a61f8",
    "supportsInterface(bytes4)": "01ffc9a7",
    "symbol()": "95d89b41",
    "totalSupply()": "18160ddd",
    "transfer(address,uint256)": "a9059cbb",
    "transferFrom(address,address,uint256)": "23b872dd",
    "transferFromTreasury(address,uint256)": "48a490fb",
    "unpause()": "3f4ba83a",
    "upgradeToAndCall(address,bytes)": "4f1ef286"
  },
  "id": 52
}