{
  "abi": [
    {
      "type": "constructor",
      "inputs": [
        {
          "name": "_carbonCreditToken",
          "type": "address",
          "internalType": "address"
        },
        {
          "name": "_rewardDistributor",
          "type": "address",
          "internalType": "address"
        },
        {
          "name": "_usdcToken",
          "type": "address",
          "internalType": "address"
        },
        {
          "name": "_initialAdmin",
          "type": "address",
          "internalType": "address"
        },
        {
          "name": "_initialExchangeRate",
          "type": "uint256",
          "internalType": "uint256"
        },
        {
          "name": "_initialProtocolFee",
          "type": "uint256",
          "internalType": "uint256"
        },
        {
          "name": "_initialRewardDistributorPercentage",
          "type": "uint256",
          "internalType": "uint256"
        }
      ],
      "stateMutability": "nonpayable"
    },
    {
      "type": "function",
      "name": "DEFAULT_ADMIN_ROLE",
      "inputs": [],
      "outputs": [
        {
          "name": "",
          "type": "bytes32",
          "internalType": "bytes32"
        }
      ],
      "stateMutability": "view"
    },
    {
      "type": "function",
      "name": "EXCHANGE_MANAGER_ROLE",
      "inputs": [],
      "outputs": [
        {
          "name": "",
          "type": "bytes32",
          "internalType": "bytes32"
        }
      ],
      "stateMutability": "view"
    },
    {
      "type": "function",
      "name": "PAUSER_ROLE",
      "inputs": [],
      "outputs": [
        {
          "name": "",
          "type": "bytes32",
          "internalType": "bytes32"
        }
      ],
      "stateMutability": "view"
    },
    {
      "type": "function",
      "name": "RATE_SETTER_ROLE",
      "inputs": [],
      "outputs": [
        {
          "name": "",
          "type": "bytes32",
          "internalType": "bytes32"
        }
      ],
      "stateMutability": "view"
    },
    {
      "type": "function",
      "name": "REWARD_DEPOSITOR_ROLE",
      "inputs": [],
      "outputs": [
        {
          "name": "",
          "type": "bytes32",
          "internalType": "bytes32"
        }
      ],
      "stateMutability": "view"
    },
    {
      "type": "function",
      "name": "UPGRADER_ROLE",
      "inputs": [],
      "outputs": [
        {
          "name": "",
          "type": "bytes32",
          "internalType": "bytes32"
        }
      ],
      "stateMutability": "view"
    },
    {
      "type": "function",
      "name": "UPGRADE_INTERFACE_VERSION",
      "inputs": [],
      "outputs": [
        {
          "name": "",
          "type": "string",
          "internalType": "string"
        }
      ],
      "stateMutability": "view"
    },
    {
      "type": "function",
      "name": "carbonCreditToken",
      "inputs": [],
      "outputs": [
        {
          "name": "",
          "type": "address",
          "internalType": "contract ICarbonCreditToken"
        }
      ],
      "stateMutability": "view"
    },
    {
      "type": "function",
      "name": "exchangeCreditsForUSDC",
      "inputs": [
        {
          "name": "creditAmount",
          "type": "uint256",
          "internalType": "uint256"
        }
      ],
      "outputs": [],
      "stateMutability": "nonpayable"
    },
    {
      "type": "function",
      "name": "exchangeEnabled",
      "inputs": [],
      "outputs": [
        {
          "name": "",
          "type": "bool",
          "internalType": "bool"
        }
      ],
      "stateMutability": "view"
    },
    {
      "type": "function",
      "name": "exchangeRate",
      "inputs": [],
      "outputs": [
        {
          "name": "",
          "type": "uint256",
          "internalType": "uint256"
        }
      ],
      "stateMutability": "view"
    },
    {
      "type": "function",
      "name": "getRoleAdmin",
      "inputs": [
        {
          "name": "role",
          "type": "bytes32",
          "internalType": "bytes32"
        }
      ],
      "outputs": [
        {
          "name": "",
          "type": "bytes32",
          "internalType": "bytes32"
        }
      ],
      "stateMutability": "view"
    },
    {
      "type": "function",
      "name": "grantRole",
      "inputs": [
        {
          "name": "role",
          "type": "bytes32",
          "internalType": "bytes32"
        },
        {
          "name": "account",
          "type": "address",
          "internalType": "address"
        }
      ],
      "outputs": [],
      "stateMutability": "nonpayable"
    },
    {
      "type": "function",
      "name": "hasRole",
      "inputs": [
        {
          "name": "role",
          "type": "bytes32",
          "internalType": "bytes32"
        },
        {
          "name": "account",
          "type": "address",
          "internalType": "address"
        }
      ],
      "outputs": [
        {
          "name": "",
          "type": "bool",
          "internalType": "bool"
        }
      ],
      "stateMutability": "view"
    },
    {
      "type": "function",
      "name": "pause",
      "inputs": [],
      "outputs": [],
      "stateMutability": "nonpayable"
    },
    {
      "type": "function",
      "name": "paused",
      "inputs": [],
      "outputs": [
        {
          "name": "",
          "type": "bool",
          "internalType": "bool"
        }
      ],
      "stateMutability": "view"
    },
    {
      "type": "function",
      "name": "protocolFeePercentage",
      "inputs": [],
      "outputs": [
        {
          "name": "",
          "type": "uint256",
          "internalType": "uint256"
        }
      ],
      "stateMutability": "view"
    },
    {
      "type": "function",
      "name": "proxiableUUID",
      "inputs": [],
      "outputs": [
        {
          "name": "",
          "type": "bytes32",
          "internalType": "bytes32"
        }
      ],
      "stateMutability": "view"
    },
    {
      "type": "function",
      "name": "renounceRole",
      "inputs": [
        {
          "name": "role",
          "type": "bytes32",
          "internalType": "bytes32"
        },
        {
          "name": "callerConfirmation",
          "type": "address",
          "internalType": "address"
        }
      ],
      "outputs": [],
      "stateMutability": "nonpayable"
    },
    {
      "type": "function",
      "name": "revokeRole",
      "inputs": [
        {
          "name": "role",
          "type": "bytes32",
          "internalType": "bytes32"
        },
        {
          "name": "account",
          "type": "address",
          "internalType": "address"
        }
      ],
      "outputs": [],
      "stateMutability": "nonpayable"
    },
    {
      "type": "function",
      "name": "rewardDistributor",
      "inputs": [],
      "outputs": [
        {
          "name": "",
          "type": "address",
          "internalType": "contract IRewardDistributor"
        }
      ],
      "stateMutability": "view"
    },
    {
      "type": "function",
      "name": "rewardDistributorPercentage",
      "inputs": [],
      "outputs": [
        {
          "name": "",
          "type": "uint256",
          "internalType": "uint256"
        }
      ],
      "stateMutability": "view"
    },
    {
      "type": "function",
      "name": "setExchangeEnabled",
      "inputs": [
        {
          "name": "_enabled",
          "type": "bool",
          "internalType": "bool"
        }
      ],
      "outputs": [],
      "stateMutability": "nonpayable"
    },
    {
      "type": "function",
      "name": "setExchangeRate",
      "inputs": [
        {
          "name": "_newRate",
          "type": "uint256",
          "internalType": "uint256"
        }
      ],
      "outputs": [],
      "stateMutability": "nonpayable"
    },
    {
      "type": "function",
      "name": "setProtocolFee",
      "inputs": [
        {
          "name": "_newFeePercentage",
          "type": "uint256",
          "internalType": "uint256"
        }
      ],
      "outputs": [],
      "stateMutability": "nonpayable"
    },
    {
      "type": "function",
      "name": "setRewardDistributorPercentage",
      "inputs": [
        {
          "name": "_newPercentage",
          "type": "uint256",
          "internalType": "uint256"
        }
      ],
      "outputs": [],
      "stateMutability": "nonpayable"
    },
    {
      "type": "function",
      "name": "setUSDCToken",
      "inputs": [
        {
          "name": "_newUsdcToken",
          "type": "address",
          "internalType": "address"
        }
      ],
      "outputs": [],
      "stateMutability": "nonpayable"
    },
    {
      "type": "function",
      "name": "supportsInterface",
      "inputs": [
        {
          "name": "interfaceId",
          "type": "bytes4",
          "internalType": "bytes4"
        }
      ],
      "outputs": [
        {
          "name": "",
          "type": "bool",
          "internalType": "bool"
        }
      ],
      "stateMutability": "view"
    },
    {
      "type": "function",
      "name": "totalCreditsExchanged",
      "inputs": [],
      "outputs": [
        {
          "name": "",
          "type": "uint256",
          "internalType": "uint256"
        }
      ],
      "stateMutability": "view"
    },
    {
      "type": "function",
      "name": "totalProtocolFees",
      "inputs": [],
      "outputs": [
        {
          "name": "",
          "type": "uint256",
          "internalType": "uint256"
        }
      ],
      "stateMutability": "view"
    },
    {
      "type": "function",
      "name": "totalRewardsFunded",
      "inputs": [],
      "outputs": [
        {
          "name": "",
          "type": "uint256",
          "internalType": "uint256"
        }
      ],
      "stateMutability": "view"
    },
    {
      "type": "function",
      "name": "totalUsdcCollected",
      "inputs": [],
      "outputs": [
        {
          "name": "",
          "type": "uint256",
          "internalType": "uint256"
        }
      ],
      "stateMutability": "view"
    },
    {
      "type": "function",
      "name": "unpause",
      "inputs": [],
      "outputs": [],
      "stateMutability": "nonpayable"
    },
    {
      "type": "function",
      "name": "upgradeToAndCall",
      "inputs": [
        {
          "name": "newImplementation",
          "type": "address",
          "internalType": "address"
        },
        {
          "name": "data",
          "type": "bytes",
          "internalType": "bytes"
        }
      ],
      "outputs": [],
      "stateMutability": "payable"
    },
    {
      "type": "function",
      "name": "usdcToken",
      "inputs": [],
      "outputs": [
        {
          "name": "",
          "type": "address",
          "internalType": "contract IERC20"
        }
      ],
      "stateMutability": "view"
    },
    {
      "type": "event",
      "name": "CreditsExchanged",
      "inputs": [
        {
          "name": "user",
          "type": "address",
          "indexed": true,
          "internalType": "address"
        },
        {
          "name": "creditAmount",
          "type": "uint256",
          "indexed": false,
          "internalType": "uint256"
        },
        {
          "name": "usdcAmount",
          "type": "uint256",
          "indexed": false,
          "internalType": "uint256"
        },
        {
          "name": "feeAmount",
          "type": "uint256",
          "indexed": false,
          "internalType": "uint256"
        }
      ],
      "anonymous": false
    },
    {
      "type": "event",
      "name": "ExchangeRateSet",
      "inputs": [
        {
          "name": "oldRate",
          "type": "uint256",
          "indexed": false,
          "internalType": "uint256"
        },
        {
          "name": "newRate",
          "type": "uint256",
          "indexed": false,
          "internalType": "uint256"
        }
      ],
      "anonymous": false
    },
    {
      "type": "event",
      "name": "ExchangeStatusChanged",
      "inputs": [
        {
          "name": "enabled",
          "type": "bool",
          "indexed": false,
          "internalType": "bool"
        }
      ],
      "anonymous": false
    },
    {
      "type": "event",
      "name": "Paused",
      "inputs": [
        {
          "name": "account",
          "type": "address",
          "indexed": false,
          "internalType": "address"
        }
      ],
      "anonymous": false
    },
    {
      "type": "event",
      "name": "ProtocolFeeSet",
      "inputs": [
        {
          "name": "oldFee",
          "type": "uint256",
          "indexed": false,
          "internalType": "uint256"
        },
        {
          "name": "newFee",
          "type": "uint256",
          "indexed": false,
          "internalType": "uint256"
        }
      ],
      "anonymous": false
    },
    {
      "type": "event",
      "name": "RewardDistributorPercentageSet",
      "inputs": [
        {
          "name": "oldPercentage",
          "type": "uint256",
          "indexed": false,
          "internalType": "uint256"
        },
        {
          "name": "newPercentage",
          "type": "uint256",
          "indexed": false,
          "internalType": "uint256"
        }
      ],
      "anonymous": false
    },
    {
      "type": "event",
      "name": "RewardsPoolFunded",
      "inputs": [
        {
          "name": "amount",
          "type": "uint256",
          "indexed": false,
          "internalType": "uint256"
        }
      ],
      "anonymous": false
    },
    {
      "type": "event",
      "name": "RoleAdminChanged",
      "inputs": [
        {
          "name": "role",
          "type": "bytes32",
          "indexed": true,
          "internalType": "bytes32"
        },
        {
          "name": "previousAdminRole",
          "type": "bytes32",
          "indexed": true,
          "internalType": "bytes32"
        },
        {
          "name": "newAdminRole",
          "type": "bytes32",
          "indexed": true,
          "internalType": "bytes32"
        }
      ],
      "anonymous": false
    },
    {
      "type": "event",
      "name": "RoleGranted",
      "inputs": [
        {
          "name": "role",
          "type": "bytes32",
          "indexed": true,
          "internalType": "bytes32"
        },
        {
          "name": "account",
          "type": "address",
          "indexed": true,
          "internalType": "address"
        },
        {
          "name": "sender",
          "type": "address",
          "indexed": true,
          "internalType": "address"
        }
      ],
      "anonymous": false
    },
    {
      "type": "event",
      "name": "RoleRevoked",
      "inputs": [
        {
          "name": "role",
          "type": "bytes32",
          "indexed": true,
          "internalType": "bytes32"
        },
        {
          "name": "account",
          "type": "address",
          "indexed": true,
          "internalType": "address"
        },
        {
          "name": "sender",
          "type": "address",
          "indexed": true,
          "internalType": "address"
        }
      ],
      "anonymous": false
    },
    {
      "type": "event",
      "name": "USDCTokenSet",
      "inputs": [
        {
          "name": "tokenAddress",
          "type": "address",
          "indexed": true,
          "internalType": "address"
        }
      ],
      "anonymous": false
    },
    {
      "type": "event",
      "name": "Unpaused",
      "inputs": [
        {
          "name": "account",
          "type": "address",
          "indexed": false,
          "internalType": "address"
        }
      ],
      "anonymous": false
    },
    {
      "type": "event",
      "name": "Upgraded",
      "inputs": [
        {
          "name": "implementation",
          "type": "address",
          "indexed": true,
          "internalType": "address"
        }
      ],
      "anonymous": false
    },
    {
      "type": "error",
      "name": "AccessControlBadConfirmation",
      "inputs": []
    },
    {
      "type": "error",
      "name": "AccessControlUnauthorizedAccount",
      "inputs": [
        {
          "name": "account",
          "type": "address",
          "internalType": "address"
        },
        {
          "name": "neededRole",
          "type": "bytes32",
          "internalType": "bytes32"
        }
      ]
    },
    {
      "type": "error",
      "name": "AddressEmptyCode",
      "inputs": [
        {
          "name": "target",
          "type": "address",
          "internalType": "address"
        }
      ]
    },
    {
      "type": "error",
      "name": "ERC1967InvalidImplementation",
      "inputs": [
        {
          "name": "implementation",
          "type": "address",
          "internalType": "address"
        }
      ]
    },
    {
      "type": "error",
      "name": "ERC1967NonPayable",
      "inputs": []
    },
    {
      "type": "error",
      "name": "EnforcedPause",
      "inputs": []
    },
    {
      "type": "error",
      "name": "ExchangeDisabled",
      "inputs": []
    },
    {
      "type": "error",
      "name": "ExpectedPause",
      "inputs": []
    },
    {
      "type": "error",
      "name": "FailedCall",
      "inputs": []
    },
    {
      "type": "error",
      "name": "InsufficientFundsForRewards",
      "inputs": []
    },
    {
      "type": "error",
      "name": "InvalidAmount",
      "inputs": [
        {
          "name": "amount",
          "type": "uint256",
          "internalType": "uint256"
        }
      ]
    },
    {
      "type": "error",
      "name": "InvalidExchangeRate",
      "inputs": []
    },
    {
      "type": "error",
      "name": "InvalidTokenAddress",
      "inputs": []
    },
    {
      "type": "error",
      "name": "ReentrancyGuardReentrantCall",
      "inputs": []
    },
    {
      "type": "error",
      "name": "SafeERC20FailedOperation",
      "inputs": [
        {
          "name": "token",
          "type": "address",
          "internalType": "address"
        }
      ]
    },
    {
      "type": "error",
      "name": "UUPSUnauthorizedCallContext",
      "inputs": []
    },
    {
      "type": "error",
      "name": "UUPSUnsupportedProxiableUUID",
      "inputs": [
        {
          "name": "slot",
          "type": "bytes32",
          "internalType": "bytes32"
        }
      ]
    },
    {
      "type": "error",
      "name": "ZeroAddress",
      "inputs": []
    }
  ],
  "bytecode": {
    "object": "0x60a06040523461004d5761002061001461018a565b95949094939193610516565b610028610052565b612a76610a69823960805181818161235e015281816123c301526125720152612a7690f35b610058565b60405190565b5f80fd5b601f801991011690565b634e487b7160e01b5f52604160045260245ffd5b906100849061005c565b810190811060018060401b0382111761009c57604052565b610066565b906100b46100ad610052565b928361007a565b565b5f80fd5b60018060a01b031690565b6100ce906100ba565b90565b6100da816100c5565b036100e157565b5f80fd5b905051906100f2826100d1565b565b90565b610100816100f4565b0361010757565b5f80fd5b90505190610118826100f7565b565b60e08183031261018557610130825f83016100e5565b9261013e83602084016100e5565b9261014c81604085016100e5565b9261015a82606083016100e5565b9261018261016b846080850161010b565b936101798160a0860161010b565b9360c00161010b565b90565b6100b6565b6101a86134df8038038061019d816100a1565b92833981019061011a565b90919293949596565b90565b90565b6101cb6101c66101d0926101b1565b6101b4565b6100ba565b90565b6101dc906101b7565b90565b5f0190565b6101f86101f36101fd926101b1565b6101b4565b6100f4565b90565b90565b61021761021261021c92610200565b6101b4565b6100f4565b90565b610228906100f4565b9052565b919061023f905f6020850194019061021f565b565b61025561025061025a926100ba565b6101b4565b6100ba565b90565b61026690610241565b90565b6102729061025d565b90565b5f1b90565b9061028b60018060a01b0391610275565b9181191691161790565b61029e9061025d565b90565b90565b906102b96102b46102c092610295565b6102a1565b825461027a565b9055565b6102cd90610241565b90565b6102d9906102c4565b90565b6102e5906102c4565b90565b90565b906103006102fb610307926102dc565b6102e8565b825461027a565b9055565b61031490610241565b90565b6103209061030b565b90565b61032c9061030b565b90565b90565b9061034761034261034e92610323565b61032f565b825461027a565b9055565b9061035e5f1991610275565b9181191691161790565b61037c610377610381926100f4565b6101b4565b6100f4565b90565b90565b9061039c6103976103a392610368565b610384565b8254610352565b9055565b906103b360ff91610275565b9181191691161790565b151590565b6103cb906103bd565b90565b90565b906103e66103e16103ed926103c2565b6103ce565b82546103a7565b9055565b90565b61040861040361040d926101b1565b610275565b6103f1565b90565b6104195f6103f4565b90565b7f65d7a28e3265b37a6474929f336521b332c1681b933f6cb9f3376673440d862a90565b7f189ab7a9244df0848122154315af71fe140f3db0fe014031783b0946b8c9d2e390565b7f71cf91ec47860248170f85b42d74f92cb733e7fa0012c4ada3d85e11b64cb19490565b7fe9eb2d474dbf4ad0af01dbc745ec0e55d70ca9366fe9b52307997e913bad905c90565b6104b5906101e4565b9052565b9160206104da9294936104d360408201965f8301906104ac565b019061021f565b565b6104e590610241565b90565b6104f1906104dc565b90565b6104fd906103bd565b9052565b9190610514905f602085019401906104f4565b565b9594939291956105246108bb565b8061053f6105396105345f6101d3565b6100c5565b916100c5565b14610893578161055f6105596105545f6101d3565b6100c5565b916100c5565b14610877578661057f6105796105745f6101d3565b6100c5565b916100c5565b1461085b578261059f6105996105945f6101d3565b6100c5565b916100c5565b1461083f57836105b76105b15f6101e4565b916100f4565b1461082357846105d26105cc620f4240610203565b916100f4565b101561080457856105ee6105e8620f4240610203565b916100f4565b116107e5576106166106b6939261061161060a61061d94610269565b60036102a4565b6102d0565b60046102eb565b61063061062987610317565b6005610332565b61063b836006610387565b610646846007610387565b610651856008610387565b61065d6001600d6103d1565b61066f610668610410565b8290610957565b5061068261067b61041c565b8290610957565b5061069561068e610440565b8290610957565b506106a86106a1610464565b8290610957565b506106b1610488565b610957565b505f907ffdc7afada07c13f476d01041c5b7881beb960152c06d6d1df57fca179f221d69916106ef6106e6610052565b928392836104b9565b0390a15f907ffa4067f2d0249edb7594284cabb394f2ec0e4f6168dbd1e3a63f861b67f1188f9161072a610721610052565b928392836104b9565b0390a15f907f79244c8eddd5ce3ce30d4b8f75e87df3e8c0c969c83f4d31f1f1bfd9d6a5bbd89161076561075c610052565b928392836104b9565b0390a16107927f9317e3e59b11620f482b4bb292374da6e5cb9e7ef23cf3f121cacca9a5428f78916104e8565b9061079b610052565b806107a5816101df565b0390a260016107e07feab0d9428381d359574de45e478b84410e5df2d47189ef99fe052d4b0b570aa4916107d7610052565b91829182610501565b0390a1565b610800865f918291633728b83d60e01b83526004830161022c565b0390fd5b61081f855f918291633728b83d60e01b83526004830161022c565b0390fd5b5f63a2ec3a5560e01b81528061083b600482016101df565b0390fd5b5f63d92e233d60e01b815280610857600482016101df565b0390fd5b5f63d92e233d60e01b815280610873600482016101df565b0390fd5b5f63d92e233d60e01b81528061088f600482016101df565b0390fd5b5f63d92e233d60e01b8152806108ab600482016101df565b0390fd5b6108b8906104dc565b90565b6108c36108d1565b6108cc306108af565b608052565b6108d9610907565b565b90565b6108f26108ed6108f7926108db565b6101b4565b6100f4565b90565b61090460016108de565b90565b6109196109126108fa565b6002610387565b565b5f90565b610928906103f1565b90565b906109359061091f565b5f5260205260405f2090565b9061094b906104e8565b5f5260205260405f2090565b61095f61091b565b5061097461096e828490610a2e565b156103bd565b5f146109fc5761099b60016109965f61098e81869061092b565b018590610941565b6103d1565b906109a4610a5b565b906109e16109db6109d57f2f8788117e7eff1d82e926ec794901d17c78024a50270940304540a733656f0d9561091f565b926104e8565b926104e8565b926109ea610052565b806109f4816101df565b0390a4600190565b50505f90565b5f1c90565b60ff1690565b610a19610a1e91610a02565b610a07565b90565b610a2b9054610a0d565b90565b610a54915f610a49610a4f93610a4261091b565b508261092b565b01610941565b610a21565b90565b5f90565b610a63610a57565b50339056fe60806040526004361015610013575b611138565b61001d5f3561024c565b806301ffc9a7146102475780630f5a9d011461024257806311eac8551461023d5780631d31d298146102385780631d6e53bf14610233578063233c5cff1461022e578063248a9ca3146102295780632f2ff15d1461022457806336568abe1461021f5780633ba0b9a91461021a5780633f4ba83a14610215578063445ec389146102105780634f1ef2861461020b57806352d1902d14610206578063591c6f25146102015780635c975abb146101fc57806366dea358146101f7578063787dce3d146101f25780638456cb59146101ed5780638d77ca57146101e85780638e50e509146101e357806391d14854146101de57806394524096146101d9578063a217fddf146101d4578063acc2166a146101cf578063ad3cb1cc146101ca578063b9160c30146101c5578063bf4ace4e146101c0578063d547741f146101bb578063db068e0e146101b6578063e63ab1e9146101b1578063f526e39a146101ac578063f5343752146101a7578063f72c0d8b146101a25763fd48a1e60361000e57611103565b61109f565b61103b565b610fcb565b610f87565b610f25565b610ef1565b610ebc565b610e78565b610e14565b610ce3565b610c40565b610bd2565b610b5b565b610b26565b610ae2565b610a80565b610a4d565b610a18565b610975565b610940565b6108fc565b6108d2565b61076d565b61072b565b6106f6565b6106b3565b61067f565b61061d565b610584565b610551565b6104db565b610449565b61036a565b6102d8565b60e01c90565b60405190565b5f80fd5b5f80fd5b5f80fd5b63ffffffff60e01b1690565b61027981610264565b0361028057565b5f80fd5b9050359061029182610270565b565b906020828203126102ac576102a9915f01610284565b90565b61025c565b151590565b6102bf906102b1565b9052565b91906102d6905f602085019401906102b6565b565b34610308576103046102f36102ee366004610293565b611140565b6102fb610252565b918291826102c3565b0390f35b610258565b60018060a01b031690565b6103219061030d565b90565b61032d81610318565b0361033457565b5f80fd5b9050359061034582610324565b565b906020828203126103605761035d915f01610338565b90565b61025c565b5f0190565b346103985761038261037d366004610347565b61132d565b61038a610252565b8061039481610365565b0390f35b610258565b5f9103126103a757565b61025c565b1c90565b60018060a01b031690565b6103cb9060086103d093026103ac565b6103b0565b90565b906103de91546103bb565b90565b6103ed60055f906103d3565b90565b90565b61040761040261040c9261030d565b6103f0565b61030d565b90565b610418906103f3565b90565b6104249061040f565b90565b6104309061041b565b9052565b9190610447905f60208501940190610427565b565b346104795761045936600461039d565b6104756104646103e1565b61046c610252565b91829182610434565b0390f35b610258565b90565b61049190600861049693026103ac565b61047e565b90565b906104a49154610481565b90565b6104b360085f90610499565b90565b90565b6104c2906104b6565b9052565b91906104d9905f602085019401906104b9565b565b3461050b576104eb36600461039d565b6105076104f66104a7565b6104fe610252565b918291826104c6565b0390f35b610258565b610519816104b6565b0361052057565b5f80fd5b9050359061053182610510565b565b9060208282031261054c57610549915f01610524565b90565b61025c565b3461057f57610569610564366004610533565b611496565b610571610252565b8061057b81610365565b0390f35b610258565b346105b25761059c610597366004610533565b611b43565b6105a4610252565b806105ae81610365565b0390f35b610258565b90565b6105c3816105b7565b036105ca57565b5f80fd5b905035906105db826105ba565b565b906020828203126105f6576105f3915f016105ce565b90565b61025c565b610604906105b7565b9052565b919061061b905f602085019401906105fb565b565b3461064d576106496106386106333660046105dd565b611b98565b610640610252565b91829182610608565b0390f35b610258565b919060408382031261067a578061066e610677925f86016105ce565b93602001610338565b90565b61025c565b346106ae57610698610692366004610652565b90611be3565b6106a0610252565b806106aa81610365565b0390f35b610258565b346106e2576106cc6106c6366004610652565b90611bef565b6106d4610252565b806106de81610365565b0390f35b610258565b6106f360065f90610499565b90565b346107265761070636600461039d565b6107226107116106e7565b610719610252565b918291826104c6565b0390f35b610258565b346107595761073b36600461039d565b610743611c5b565b61074b610252565b8061075581610365565b0390f35b610258565b61076a600a5f90610499565b90565b3461079d5761077d36600461039d565b61079961078861075e565b610790610252565b918291826104c6565b0390f35b610258565b5f80fd5b5f80fd5b601f801991011690565b634e487b7160e01b5f52604160045260245ffd5b906107d2906107aa565b810190811067ffffffffffffffff8211176107ec57604052565b6107b4565b906108046107fd610252565b92836107c8565b565b67ffffffffffffffff8111610824576108206020916107aa565b0190565b6107b4565b90825f939282370152565b9092919261084961084482610806565b6107f1565b938185526020850190828401116108655761086392610829565b565b6107a6565b9080601f830112156108885781602061088593359101610834565b90565b6107a2565b9190916040818403126108cd576108a6835f8301610338565b92602082013567ffffffffffffffff81116108c8576108c5920161086a565b90565b610260565b61025c565b6108e66108e036600461088d565b90611c8e565b6108ee610252565b806108f881610365565b0390f35b3461092c5761090c36600461039d565b610928610917611d05565b61091f610252565b91829182610608565b0390f35b610258565b61093d600c5f90610499565b90565b346109705761095036600461039d565b61096c61095b610931565b610963610252565b918291826104c6565b0390f35b610258565b346109a55761098536600461039d565b6109a1610990611d18565b610998610252565b918291826102c3565b0390f35b610258565b60018060a01b031690565b6109c59060086109ca93026103ac565b6109aa565b90565b906109d891546109b5565b90565b6109e760035f906109cd565b90565b6109f39061040f565b90565b6109ff906109ea565b9052565b9190610a16905f602085019401906109f6565b565b34610a4857610a2836600461039d565b610a44610a336109db565b610a3b610252565b91829182610a03565b0390f35b610258565b34610a7b57610a65610a60366004610533565b611dd5565b610a6d610252565b80610a7781610365565b0390f35b610258565b34610aae57610a9036600461039d565b610a98611e04565b610aa0610252565b80610aaa81610365565b0390f35b610258565b7f2b3b34d8f2cbfb9866f3463c0bc43f6d821c949e95f5ca06701a7756b45ebc8e90565b610adf610ab3565b90565b34610b1257610af236600461039d565b610b0e610afd610ad7565b610b05610252565b91829182610608565b0390f35b610258565b610b2360075f90610499565b90565b34610b5657610b3636600461039d565b610b52610b41610b17565b610b49610252565b918291826104c6565b0390f35b610258565b34610b8c57610b88610b77610b71366004610652565b90611e24565b610b7f610252565b918291826102c3565b0390f35b610258565b610b9a816102b1565b03610ba157565b5f80fd5b90503590610bb282610b91565b565b90602082820312610bcd57610bca915f01610ba5565b90565b61025c565b34610c0057610bea610be5366004610bb4565b611ef3565b610bf2610252565b80610bfc81610365565b0390f35b610258565b90565b5f1b90565b610c21610c1c610c2692610c05565b610c08565b6105b7565b90565b610c325f610c0d565b90565b610c3d610c29565b90565b34610c7057610c5036600461039d565b610c6c610c5b610c35565b610c63610252565b91829182610608565b0390f35b610258565b60018060a01b031690565b610c90906008610c9593026103ac565b610c75565b90565b90610ca39154610c80565b90565b610cb260045f90610c98565b90565b610cbe9061040f565b90565b610cca90610cb5565b9052565b9190610ce1905f60208501940190610cc1565b565b34610d1357610cf336600461039d565b610d0f610cfe610ca6565b610d06610252565b91829182610cce565b0390f35b610258565b67ffffffffffffffff8111610d3657610d326020916107aa565b0190565b6107b4565b90610d4d610d4883610d18565b6107f1565b918252565b5f7f352e302e30000000000000000000000000000000000000000000000000000000910152565b610d836005610d3b565b90610d9060208301610d52565b565b610d9a610d79565b90565b610da5610d92565b90565b610db0610d9d565b90565b5190565b60209181520190565b90825f9392825e0152565b610dea610df3602093610df893610de181610db3565b93848093610db7565b95869101610dc0565b6107aa565b0190565b610e119160208201915f818403910152610dcb565b90565b34610e4457610e2436600461039d565b610e40610e2f610da8565b610e37610252565b91829182610dfc565b0390f35b610258565b7f71cf91ec47860248170f85b42d74f92cb733e7fa0012c4ada3d85e11b64cb19490565b610e75610e49565b90565b34610ea857610e8836600461039d565b610ea4610e93610e6d565b610e9b610252565b91829182610608565b0390f35b610258565b610eb960095f90610499565b90565b34610eec57610ecc36600461039d565b610ee8610ed7610ead565b610edf610252565b918291826104c6565b0390f35b610258565b34610f2057610f0a610f04366004610652565b90611f28565b610f12610252565b80610f1c81610365565b0390f35b610258565b34610f5357610f3d610f38366004610533565b611fd4565b610f45610252565b80610f4f81610365565b0390f35b610258565b7f65d7a28e3265b37a6474929f336521b332c1681b933f6cb9f3376673440d862a90565b610f84610f58565b90565b34610fb757610f9736600461039d565b610fb3610fa2610f7c565b610faa610252565b91829182610608565b0390f35b610258565b610fc8600b5f90610499565b90565b34610ffb57610fdb36600461039d565b610ff7610fe6610fbc565b610fee610252565b918291826104c6565b0390f35b610258565b60ff1690565b61101690600861101b93026103ac565b611000565b90565b906110299154611006565b90565b611038600d5f9061101e565b90565b3461106b5761104b36600461039d565b61106761105661102c565b61105e610252565b918291826102c3565b0390f35b610258565b7f189ab7a9244df0848122154315af71fe140f3db0fe014031783b0946b8c9d2e390565b61109c611070565b90565b346110cf576110af36600461039d565b6110cb6110ba611094565b6110c2610252565b91829182610608565b0390f35b610258565b7fe9eb2d474dbf4ad0af01dbc745ec0e55d70ca9366fe9b52307997e913bad905c90565b6111006110d4565b90565b346111335761111336600461039d565b61112f61111e6110f8565b611126610252565b91829182610608565b0390f35b610258565b5f80fd5b5f90565b61114861113c565b508061116361115d637965db0b60e01b610264565b91610264565b14908115611170575b5090565b61117a9150611fdf565b5f61116c565b6111999061119461118f6110d4565b612005565b611257565b565b6111af6111aa6111b492610c05565b6103f0565b61030d565b90565b6111c09061119b565b90565b5f1c90565b6111d46111d9916111c3565b6103b0565b90565b6111e690546111c8565b90565b6111f2906103f3565b90565b6111fe906111e9565b90565b9061121260018060a01b0391610c08565b9181191691161790565b611225906111e9565b90565b90565b9061124061123b6112479261121c565b611228565b8254611201565b9055565b6112549061040f565b90565b8061127261126c6112675f6111b7565b610318565b91610318565b14611311578061129b61129561129061128b60056111dc565b61041b565b610318565b91610318565b146112f5576112b36112ac826111f5565b600561122b565b6112dd7f9317e3e59b11620f482b4bb292374da6e5cb9e7ef23cf3f121cacca9a5428f789161124b565b906112e6610252565b806112f081610365565b0390a2565b5f630f58058360e11b81528061130d60048201610365565b0390fd5b5f63d92e233d60e01b81528061132960048201610365565b0390fd5b61133690611180565b565b6113519061134c6113476110d4565b612005565b61140b565b565b90565b61136a61136561136f92611353565b6103f0565b6104b6565b90565b61137e611383916111c3565b61047e565b90565b6113909054611372565b90565b9061139f5f1991610c08565b9181191691161790565b6113bd6113b86113c2926104b6565b6103f0565b6104b6565b90565b90565b906113dd6113d86113e4926113a9565b6113c5565b8254611393565b9055565b91602061140992949361140260408201965f8301906104b9565b01906104b9565b565b8061142161141b620f4240611356565b916104b6565b11611477576114306008611386565b61143b8260086113c8565b907f79244c8eddd5ce3ce30d4b8f75e87df3e8c0c969c83f4d31f1f1bfd9d6a5bbd891611472611469610252565b928392836113e8565b0390a1565b611492905f918291633728b83d60e01b8352600483016104c6565b0390fd5b61149f90611338565b565b6114b2906114ad612045565b6114bc565b6114ba6120c9565b565b6114cd906114c86120dd565b61170f565b565b6114db6114e0916111c3565b611000565b90565b6114ed90546114cf565b90565b6115046114ff61150992610c05565b6103f0565b6104b6565b90565b634e487b7160e01b5f52601160045260245ffd5b61152f611535919392936104b6565b926104b6565b916115418382026104b6565b92818404149015171561155057565b61150c565b90565b61156c61156761157192611555565b6103f0565b6104b6565b90565b634e487b7160e01b5f52601260045260245ffd5b61159461159a916104b6565b916104b6565b9081156115a5570490565b611574565b6115b96115bf919392936104b6565b926104b6565b82039182116115ca57565b61150c565b6115db6115e0916111c3565b6109aa565b90565b6115ed90546115cf565b90565b5f80fd5b60e01b90565b5f91031261160457565b61025c565b61161290610318565b9052565b91602061163792949361163060408201965f830190611609565b01906104b9565b565b611641610252565b3d5f823e3d90fd5b6116529061040f565b90565b9050519061166282610510565b565b9060208282031261167d5761167a915f01611655565b90565b61025c565b9190611695905f60208501940190611609565b565b6116a36116a8916111c3565b610c75565b90565b6116b59054611697565b90565b6116c76116cd919392936104b6565b926104b6565b82018092116116d857565b61150c565b60409061170661170d94969593966116fc60608401985f8501906104b9565b60208301906104b9565b01906104b9565b565b61172261171c600d6114e3565b156102b1565b611b2757806117396117335f6114f0565b916104b6565b14611b08576117666117558261174f6006611386565b90611520565b6117606103e8611558565b90611588565b9061179061177e836117786007611386565b90611520565b61178a620f4240611356565b90611588565b61179b8382906115aa565b926117c56117b3836117ad6008611386565b90611520565b6117bf620f4240611356565b90611588565b6117d76117d260036115e3565b6109ea565b6348a490fb338692803b15611b03576118035f809461180e6117f7610252565b978896879586946115f4565b845260048401611616565b03925af18015611afe57611ad2575b508461183161182b5f6114f0565b916104b6565b116119f6575b8061184a6118445f6114f0565b916104b6565b116118f1575b5061188461188b9161187561186e866118696009611386565b6116b8565b60096113c8565b61187f600a611386565b6116b8565b600a6113c8565b6118a86118a18261189c600b611386565b6116b8565b600b6113c8565b33919290926118ec6118da7fd533c252d5058db6b69c09227df283defe7130f4e5410acc185ed9516227426a9461124b565b946118e3610252565b938493846116dd565b0390a2565b906119046118ff60046116ab565b610cb5565b90638bdf67f283833b156119f15761188b946119495f611973936118849761193e8361197a98611932610252565b968795869485936115f4565b8352600483016104c6565b03925af190816119c5575b50155f14611986576001611981575b5b61196e600c611386565b6116b8565b600c6113c8565b9150611850565b611963565b806119bd7f74ff97027ea986e5dfc1f76839aa0d006c8a1d13e27cecfe74415260a88b605b916119b4610252565b918291826104c6565b0390a1611964565b6119e4905f3d81116119ea575b6119dc81836107c8565b8101906115fa565b5f611954565b503d6119d2565b6115f0565b611a3f6020611a0d611a0860056111dc565b61041b565b6370a0823190611a34611a1f30611649565b92611a28610252565b958694859384936115f4565b835260048301611682565b03915afa908115611acd575f91611a9f575b50611a64611a5e876104b6565b916104b6565b10611a8357611a7e611a7660056111dc565b33879161212c565b611837565b5f630ca407a360e31b815280611a9b60048201610365565b0390fd5b611ac0915060203d8111611ac6575b611ab881836107c8565b810190611664565b5f611a51565b503d611aae565b611639565b611af1905f3d8111611af7575b611ae981836107c8565b8101906115fa565b5f61181d565b503d611adf565b611639565b6115f0565b611b23905f918291633728b83d60e01b8352600483016104c6565b0390fd5b5f63a6b490cd60e01b815280611b3f60048201610365565b0390fd5b611b4c906114a1565b565b5f90565b611b5b906105b7565b90565b90611b6890611b52565b5f5260205260405f2090565b90565b611b83611b88916111c3565b611b74565b90565b611b959054611b77565b90565b6001611bb0611bb692611ba9611b4e565b505f611b5e565b01611b8b565b90565b90611bd491611bcf611bca82611b98565b612005565b611bd6565b565b90611be09161217a565b50565b90611bed91611bb9565b565b9080611c0a611c04611bff612229565b610318565b91610318565b03611c1b57611c1891612236565b50565b5f63334bd91960e11b815280611c3360048201610365565b0390fd5b611c47611c42610f58565b612005565b611c4f611c51565b565b611c59612337565b565b611c63611c37565b565b90611c7791611c7261234d565b611c79565b565b90611c8c91611c8781612407565b612463565b565b90611c9891611c65565b565b611cab90611ca6612561565b611cf9565b90565b90565b611cc5611cc0611cca92611cae565b610c08565b6105b7565b90565b611cf67f360894a13ba1a3210667c828492db98dca3e2076cc3735a920a3ca505d382bbc611cb1565b90565b50611d02611ccd565b90565b611d15611d10611b4e565b611c9a565b90565b611d2061113c565b50611d2b60016114e3565b90565b611d4790611d42611d3d6110d4565b612005565b611d49565b565b80611d5f611d59620f4240611356565b916104b6565b1015611db657611d6f6007611386565b611d7a8260076113c8565b907ffa4067f2d0249edb7594284cabb394f2ec0e4f6168dbd1e3a63f861b67f1188f91611db1611da8610252565b928392836113e8565b0390a1565b611dd1905f918291633728b83d60e01b8352600483016104c6565b0390fd5b611dde90611d2e565b565b611df0611deb610f58565b612005565b611df8611dfa565b565b611e0261261f565b565b611e0c611de0565b565b90611e189061124b565b5f5260205260405f2090565b611e4a915f611e3f611e4593611e3861113c565b5082611b5e565b01611e0e565b6114e3565b90565b611e6690611e61611e5c6110d4565b612005565b611ead565b565b90611e7460ff91610c08565b9181191691161790565b611e87906102b1565b90565b90565b90611ea2611e9d611ea992611e7e565b611e8a565b8254611e68565b9055565b611eb881600d611e8d565b611eee7feab0d9428381d359574de45e478b84410e5df2d47189ef99fe052d4b0b570aa491611ee5610252565b918291826102c3565b0390a1565b611efc90611e4d565b565b90611f1991611f14611f0f82611b98565b612005565b611f1b565b565b90611f2591612236565b50565b90611f3291611efe565b565b611f4d90611f48611f43610e49565b612005565b611f4f565b565b80611f62611f5c5f6114f0565b916104b6565b14611fb857611f716006611386565b611f7c8260066113c8565b907ffdc7afada07c13f476d01041c5b7881beb960152c06d6d1df57fca179f221d6991611fb3611faa610252565b928392836113e8565b0390a1565b5f63a2ec3a5560e01b815280611fd060048201610365565b0390fd5b611fdd90611f34565b565b611fe761113c565b50612001611ffb6301ffc9a760e01b610264565b91610264565b1490565b61201790612011612229565b9061264c565b565b90565b61203061202b61203592612019565b6103f0565b6104b6565b90565b612042600261201c565b90565b61204f6002611386565b61206861206261205d612038565b6104b6565b916104b6565b146120815761207f612078612038565b60026113c8565b565b5f633ee5aeb560e01b81528061209960048201610365565b0390fd5b90565b6120b46120af6120b99261209d565b6103f0565b6104b6565b90565b6120c660016120a0565b90565b6120db6120d46120bc565b60026113c8565b565b6120e5611d18565b6120eb57565b5f63d93c066560e01b81528061210360048201610365565b0390fd5b63ffffffff1690565b61212461211f61212992612107565b6115f4565b610264565b90565b90612173612178936121646004949361214b63a9059cbb919391612110565b92612154610252565b9687946020860190815201611616565b602082018103825203836107c8565b61268b565b565b61218261113c565b50612197612191828490611e24565b156102b1565b5f1461221f576121be60016121b95f6121b1818690611b5e565b018590611e0e565b611e8d565b906121c7612229565b906122046121fe6121f87f2f8788117e7eff1d82e926ec794901d17c78024a50270940304540a733656f0d95611b52565b9261124b565b9261124b565b9261220d610252565b8061221781610365565b0390a4600190565b50505f90565b5f90565b612231612225565b503390565b61223e61113c565b5061224a818390611e24565b5f146122d1576122705f61226b5f612263818690611b5e565b018590611e0e565b611e8d565b90612279612229565b906122b66122b06122aa7ff6391f5c32d9c69d2a47ea670b442974b53935d1edc7fd64eb21e047a839171b95611b52565b9261124b565b9261124b565b926122bf610252565b806122c981610365565b0390a4600190565b50505f90565b6122df61273f565b6122e76122e9565b565b6122f45f6001611e8d565b6122fc612229565b6123327f5db9ee0a495bf2e6ff9c91a7834c1ba4fdd244a5e8aa4e537bd38aeae4b073aa91612329610252565b91829182611682565b0390a1565b61233f6122d7565b565b61234a9061040f565b90565b61235630612341565b6123886123827f0000000000000000000000000000000000000000000000000000000000000000610318565b91610318565b1480156123b2575b61239657565b5f63703e46dd60e11b8152806123ae60048201610365565b0390fd5b506123bb61279e565b6123ed6123e77f0000000000000000000000000000000000000000000000000000000000000000610318565b91610318565b1415612390565b50612405612400611070565b612005565b565b612410906123f4565b565b61241b906103f3565b90565b61242790612412565b90565b6124339061040f565b90565b90505190612443826105ba565b565b9060208282031261245e5761245b915f01612436565b90565b61025c565b9190612491602061247b6124768661241e565b61242a565b6352d1902d90612489610252565b9384926115f4565b825281806124a160048201610365565b03915afa80915f92612531575b50155f146124e25750509060016124c357505b565b6124de905f918291634c9c8ce360e01b835260048301611682565b0390fd5b92836124fd6124f76124f2611ccd565b6105b7565b916105b7565b036125125761250d9293506127c8565b6124c1565b61252d845f918291632a87526960e21b835260048301610608565b0390fd5b61255391925060203d811161255a575b61254b81836107c8565b810190612445565b905f6124ae565b503d612541565b61256a30612341565b61259c6125967f0000000000000000000000000000000000000000000000000000000000000000610318565b91610318565b036125a357565b5f63703e46dd60e11b8152806125bb60048201610365565b0390fd5b6125c76120dd565b6125cf6125d1565b565b6125dc600180611e8d565b6125e4612229565b61261a7f62e78cea01bee320cd4e420270b5ea74000d11b0c9f74754ebdbfc544b05a25891612611610252565b91829182611682565b0390a1565b6126276125bf565b565b91602061264a92949361264360408201965f830190611609565b01906105fb565b565b9061266161265b838390611e24565b156102b1565b612669575050565b6126835f92839263e2517d3f60e01b845260048401612629565b0390fd5b5f90565b905f602091612698612687565b506126a1612687565b50828151910182855af115612734573d5f51906126c66126c05f6114f0565b916104b6565b145f1461271a57506126d78161041b565b3b6126ea6126e45f6114f0565b916104b6565b145b6126f35750565b6126ff6127169161041b565b5f918291635274afe760e01b835260048301611682565b0390fd5b61272d61272760016120a0565b916104b6565b14156126ec565b6040513d5f823e3d90fd5b61275061274a611d18565b156102b1565b61275657565b5f638dfc202b60e01b81528061276e60048201610365565b0390fd5b60018060a01b031690565b61278961278e916111c3565b612772565b90565b61279b905461277d565b90565b6127a6612225565b506127c15f6127bb6127b6611ccd565b612851565b01612791565b90565b5190565b906127d282612877565b816127fd7fbc7cd75a20ee27fd9adebab32041f755214dbc6bffa90cc0225b39da2e5c2d3b9161124b565b90612806610252565b8061281081610365565b0390a261281c816127c4565b61282e6128285f6114f0565b916104b6565b115f146128425761283e91612947565b505b565b505061284c6128cc565b612840565b90565b90565b9061286c6128676128739261124b565b612854565b8254611201565b9055565b803b61288b6128855f6114f0565b916104b6565b146128ad576128ab905f6128a56128a0611ccd565b612851565b01612857565b565b6128c8905f918291634c9c8ce360e01b835260048301611682565b0390fd5b346128df6128d95f6114f0565b916104b6565b116128e657565b5f63b398979f60e01b8152806128fe60048201610365565b0390fd5b606090565b9061291961291483610806565b6107f1565b918252565b3d5f146129395761292e3d612907565b903d5f602084013e5b565b612941612902565b90612937565b5f8061297393612955612902565b508390602081019051915af49061296a61291e565b90919091612976565b90565b9061298a90612983612902565b50156102b1565b5f1461299657506129fa565b61299f826127c4565b6129b16129ab5f6114f0565b916104b6565b14806129df575b6129c0575090565b6129db905f918291639996b31560e01b835260048301611682565b0390fd5b50803b6129f46129ee5f6114f0565b916104b6565b146129b8565b612a03816127c4565b612a15612a0f5f6114f0565b916104b6565b115f14612a2457805190602001fd5b5f63d6bda27560e01b815280612a3c60048201610365565b0390fdfea2646970667358221220d18e53db1f7b4b21d621f7022f402f401df2109a248867fc44eb3721f70a4d4564736f6c634300081a0033",
    "linkReferences": {}
  },
  "methodIdentifiers": {
    "DEFAULT_ADMIN_ROLE()": "a217fddf",
    "EXCHANGE_MANAGER_ROLE()": "fd48a1e6",
    "PAUSER_ROLE()": "e63ab1e9",
    "RATE_SETTER_ROLE()": "b9160c30",
    "REWARD_DEPOSITOR_ROLE()": "8d77ca57",
    "UPGRADER_ROLE()": "f72c0d8b",
    "UPGRADE_INTERFACE_VERSION()": "ad3cb1cc",
    "carbonCreditToken()": "66dea358",
    "exchangeCreditsForUSDC(uint256)": "233c5cff",
    "exchangeEnabled()": "f5343752",
    "exchangeRate()": "3ba0b9a9",
    "getRoleAdmin(bytes32)": "248a9ca3",
    "grantRole(bytes32,address)": "2f2ff15d",
    "hasRole(bytes32,address)": "91d14854",
    "pause()": "8456cb59",
    "paused()": "5c975abb",
    "protocolFeePercentage()": "8e50e509",
    "proxiableUUID()": "52d1902d",
    "renounceRole(bytes32,address)": "36568abe",
    "revokeRole(bytes32,address)": "d547741f",
    "rewardDistributor()": "acc2166a",
    "rewardDistributorPercentage()": "1d31d298",
    "setExchangeEnabled(bool)": "94524096",
    "setExchangeRate(uint256)": "db068e0e",
    "setProtocolFee(uint256)": "787dce3d",
    "setRewardDistributorPercentage(uint256)": "1d6e53bf",
    "setUSDCToken(address)": "0f5a9d01",
    "supportsInterface(bytes4)": "01ffc9a7",
    "totalCreditsExchanged()": "bf4ace4e",
    "totalProtocolFees()": "f526e39a",
    "totalRewardsFunded()": "591c6f25",
    "totalUsdcCollected()": "445ec389",
    "unpause()": "3f4ba83a",
    "upgradeToAndCall(address,bytes)": "4f1ef286",
    "usdcToken()": "11eac855"
  },
  "id": 47
}