{
  "abi": [
    {
      "type": "constructor",
      "inputs": [
        {
          "name": "_usdcToken",
          "type": "address",
          "internalType": "address"
        }
      ],
      "stateMutability": "nonpayable"
    },
    {
      "type": "function",
      "name": "DEFAULT_ADMIN_ROLE",
      "inputs": [],
      "outputs": [
        {
          "name": "",
          "type": "bytes32",
          "internalType": "bytes32"
        }
      ],
      "stateMutability": "view"
    },
    {
      "type": "function",
      "name": "depositAmount",
      "inputs": [
        {
          "name": "",
          "type": "uint256",
          "internalType": "uint256"
        }
      ],
      "outputs": [
        {
          "name": "",
          "type": "uint256",
          "internalType": "uint256"
        }
      ],
      "stateMutability": "view"
    },
    {
      "type": "function",
      "name": "depositSettled",
      "inputs": [
        {
          "name": "",
          "type": "uint256",
          "internalType": "uint256"
        }
      ],
      "outputs": [
        {
          "name": "",
          "type": "bool",
          "internalType": "bool"
        }
      ],
      "stateMutability": "view"
    },
    {
      "type": "function",
      "name": "fundDeposit",
      "inputs": [
        {
          "name": "projectId",
          "type": "uint256",
          "internalType": "uint256"
        },
        {
          "name": "developer",
          "type": "address",
          "internalType": "address"
        },
        {
          "name": "amount",
          "type": "uint256",
          "internalType": "uint256"
        }
      ],
      "outputs": [],
      "stateMutability": "nonpayable"
    },
    {
      "type": "function",
      "name": "getDepositAmount",
      "inputs": [
        {
          "name": "projectId",
          "type": "uint256",
          "internalType": "uint256"
        }
      ],
      "outputs": [
        {
          "name": "",
          "type": "uint256",
          "internalType": "uint256"
        }
      ],
      "stateMutability": "view"
    },
    {
      "type": "function",
      "name": "getProjectDeveloper",
      "inputs": [
        {
          "name": "projectId",
          "type": "uint256",
          "internalType": "uint256"
        }
      ],
      "outputs": [
        {
          "name": "",
          "type": "address",
          "internalType": "address"
        }
      ],
      "stateMutability": "view"
    },
    {
      "type": "function",
      "name": "getRoleAdmin",
      "inputs": [
        {
          "name": "role",
          "type": "bytes32",
          "internalType": "bytes32"
        }
      ],
      "outputs": [
        {
          "name": "",
          "type": "bytes32",
          "internalType": "bytes32"
        }
      ],
      "stateMutability": "view"
    },
    {
      "type": "function",
      "name": "getRoleMember",
      "inputs": [
        {
          "name": "role",
          "type": "bytes32",
          "internalType": "bytes32"
        },
        {
          "name": "index",
          "type": "uint256",
          "internalType": "uint256"
        }
      ],
      "outputs": [
        {
          "name": "",
          "type": "address",
          "internalType": "address"
        }
      ],
      "stateMutability": "view"
    },
    {
      "type": "function",
      "name": "getRoleMemberCount",
      "inputs": [
        {
          "name": "role",
          "type": "bytes32",
          "internalType": "bytes32"
        }
      ],
      "outputs": [
        {
          "name": "",
          "type": "uint256",
          "internalType": "uint256"
        }
      ],
      "stateMutability": "view"
    },
    {
      "type": "function",
      "name": "getRoleMembers",
      "inputs": [
        {
          "name": "role",
          "type": "bytes32",
          "internalType": "bytes32"
        }
      ],
      "outputs": [
        {
          "name": "",
          "type": "address[]",
          "internalType": "address[]"
        }
      ],
      "stateMutability": "view"
    },
    {
      "type": "function",
      "name": "grantRole",
      "inputs": [
        {
          "name": "role",
          "type": "bytes32",
          "internalType": "bytes32"
        },
        {
          "name": "account",
          "type": "address",
          "internalType": "address"
        }
      ],
      "outputs": [],
      "stateMutability": "nonpayable"
    },
    {
      "type": "function",
      "name": "hasRole",
      "inputs": [
        {
          "name": "role",
          "type": "bytes32",
          "internalType": "bytes32"
        },
        {
          "name": "account",
          "type": "address",
          "internalType": "address"
        }
      ],
      "outputs": [
        {
          "name": "",
          "type": "bool",
          "internalType": "bool"
        }
      ],
      "stateMutability": "view"
    },
    {
      "type": "function",
      "name": "isDepositSettled",
      "inputs": [
        {
          "name": "projectId",
          "type": "uint256",
          "internalType": "uint256"
        }
      ],
      "outputs": [
        {
          "name": "",
          "type": "bool",
          "internalType": "bool"
        }
      ],
      "stateMutability": "view"
    },
    {
      "type": "function",
      "name": "pause",
      "inputs": [],
      "outputs": [],
      "stateMutability": "nonpayable"
    },
    {
      "type": "function",
      "name": "paused",
      "inputs": [],
      "outputs": [
        {
          "name": "",
          "type": "bool",
          "internalType": "bool"
        }
      ],
      "stateMutability": "view"
    },
    {
      "type": "function",
      "name": "projectDeveloper",
      "inputs": [
        {
          "name": "",
          "type": "uint256",
          "internalType": "uint256"
        }
      ],
      "outputs": [
        {
          "name": "",
          "type": "address",
          "internalType": "address"
        }
      ],
      "stateMutability": "view"
    },
    {
      "type": "function",
      "name": "releaseDeposit",
      "inputs": [
        {
          "name": "projectId",
          "type": "uint256",
          "internalType": "uint256"
        }
      ],
      "outputs": [],
      "stateMutability": "nonpayable"
    },
    {
      "type": "function",
      "name": "renounceRole",
      "inputs": [
        {
          "name": "role",
          "type": "bytes32",
          "internalType": "bytes32"
        },
        {
          "name": "callerConfirmation",
          "type": "address",
          "internalType": "address"
        }
      ],
      "outputs": [],
      "stateMutability": "nonpayable"
    },
    {
      "type": "function",
      "name": "revokeRole",
      "inputs": [
        {
          "name": "role",
          "type": "bytes32",
          "internalType": "bytes32"
        },
        {
          "name": "account",
          "type": "address",
          "internalType": "address"
        }
      ],
      "outputs": [],
      "stateMutability": "nonpayable"
    },
    {
      "type": "function",
      "name": "slashDeposit",
      "inputs": [
        {
          "name": "projectId",
          "type": "uint256",
          "internalType": "uint256"
        },
        {
          "name": "feeRecipient",
          "type": "address",
          "internalType": "address"
        }
      ],
      "outputs": [],
      "stateMutability": "nonpayable"
    },
    {
      "type": "function",
      "name": "supportsInterface",
      "inputs": [
        {
          "name": "interfaceId",
          "type": "bytes4",
          "internalType": "bytes4"
        }
      ],
      "outputs": [
        {
          "name": "",
          "type": "bool",
          "internalType": "bool"
        }
      ],
      "stateMutability": "view"
    },
    {
      "type": "function",
      "name": "transferDepositToProject",
      "inputs": [
        {
          "name": "projectId",
          "type": "uint256",
          "internalType": "uint256"
        }
      ],
      "outputs": [
        {
          "name": "",
          "type": "uint256",
          "internalType": "uint256"
        }
      ],
      "stateMutability": "nonpayable"
    },
    {
      "type": "function",
      "name": "unpause",
      "inputs": [],
      "outputs": [],
      "stateMutability": "nonpayable"
    },
    {
      "type": "function",
      "name": "usdcToken",
      "inputs": [],
      "outputs": [
        {
          "name": "",
          "type": "address",
          "internalType": "contract IERC20"
        }
      ],
      "stateMutability": "view"
    },
    {
      "type": "event",
      "name": "DepositFunded",
      "inputs": [
        {
          "name": "projectId",
          "type": "uint256",
          "indexed": true,
          "internalType": "uint256"
        },
        {
          "name": "developer",
          "type": "address",
          "indexed": true,
          "internalType": "address"
        },
        {
          "name": "amount",
          "type": "uint256",
          "indexed": false,
          "internalType": "uint256"
        }
      ],
      "anonymous": false
    },
    {
      "type": "event",
      "name": "DepositReleased",
      "inputs": [
        {
          "name": "projectId",
          "type": "uint256",
          "indexed": true,
          "internalType": "uint256"
        },
        {
          "name": "developer",
          "type": "address",
          "indexed": true,
          "internalType": "address"
        },
        {
          "name": "amount",
          "type": "uint256",
          "indexed": false,
          "internalType": "uint256"
        }
      ],
      "anonymous": false
    },
    {
      "type": "event",
      "name": "DepositSlashed",
      "inputs": [
        {
          "name": "projectId",
          "type": "uint256",
          "indexed": true,
          "internalType": "uint256"
        },
        {
          "name": "developer",
          "type": "address",
          "indexed": true,
          "internalType": "address"
        },
        {
          "name": "amount",
          "type": "uint256",
          "indexed": false,
          "internalType": "uint256"
        },
        {
          "name": "recipient",
          "type": "address",
          "indexed": false,
          "internalType": "address"
        }
      ],
      "anonymous": false
    },
    {
      "type": "event",
      "name": "Paused",
      "inputs": [
        {
          "name": "account",
          "type": "address",
          "indexed": false,
          "internalType": "address"
        }
      ],
      "anonymous": false
    },
    {
      "type": "event",
      "name": "RoleAdminChanged",
      "inputs": [
        {
          "name": "role",
          "type": "bytes32",
          "indexed": true,
          "internalType": "bytes32"
        },
        {
          "name": "previousAdminRole",
          "type": "bytes32",
          "indexed": true,
          "internalType": "bytes32"
        },
        {
          "name": "newAdminRole",
          "type": "bytes32",
          "indexed": true,
          "internalType": "bytes32"
        }
      ],
      "anonymous": false
    },
    {
      "type": "event",
      "name": "RoleGranted",
      "inputs": [
        {
          "name": "role",
          "type": "bytes32",
          "indexed": true,
          "internalType": "bytes32"
        },
        {
          "name": "account",
          "type": "address",
          "indexed": true,
          "internalType": "address"
        },
        {
          "name": "sender",
          "type": "address",
          "indexed": true,
          "internalType": "address"
        }
      ],
      "anonymous": false
    },
    {
      "type": "event",
      "name": "RoleRevoked",
      "inputs": [
        {
          "name": "role",
          "type": "bytes32",
          "indexed": true,
          "internalType": "bytes32"
        },
        {
          "name": "account",
          "type": "address",
          "indexed": true,
          "internalType": "address"
        },
        {
          "name": "sender",
          "type": "address",
          "indexed": true,
          "internalType": "address"
        }
      ],
      "anonymous": false
    },
    {
      "type": "event",
      "name": "Unpaused",
      "inputs": [
        {
          "name": "account",
          "type": "address",
          "indexed": false,
          "internalType": "address"
        }
      ],
      "anonymous": false
    },
    {
      "type": "error",
      "name": "AccessControlBadConfirmation",
      "inputs": []
    },
    {
      "type": "error",
      "name": "AccessControlUnauthorizedAccount",
      "inputs": [
        {
          "name": "account",
          "type": "address",
          "internalType": "address"
        },
        {
          "name": "neededRole",
          "type": "bytes32",
          "internalType": "bytes32"
        }
      ]
    },
    {
      "type": "error",
      "name": "AmountCannotBeZero",
      "inputs": []
    },
    {
      "type": "error",
      "name": "DepositAlreadyExists",
      "inputs": [
        {
          "name": "projectId",
          "type": "uint256",
          "internalType": "uint256"
        }
      ]
    },
    {
      "type": "error",
      "name": "DepositAlreadyReleased",
      "inputs": [
        {
          "name": "projectId",
          "type": "uint256",
          "internalType": "uint256"
        }
      ]
    },
    {
      "type": "error",
      "name": "DepositNotFound",
      "inputs": [
        {
          "name": "projectId",
          "type": "uint256",
          "internalType": "uint256"
        }
      ]
    },
    {
      "type": "error",
      "name": "EnforcedPause",
      "inputs": []
    },
    {
      "type": "error",
      "name": "ExpectedPause",
      "inputs": []
    },
    {
      "type": "error",
      "name": "ReentrancyGuardReentrantCall",
      "inputs": []
    },
    {
      "type": "error",
      "name": "SafeERC20FailedOperation",
      "inputs": [
        {
          "name": "token",
          "type": "address",
          "internalType": "address"
        }
      ]
    },
    {
      "type": "error",
      "name": "ZeroAddressNotAllowed",
      "inputs": []
    }
  ],
  "bytecode": {
    "object": "0x60a060405234801561000f575f80fd5b50604051611a16380380611a1683398101604081905261002e9161022c565b60016003556001600160a01b03811661005a576040516342bcdf7f60e11b815260040160405180910390fd5b6001600160a01b038116608052336100725f826100fb565b5061009d7f65d7a28e3265b37a6474929f336521b332c1681b933f6cb9f3376673440d862a826100fb565b506100c87f88f3509f0e42391f2d94ebfb2a37cbd0782b1b8f73715330017f4663290b8117826100fb565b506100f37f12b42e8a160f6064dc959c6f251e3af0750ad213dbecf573b4710d67d6c28e39826100fb565b505050610252565b5f806101078484610131565b90508015610128575f84815260016020526040902061012690846101d8565b505b90505b92915050565b5f828152602081815260408083206001600160a01b038516845290915281205460ff166101d1575f838152602081815260408083206001600160a01b03861684529091529020805460ff191660011790556101893390565b6001600160a01b0316826001600160a01b0316847f2f8788117e7eff1d82e926ec794901d17c78024a50270940304540a733656f0d60405160405180910390a450600161012b565b505f61012b565b5f610128836001600160a01b0384165f8181526001830160205260408120546101d157508154600181810184555f84815260208082209093018490558454848252828601909352604090209190915561012b565b5f6020828403121561023c575f80fd5b81516001600160a01b0381168114610128575f80fd5b6080516117906102865f395f818161021a015281816105920152818161084e01528181610a900152610c8b01526117905ff3fe608060405234801561000f575f80fd5b506004361061018f575f3560e01c80637077a778116100dd578063a217fddf11610088578063ca15c87311610063578063ca15c8731461040d578063cfbef41914610420578063d547741f14610442575f80fd5b8063a217fddf146103c4578063a3246ad3146103cb578063aedd8936146103eb575f80fd5b80639010d07c116100b85780639010d07c1461035b57806391d148541461036e578063a0f109c5146103b1575f80fd5b80637077a778146103215780638456cb591461033457806387f8ab261461033c575f80fd5b80632f2ff15d1161013d5780633f4ba83a116101185780633f4ba83a146102fb5780634283271c146103035780635c975abb14610316575f80fd5b80632f2ff15d146102b457806336568abe146102c9578063378de45b146102dc575f80fd5b80631b6337ed1161016d5780631b6337ed1461023c578063248a9ca3146102715780632d3bc857146102a1575f80fd5b806301ffc9a7146101935780630484df2c146101bb57806311eac85514610215575b5f80fd5b6101a66101a136600461157a565b610455565b60405190151581526020015b60405180910390f35b6101f06101c93660046115b9565b5f9081526005602052604090205473ffffffffffffffffffffffffffffffffffffffff1690565b60405173ffffffffffffffffffffffffffffffffffffffff90911681526020016101b2565b6101f07f000000000000000000000000000000000000000000000000000000000000000081565b6101f061024a3660046115b9565b60056020525f908152604090205473ffffffffffffffffffffffffffffffffffffffff1681565b61029361027f3660046115b9565b5f9081526020819052604090206001015490565b6040519081526020016101b2565b6102936102af3660046115b9565b610465565b6102c76102c23660046115f3565b61061d565b005b6102c76102d73660046115f3565b610647565b6102936102ea3660046115b9565b5f9081526004602052604090205490565b6102c76106a5565b6102c76103113660046115f3565b6106da565b60025460ff166101a6565b6102c761032f36600461161d565b6108da565b6102c7610b14565b61029361034a3660046115b9565b60046020525f908152604090205481565b6101f0610369366004611650565b610b46565b6101a661037c3660046115f3565b5f9182526020828152604080842073ffffffffffffffffffffffffffffffffffffffff93909316845291905290205460ff1690565b6102c76103bf3660046115b9565b610b64565b6102935f81565b6103de6103d93660046115b9565b610d10565b6040516101b29190611670565b6101a66103f93660046115b9565b5f9081526006602052604090205460ff1690565b61029361041b3660046115b9565b610d29565b6101a661042e3660046115b9565b60066020525f908152604090205460ff1681565b6102c76104503660046115f3565b610d3f565b5f61045f82610d63565b92915050565b5f61046e610db8565b610476610dfb565b7f88f3509f0e42391f2d94ebfb2a37cbd0782b1b8f73715330017f4663290b81176104a081610e3a565b5f838152600460209081526040808320546005909252822054909173ffffffffffffffffffffffffffffffffffffffff90911690829003610515576040517fac2ded58000000000000000000000000000000000000000000000000000000008152600481018690526024015b60405180910390fd5b5f8581526006602052604090205460ff1615610560576040517fce9c44600000000000000000000000000000000000000000000000000000000081526004810186905260240161050c565b5f858152600660205260409020805460ff191660011790556105b973ffffffffffffffffffffffffffffffffffffffff7f0000000000000000000000000000000000000000000000000000000000000000168284610e44565b8073ffffffffffffffffffffffffffffffffffffffff16857f27fd7b405d3b1cef830760908e4041d6c33a3e8fee51f248c99462d0d55508858460405161060291815260200190565b60405180910390a3509150506106186001600355565b919050565b5f8281526020819052604090206001015461063781610e3a565b6106418383610ec5565b50505050565b73ffffffffffffffffffffffffffffffffffffffff81163314610696576040517f6697b23200000000000000000000000000000000000000000000000000000000815260040160405180910390fd5b6106a08282610ef8565b505050565b7f65d7a28e3265b37a6474929f336521b332c1681b933f6cb9f3376673440d862a6106cf81610e3a565b6106d7610f23565b50565b6106e2610db8565b6106ea610dfb565b7f12b42e8a160f6064dc959c6f251e3af0750ad213dbecf573b4710d67d6c28e3961071481610e3a565b73ffffffffffffffffffffffffffffffffffffffff8216610761576040517f8579befe00000000000000000000000000000000000000000000000000000000815260040160405180910390fd5b5f838152600460209081526040808320546005909252822054909173ffffffffffffffffffffffffffffffffffffffff909116908290036107d1576040517fac2ded580000000000000000000000000000000000000000000000000000000081526004810186905260240161050c565b5f8581526006602052604090205460ff161561081c576040517fce9c44600000000000000000000000000000000000000000000000000000000081526004810186905260240161050c565b5f858152600660205260409020805460ff1916600117905561087573ffffffffffffffffffffffffffffffffffffffff7f0000000000000000000000000000000000000000000000000000000000000000168584610e44565b6040805183815273ffffffffffffffffffffffffffffffffffffffff868116602083015283169187917fac44cf14f3140ff97d584b409eb75a87924d48933c1ff1132c518666204e43dd910160405180910390a35050506108d66001600355565b5050565b6108e2610db8565b6108ea610dfb565b7f88f3509f0e42391f2d94ebfb2a37cbd0782b1b8f73715330017f4663290b811761091481610e3a565b73ffffffffffffffffffffffffffffffffffffffff8316610961576040517f8579befe00000000000000000000000000000000000000000000000000000000815260040160405180910390fd5b815f0361099a576040517fd11b25af00000000000000000000000000000000000000000000000000000000815260040160405180910390fd5b5f84815260046020526040902054156109e2576040517fd41b73c80000000000000000000000000000000000000000000000000000000081526004810185905260240161050c565b5f8481526006602052604090205460ff1615610a2d576040517fce9c44600000000000000000000000000000000000000000000000000000000081526004810185905260240161050c565b5f8481526004602090815260408083208590556005909152902080547fffffffffffffffffffffffff00000000000000000000000000000000000000001673ffffffffffffffffffffffffffffffffffffffff85811691909117909155610ab8907f000000000000000000000000000000000000000000000000000000000000000016843085610f82565b8273ffffffffffffffffffffffffffffffffffffffff16847fdfaa8c912b5509c72ecaf1be942e001eb4a21e6f8f1fd3676d006d6d9f8e608484604051610b0191815260200190565b60405180910390a3506106a06001600355565b7f65d7a28e3265b37a6474929f336521b332c1681b933f6cb9f3376673440d862a610b3e81610e3a565b6106d7610fc8565b5f828152600160205260408120610b5d9083611005565b9392505050565b610b6c610db8565b610b74610dfb565b7f88f3509f0e42391f2d94ebfb2a37cbd0782b1b8f73715330017f4663290b8117610b9e81610e3a565b5f828152600460209081526040808320546005909252822054909173ffffffffffffffffffffffffffffffffffffffff90911690829003610c0e576040517fac2ded580000000000000000000000000000000000000000000000000000000081526004810185905260240161050c565b5f8481526006602052604090205460ff1615610c59576040517fce9c44600000000000000000000000000000000000000000000000000000000081526004810185905260240161050c565b5f848152600660205260409020805460ff19166001179055610cb273ffffffffffffffffffffffffffffffffffffffff7f0000000000000000000000000000000000000000000000000000000000000000168284610e44565b8073ffffffffffffffffffffffffffffffffffffffff16847f27fd7b405d3b1cef830760908e4041d6c33a3e8fee51f248c99462d0d555088584604051610cfb91815260200190565b60405180910390a35050506106d76001600355565b5f81815260016020526040902060609061045f90611010565b5f81815260016020526040812061045f9061101c565b5f82815260208190526040902060010154610d5981610e3a565b6106418383610ef8565b5f7fffffffff0000000000000000000000000000000000000000000000000000000082167f5a05180f00000000000000000000000000000000000000000000000000000000148061045f575061045f82611025565b600260035403610df4576040517f3ee5aeb500000000000000000000000000000000000000000000000000000000815260040160405180910390fd5b6002600355565b60025460ff1615610e38576040517fd93c066500000000000000000000000000000000000000000000000000000000815260040160405180910390fd5b565b6106d781336110bb565b60405173ffffffffffffffffffffffffffffffffffffffff8381166024830152604482018390526106a091859182169063a9059cbb906064015b604051602081830303815290604052915060e01b6020820180517bffffffffffffffffffffffffffffffffffffffffffffffffffffffff8381831617835250505050611140565b5f80610ed184846111df565b90508015610b5d575f848152600160205260409020610ef090846112ba565b509392505050565b5f80610f0484846112db565b90508015610b5d575f848152600160205260409020610ef09084611376565b610f2b611397565b6002805460ff191690557f5db9ee0a495bf2e6ff9c91a7834c1ba4fdd244a5e8aa4e537bd38aeae4b073aa335b60405173ffffffffffffffffffffffffffffffffffffffff909116815260200160405180910390a1565b60405173ffffffffffffffffffffffffffffffffffffffff84811660248301528381166044830152606482018390526106419186918216906323b872dd90608401610e7e565b610fd0610dfb565b6002805460ff191660011790557f62e78cea01bee320cd4e420270b5ea74000d11b0c9f74754ebdbfc544b05a258610f583390565b5f610b5d83836113d3565b60605f610b5d836113f9565b5f61045f825490565b5f7fffffffff0000000000000000000000000000000000000000000000000000000082167f7965db0b00000000000000000000000000000000000000000000000000000000148061045f57507f01ffc9a7000000000000000000000000000000000000000000000000000000007fffffffff0000000000000000000000000000000000000000000000000000000083161461045f565b5f8281526020818152604080832073ffffffffffffffffffffffffffffffffffffffff8516845290915290205460ff166108d6576040517fe2517d3f00000000000000000000000000000000000000000000000000000000815273ffffffffffffffffffffffffffffffffffffffff821660048201526024810183905260440161050c565b5f8060205f8451602086015f885af18061115f576040513d5f823e3d81fd5b50505f513d91508115611176578060011415611190565b73ffffffffffffffffffffffffffffffffffffffff84163b155b15610641576040517f5274afe700000000000000000000000000000000000000000000000000000000815273ffffffffffffffffffffffffffffffffffffffff8516600482015260240161050c565b5f8281526020818152604080832073ffffffffffffffffffffffffffffffffffffffff8516845290915281205460ff166112b3575f8381526020818152604080832073ffffffffffffffffffffffffffffffffffffffff861684529091529020805460ff191660011790556112513390565b73ffffffffffffffffffffffffffffffffffffffff168273ffffffffffffffffffffffffffffffffffffffff16847f2f8788117e7eff1d82e926ec794901d17c78024a50270940304540a733656f0d60405160405180910390a450600161045f565b505f61045f565b5f610b5d8373ffffffffffffffffffffffffffffffffffffffff8416611452565b5f8281526020818152604080832073ffffffffffffffffffffffffffffffffffffffff8516845290915281205460ff16156112b3575f8381526020818152604080832073ffffffffffffffffffffffffffffffffffffffff86168085529252808320805460ff1916905551339286917ff6391f5c32d9c69d2a47ea670b442974b53935d1edc7fd64eb21e047a839171b9190a450600161045f565b5f610b5d8373ffffffffffffffffffffffffffffffffffffffff8416611497565b60025460ff16610e38576040517f8dfc202b00000000000000000000000000000000000000000000000000000000815260040160405180910390fd5b5f825f0182815481106113e8576113e86116c8565b905f5260205f200154905092915050565b6060815f0180548060200260200160405190810160405280929190818152602001828054801561144657602002820191905f5260205f20905b815481526020019060010190808311611432575b50505050509050919050565b5f8181526001830160205260408120546112b357508154600181810184555f84815260208082209093018490558454848252828601909352604090209190915561045f565b5f8181526001830160205260408120548015611571575f6114b96001836116f5565b85549091505f906114cc906001906116f5565b905080821461152b575f865f0182815481106114ea576114ea6116c8565b905f5260205f200154905080875f01848154811061150a5761150a6116c8565b5f918252602080832090910192909255918252600188019052604090208390555b855486908061153c5761153c61172d565b600190038181905f5260205f20015f90559055856001015f8681526020019081526020015f205f90556001935050505061045f565b5f91505061045f565b5f6020828403121561158a575f80fd5b81357fffffffff0000000000000000000000000000000000000000000000000000000081168114610b5d575f80fd5b5f602082840312156115c9575f80fd5b5035919050565b803573ffffffffffffffffffffffffffffffffffffffff81168114610618575f80fd5b5f8060408385031215611604575f80fd5b82359150611614602084016115d0565b90509250929050565b5f805f6060848603121561162f575f80fd5b8335925061163f602085016115d0565b929592945050506040919091013590565b5f8060408385031215611661575f80fd5b50508035926020909101359150565b602080825282518282018190525f918401906040840190835b818110156116bd57835173ffffffffffffffffffffffffffffffffffffffff16835260209384019390920191600101611689565b509095945050505050565b7f4e487b71000000000000000000000000000000000000000000000000000000005f52603260045260245ffd5b8181038181111561045f577f4e487b71000000000000000000000000000000000000000000000000000000005f52601160045260245ffd5b7f4e487b71000000000000000000000000000000000000000000000000000000005f52603160045260245ffdfea2646970667358221220648b025746f446284412f2cd34a4b051a99223fe740b6550a88a089db3f22a5b64736f6c634300081a0033",
    "linkReferences": {}
  },
  "methodIdentifiers": {
    "DEFAULT_ADMIN_ROLE()": "a217fddf",
    "depositAmount(uint256)": "87f8ab26",
    "depositSettled(uint256)": "cfbef419",
    "fundDeposit(uint256,address,uint256)": "7077a778",
    "getDepositAmount(uint256)": "378de45b",
    "getProjectDeveloper(uint256)": "0484df2c",
    "getRoleAdmin(bytes32)": "248a9ca3",
    "getRoleMember(bytes32,uint256)": "9010d07c",
    "getRoleMemberCount(bytes32)": "ca15c873",
    "getRoleMembers(bytes32)": "a3246ad3",
    "grantRole(bytes32,address)": "2f2ff15d",
    "hasRole(bytes32,address)": "91d14854",
    "isDepositSettled(uint256)": "aedd8936",
    "pause()": "8456cb59",
    "paused()": "5c975abb",
    "projectDeveloper(uint256)": "1b6337ed",
    "releaseDeposit(uint256)": "a0f109c5",
    "renounceRole(bytes32,address)": "36568abe",
    "revokeRole(bytes32,address)": "d547741f",
    "slashDeposit(uint256,address)": "4283271c",
    "supportsInterface(bytes4)": "01ffc9a7",
    "transferDepositToProject(uint256)": "2d3bc857",
    "unpause()": "3f4ba83a",
    "usdcToken()": "11eac855"
  },
  "id": 91
}