{
  "abi": [
    {
      "type": "function",
      "name": "DEFAULT_ADMIN_ROLE",
      "inputs": [],
      "outputs": [
        {
          "name": "",
          "type": "bytes32",
          "internalType": "bytes32"
        }
      ],
      "stateMutability": "view"
    },
    {
      "type": "function",
      "name": "UPGRADE_INTERFACE_VERSION",
      "inputs": [],
      "outputs": [
        {
          "name": "",
          "type": "string",
          "internalType": "string"
        }
      ],
      "stateMutability": "view"
    },
    {
      "type": "function",
      "name": "accruedInterestPerShare_RAY",
      "inputs": [],
      "outputs": [
        {
          "name": "",
          "type": "uint256",
          "internalType": "uint256"
        }
      ],
      "stateMutability": "view"
    },
    {
      "type": "function",
      "name": "claimPrincipal",
      "inputs": [],
      "outputs": [],
      "stateMutability": "nonpayable"
    },
    {
      "type": "function",
      "name": "claimYield",
      "inputs": [],
      "outputs": [],
      "stateMutability": "nonpayable"
    },
    {
      "type": "function",
      "name": "claimablePrincipal",
      "inputs": [
        {
          "name": "investor",
          "type": "address",
          "internalType": "address"
        }
      ],
      "outputs": [
        {
          "name": "",
          "type": "uint256",
          "internalType": "uint256"
        }
      ],
      "stateMutability": "view"
    },
    {
      "type": "function",
      "name": "claimableYield",
      "inputs": [
        {
          "name": "investor",
          "type": "address",
          "internalType": "address"
        }
      ],
      "outputs": [
        {
          "name": "",
          "type": "uint256",
          "internalType": "uint256"
        }
      ],
      "stateMutability": "view"
    },
    {
      "type": "function",
      "name": "closeFundingManually",
      "inputs": [],
      "outputs": [],
      "stateMutability": "nonpayable"
    },
    {
      "type": "function",
      "name": "closeLoan",
      "inputs": [],
      "outputs": [],
      "stateMutability": "nonpayable"
    },
    {
      "type": "function",
      "name": "currentAprBps",
      "inputs": [],
      "outputs": [
        {
          "name": "",
          "type": "uint16",
          "internalType": "uint16"
        }
      ],
      "stateMutability": "view"
    },
    {
      "type": "function",
      "name": "depositEscrowAddress",
      "inputs": [],
      "outputs": [
        {
          "name": "",
          "type": "address",
          "internalType": "address"
        }
      ],
      "stateMutability": "view"
    },
    {
      "type": "function",
      "name": "devEscrow",
      "inputs": [],
      "outputs": [
        {
          "name": "",
          "type": "address",
          "internalType": "contract IDevEscrow"
        }
      ],
      "stateMutability": "view"
    },
    {
      "type": "function",
      "name": "developer",
      "inputs": [],
      "outputs": [
        {
          "name": "",
          "type": "address",
          "internalType": "address"
        }
      ],
      "stateMutability": "view"
    },
    {
      "type": "function",
      "name": "developerDeposit",
      "inputs": [],
      "outputs": [
        {
          "name": "",
          "type": "uint256",
          "internalType": "uint256"
        }
      ],
      "stateMutability": "view"
    },
    {
      "type": "function",
      "name": "fundingClosed",
      "inputs": [],
      "outputs": [
        {
          "name": "",
          "type": "bool",
          "internalType": "bool"
        }
      ],
      "stateMutability": "view"
    },
    {
      "type": "function",
      "name": "getCurrentAprBps",
      "inputs": [],
      "outputs": [
        {
          "name": "",
          "type": "uint16",
          "internalType": "uint16"
        }
      ],
      "stateMutability": "view"
    },
    {
      "type": "function",
      "name": "getLoanAmount",
      "inputs": [],
      "outputs": [
        {
          "name": "",
          "type": "uint256",
          "internalType": "uint256"
        }
      ],
      "stateMutability": "view"
    },
    {
      "type": "function",
      "name": "getPrincipalRepaid",
      "inputs": [],
      "outputs": [
        {
          "name": "",
          "type": "uint256",
          "internalType": "uint256"
        }
      ],
      "stateMutability": "view"
    },
    {
      "type": "function",
      "name": "getRoleAdmin",
      "inputs": [
        {
          "name": "role",
          "type": "bytes32",
          "internalType": "bytes32"
        }
      ],
      "outputs": [
        {
          "name": "",
          "type": "bytes32",
          "internalType": "bytes32"
        }
      ],
      "stateMutability": "view"
    },
    {
      "type": "function",
      "name": "getRoleMember",
      "inputs": [
        {
          "name": "role",
          "type": "bytes32",
          "internalType": "bytes32"
        },
        {
          "name": "index",
          "type": "uint256",
          "internalType": "uint256"
        }
      ],
      "outputs": [
        {
          "name": "",
          "type": "address",
          "internalType": "address"
        }
      ],
      "stateMutability": "view"
    },
    {
      "type": "function",
      "name": "getRoleMemberCount",
      "inputs": [
        {
          "name": "role",
          "type": "bytes32",
          "internalType": "bytes32"
        }
      ],
      "outputs": [
        {
          "name": "",
          "type": "uint256",
          "internalType": "uint256"
        }
      ],
      "stateMutability": "view"
    },
    {
      "type": "function",
      "name": "getRoleMembers",
      "inputs": [
        {
          "name": "role",
          "type": "bytes32",
          "internalType": "bytes32"
        }
      ],
      "outputs": [
        {
          "name": "",
          "type": "address[]",
          "internalType": "address[]"
        }
      ],
      "stateMutability": "view"
    },
    {
      "type": "function",
      "name": "getTotalAssetsInvested",
      "inputs": [],
      "outputs": [
        {
          "name": "",
          "type": "uint256",
          "internalType": "uint256"
        }
      ],
      "stateMutability": "view"
    },
    {
      "type": "function",
      "name": "grantRole",
      "inputs": [
        {
          "name": "role",
          "type": "bytes32",
          "internalType": "bytes32"
        },
        {
          "name": "account",
          "type": "address",
          "internalType": "address"
        }
      ],
      "outputs": [],
      "stateMutability": "nonpayable"
    },
    {
      "type": "function",
      "name": "handleRepayment",
      "inputs": [
        {
          "name": "",
          "type": "uint256",
          "internalType": "uint256"
        },
        {
          "name": "_projectId",
          "type": "uint256",
          "internalType": "uint256"
        },
        {
          "name": "netAmountReceived",
          "type": "uint256",
          "internalType": "uint256"
        }
      ],
      "outputs": [
        {
          "name": "principalPaid",
          "type": "uint256",
          "internalType": "uint256"
        },
        {
          "name": "interestPaid",
          "type": "uint256",
          "internalType": "uint256"
        }
      ],
      "stateMutability": "nonpayable"
    },
    {
      "type": "function",
      "name": "hasRole",
      "inputs": [
        {
          "name": "role",
          "type": "bytes32",
          "internalType": "bytes32"
        },
        {
          "name": "account",
          "type": "address",
          "internalType": "address"
        }
      ],
      "outputs": [
        {
          "name": "",
          "type": "bool",
          "internalType": "bool"
        }
      ],
      "stateMutability": "view"
    },
    {
      "type": "function",
      "name": "initialize",
      "inputs": [
        {
          "name": "params",
          "type": "tuple",
          "internalType": "struct IProjectVault.InitParams",
          "components": [
            {
              "name": "admin",
              "type": "address",
              "internalType": "address"
            },
            {
              "name": "usdcToken",
              "type": "address",
              "internalType": "address"
            },
            {
              "name": "developer",
              "type": "address",
              "internalType": "address"
            },
            {
              "name": "devEscrow",
              "type": "address",
              "internalType": "address"
            },
            {
              "name": "repaymentRouter",
              "type": "address",
              "internalType": "address"
            },
            {
              "name": "projectId",
              "type": "uint256",
              "internalType": "uint256"
            },
            {
              "name": "financedAmount",
              "type": "uint256",
              "internalType": "uint256"
            },
            {
              "name": "developerDeposit",
              "type": "uint256",
              "internalType": "uint256"
            },
            {
              "name": "loanTenor",
              "type": "uint48",
              "internalType": "uint48"
            },
            {
              "name": "initialAprBps",
              "type": "uint16",
              "internalType": "uint16"
            },
            {
              "name": "depositEscrowAddress",
              "type": "address",
              "internalType": "address"
            }
          ]
        }
      ],
      "outputs": [],
      "stateMutability": "nonpayable"
    },
    {
      "type": "function",
      "name": "interestClaimedByInvestor",
      "inputs": [
        {
          "name": "",
          "type": "address",
          "internalType": "address"
        }
      ],
      "outputs": [
        {
          "name": "",
          "type": "uint256",
          "internalType": "uint256"
        }
      ],
      "stateMutability": "view"
    },
    {
      "type": "function",
      "name": "interestRepaid",
      "inputs": [],
      "outputs": [
        {
          "name": "",
          "type": "uint256",
          "internalType": "uint256"
        }
      ],
      "stateMutability": "view"
    },
    {
      "type": "function",
      "name": "invest",
      "inputs": [
        {
          "name": "amount",
          "type": "uint256",
          "internalType": "uint256"
        }
      ],
      "outputs": [],
      "stateMutability": "nonpayable"
    },
    {
      "type": "function",
      "name": "investorShares",
      "inputs": [
        {
          "name": "",
          "type": "address",
          "internalType": "address"
        }
      ],
      "outputs": [
        {
          "name": "",
          "type": "uint256",
          "internalType": "uint256"
        }
      ],
      "stateMutability": "view"
    },
    {
      "type": "function",
      "name": "isFundingClosed",
      "inputs": [],
      "outputs": [
        {
          "name": "",
          "type": "bool",
          "internalType": "bool"
        }
      ],
      "stateMutability": "view"
    },
    {
      "type": "function",
      "name": "isLoanClosed",
      "inputs": [],
      "outputs": [
        {
          "name": "",
          "type": "bool",
          "internalType": "bool"
        }
      ],
      "stateMutability": "view"
    },
    {
      "type": "function",
      "name": "lastInterestAccrualTimestamp",
      "inputs": [],
      "outputs": [
        {
          "name": "",
          "type": "uint256",
          "internalType": "uint256"
        }
      ],
      "stateMutability": "view"
    },
    {
      "type": "function",
      "name": "loanAmount",
      "inputs": [],
      "outputs": [
        {
          "name": "",
          "type": "uint256",
          "internalType": "uint256"
        }
      ],
      "stateMutability": "view"
    },
    {
      "type": "function",
      "name": "loanClosed",
      "inputs": [],
      "outputs": [
        {
          "name": "",
          "type": "bool",
          "internalType": "bool"
        }
      ],
      "stateMutability": "view"
    },
    {
      "type": "function",
      "name": "loanStartTime",
      "inputs": [],
      "outputs": [
        {
          "name": "",
          "type": "uint64",
          "internalType": "uint64"
        }
      ],
      "stateMutability": "view"
    },
    {
      "type": "function",
      "name": "loanTenor",
      "inputs": [],
      "outputs": [
        {
          "name": "",
          "type": "uint48",
          "internalType": "uint48"
        }
      ],
      "stateMutability": "view"
    },
    {
      "type": "function",
      "name": "pause",
      "inputs": [],
      "outputs": [],
      "stateMutability": "nonpayable"
    },
    {
      "type": "function",
      "name": "paused",
      "inputs": [],
      "outputs": [
        {
          "name": "",
          "type": "bool",
          "internalType": "bool"
        }
      ],
      "stateMutability": "view"
    },
    {
      "type": "function",
      "name": "principalClaimedByInvestor",
      "inputs": [
        {
          "name": "",
          "type": "address",
          "internalType": "address"
        }
      ],
      "outputs": [
        {
          "name": "",
          "type": "uint256",
          "internalType": "uint256"
        }
      ],
      "stateMutability": "view"
    },
    {
      "type": "function",
      "name": "principalRepaid",
      "inputs": [],
      "outputs": [
        {
          "name": "",
          "type": "uint256",
          "internalType": "uint256"
        }
      ],
      "stateMutability": "view"
    },
    {
      "type": "function",
      "name": "projectId",
      "inputs": [],
      "outputs": [
        {
          "name": "",
          "type": "uint256",
          "internalType": "uint256"
        }
      ],
      "stateMutability": "view"
    },
    {
      "type": "function",
      "name": "proxiableUUID",
      "inputs": [],
      "outputs": [
        {
          "name": "",
          "type": "bytes32",
          "internalType": "bytes32"
        }
      ],
      "stateMutability": "view"
    },
    {
      "type": "function",
      "name": "redeem",
      "inputs": [],
      "outputs": [
        {
          "name": "principalAmount",
          "type": "uint256",
          "internalType": "uint256"
        },
        {
          "name": "yieldAmount",
          "type": "uint256",
          "internalType": "uint256"
        }
      ],
      "stateMutability": "nonpayable"
    },
    {
      "type": "function",
      "name": "renounceRole",
      "inputs": [
        {
          "name": "role",
          "type": "bytes32",
          "internalType": "bytes32"
        },
        {
          "name": "callerConfirmation",
          "type": "address",
          "internalType": "address"
        }
      ],
      "outputs": [],
      "stateMutability": "nonpayable"
    },
    {
      "type": "function",
      "name": "revokeRole",
      "inputs": [
        {
          "name": "role",
          "type": "bytes32",
          "internalType": "bytes32"
        },
        {
          "name": "account",
          "type": "address",
          "internalType": "address"
        }
      ],
      "outputs": [],
      "stateMutability": "nonpayable"
    },
    {
      "type": "function",
      "name": "supportsInterface",
      "inputs": [
        {
          "name": "interfaceId",
          "type": "bytes4",
          "internalType": "bytes4"
        }
      ],
      "outputs": [
        {
          "name": "",
          "type": "bool",
          "internalType": "bool"
        }
      ],
      "stateMutability": "view"
    },
    {
      "type": "function",
      "name": "totalAssetsInvested",
      "inputs": [],
      "outputs": [
        {
          "name": "",
          "type": "uint256",
          "internalType": "uint256"
        }
      ],
      "stateMutability": "view"
    },
    {
      "type": "function",
      "name": "totalDebt",
      "inputs": [],
      "outputs": [
        {
          "name": "",
          "type": "uint256",
          "internalType": "uint256"
        }
      ],
      "stateMutability": "view"
    },
    {
      "type": "function",
      "name": "totalShares",
      "inputs": [],
      "outputs": [
        {
          "name": "",
          "type": "uint256",
          "internalType": "uint256"
        }
      ],
      "stateMutability": "view"
    },
    {
      "type": "function",
      "name": "triggerDrawdown",
      "inputs": [
        {
          "name": "amount",
          "type": "uint256",
          "internalType": "uint256"
        }
      ],
      "outputs": [],
      "stateMutability": "nonpayable"
    },
    {
      "type": "function",
      "name": "unpause",
      "inputs": [],
      "outputs": [],
      "stateMutability": "nonpayable"
    },
    {
      "type": "function",
      "name": "updateRiskParams",
      "inputs": [
        {
          "name": "newAprBps",
          "type": "uint16",
          "internalType": "uint16"
        }
      ],
      "outputs": [],
      "stateMutability": "nonpayable"
    },
    {
      "type": "function",
      "name": "upgradeToAndCall",
      "inputs": [
        {
          "name": "newImplementation",
          "type": "address",
          "internalType": "address"
        },
        {
          "name": "data",
          "type": "bytes",
          "internalType": "bytes"
        }
      ],
      "outputs": [],
      "stateMutability": "payable"
    },
    {
      "type": "function",
      "name": "usdcToken",
      "inputs": [],
      "outputs": [
        {
          "name": "",
          "type": "address",
          "internalType": "contract IERC20"
        }
      ],
      "stateMutability": "view"
    },
    {
      "type": "event",
      "name": "DepositTransferFailed",
      "inputs": [
        {
          "name": "projectId",
          "type": "uint256",
          "indexed": true,
          "internalType": "uint256"
        },
        {
          "name": "developer",
          "type": "address",
          "indexed": true,
          "internalType": "address"
        },
        {
          "name": "depositAmount",
          "type": "uint256",
          "indexed": false,
          "internalType": "uint256"
        }
      ],
      "anonymous": false
    },
    {
      "type": "event",
      "name": "DrawdownExecuted",
      "inputs": [
        {
          "name": "projectId",
          "type": "uint256",
          "indexed": false,
          "internalType": "uint256"
        },
        {
          "name": "developer",
          "type": "address",
          "indexed": true,
          "internalType": "address"
        },
        {
          "name": "amount",
          "type": "uint256",
          "indexed": false,
          "internalType": "uint256"
        }
      ],
      "anonymous": false
    },
    {
      "type": "event",
      "name": "FundingClosed",
      "inputs": [
        {
          "name": "projectId",
          "type": "uint256",
          "indexed": false,
          "internalType": "uint256"
        },
        {
          "name": "totalAssetsInvested",
          "type": "uint256",
          "indexed": false,
          "internalType": "uint256"
        }
      ],
      "anonymous": false
    },
    {
      "type": "event",
      "name": "Initialized",
      "inputs": [
        {
          "name": "version",
          "type": "uint64",
          "indexed": false,
          "internalType": "uint64"
        }
      ],
      "anonymous": false
    },
    {
      "type": "event",
      "name": "Invested",
      "inputs": [
        {
          "name": "investor",
          "type": "address",
          "indexed": true,
          "internalType": "address"
        },
        {
          "name": "amountInvested",
          "type": "uint256",
          "indexed": false,
          "internalType": "uint256"
        },
        {
          "name": "totalAssetsInvested",
          "type": "uint256",
          "indexed": false,
          "internalType": "uint256"
        }
      ],
      "anonymous": false
    },
    {
      "type": "event",
      "name": "LoanClosed",
      "inputs": [
        {
          "name": "projectId",
          "type": "uint256",
          "indexed": false,
          "internalType": "uint256"
        },
        {
          "name": "finalPrincipalRepaid",
          "type": "uint256",
          "indexed": false,
          "internalType": "uint256"
        },
        {
          "name": "finalInterestAccrued",
          "type": "uint256",
          "indexed": false,
          "internalType": "uint256"
        }
      ],
      "anonymous": false
    },
    {
      "type": "event",
      "name": "Paused",
      "inputs": [
        {
          "name": "account",
          "type": "address",
          "indexed": false,
          "internalType": "address"
        }
      ],
      "anonymous": false
    },
    {
      "type": "event",
      "name": "PrincipalClaimed",
      "inputs": [
        {
          "name": "investor",
          "type": "address",
          "indexed": true,
          "internalType": "address"
        },
        {
          "name": "amountClaimed",
          "type": "uint256",
          "indexed": false,
          "internalType": "uint256"
        }
      ],
      "anonymous": false
    },
    {
      "type": "event",
      "name": "RepaymentReceived",
      "inputs": [
        {
          "name": "projectId",
          "type": "uint256",
          "indexed": false,
          "internalType": "uint256"
        },
        {
          "name": "payer",
          "type": "address",
          "indexed": true,
          "internalType": "address"
        },
        {
          "name": "principalAmount",
          "type": "uint256",
          "indexed": false,
          "internalType": "uint256"
        },
        {
          "name": "interestAmount",
          "type": "uint256",
          "indexed": false,
          "internalType": "uint256"
        }
      ],
      "anonymous": false
    },
    {
      "type": "event",
      "name": "RiskParamsUpdated",
      "inputs": [
        {
          "name": "projectId",
          "type": "uint256",
          "indexed": false,
          "internalType": "uint256"
        },
        {
          "name": "newAprBps",
          "type": "uint16",
          "indexed": false,
          "internalType": "uint16"
        }
      ],
      "anonymous": false
    },
    {
      "type": "event",
      "name": "RoleAdminChanged",
      "inputs": [
        {
          "name": "role",
          "type": "bytes32",
          "indexed": true,
          "internalType": "bytes32"
        },
        {
          "name": "previousAdminRole",
          "type": "bytes32",
          "indexed": true,
          "internalType": "bytes32"
        },
        {
          "name": "newAdminRole",
          "type": "bytes32",
          "indexed": true,
          "internalType": "bytes32"
        }
      ],
      "anonymous": false
    },
    {
      "type": "event",
      "name": "RoleGranted",
      "inputs": [
        {
          "name": "role",
          "type": "bytes32",
          "indexed": true,
          "internalType": "bytes32"
        },
        {
          "name": "account",
          "type": "address",
          "indexed": true,
          "internalType": "address"
        },
        {
          "name": "sender",
          "type": "address",
          "indexed": true,
          "internalType": "address"
        }
      ],
      "anonymous": false
    },
    {
      "type": "event",
      "name": "RoleRevoked",
      "inputs": [
        {
          "name": "role",
          "type": "bytes32",
          "indexed": true,
          "internalType": "bytes32"
        },
        {
          "name": "account",
          "type": "address",
          "indexed": true,
          "internalType": "address"
        },
        {
          "name": "sender",
          "type": "address",
          "indexed": true,
          "internalType": "address"
        }
      ],
      "anonymous": false
    },
    {
      "type": "event",
      "name": "Unpaused",
      "inputs": [
        {
          "name": "account",
          "type": "address",
          "indexed": false,
          "internalType": "address"
        }
      ],
      "anonymous": false
    },
    {
      "type": "event",
      "name": "Upgraded",
      "inputs": [
        {
          "name": "implementation",
          "type": "address",
          "indexed": true,
          "internalType": "address"
        }
      ],
      "anonymous": false
    },
    {
      "type": "event",
      "name": "YieldClaimed",
      "inputs": [
        {
          "name": "investor",
          "type": "address",
          "indexed": true,
          "internalType": "address"
        },
        {
          "name": "amountClaimed",
          "type": "uint256",
          "indexed": false,
          "internalType": "uint256"
        }
      ],
      "anonymous": false
    },
    {
      "type": "error",
      "name": "AccessControlBadConfirmation",
      "inputs": []
    },
    {
      "type": "error",
      "name": "AccessControlUnauthorizedAccount",
      "inputs": [
        {
          "name": "account",
          "type": "address",
          "internalType": "address"
        },
        {
          "name": "neededRole",
          "type": "bytes32",
          "internalType": "bytes32"
        }
      ]
    },
    {
      "type": "error",
      "name": "AddressEmptyCode",
      "inputs": [
        {
          "name": "target",
          "type": "address",
          "internalType": "address"
        }
      ]
    },
    {
      "type": "error",
      "name": "AmountCannotBeZero",
      "inputs": []
    },
    {
      "type": "error",
      "name": "CannotInvestZero",
      "inputs": []
    },
    {
      "type": "error",
      "name": "ERC1967InvalidImplementation",
      "inputs": [
        {
          "name": "implementation",
          "type": "address",
          "internalType": "address"
        }
      ]
    },
    {
      "type": "error",
      "name": "ERC1967NonPayable",
      "inputs": []
    },
    {
      "type": "error",
      "name": "EnforcedPause",
      "inputs": []
    },
    {
      "type": "error",
      "name": "ExpectedPause",
      "inputs": []
    },
    {
      "type": "error",
      "name": "FailedCall",
      "inputs": []
    },
    {
      "type": "error",
      "name": "FundingCapReached",
      "inputs": [
        {
          "name": "limit",
          "type": "uint256",
          "internalType": "uint256"
        }
      ]
    },
    {
      "type": "error",
      "name": "FundingClosed",
      "inputs": []
    },
    {
      "type": "error",
      "name": "InvalidInitialization",
      "inputs": []
    },
    {
      "type": "error",
      "name": "InvalidValue",
      "inputs": [
        {
          "name": "reason",
          "type": "string",
          "internalType": "string"
        }
      ]
    },
    {
      "type": "error",
      "name": "InvestmentBelowMinimum",
      "inputs": [
        {
          "name": "minimum",
          "type": "uint256",
          "internalType": "uint256"
        }
      ]
    },
    {
      "type": "error",
      "name": "LoanAlreadyClosed",
      "inputs": []
    },
    {
      "type": "error",
      "name": "LoanNotClosed",
      "inputs": []
    },
    {
      "type": "error",
      "name": "NotAuthorized",
      "inputs": [
        {
          "name": "caller",
          "type": "address",
          "internalType": "address"
        },
        {
          "name": "role",
          "type": "bytes32",
          "internalType": "bytes32"
        }
      ]
    },
    {
      "type": "error",
      "name": "NotInitializing",
      "inputs": []
    },
    {
      "type": "error",
      "name": "NothingToClaim",
      "inputs": []
    },
    {
      "type": "error",
      "name": "PRBMath_MulDivSigned_InputTooSmall",
      "inputs": []
    },
    {
      "type": "error",
      "name": "PRBMath_MulDivSigned_Overflow",
      "inputs": [
        {
          "name": "x",
          "type": "int256",
          "internalType": "int256"
        },
        {
          "name": "y",
          "type": "int256",
          "internalType": "int256"
        }
      ]
    },
    {
      "type": "error",
      "name": "PRBMath_MulDiv_Overflow",
      "inputs": [
        {
          "name": "x",
          "type": "uint256",
          "internalType": "uint256"
        },
        {
          "name": "y",
          "type": "uint256",
          "internalType": "uint256"
        },
        {
          "name": "denominator",
          "type": "uint256",
          "internalType": "uint256"
        }
      ]
    },
    {
      "type": "error",
      "name": "ReentrancyGuardReentrantCall",
      "inputs": []
    },
    {
      "type": "error",
      "name": "SafeERC20FailedOperation",
      "inputs": [
        {
          "name": "token",
          "type": "address",
          "internalType": "address"
        }
      ]
    },
    {
      "type": "error",
      "name": "UUPSUnauthorizedCallContext",
      "inputs": []
    },
    {
      "type": "error",
      "name": "UUPSUnsupportedProxiableUUID",
      "inputs": [
        {
          "name": "slot",
          "type": "bytes32",
          "internalType": "bytes32"
        }
      ]
    },
    {
      "type": "error",
      "name": "ZeroAddressNotAllowed",
      "inputs": []
    }
  ],
  "bytecode": {
    "object": "0x60a0604052306080523480156012575f80fd5b506001600355608051613f1161003e5f395f818161231b0152818161234401526125740152613f115ff3fe60806040526004361061035b575f3560e01c80637ba32ee3116101bd578063b6cbc5f0116100f2578063da7806e611610092578063f4b01b181161006d578063f4b01b18146109ed578063fc7b9c1814610a01578063fdd2d57714610a15578063ffaa626914610a2c575f80fd5b8063da7806e614610984578063e6c6dfc0146109af578063e7559260146109ce575f80fd5b8063ca4b208b116100cd578063ca4b208b146108fe578063d3690b6a1461091d578063d547741f14610948578063d84065f914610967575f80fd5b8063b6cbc5f0146108a0578063be040fb0146108cb578063ca15c873146108df575f80fd5b80639b9ee6631161015d578063a217fddf11610138578063a217fddf146107f7578063a3246ad31461080a578063a5ddc86414610836578063ad3cb1cc1461084b575f80fd5b80639b9ee6631461079b5780639d585f7f146107cd578063a05f0986146107e2575f80fd5b8063850c4ca011610198578063850c4ca0146106e35780639010d07c1461072657806391d148541461074557806399fb9f0414610787575f80fd5b80637ba32ee3146106a2578063838dfaa4146106b65780638456cb59146106cf575f80fd5b80633a98ef39116102935780634fd6403c116102335780635ae4cbf01161020e5780635ae4cbf0146106425780635c975abb1461065757806368a188551461066e5780637394c51114610683575f80fd5b80634fd6403c146106055780635204b10a1461061a57806352d1902d1461062e575f80fd5b8063406cf2291161026e578063406cf22914610575578063417cd4b614610589578063496179ac146105be5780634f1ef286146105f2575f80fd5b80633a98ef39146105375780633f4ba83a1461054c5780633fafa12714610560575f80fd5b8063232fa733116102fe5780632afcf480116102d95780632afcf480146104bb5780632f2ff15d146104da5780633180afec146104f957806336568abe14610518575f80fd5b8063232fa73314610464578063248a9ca3146104785780632a2b3a20146104a6575f80fd5b806311eac8551161033957806311eac855146103f75780631916f16f146104165780631940fe311461042a5780632116da5b1461044b575f80fd5b806301ffc9a71461035f57806303e89a8c146103935780630ce77ca3146103ca575b5f80fd5b34801561036a575f80fd5b5061037e610379366004613915565b610a43565b60405190151581526020015b60405180910390f35b34801561039e575f80fd5b506006546103b2906001600160a01b031681565b6040516001600160a01b03909116815260200161038a565b3480156103d5575f80fd5b506103e96103e436600461396f565b610a53565b60405190815260200161038a565b348015610402575f80fd5b506004546103b2906001600160a01b031681565b348015610421575f80fd5b50600e546103e9565b348015610435575f80fd5b50610449610444366004613988565b610ae3565b005b348015610456575f80fd5b50600b5461037e9060ff1681565b34801561046f575f80fd5b50610449610bdb565b348015610483575f80fd5b506103e96104923660046139a9565b5f9081526020819052604090206001015490565b3480156104b1575f80fd5b506103e9600f5481565b3480156104c6575f80fd5b506104496104d53660046139a9565b610d10565b3480156104e5575f80fd5b506104496104f43660046139c0565b610f0e565b348015610504575f80fd5b506103e961051336600461396f565b610f38565b348015610523575f80fd5b506104496105323660046139c0565b610fb5565b348015610542575f80fd5b506103e960125481565b348015610557575f80fd5b50610449611006565b34801561056b575f80fd5b506103e960075481565b348015610580575f80fd5b50610449611038565b348015610594575f80fd5b506009546105a79065ffffffffffff1681565b60405165ffffffffffff909116815260200161038a565b3480156105c9575f80fd5b506105dd6105d83660046139ea565b611111565b6040805192835260208301919091520161038a565b610449610600366004613a40565b611342565b348015610610575f80fd5b506103e9600a5481565b348015610625575f80fd5b50600a546103e9565b348015610639575f80fd5b506103e9611361565b34801561064d575f80fd5b506103e9600c5481565b348015610662575f80fd5b5060025460ff1661037e565b348015610679575f80fd5b506103e960155481565b34801561068e575f80fd5b5061044961069d366004613b41565b61138f565b3480156106ad575f80fd5b506104496117c4565b3480156106c1575f80fd5b5060105461037e9060ff1681565b3480156106da575f80fd5b50610449611885565b3480156106ee575f80fd5b5060095461070d906601000000000000900467ffffffffffffffff1681565b60405167ffffffffffffffff909116815260200161038a565b348015610731575f80fd5b506103b2610740366004613b5b565b6118b7565b348015610750575f80fd5b5061037e61075f3660046139c0565b5f918252602082815260408084206001600160a01b0393909316845291905290205460ff1690565b348015610792575f80fd5b506104496118d5565b3480156107a6575f80fd5b50600b546107ba90610100900461ffff1681565b60405161ffff909116815260200161038a565b3480156107d8575f80fd5b506103e960085481565b3480156107ed575f80fd5b506103e9600e5481565b348015610802575f80fd5b506103e95f81565b348015610815575f80fd5b506108296108243660046139a9565b61192c565b60405161038a9190613b7b565b348015610841575f80fd5b506103e9600d5481565b348015610856575f80fd5b506108936040518060400160405280600581526020017f352e302e3000000000000000000000000000000000000000000000000000000081525081565b60405161038a9190613bc6565b3480156108ab575f80fd5b506103e96108ba36600461396f565b60136020525f908152604090205481565b3480156108d6575f80fd5b506105dd611945565b3480156108ea575f80fd5b506103e96108f93660046139a9565b611aae565b348015610909575f80fd5b506005546103b2906001600160a01b031681565b348015610928575f80fd5b506103e961093736600461396f565b60116020525f908152604090205481565b348015610953575f80fd5b506104496109623660046139c0565b611ac4565b348015610972575f80fd5b50600b54610100900461ffff166107ba565b34801561098f575f80fd5b506103e961099e36600461396f565b60146020525f908152604090205481565b3480156109ba575f80fd5b506104496109c93660046139a9565b611ae8565b3480156109d9575f80fd5b506016546103b2906001600160a01b031681565b3480156109f8575f80fd5b506008546103e9565b348015610a0c575f80fd5b506103e9611b69565b348015610a20575f80fd5b5060105460ff1661037e565b348015610a37575f80fd5b50600b5460ff1661037e565b5f610a4d82611cea565b92915050565b5f6012545f03610a6457505f919050565b6001600160a01b0382165f9081526011602052604081205490819003610a8c57505f92915050565b5f60125482600e54610a9e9190613c46565b610aa89190613c8a565b6001600160a01b0385165f90815260136020526040902054909150808211610ad0575f610ada565b610ada8183613cc2565b95945050505050565b7f02509c39826ef4d4fc9a6478dd388f892df655e831b495ea37e26344d4c48aca610b0d81611d3f565b610b15611d49565b60105460ff1615610b52576040517fda902c5c00000000000000000000000000000000000000000000000000000000815260040160405180910390fd5b610b5a611d86565b50600b805461ffff8416610100027fffffffffffffffffffffffffffffffffffffffffffffffffffffffffff0000ff9091161790556007546040517fdcfd3c456c7f42d94d236adab85854a7074ef2c12fcf2d907729a9c87220154291610bcf91859091825261ffff16602082015260400190565b60405180910390a15050565b335f9081527fad3228b676f7d3cd4284a5443f17f1962b36e491b30a40b2405849e597ba5fb5602052604090205460ff16158015610c475750335f9081527f419147074a8a0b83722181d4e0e5dc044f3b2854438503867308dada50203372602052604090205460ff16155b15610c8b576040517fa4e1a97e0000000000000000000000000000000000000000000000000000000081523360048201525f60248201526044015b60405180910390fd5b60105460ff1615610cc8576040517fda902c5c00000000000000000000000000000000000000000000000000000000815260040160405180910390fd5b600a54600e541015610d06576040517f5563445200000000000000000000000000000000000000000000000000000000815260040160405180910390fd5b610d0e611e8c565b565b610d18611f20565b610d20611d49565b600b5460ff1615610d5d576040517ff3e84c4c00000000000000000000000000000000000000000000000000000000815260040160405180910390fd5b805f03610d96576040517f8ff9ef0b00000000000000000000000000000000000000000000000000000000815260040160405180910390fd5b610da26006600a613dee565b610dad90600a613c46565b811015610e0057610dc06006600a613dee565b610dcb90600a613c46565b6040517fbec095db000000000000000000000000000000000000000000000000000000008152600401610c8291815260200190565b600a545f610e0e8383613dfc565b9050600854811115610e52576008546040517fa97a18a5000000000000000000000000000000000000000000000000000000008152600401610c8291815260200190565b600a819055335f9081526011602052604081208054859290610e75908490613dfc565b925050819055508260125f828254610e8d9190613dfc565b9091555050600454610eaa906001600160a01b0316333086611f63565b6008548103610ebb57610ebb611fdf565b600a5460405133917f9e9d071824fd57d062ca63fd8b786d8da48a6807eebbcb2d83f9e8d21398e28c91610ef791878252602082015260400190565b60405180910390a25050610f0b6001600355565b50565b5f82815260208190526040902060010154610f2881611d3f565b610f32838361222f565b50505050565b5f6012545f03610f4957505f919050565b6001600160a01b0382165f9081526011602052604081205490819003610f7157505f92915050565b5f60125482600f54610f839190613c46565b610f8d9190613c8a565b6001600160a01b0385165f90815260146020526040902054909150808211610ad0575f610ada565b6001600160a01b0381163314610ff7576040517f6697b23200000000000000000000000000000000000000000000000000000000815260040160405180910390fd5b6110018282612262565b505050565b7f65d7a28e3265b37a6474929f336521b332c1681b933f6cb9f3376673440d862a61103081611d3f565b610f0b61228d565b611040611f20565b611048611d49565b611050611d86565b505f61105b33610f38565b9050805f03611096576040517f969bf72800000000000000000000000000000000000000000000000000000000815260040160405180910390fd5b335f90815260146020526040812080548392906110b4908490613dfc565b90915550506004546110d0906001600160a01b031633836122df565b60405181815233907fc04825ba3f383b602255d2a13065a68e325c65c9e0ed5d031ea2b06f641873af906020015b60405180910390a250610d0e6001600355565b5f8061111b611f20565b611123611d49565b7f51a687be621618bb42f5dcbb17ee3798544ce951156fd30a67d800a241b4801961114d81611d3f565b60075485146111b8576040517f432f5b4a00000000000000000000000000000000000000000000000000000000815260206004820152601360248201527f50726f6a656374204944206d69736d61746368000000000000000000000000006044820152606401610c82565b60105460ff16156111f5576040517fda902c5c00000000000000000000000000000000000000000000000000000000815260040160405180910390fd5b835f03611207575f809250925061132f565b61120f611d86565b505f600e54600a546112219190613cc2565b90505f6b033b2e3c9fd0803ce8000000601254600c546112419190613c46565b61124b9190613c8a565b90505f8190505f600f548211611261575f61126e565b600f5461126e9083613cc2565b9050808810611297579450846112848189613cc2565b965083871115611292578396505b61129e565b8795505f96505b85600f5f8282546112af9190613dfc565b9250508190555086600e5f8282546112c79190613dfc565b9091555050600a54600e54106112e557600a54600e556112e5611e8c565b6007546040805191825260208201899052810187905233907f9b4568b7aa4f12be9ecabfae89e1d1885c23877819acceb5b1f25738ffd9f75e9060600160405180910390a2505050505b5061133a6001600355565b935093915050565b61134a612310565b611353826123e0565b61135d828261244a565b5050565b5f61136a612569565b507f360894a13ba1a3210667c828492db98dca3e2076cc3735a920a3ca505d382bbc90565b5f6113986125cb565b805490915060ff68010000000000000000820416159067ffffffffffffffff165f811580156113c45750825b90505f8267ffffffffffffffff1660011480156113e05750303b155b9050811580156113ee575080155b15611425576040517ff92ee8a900000000000000000000000000000000000000000000000000000000815260040160405180910390fd5b84547fffffffffffffffffffffffffffffffffffffffffffffffff000000000000000016600117855583156114865784547fffffffffffffffffffffffffffffffffffffffffffffff00ffffffffffffffff16680100000000000000001785555b6114ed611496602088018861396f565b6114a66040890160208a0161396f565b6114b660608a0160408b0161396f565b6114c660808b0160608c0161396f565b6114d660a08c0160808d0161396f565b6114e86101608d016101408e0161396f565b6125f3565b8560c001355f0361152a576040517fd11b25af00000000000000000000000000000000000000000000000000000000815260040160405180910390fd5b61153a604087016020880161396f565b600480547fffffffffffffffffffffffff0000000000000000000000000000000000000000166001600160a01b0392909216919091179055611582606087016040880161396f565b600580547fffffffffffffffffffffffff0000000000000000000000000000000000000000166001600160a01b03929092169190911790556115ca608087016060880161396f565b600680547fffffffffffffffffffffffff0000000000000000000000000000000000000000166001600160a01b039290921691909117905560a086013560075560c086013560085560e086013560155561162c61012087016101008801613e0f565b600980547fffffffffffffffffffffffffffffffffffffffffffffffffffff0000000000001665ffffffffffff9290921691909117905561167561014087016101208801613988565b600b805461ffff92909216610100027fffffffffffffffffffffffffffffffffffffffffffffffffffffffffff0000ff9092169190911790556116c06101608701610140880161396f565b601680547fffffffffffffffffffffffff0000000000000000000000000000000000000000166001600160a01b039290921691909117905561172d611708602088018861396f565b61171860a0890160808a0161396f565b61172860808a0160608b0161396f565b61268f565b5f600a8190556012819055600b805460ff19908116909155601080549091169055600e819055600f819055600c5583156117bc5784547fffffffffffffffffffffffffffffffffffffffffffffff00ffffffffffffffff168555604051600181527fc7f505b2f371ae2175ee4913f4499e1f2633a7b5936321eed1cdaeb6115181d29060200160405180910390a15b505050505050565b6117cc611f20565b6117d4611d49565b5f6117de33610a53565b9050805f03611819576040517f969bf72800000000000000000000000000000000000000000000000000000000815260040160405180910390fd5b335f9081526013602052604081208054839290611837908490613dfc565b9091555050600454611853906001600160a01b031633836122df565b60405181815233907f2e6100b89b43378c0aeb062f2df0cfaa63e4437abab6844b441f8e47cb31bec3906020016110fe565b7f65d7a28e3265b37a6474929f336521b332c1681b933f6cb9f3376673440d862a6118af81611d3f565b610f0b612770565b5f8281526001602052604081206118ce90836127ad565b9392505050565b5f6118df81611d3f565b6118e7611d49565b600b5460ff1615611924576040517ff3e84c4c00000000000000000000000000000000000000000000000000000000815260040160405180910390fd5b610f0b611fdf565b5f818152600160205260409020606090610a4d906127b8565b5f8061194f611f20565b611957611d49565b61195f611d86565b5061196933610a53565b915061197433610f38565b90505f6119818284613dfc565b9050805f036119bc576040517f969bf72800000000000000000000000000000000000000000000000000000000815260040160405180910390fd5b82156119e657335f90815260136020526040812080548592906119e0908490613dfc565b90915550505b8115611a1057335f9081526014602052604081208054849290611a0a908490613dfc565b90915550505b600454611a27906001600160a01b031633836122df565b8215611a635760405183815233907f2e6100b89b43378c0aeb062f2df0cfaa63e4437abab6844b441f8e47cb31bec39060200160405180910390a25b8115611a9f5760405182815233907fc04825ba3f383b602255d2a13065a68e325c65c9e0ed5d031ea2b06f641873af9060200160405180910390a25b50611aaa6001600355565b9091565b5f818152600160205260408120610a4d906127c4565b5f82815260208190526040902060010154611ade81611d3f565b610f328383612262565b7fc78f9bcb4e7702881693fc003818cea41b963ca2641dc5446bfdd14affd4afcb611b1281611d3f565b611b1a611d49565b60055460075460408051918252602082018590526001600160a01b03909216917f040795ed5b5ed8ea9942469aa49b95ead10dbd5c70065868f229643f1eacb49f910160405180910390a25050565b6010545f9060ff1615611b7b57505f90565b600b5460ff16611b8a57505f90565b600d54600c54429067ffffffffffffffff808416908316118015611baf57505f601254115b15611c76575f611bce6127105b600b54610100900461ffff16906127cd565b90505f611bf1611bee611be18787613e34565b67ffffffffffffffff1690565b90565b90506301e133805f611c0d611c06611bee8681565b84846127e4565b90505f611c198261298e565b90505f611c2a82633b9aca00613c46565b9050611c426b033b2e3c9fd0803ce800000082613cc2565b6b033b2e3c9fd0803ce8000000611c59838a613c46565b611c639190613c8a565b611c6d9190613dfc565b96505050505050505b5f600e54600a54611c879190613cc2565b90505f6b033b2e3c9fd0803ce800000060125484611ca59190613c46565b611caf9190613c8a565b90505f8190505f600f548211611cc5575f611cd2565b600f54611cd29083613cc2565b9050611cde8185613dfc565b97505050505050505090565b5f7fffffffff0000000000000000000000000000000000000000000000000000000082167f5a05180f000000000000000000000000000000000000000000000000000000001480610a4d5750610a4d82613102565b610f0b8133613198565b60025460ff1615610d0e576040517fd93c066500000000000000000000000000000000000000000000000000000000815260040160405180910390fd5b600d545f904267ffffffffffffffff808316908216111580611daa575060105460ff165b80611db85750600b5460ff16155b80611dc35750601254155b15611dd257600c549250505090565b5f611dde612710611bbc565b90505f611df1611bee611be18686613e34565b90506301e133805f611e06611c06611bee8681565b90505f611e128261298e565b90505f611e2382633b9aca00613c46565b600c54909150611e3f6b033b2e3c9fd0803ce800000083613cc2565b6b033b2e3c9fd0803ce8000000611e568484613c46565b611e609190613c8a565b611e6a9190613dfc565b600c81905567ffffffffffffffff909816600d55509598975050505050505050565b60105460ff1615611e9957565b6010805460ff19166001179055611eae611d86565b505f6b033b2e3c9fd0803ce8000000601254600c54611ecd9190613c46565b611ed79190613c8a565b600754600e54604080519283526020830191909152810182905290915081907f4acb957de3799dd3d95bb7da6bcfbca6f5a33812d69ad37816ed87e79b6327d690606001610bcf565b600260035403611f5c576040517f3ee5aeb500000000000000000000000000000000000000000000000000000000815260040160405180910390fd5b6002600355565b6040516001600160a01b038481166024830152838116604483015260648201839052610f329186918216906323b872dd906084015b604051602081830303815290604052915060e01b6020820180517bffffffffffffffffffffffffffffffffffffffffffffffffffffffff8381831617835250505050613203565b600b5460ff1615611fec57565b600b805460ff191660011790556009805467ffffffffffffffff42811666010000000000009081027fffffffffffffffffffffffffffffffffffff0000000000000000ffffffffffff9093169290921792839055910416600d55600754600a546040517f352ce94da8e3109dc06c05ed84e8a0aaf9ce2c4329dfd10ad1190cf6200489729261208392908252602082015260400190565b60405180910390a1600a5415610d0e57600554600a546004546120b4926001600160a01b03918216929116906122df565b6016546001600160a01b0316156121be576016546007546040517f2d3bc8570000000000000000000000000000000000000000000000000000000081526001600160a01b0390921691632d3bc857916121139160040190815260200190565b6020604051808303815f875af192505050801561216b575060408051601f3d9081017fffffffffffffffffffffffffffffffffffffffffffffffffffffffffffffffe016820190925261216891810190613e54565b60015b6121bc576005546007546015546040519081526001600160a01b03909216917fc538a608f69fbfe24f023ca000ad9eef53d3bc0e808bb9e785fd5727f93445819060200160405180910390a36121be565b505b600654601554600a546001600160a01b039092169163dd92ffe5916121e291613dfc565b6040518263ffffffff1660e01b815260040161220091815260200190565b5f604051808303815f87803b158015612217575f80fd5b505af1925050508015612228575060015b15610d0e57565b5f8061223b8484613288565b905080156118ce575f84815260016020526040902061225a908461332f565b509392505050565b5f8061226e8484613343565b905080156118ce575f84815260016020526040902061225a90846133c4565b6122956133d8565b6002805460ff191690557f5db9ee0a495bf2e6ff9c91a7834c1ba4fdd244a5e8aa4e537bd38aeae4b073aa335b6040516001600160a01b03909116815260200160405180910390a1565b6040516001600160a01b0383811660248301526044820183905261100191859182169063a9059cbb90606401611f98565b306001600160a01b037f00000000000000000000000000000000000000000000000000000000000000001614806123a957507f00000000000000000000000000000000000000000000000000000000000000006001600160a01b031661239d7f360894a13ba1a3210667c828492db98dca3e2076cc3735a920a3ca505d382bbc546001600160a01b031690565b6001600160a01b031614155b15610d0e576040517fe07c8dba00000000000000000000000000000000000000000000000000000000815260040160405180910390fd5b7f189ab7a9244df0848122154315af71fe140f3db0fe014031783b0946b8c9d2e361240a81611d3f565b6001600160a01b03821661135d576040517f8579befe00000000000000000000000000000000000000000000000000000000815260040160405180910390fd5b816001600160a01b03166352d1902d6040518163ffffffff1660e01b8152600401602060405180830381865afa9250505080156124c2575060408051601f3d9081017fffffffffffffffffffffffffffffffffffffffffffffffffffffffffffffffe01682019092526124bf91810190613e54565b60015b612503576040517f4c9c8ce30000000000000000000000000000000000000000000000000000000081526001600160a01b0383166004820152602401610c82565b7f360894a13ba1a3210667c828492db98dca3e2076cc3735a920a3ca505d382bbc811461255f576040517faa1d49a400000000000000000000000000000000000000000000000000000000815260048101829052602401610c82565b6110018383613414565b306001600160a01b037f00000000000000000000000000000000000000000000000000000000000000001614610d0e576040517fe07c8dba00000000000000000000000000000000000000000000000000000000815260040160405180910390fd5b5f807ff0c57e16840df040f15088dc2f81fe391c3923bec73e23a9662efc9c229c6a00610a4d565b6001600160a01b038616158061261057506001600160a01b038516155b8061262257506001600160a01b038416155b8061263457506001600160a01b038316155b8061264657506001600160a01b038216155b8061265857506001600160a01b038116155b156117bc576040517f8579befe00000000000000000000000000000000000000000000000000000000815260040160405180910390fd5b6126995f8461222f565b506126c47f65d7a28e3265b37a6474929f336521b332c1681b933f6cb9f3376673440d862a8461222f565b506126ef7f189ab7a9244df0848122154315af71fe140f3db0fe014031783b0946b8c9d2e38461222f565b5061271a7f51a687be621618bb42f5dcbb17ee3798544ce951156fd30a67d800a241b480198361222f565b506127457fc78f9bcb4e7702881693fc003818cea41b963ca2641dc5446bfdd14affd4afcb8261222f565b50610f327f02509c39826ef4d4fc9a6478dd388f892df655e831b495ea37e26344d4c48aca8461222f565b612778611d49565b6002805460ff191660011790557f62e78cea01bee320cd4e420270b5ea74000d11b0c9f74754ebdbfc544b05a2586122c23390565b5f6118ce8383613469565b60605f6118ce8361348f565b5f610a4d825490565b5f6118ce611bee84670de0b6b3a7640000856134e8565b5f7f800000000000000000000000000000000000000000000000000000000000000084148061283257507f800000000000000000000000000000000000000000000000000000000000000083145b8061285c57507f800000000000000000000000000000000000000000000000000000000000000082145b15612893576040517f96aa557200000000000000000000000000000000000000000000000000000000815260040160405180910390fd5b5f805f8087126128a357866128a7565b865f035b92505f86126128b657856128ba565b855f035b91505f85126128c957846128cd565b845f035b90505f6128db8484846134e8565b90507f7fffffffffffffffffffffffffffffffffffffffffffffffffffffffffffffff811115612941576040517f1832b7bd0000000000000000000000000000000000000000000000000000000081526004810189905260248101889052604401610c82565b7fffffffffffffffffffffffffffffffffffffffffffffffffffffffffffffffff80891390808913908813818318811461297b578361297f565b835f035b9b9a5050505050505050505050565b7780000000000000000000000000000000000000000000000067ff00000000000000821615612aaf576780000000000000008216156129d65768016a09e667f3bcc9090260401c5b6740000000000000008216156129f5576801306fe0a31b7152df0260401c5b672000000000000000821615612a14576801172b83c7d517adce0260401c5b671000000000000000821615612a335768010b5586cf9890f62a0260401c5b670800000000000000821615612a52576801059b0d31585743ae0260401c5b670400000000000000821615612a7157680102c9a3e778060ee70260401c5b670200000000000000821615612a905768010163da9fb33356d80260401c5b670100000000000000821615612aaf57680100b1afa5abcbed610260401c5b66ff000000000000821615612bae576680000000000000821615612adc5768010058c86da1c09ea20260401c5b6640000000000000821615612afa576801002c605e2e8cec500260401c5b6620000000000000821615612b1857680100162f3904051fa10260401c5b6610000000000000821615612b36576801000b175effdc76ba0260401c5b6608000000000000821615612b5457680100058ba01fb9f96d0260401c5b6604000000000000821615612b725768010002c5cc37da94920260401c5b6602000000000000821615612b90576801000162e525ee05470260401c5b6601000000000000821615612bae5768010000b17255775c040260401c5b65ff0000000000821615612ca45765800000000000821615612bd9576801000058b91b5bc9ae0260401c5b65400000000000821615612bf657680100002c5c89d5ec6d0260401c5b65200000000000821615612c135768010000162e43f4f8310260401c5b65100000000000821615612c3057680100000b1721bcfc9a0260401c5b65080000000000821615612c4d5768010000058b90cf1e6e0260401c5b65040000000000821615612c6a576801000002c5c863b73f0260401c5b65020000000000821615612c8757680100000162e430e5a20260401c5b65010000000000821615612ca4576801000000b1721835510260401c5b64ff00000000821615612d9157648000000000821615612ccd57680100000058b90c0b490260401c5b644000000000821615612ce95768010000002c5c8601cc0260401c5b642000000000821615612d05576801000000162e42fff00260401c5b641000000000821615612d215768010000000b17217fbb0260401c5b640800000000821615612d3d576801000000058b90bfce0260401c5b640400000000821615612d5957680100000002c5c85fe30260401c5b640200000000821615612d755768010000000162e42ff10260401c5b640100000000821615612d9157680100000000b17217f80260401c5b63ff000000821615612e75576380000000821615612db85768010000000058b90bfc0260401c5b6340000000821615612dd3576801000000002c5c85fe0260401c5b6320000000821615612dee57680100000000162e42ff0260401c5b6310000000821615612e09576801000000000b17217f0260401c5b6308000000821615612e2457680100000000058b90c00260401c5b6304000000821615612e3f5768010000000002c5c8600260401c5b6302000000821615612e5a576801000000000162e4300260401c5b6301000000821615612e755768010000000000b172180260401c5b62ff0000821615612f505762800000821615612e9a576801000000000058b90c0260401c5b62400000821615612eb457680100000000002c5c860260401c5b62200000821615612ece5768010000000000162e430260401c5b62100000821615612ee857680100000000000b17210260401c5b62080000821615612f025768010000000000058b910260401c5b62040000821615612f1c576801000000000002c5c80260401c5b62020000821615612f3657680100000000000162e40260401c5b62010000821615612f50576801000000000000b1720260401c5b61ff0082161561302257618000821615612f7357680100000000000058b90260401c5b614000821615612f8c5768010000000000002c5d0260401c5b612000821615612fa5576801000000000000162e0260401c5b611000821615612fbe5768010000000000000b170260401c5b610800821615612fd7576801000000000000058c0260401c5b610400821615612ff057680100000000000002c60260401c5b61020082161561300957680100000000000001630260401c5b61010082161561302257680100000000000000b10260401c5b60ff8216156130eb57608082161561304357680100000000000000590260401c5b604082161561305b576801000000000000002c0260401c5b602082161561307357680100000000000000160260401c5b601082161561308b576801000000000000000b0260401c5b60088216156130a357680100000000000000060260401c5b60048216156130bb57680100000000000000030260401c5b60028216156130d357680100000000000000010260401c5b60018216156130eb57680100000000000000010260401c5b670de0b6b3a76400000260409190911c60bf031c90565b5f7fffffffff0000000000000000000000000000000000000000000000000000000082167f7965db0b000000000000000000000000000000000000000000000000000000001480610a4d57507f01ffc9a7000000000000000000000000000000000000000000000000000000007fffffffff00000000000000000000000000000000000000000000000000000000831614610a4d565b5f828152602081815260408083206001600160a01b038516845290915290205460ff1661135d576040517fe2517d3f0000000000000000000000000000000000000000000000000000000081526001600160a01b038216600482015260248101839052604401610c82565b5f8060205f8451602086015f885af180613222576040513d5f823e3d81fd5b50505f513d91508115613239578060011415613246565b6001600160a01b0384163b155b15610f32576040517f5274afe70000000000000000000000000000000000000000000000000000000081526001600160a01b0385166004820152602401610c82565b5f828152602081815260408083206001600160a01b038516845290915281205460ff16613328575f838152602081815260408083206001600160a01b03861684529091529020805460ff191660011790556132e03390565b6001600160a01b0316826001600160a01b0316847f2f8788117e7eff1d82e926ec794901d17c78024a50270940304540a733656f0d60405160405180910390a4506001610a4d565b505f610a4d565b5f6118ce836001600160a01b0384166135ee565b5f828152602081815260408083206001600160a01b038516845290915281205460ff1615613328575f838152602081815260408083206001600160a01b0386168085529252808320805460ff1916905551339286917ff6391f5c32d9c69d2a47ea670b442974b53935d1edc7fd64eb21e047a839171b9190a4506001610a4d565b5f6118ce836001600160a01b038416613633565b60025460ff16610d0e576040517f8dfc202b00000000000000000000000000000000000000000000000000000000815260040160405180910390fd5b61341d82613716565b6040516001600160a01b038316907fbc7cd75a20ee27fd9adebab32041f755214dbc6bffa90cc0225b39da2e5c2d3b905f90a28051156134615761100182826137bd565b61135d613826565b5f825f01828154811061347e5761347e613e6b565b905f5260205f200154905092915050565b6060815f018054806020026020016040519081016040528092919081815260200182805480156134dc57602002820191905f5260205f20905b8154815260200190600101908083116134c8575b50505050509050919050565b5f80807fffffffffffffffffffffffffffffffffffffffffffffffffffffffffffffffff858709858702925082811083820303915050805f0361353e5783828161353457613534613c5d565b04925050506118ce565b838110613588576040517f63a05778000000000000000000000000000000000000000000000000000000008152600481018790526024810186905260448101859052606401610c82565b5f84868809600260036001881981018916988990049182028318808302840302808302840302808302840302808302840302808302840302918202909203025f889003889004909101858311909403939093029303949094049190911702949350505050565b5f81815260018301602052604081205461332857508154600181810184555f848152602080822090930184905584548482528286019093526040902091909155610a4d565b5f818152600183016020526040812054801561370d575f613655600183613cc2565b85549091505f9061366890600190613cc2565b90508082146136c7575f865f01828154811061368657613686613e6b565b905f5260205f200154905080875f0184815481106136a6576136a6613e6b565b5f918252602080832090910192909255918252600188019052604090208390555b85548690806136d8576136d8613e98565b600190038181905f5260205f20015f90559055856001015f8681526020019081526020015f205f905560019350505050610a4d565b5f915050610a4d565b806001600160a01b03163b5f03613764576040517f4c9c8ce30000000000000000000000000000000000000000000000000000000081526001600160a01b0382166004820152602401610c82565b7f360894a13ba1a3210667c828492db98dca3e2076cc3735a920a3ca505d382bbc80547fffffffffffffffffffffffff0000000000000000000000000000000000000000166001600160a01b0392909216919091179055565b60605f80846001600160a01b0316846040516137d99190613ec5565b5f60405180830381855af49150503d805f8114613811576040519150601f19603f3d011682016040523d82523d5f602084013e613816565b606091505b5091509150610ada85838361385e565b3415610d0e576040517fb398979f00000000000000000000000000000000000000000000000000000000815260040160405180910390fd5b6060826138735761386e826138d3565b6118ce565b815115801561388a57506001600160a01b0384163b155b156138cc576040517f9996b3150000000000000000000000000000000000000000000000000000000081526001600160a01b0385166004820152602401610c82565b50806118ce565b8051156138e35780518082602001fd5b6040517fd6bda27500000000000000000000000000000000000000000000000000000000815260040160405180910390fd5b5f60208284031215613925575f80fd5b81357fffffffff00000000000000000000000000000000000000000000000000000000811681146118ce575f80fd5b80356001600160a01b038116811461396a575f80fd5b919050565b5f6020828403121561397f575f80fd5b6118ce82613954565b5f60208284031215613998575f80fd5b813561ffff811681146118ce575f80fd5b5f602082840312156139b9575f80fd5b5035919050565b5f80604083850312156139d1575f80fd5b823591506139e160208401613954565b90509250929050565b5f805f606084860312156139fc575f80fd5b505081359360208301359350604090920135919050565b7f4e487b71000000000000000000000000000000000000000000000000000000005f52604160045260245ffd5b5f8060408385031215613a51575f80fd5b613a5a83613954565b9150602083013567ffffffffffffffff811115613a75575f80fd5b8301601f81018513613a85575f80fd5b803567ffffffffffffffff811115613a9f57613a9f613a13565b6040517fffffffffffffffffffffffffffffffffffffffffffffffffffffffffffffffe0603f7fffffffffffffffffffffffffffffffffffffffffffffffffffffffffffffffe0601f8501160116810181811067ffffffffffffffff82111715613b0b57613b0b613a13565b604052818152828201602001871015613b22575f80fd5b816020840160208301375f602083830101528093505050509250929050565b5f610160828403128015613b53575f80fd5b509092915050565b5f8060408385031215613b6c575f80fd5b50508035926020909101359150565b602080825282518282018190525f918401906040840190835b81811015613bbb5783516001600160a01b0316835260209384019390920191600101613b94565b509095945050505050565b602081525f82518060208401528060208501604085015e5f6040828501015260407fffffffffffffffffffffffffffffffffffffffffffffffffffffffffffffffe0601f83011684010191505092915050565b7f4e487b71000000000000000000000000000000000000000000000000000000005f52601160045260245ffd5b8082028115828204841417610a4d57610a4d613c19565b7f4e487b71000000000000000000000000000000000000000000000000000000005f52601260045260245ffd5b5f82613cbd577f4e487b71000000000000000000000000000000000000000000000000000000005f52601260045260245ffd5b500490565b81810381811115610a4d57610a4d613c19565b6001815b600184111561133a57808504811115613cf457613cf4613c19565b6001841615613d0257908102905b60019390931c928002613cd9565b5f82613d1e57506001610a4d565b81613d2a57505f610a4d565b8160018114613d405760028114613d4a57613d66565b6001915050610a4d565b60ff841115613d5b57613d5b613c19565b50506001821b610a4d565b5060208310610133831016604e8410600b8410161715613d89575081810a610a4d565b613db47fffffffffffffffffffffffffffffffffffffffffffffffffffffffffffffffff8484613cd5565b807fffffffffffffffffffffffffffffffffffffffffffffffffffffffffffffffff04821115613de657613de6613c19565b029392505050565b5f6118ce60ff841683613d10565b80820180821115610a4d57610a4d613c19565b5f60208284031215613e1f575f80fd5b813565ffffffffffff811681146118ce575f80fd5b67ffffffffffffffff8281168282160390811115610a4d57610a4d613c19565b5f60208284031215613e64575f80fd5b5051919050565b7f4e487b71000000000000000000000000000000000000000000000000000000005f52603260045260245ffd5b7f4e487b71000000000000000000000000000000000000000000000000000000005f52603160045260245ffd5b5f82518060208501845e5f92019182525091905056fea26469706673582212206fb80c02992e6934dd00f846b4a68c57c11e469faa847e46e5fd58f512e9e77664736f6c634300081a0033",
    "linkReferences": {}
  },
  "methodIdentifiers": {
    "DEFAULT_ADMIN_ROLE()": "a217fddf",
    "UPGRADE_INTERFACE_VERSION()": "ad3cb1cc",
    "accruedInterestPerShare_RAY()": "5ae4cbf0",
    "claimPrincipal()": "7ba32ee3",
    "claimYield()": "406cf229",
    "claimablePrincipal(address)": "0ce77ca3",
    "claimableYield(address)": "3180afec",
    "closeFundingManually()": "99fb9f04",
    "closeLoan()": "232fa733",
    "currentAprBps()": "9b9ee663",
    "depositEscrowAddress()": "e7559260",
    "devEscrow()": "03e89a8c",
    "developer()": "ca4b208b",
    "developerDeposit()": "68a18855",
    "fundingClosed()": "2116da5b",
    "getCurrentAprBps()": "d84065f9",
    "getLoanAmount()": "f4b01b18",
    "getPrincipalRepaid()": "1916f16f",
    "getRoleAdmin(bytes32)": "248a9ca3",
    "getRoleMember(bytes32,uint256)": "9010d07c",
    "getRoleMemberCount(bytes32)": "ca15c873",
    "getRoleMembers(bytes32)": "a3246ad3",
    "getTotalAssetsInvested()": "5204b10a",
    "grantRole(bytes32,address)": "2f2ff15d",
    "handleRepayment(uint256,uint256,uint256)": "496179ac",
    "hasRole(bytes32,address)": "91d14854",
    "initialize((address,address,address,address,address,uint256,uint256,uint256,uint48,uint16,address))": "7394c511",
    "interestClaimedByInvestor(address)": "da7806e6",
    "interestRepaid()": "2a2b3a20",
    "invest(uint256)": "2afcf480",
    "investorShares(address)": "d3690b6a",
    "isFundingClosed()": "ffaa6269",
    "isLoanClosed()": "fdd2d577",
    "lastInterestAccrualTimestamp()": "a5ddc864",
    "loanAmount()": "9d585f7f",
    "loanClosed()": "838dfaa4",
    "loanStartTime()": "850c4ca0",
    "loanTenor()": "417cd4b6",
    "pause()": "8456cb59",
    "paused()": "5c975abb",
    "principalClaimedByInvestor(address)": "b6cbc5f0",
    "principalRepaid()": "a05f0986",
    "projectId()": "3fafa127",
    "proxiableUUID()": "52d1902d",
    "redeem()": "be040fb0",
    "renounceRole(bytes32,address)": "36568abe",
    "revokeRole(bytes32,address)": "d547741f",
    "supportsInterface(bytes4)": "01ffc9a7",
    "totalAssetsInvested()": "4fd6403c",
    "totalDebt()": "fc7b9c18",
    "totalShares()": "3a98ef39",
    "triggerDrawdown(uint256)": "e6c6dfc0",
    "unpause()": "3f4ba83a",
    "updateRiskParams(uint16)": "1940fe31",
    "upgradeToAndCall(address,bytes)": "4f1ef286",
    "usdcToken()": "11eac855"
  },
  "id": 108
}