{
  "abi": [
    {
      "type": "constructor",
      "inputs": [
        {
          "name": "_creditToken",
          "type": "address",
          "internalType": "address"
        },
        {
          "name": "_rewardDistributor",
          "type": "address",
          "internalType": "address"
        },
        {
          "name": "_initialAdmin",
          "type": "address",
          "internalType": "address"
        },
        {
          "name": "_initialSubmitter",
          "type": "address",
          "internalType": "address"
        },
        {
          "name": "_initialEmissionFactor",
          "type": "uint256",
          "internalType": "uint256"
        },
        {
          "name": "_initialRequiredConsensusNodes",
          "type": "uint256",
          "internalType": "uint256"
        },
        {
          "name": "_initialBatchProcessingDelay",
          "type": "uint256",
          "internalType": "uint256"
        }
      ],
      "stateMutability": "nonpayable"
    },
    {
      "type": "function",
      "name": "DATA_SUBMITTER_ROLE",
      "inputs": [],
      "outputs": [
        {
          "name": "",
          "type": "bytes32",
          "internalType": "bytes32"
        }
      ],
      "stateMutability": "view"
    },
    {
      "type": "function",
      "name": "DEFAULT_ADMIN_ROLE",
      "inputs": [],
      "outputs": [
        {
          "name": "",
          "type": "bytes32",
          "internalType": "bytes32"
        }
      ],
      "stateMutability": "view"
    },
    {
      "type": "function",
      "name": "NODE_MANAGER_ROLE",
      "inputs": [],
      "outputs": [
        {
          "name": "",
          "type": "bytes32",
          "internalType": "bytes32"
        }
      ],
      "stateMutability": "view"
    },
    {
      "type": "function",
      "name": "PAUSER_ROLE",
      "inputs": [],
      "outputs": [
        {
          "name": "",
          "type": "bytes32",
          "internalType": "bytes32"
        }
      ],
      "stateMutability": "view"
    },
    {
      "type": "function",
      "name": "UPGRADER_ROLE",
      "inputs": [],
      "outputs": [
        {
          "name": "",
          "type": "bytes32",
          "internalType": "bytes32"
        }
      ],
      "stateMutability": "view"
    },
    {
      "type": "function",
      "name": "UPGRADE_INTERFACE_VERSION",
      "inputs": [],
      "outputs": [
        {
          "name": "",
          "type": "string",
          "internalType": "string"
        }
      ],
      "stateMutability": "view"
    },
    {
      "type": "function",
      "name": "batchChallenges",
      "inputs": [
        {
          "name": "",
          "type": "bytes32",
          "internalType": "bytes32"
        }
      ],
      "outputs": [
        {
          "name": "challenger",
          "type": "address",
          "internalType": "address"
        },
        {
          "name": "batchHash",
          "type": "bytes32",
          "internalType": "bytes32"
        },
        {
          "name": "reason",
          "type": "string",
          "internalType": "string"
        },
        {
          "name": "challengeTime",
          "type": "uint64",
          "internalType": "uint64"
        },
        {
          "name": "isResolved",
          "type": "bool",
          "internalType": "bool"
        },
        {
          "name": "isUpheld",
          "type": "bool",
          "internalType": "bool"
        }
      ],
      "stateMutability": "view"
    },
    {
      "type": "function",
      "name": "batchProcessingDelay",
      "inputs": [],
      "outputs": [
        {
          "name": "",
          "type": "uint256",
          "internalType": "uint256"
        }
      ],
      "stateMutability": "view"
    },
    {
      "type": "function",
      "name": "batchSubmissionTimes",
      "inputs": [
        {
          "name": "",
          "type": "bytes32",
          "internalType": "bytes32"
        }
      ],
      "outputs": [
        {
          "name": "",
          "type": "uint256",
          "internalType": "uint256"
        }
      ],
      "stateMutability": "view"
    },
    {
      "type": "function",
      "name": "carbonCreditToken",
      "inputs": [],
      "outputs": [
        {
          "name": "",
          "type": "address",
          "internalType": "contract ICarbonCreditToken"
        }
      ],
      "stateMutability": "view"
    },
    {
      "type": "function",
      "name": "challengeBatch",
      "inputs": [
        {
          "name": "batchHash",
          "type": "bytes32",
          "internalType": "bytes32"
        },
        {
          "name": "reason",
          "type": "string",
          "internalType": "string"
        }
      ],
      "outputs": [],
      "stateMutability": "nonpayable"
    },
    {
      "type": "function",
      "name": "emissionFactor",
      "inputs": [],
      "outputs": [
        {
          "name": "",
          "type": "uint256",
          "internalType": "uint256"
        }
      ],
      "stateMutability": "view"
    },
    {
      "type": "function",
      "name": "getPeerIdCount",
      "inputs": [],
      "outputs": [
        {
          "name": "",
          "type": "uint256",
          "internalType": "uint256"
        }
      ],
      "stateMutability": "view"
    },
    {
      "type": "function",
      "name": "getRoleAdmin",
      "inputs": [
        {
          "name": "role",
          "type": "bytes32",
          "internalType": "bytes32"
        }
      ],
      "outputs": [
        {
          "name": "",
          "type": "bytes32",
          "internalType": "bytes32"
        }
      ],
      "stateMutability": "view"
    },
    {
      "type": "function",
      "name": "grantRole",
      "inputs": [
        {
          "name": "role",
          "type": "bytes32",
          "internalType": "bytes32"
        },
        {
          "name": "account",
          "type": "address",
          "internalType": "address"
        }
      ],
      "outputs": [],
      "stateMutability": "nonpayable"
    },
    {
      "type": "function",
      "name": "hasRole",
      "inputs": [
        {
          "name": "role",
          "type": "bytes32",
          "internalType": "bytes32"
        },
        {
          "name": "account",
          "type": "address",
          "internalType": "address"
        }
      ],
      "outputs": [
        {
          "name": "",
          "type": "bool",
          "internalType": "bool"
        }
      ],
      "stateMutability": "view"
    },
    {
      "type": "function",
      "name": "pause",
      "inputs": [],
      "outputs": [],
      "stateMutability": "nonpayable"
    },
    {
      "type": "function",
      "name": "paused",
      "inputs": [],
      "outputs": [
        {
          "name": "",
          "type": "bool",
          "internalType": "bool"
        }
      ],
      "stateMutability": "view"
    },
    {
      "type": "function",
      "name": "peerIds",
      "inputs": [
        {
          "name": "",
          "type": "uint256",
          "internalType": "uint256"
        }
      ],
      "outputs": [
        {
          "name": "",
          "type": "bytes32",
          "internalType": "bytes32"
        }
      ],
      "stateMutability": "view"
    },
    {
      "type": "function",
      "name": "processBatch",
      "inputs": [
        {
          "name": "batchHash",
          "type": "bytes32",
          "internalType": "bytes32"
        }
      ],
      "outputs": [],
      "stateMutability": "nonpayable"
    },
    {
      "type": "function",
      "name": "processedBatchHashes",
      "inputs": [
        {
          "name": "",
          "type": "bytes32",
          "internalType": "bytes32"
        }
      ],
      "outputs": [
        {
          "name": "",
          "type": "bool",
          "internalType": "bool"
        }
      ],
      "stateMutability": "view"
    },
    {
      "type": "function",
      "name": "proxiableUUID",
      "inputs": [],
      "outputs": [
        {
          "name": "",
          "type": "bytes32",
          "internalType": "bytes32"
        }
      ],
      "stateMutability": "view"
    },
    {
      "type": "function",
      "name": "registerNode",
      "inputs": [
        {
          "name": "_peerId",
          "type": "bytes32",
          "internalType": "bytes32"
        },
        {
          "name": "_operator",
          "type": "address",
          "internalType": "address"
        }
      ],
      "outputs": [],
      "stateMutability": "nonpayable"
    },
    {
      "type": "function",
      "name": "registeredNodes",
      "inputs": [
        {
          "name": "",
          "type": "bytes32",
          "internalType": "bytes32"
        }
      ],
      "outputs": [
        {
          "name": "operator",
          "type": "address",
          "internalType": "address"
        },
        {
          "name": "peerId",
          "type": "bytes32",
          "internalType": "bytes32"
        },
        {
          "name": "isActive",
          "type": "bool",
          "internalType": "bool"
        }
      ],
      "stateMutability": "view"
    },
    {
      "type": "function",
      "name": "renounceRole",
      "inputs": [
        {
          "name": "role",
          "type": "bytes32",
          "internalType": "bytes32"
        },
        {
          "name": "callerConfirmation",
          "type": "address",
          "internalType": "address"
        }
      ],
      "outputs": [],
      "stateMutability": "nonpayable"
    },
    {
      "type": "function",
      "name": "requiredConsensusNodes",
      "inputs": [],
      "outputs": [
        {
          "name": "",
          "type": "uint256",
          "internalType": "uint256"
        }
      ],
      "stateMutability": "view"
    },
    {
      "type": "function",
      "name": "resolveChallenge",
      "inputs": [
        {
          "name": "batchHash",
          "type": "bytes32",
          "internalType": "bytes32"
        },
        {
          "name": "isUpheld",
          "type": "bool",
          "internalType": "bool"
        }
      ],
      "outputs": [],
      "stateMutability": "nonpayable"
    },
    {
      "type": "function",
      "name": "revokeRole",
      "inputs": [
        {
          "name": "role",
          "type": "bytes32",
          "internalType": "bytes32"
        },
        {
          "name": "account",
          "type": "address",
          "internalType": "address"
        }
      ],
      "outputs": [],
      "stateMutability": "nonpayable"
    },
    {
      "type": "function",
      "name": "rewardDistributor",
      "inputs": [],
      "outputs": [
        {
          "name": "",
          "type": "address",
          "internalType": "contract IRewardDistributor"
        }
      ],
      "stateMutability": "view"
    },
    {
      "type": "function",
      "name": "setBatchProcessingDelay",
      "inputs": [
        {
          "name": "_delayInSeconds",
          "type": "uint256",
          "internalType": "uint256"
        }
      ],
      "outputs": [],
      "stateMutability": "nonpayable"
    },
    {
      "type": "function",
      "name": "setEmissionFactor",
      "inputs": [
        {
          "name": "_factor",
          "type": "uint256",
          "internalType": "uint256"
        }
      ],
      "outputs": [],
      "stateMutability": "nonpayable"
    },
    {
      "type": "function",
      "name": "setRequiredConsensusNodes",
      "inputs": [
        {
          "name": "_requiredNodes",
          "type": "uint256",
          "internalType": "uint256"
        }
      ],
      "outputs": [],
      "stateMutability": "nonpayable"
    },
    {
      "type": "function",
      "name": "storedBatches",
      "inputs": [
        {
          "name": "",
          "type": "bytes32",
          "internalType": "bytes32"
        },
        {
          "name": "",
          "type": "uint256",
          "internalType": "uint256"
        }
      ],
      "outputs": [
        {
          "name": "deviceId",
          "type": "bytes32",
          "internalType": "bytes32"
        },
        {
          "name": "nodeOperatorAddress",
          "type": "address",
          "internalType": "address"
        },
        {
          "name": "energyKWh",
          "type": "uint256",
          "internalType": "uint256"
        },
        {
          "name": "timestamp",
          "type": "uint64",
          "internalType": "uint64"
        }
      ],
      "stateMutability": "view"
    },
    {
      "type": "function",
      "name": "submitEnergyDataBatch",
      "inputs": [
        {
          "name": "dataBatch",
          "type": "tuple[]",
          "internalType": "struct EnergyDataBridge.EnergyData[]",
          "components": [
            {
              "name": "deviceId",
              "type": "bytes32",
              "internalType": "bytes32"
            },
            {
              "name": "nodeOperatorAddress",
              "type": "address",
              "internalType": "address"
            },
            {
              "name": "energyKWh",
              "type": "uint256",
              "internalType": "uint256"
            },
            {
              "name": "timestamp",
              "type": "uint64",
              "internalType": "uint64"
            }
          ]
        },
        {
          "name": "consensusProof",
          "type": "tuple",
          "internalType": "struct EnergyDataBridge.P2PConsensusProof",
          "components": [
            {
              "name": "consensusRoundId",
              "type": "bytes32",
              "internalType": "bytes32"
            },
            {
              "name": "participatingNodeCount",
              "type": "uint256",
              "internalType": "uint256"
            },
            {
              "name": "consensusResultHash",
              "type": "bytes32",
              "internalType": "bytes32"
            },
            {
              "name": "multiSignature",
              "type": "bytes",
              "internalType": "bytes"
            }
          ]
        }
      ],
      "outputs": [],
      "stateMutability": "nonpayable"
    },
    {
      "type": "function",
      "name": "supportsInterface",
      "inputs": [
        {
          "name": "interfaceId",
          "type": "bytes4",
          "internalType": "bytes4"
        }
      ],
      "outputs": [
        {
          "name": "",
          "type": "bool",
          "internalType": "bool"
        }
      ],
      "stateMutability": "view"
    },
    {
      "type": "function",
      "name": "unpause",
      "inputs": [],
      "outputs": [],
      "stateMutability": "nonpayable"
    },
    {
      "type": "function",
      "name": "updateNodeStatus",
      "inputs": [
        {
          "name": "_peerId",
          "type": "bytes32",
          "internalType": "bytes32"
        },
        {
          "name": "_isActive",
          "type": "bool",
          "internalType": "bool"
        }
      ],
      "outputs": [],
      "stateMutability": "nonpayable"
    },
    {
      "type": "function",
      "name": "upgradeToAndCall",
      "inputs": [
        {
          "name": "newImplementation",
          "type": "address",
          "internalType": "address"
        },
        {
          "name": "data",
          "type": "bytes",
          "internalType": "bytes"
        }
      ],
      "outputs": [],
      "stateMutability": "payable"
    },
    {
      "type": "event",
      "name": "BatchChallenged",
      "inputs": [
        {
          "name": "batchHash",
          "type": "bytes32",
          "indexed": true,
          "internalType": "bytes32"
        },
        {
          "name": "challenger",
          "type": "address",
          "indexed": true,
          "internalType": "address"
        },
        {
          "name": "reason",
          "type": "string",
          "indexed": false,
          "internalType": "string"
        }
      ],
      "anonymous": false
    },
    {
      "type": "event",
      "name": "ChallengeResolved",
      "inputs": [
        {
          "name": "batchHash",
          "type": "bytes32",
          "indexed": true,
          "internalType": "bytes32"
        },
        {
          "name": "isUpheld",
          "type": "bool",
          "indexed": false,
          "internalType": "bool"
        }
      ],
      "anonymous": false
    },
    {
      "type": "event",
      "name": "EmissionFactorSet",
      "inputs": [
        {
          "name": "oldFactor",
          "type": "uint256",
          "indexed": false,
          "internalType": "uint256"
        },
        {
          "name": "newFactor",
          "type": "uint256",
          "indexed": false,
          "internalType": "uint256"
        }
      ],
      "anonymous": false
    },
    {
      "type": "event",
      "name": "EnergyDataProcessed",
      "inputs": [
        {
          "name": "batchHash",
          "type": "bytes32",
          "indexed": true,
          "internalType": "bytes32"
        },
        {
          "name": "totalCreditsMinted",
          "type": "uint256",
          "indexed": false,
          "internalType": "uint256"
        },
        {
          "name": "entriesProcessed",
          "type": "uint256",
          "indexed": false,
          "internalType": "uint256"
        }
      ],
      "anonymous": false
    },
    {
      "type": "event",
      "name": "EnergyDataSubmitted",
      "inputs": [
        {
          "name": "batchHash",
          "type": "bytes32",
          "indexed": true,
          "internalType": "bytes32"
        },
        {
          "name": "entriesSubmitted",
          "type": "uint256",
          "indexed": false,
          "internalType": "uint256"
        },
        {
          "name": "processAfterTimestamp",
          "type": "uint256",
          "indexed": false,
          "internalType": "uint256"
        }
      ],
      "anonymous": false
    },
    {
      "type": "event",
      "name": "NodeRegistered",
      "inputs": [
        {
          "name": "peerId",
          "type": "bytes32",
          "indexed": true,
          "internalType": "bytes32"
        },
        {
          "name": "operator",
          "type": "address",
          "indexed": true,
          "internalType": "address"
        }
      ],
      "anonymous": false
    },
    {
      "type": "event",
      "name": "NodeStatusUpdated",
      "inputs": [
        {
          "name": "peerId",
          "type": "bytes32",
          "indexed": true,
          "internalType": "bytes32"
        },
        {
          "name": "isActive",
          "type": "bool",
          "indexed": false,
          "internalType": "bool"
        }
      ],
      "anonymous": false
    },
    {
      "type": "event",
      "name": "Paused",
      "inputs": [
        {
          "name": "account",
          "type": "address",
          "indexed": false,
          "internalType": "address"
        }
      ],
      "anonymous": false
    },
    {
      "type": "event",
      "name": "RoleAdminChanged",
      "inputs": [
        {
          "name": "role",
          "type": "bytes32",
          "indexed": true,
          "internalType": "bytes32"
        },
        {
          "name": "previousAdminRole",
          "type": "bytes32",
          "indexed": true,
          "internalType": "bytes32"
        },
        {
          "name": "newAdminRole",
          "type": "bytes32",
          "indexed": true,
          "internalType": "bytes32"
        }
      ],
      "anonymous": false
    },
    {
      "type": "event",
      "name": "RoleGranted",
      "inputs": [
        {
          "name": "role",
          "type": "bytes32",
          "indexed": true,
          "internalType": "bytes32"
        },
        {
          "name": "account",
          "type": "address",
          "indexed": true,
          "internalType": "address"
        },
        {
          "name": "sender",
          "type": "address",
          "indexed": true,
          "internalType": "address"
        }
      ],
      "anonymous": false
    },
    {
      "type": "event",
      "name": "RoleRevoked",
      "inputs": [
        {
          "name": "role",
          "type": "bytes32",
          "indexed": true,
          "internalType": "bytes32"
        },
        {
          "name": "account",
          "type": "address",
          "indexed": true,
          "internalType": "address"
        },
        {
          "name": "sender",
          "type": "address",
          "indexed": true,
          "internalType": "address"
        }
      ],
      "anonymous": false
    },
    {
      "type": "event",
      "name": "Unpaused",
      "inputs": [
        {
          "name": "account",
          "type": "address",
          "indexed": false,
          "internalType": "address"
        }
      ],
      "anonymous": false
    },
    {
      "type": "event",
      "name": "Upgraded",
      "inputs": [
        {
          "name": "implementation",
          "type": "address",
          "indexed": true,
          "internalType": "address"
        }
      ],
      "anonymous": false
    },
    {
      "type": "error",
      "name": "AccessControlBadConfirmation",
      "inputs": []
    },
    {
      "type": "error",
      "name": "AccessControlUnauthorizedAccount",
      "inputs": [
        {
          "name": "account",
          "type": "address",
          "internalType": "address"
        },
        {
          "name": "neededRole",
          "type": "bytes32",
          "internalType": "bytes32"
        }
      ]
    },
    {
      "type": "error",
      "name": "AddressEmptyCode",
      "inputs": [
        {
          "name": "target",
          "type": "address",
          "internalType": "address"
        }
      ]
    },
    {
      "type": "error",
      "name": "BatchAlreadyChallenged",
      "inputs": []
    },
    {
      "type": "error",
      "name": "BatchAlreadyProcessed",
      "inputs": []
    },
    {
      "type": "error",
      "name": "BatchAlreadySubmitted",
      "inputs": []
    },
    {
      "type": "error",
      "name": "BatchChallengeUpheld",
      "inputs": []
    },
    {
      "type": "error",
      "name": "BatchNotSubmitted",
      "inputs": []
    },
    {
      "type": "error",
      "name": "CallerNotDataSubmitter",
      "inputs": []
    },
    {
      "type": "error",
      "name": "CallerNotNodeManager",
      "inputs": []
    },
    {
      "type": "error",
      "name": "ChallengeAlreadyResolved",
      "inputs": []
    },
    {
      "type": "error",
      "name": "ChallengeNotFound",
      "inputs": []
    },
    {
      "type": "error",
      "name": "ChallengePeriodNotOver",
      "inputs": []
    },
    {
      "type": "error",
      "name": "ChallengePeriodOver",
      "inputs": []
    },
    {
      "type": "error",
      "name": "ERC1967InvalidImplementation",
      "inputs": [
        {
          "name": "implementation",
          "type": "address",
          "internalType": "address"
        }
      ]
    },
    {
      "type": "error",
      "name": "ERC1967NonPayable",
      "inputs": []
    },
    {
      "type": "error",
      "name": "EnforcedPause",
      "inputs": []
    },
    {
      "type": "error",
      "name": "ExpectedPause",
      "inputs": []
    },
    {
      "type": "error",
      "name": "FailedCall",
      "inputs": []
    },
    {
      "type": "error",
      "name": "InvalidConsensusConfig",
      "inputs": []
    },
    {
      "type": "error",
      "name": "InvalidConsensusProof",
      "inputs": []
    },
    {
      "type": "error",
      "name": "InvalidEmissionFactor",
      "inputs": []
    },
    {
      "type": "error",
      "name": "InvalidPeerId",
      "inputs": []
    },
    {
      "type": "error",
      "name": "NodeNotRegistered",
      "inputs": []
    },
    {
      "type": "error",
      "name": "ReentrancyGuardReentrantCall",
      "inputs": []
    },
    {
      "type": "error",
      "name": "UUPSUnauthorizedCallContext",
      "inputs": []
    },
    {
      "type": "error",
      "name": "UUPSUnsupportedProxiableUUID",
      "inputs": [
        {
          "name": "slot",
          "type": "bytes32",
          "internalType": "bytes32"
        }
      ]
    },
    {
      "type": "error",
      "name": "UnresolvedChallenge",
      "inputs": []
    },
    {
      "type": "error",
      "name": "ZeroAddress",
      "inputs": []
    }
  ],
  "bytecode": {
    "object": "0x60a06040523461004d5761002061001461018a565b95949094939193610417565b610028610052565b613f19610875823960805181818161370c0152818161377101526139200152613f1990f35b610058565b60405190565b5f80fd5b601f801991011690565b634e487b7160e01b5f52604160045260245ffd5b906100849061005c565b810190811060018060401b0382111761009c57604052565b610066565b906100b46100ad610052565b928361007a565b565b5f80fd5b60018060a01b031690565b6100ce906100ba565b90565b6100da816100c5565b036100e157565b5f80fd5b905051906100f2826100d1565b565b90565b610100816100f4565b0361010757565b5f80fd5b90505190610118826100f7565b565b60e08183031261018557610130825f83016100e5565b9261013e83602084016100e5565b9261014c81604085016100e5565b9261015a82606083016100e5565b9261018261016b846080850161010b565b936101798160a0860161010b565b9360c00161010b565b90565b6100b6565b6101a861478e8038038061019d816100a1565b92833981019061011a565b90919293949596565b90565b90565b6101cb6101c66101d0926101b1565b6101b4565b6100ba565b90565b6101dc906101b7565b90565b5f0190565b6101f86101f36101fd926101b1565b6101b4565b6100f4565b90565b61021461020f610219926100ba565b6101b4565b6100ba565b90565b61022590610200565b90565b6102319061021c565b90565b5f1b90565b9061024a60018060a01b0391610234565b9181191691161790565b61025d9061021c565b90565b90565b9061027861027361027f92610254565b610260565b8254610239565b9055565b61028c90610200565b90565b61029890610283565b90565b6102a490610283565b90565b90565b906102bf6102ba6102c69261029b565b6102a7565b8254610239565b9055565b906102d65f1991610234565b9181191691161790565b6102f46102ef6102f9926100f4565b6101b4565b6100f4565b90565b90565b9061031461030f61031b926102e0565b6102fc565b82546102ca565b9055565b90565b61033661033161033b926101b1565b610234565b61031f565b90565b6103475f610322565b90565b7f65d7a28e3265b37a6474929f336521b332c1681b933f6cb9f3376673440d862a90565b7f189ab7a9244df0848122154315af71fe140f3db0fe014031783b0946b8c9d2e390565b7fdaf9ac3a6308052428e8806fd908cf472318416ed7d78b3f35dd94bbbafde56a90565b7ff52ef53ec1ccd82becd71536891a4878949c44f3e710519cb7b39d90c38fed2690565b6103e3906101e4565b9052565b6103f0906100f4565b9052565b91602061041592949361040e60408201965f8301906103da565b01906103e7565b565b94929395610423610671565b8561043e6104386104335f6101d3565b6100c5565b916100c5565b1461063d578161045e6104586104535f6101d3565b6100c5565b916100c5565b14610621578261047e6104786104735f6101d3565b6100c5565b916100c5565b14610605578461049e6104986104935f6101d3565b6100c5565b916100c5565b146105e957866104b66104b05f6101e4565b916100f4565b146105cd57836104ce6104c85f6101e4565b916100f4565b146105b157610518610565946105066104ff61051f956104fa6104f36105739c610228565b6003610263565b61028f565b60046102aa565b6105118960056102ff565b60096102ff565b600c6102ff565b61053161052a61033e565b8290610763565b5061054461053d61034a565b8290610763565b5061055761055061036e565b8290610763565b50610560610392565b610763565b5061056e6103b6565b610763565b505f907f52d6fea3ebb885fb57a2b1e62465f4883c03b0930558cc3d514d806b9c6ed833916105ac6105a3610052565b928392836103f4565b0390a1565b5f632730045360e21b8152806105c9600482016101df565b0390fd5b5f633802588b60e01b8152806105e5600482016101df565b0390fd5b5f63d92e233d60e01b815280610601600482016101df565b0390fd5b5f63d92e233d60e01b81528061061d600482016101df565b0390fd5b5f63d92e233d60e01b815280610639600482016101df565b0390fd5b5f63d92e233d60e01b815280610655600482016101df565b0390fd5b61066290610200565b90565b61066e90610659565b90565b610679610687565b61068230610665565b608052565b61068f6106bd565b565b90565b6106a86106a36106ad92610691565b6101b4565b6100f4565b90565b6106ba6001610694565b90565b6106cf6106c86106b0565b60026102ff565b565b5f90565b151590565b6106e39061031f565b90565b906106f0906106da565b5f5260205260405f2090565b61070590610659565b90565b90610712906106fc565b5f5260205260405f2090565b9061072a60ff91610234565b9181191691161790565b61073d906106d5565b90565b90565b9061075861075361075f92610734565b610740565b825461071e565b9055565b61076b6106d1565b5061078061077a82849061083a565b156106d5565b5f14610808576107a760016107a25f61079a8186906106e6565b018590610708565b610743565b906107b0610867565b906107ed6107e76107e17f2f8788117e7eff1d82e926ec794901d17c78024a50270940304540a733656f0d956106da565b926106fc565b926106fc565b926107f6610052565b80610800816101df565b0390a4600190565b50505f90565b5f1c90565b60ff1690565b61082561082a9161080e565b610813565b90565b6108379054610819565b90565b610860915f61085561085b9361084e6106d1565b50826106e6565b01610708565b61082d565b90565b5f90565b61086f610863565b50339056fe60806040526004361015610013575b611807565b61001d5f3561027c565b806301ffc9a71461027757806306c52e7c146102725780631b2b49a61461026d5780631bacfcc114610268578063248a9ca3146102635780632f2ff15d1461025e57806333be17f81461025957806334083de71461025457806336568abe1461024f5780633f4ba83a1461024a578063474508cf146102455780634f1ef28614610240578063514bab551461023b57806352d1902d146102365780635c975abb1461023157806366b5b2c51461022c57806366dea35814610227578063686ddc7a146102225780636facc1051461021d5780637a6ab57d146102185780637d89122d146102135780638456cb591461020e578063897453f1146102095780638be2b073146102045780638ca5d972146101ff57806391d14854146101fa578063a217fddf146101f5578063acc2166a146101f0578063ad3cb1cc146101eb578063ad573d3e146101e6578063b3def2f5146101e1578063d547741f146101dc578063d59f9fe0146101d7578063d68de31b146101d2578063dffe86ae146101cd578063e63ab1e9146101c8578063e9ae4094146101c35763f72c0d8b0361000e576117d2565b611770565b61173b565b6116d9565b6116a4565b611640565b6115dd565b6115a8565b611561565b611491565b6113a9565b611306565b611295565b611259565b610fb4565b610f7f565b610ec5565b610e91565b610e07565b610bde565b610b9b565b610ae1565b610a14565b610923565b6108ee565b6108bb565b610891565b61072c565b6106c1565b61068d565b610659565b610624565b6105ce565b610532565b6104ff565b610481565b6103ec565b610308565b60e01c90565b60405190565b5f80fd5b5f80fd5b5f80fd5b63ffffffff60e01b1690565b6102a981610294565b036102b057565b5f80fd5b905035906102c1826102a0565b565b906020828203126102dc576102d9915f016102b4565b90565b61028c565b151590565b6102ef906102e1565b9052565b9190610306905f602085019401906102e6565b565b346103385761033461032361031e3660046102c3565b61180f565b61032b610282565b918291826102f3565b0390f35b610288565b90565b6103498161033d565b0361035057565b5f80fd5b9050359061036182610340565b565b9060208282031261037c57610379915f01610354565b90565b61028c565b61038a9061033d565b90565b9061039790610381565b5f5260205260405f2090565b1c90565b60ff1690565b6103bd9060086103c293026103a3565b6103a7565b90565b906103d091546103ad565b90565b6103e9906103e46006915f9261038d565b6103c5565b90565b3461041c57610418610407610402366004610363565b6103d3565b61040f610282565b918291826102f3565b0390f35b610288565b5f91031261042b57565b61028c565b7ff52ef53ec1ccd82becd71536891a4878949c44f3e710519cb7b39d90c38fed2690565b61045c610430565b90565b6104689061033d565b9052565b919061047f905f6020850194019061045f565b565b346104b157610491366004610421565b6104ad61049c610454565b6104a4610282565b9182918261046c565b0390f35b610288565b90565b6104c2816104b6565b036104c957565b5f80fd5b905035906104da826104b9565b565b906020828203126104f5576104f2915f016104cd565b90565b61028c565b5f0190565b3461052d576105176105123660046104dc565b611983565b61051f610282565b80610529816104fa565b0390f35b610288565b346105625761055e61054d610548366004610363565b6119a8565b610555610282565b9182918261046c565b0390f35b610288565b60018060a01b031690565b61057b90610567565b90565b61058781610572565b0361058e57565b5f80fd5b9050359061059f8261057e565b565b91906040838203126105c957806105bd6105c6925f8601610354565b93602001610592565b90565b61028c565b346105fd576105e76105e13660046105a1565b906119f3565b6105ef610282565b806105f9816104fa565b0390f35b610288565b61060b906104b6565b9052565b9190610622905f60208501940190610602565b565b3461065457610634366004610421565b61065061063f611a03565b610647610282565b9182918261060f565b0390f35b610288565b346106885761067261066c3660046105a1565b90611e23565b61067a610282565b80610684816104fa565b0390f35b610288565b346106bc576106a66106a03660046105a1565b90611e2f565b6106ae610282565b806106b8816104fa565b0390f35b610288565b346106ef576106d1366004610421565b6106d9611e9b565b6106e1610282565b806106eb816104fa565b0390f35b610288565b90565b61070790600861070c93026103a3565b6106f4565b90565b9061071a91546106f7565b90565b610729600c5f9061070f565b90565b3461075c5761073c366004610421565b61075861074761071d565b61074f610282565b9182918261060f565b0390f35b610288565b5f80fd5b5f80fd5b601f801991011690565b634e487b7160e01b5f52604160045260245ffd5b9061079190610769565b810190811067ffffffffffffffff8211176107ab57604052565b610773565b906107c36107bc610282565b9283610787565b565b67ffffffffffffffff81116107e3576107df602091610769565b0190565b610773565b90825f939282370152565b90929192610808610803826107c5565b6107b0565b9381855260208501908284011161082457610822926107e8565b565b610765565b9080601f8301121561084757816020610844933591016107f3565b90565b610761565b91909160408184031261088c57610865835f8301610592565b92602082013567ffffffffffffffff8111610887576108849201610829565b90565b610290565b61028c565b6108a561089f36600461084c565b90611ece565b6108ad610282565b806108b7816104fa565b0390f35b346108e9576108d36108ce3660046104dc565b611f02565b6108db610282565b806108e5816104fa565b0390f35b610288565b3461091e576108fe366004610421565b61091a610909611f78565b610911610282565b9182918261046c565b0390f35b610288565b3461095357610933366004610421565b61094f61093e611f8b565b610946610282565b918291826102f3565b0390f35b610288565b5f80fd5b5f80fd5b909182601f8301121561099a5781359167ffffffffffffffff831161099557602001926080830284011161099057565b61095c565b610958565b610761565b5f80fd5b908160809103126109b15790565b61099f565b9091604082840312610a0f575f82013567ffffffffffffffff8111610a0a57836109e1918401610960565b929093602082013567ffffffffffffffff8111610a0557610a0292016109a3565b90565b610290565b610290565b61028c565b34610a4357610a2d610a273660046109b6565b91612578565b610a35610282565b80610a3f816104fa565b0390f35b610288565b60018060a01b031690565b610a63906008610a6893026103a3565b610a48565b90565b90610a769154610a53565b90565b610a8560035f90610a6b565b90565b90565b610a9f610a9a610aa492610567565b610a88565b610567565b90565b610ab090610a8b565b90565b610abc90610aa7565b90565b610ac890610ab3565b9052565b9190610adf905f60208501940190610abf565b565b34610b1157610af1366004610421565b610b0d610afc610a79565b610b04610282565b91829182610acc565b0390f35b610288565b909182601f83011215610b505781359167ffffffffffffffff8311610b4b576020019260018302840111610b4657565b61095c565b610958565b610761565b919091604081840312610b9657610b6e835f8301610354565b92602082013567ffffffffffffffff8111610b9157610b8d9201610b16565b9091565b610290565b61028c565b34610bca57610bb4610bae366004610b55565b91612b35565b610bbc610282565b80610bc6816104fa565b0390f35b610288565b610bdb60095f9061070f565b90565b34610c0e57610bee366004610421565b610c0a610bf9610bcf565b610c01610282565b9182918261060f565b0390f35b610288565b9190604083820312610c3b5780610c2f610c38925f8601610354565b936020016104cd565b90565b61028c565b90610c4a90610381565b5f5260205260405f2090565b634e487b7160e01b5f52603260045260245ffd5b5490565b5f5260205f2090565b610c8081610c6a565b821015610c9a57610c92600491610c6e565b910201905f90565b610c56565b5f1c90565b90565b610cb3610cb891610c9f565b610ca4565b90565b610cc59054610ca7565b90565b60018060a01b031690565b610cdf610ce491610c9f565b610cc8565b90565b610cf19054610cd3565b90565b610d00610d0591610c9f565b6106f4565b90565b610d129054610cf4565b90565b67ffffffffffffffff1690565b610d2e610d3391610c9f565b610d15565b90565b610d409054610d22565b90565b610d4e90600b610c40565b90610d5882610c6a565b811015610d9e57610d6891610c77565b5090610d755f8301610cbb565b91610d8260018201610ce7565b91610d9b6003610d9460028501610d08565b9301610d36565b90565b5f80fd5b610dab90610572565b9052565b67ffffffffffffffff1690565b610dc590610daf565b9052565b610dfe610e0594610df4606094989795610dea608086019a5f87019061045f565b6020850190610da2565b6040830190610602565b0190610dbc565b565b34610e3c57610e38610e23610e1d366004610c13565b90610d43565b90610e2f949294610282565b94859485610dc9565b0390f35b610288565b610e4a816102e1565b03610e5157565b5f80fd5b90503590610e6282610e41565b565b9190604083820312610e8c5780610e80610e89925f8601610354565b93602001610e55565b90565b61028c565b34610ec057610eaa610ea4366004610e64565b90612c7b565b610eb2610282565b80610ebc816104fa565b0390f35b610288565b34610ef357610ed5366004610421565b610edd612cab565b610ee5610282565b80610eef816104fa565b0390f35b610288565b5490565b5f5260205f2090565b610f0e81610ef8565b821015610f2857610f20600191610efc565b910201905f90565b610c56565b610f3d906008610f4293026103a3565b610ca4565b90565b90610f509154610f2d565b90565b6008610f5e81610ef8565b821015610f7b57610f7891610f7291610f05565b90610f45565b90565b5f80fd5b34610faf57610fab610f9a610f953660046104dc565b610f53565b610fa2610282565b9182918261046c565b0390f35b610288565b34610fe357610fcd610fc7366004610e64565b90612daf565b610fd5610282565b80610fdf816104fa565b0390f35b610288565b90610ff290610381565b5f5260205260405f2090565b634e487b7160e01b5f52602260045260245ffd5b9060016002830492168015611032575b602083101461102d57565b610ffe565b91607f1691611022565b60209181520190565b5f5260205f2090565b905f929180549061106861106183611012565b809461103c565b916001811690815f146110bf5750600114611083575b505050565b6110909192939450611045565b915f925b8184106110a757505001905f808061107e565b60018160209295939554848601520191019290611094565b92949550505060ff19168252151560200201905f808061107e565b906110e49161104e565b90565b90611107611100926110f7610282565b938480926110da565b0383610787565b565b60401c90565b61111b61112091611109565b6103a7565b90565b61112d905461110f565b90565b60481c90565b61114261114791611130565b6103a7565b90565b6111549054611136565b90565b61116290600a610fe8565b9061116e5f8301610ce7565b9161117b60018201610cbb565b91611188600283016110e7565b9161119560038201610d36565b916111ad60036111a6818501611123565b930161114a565b90565b5190565b60209181520190565b90825f9392825e0152565b6111e76111f06020936111f5936111de816111b0565b938480936111b4565b958691016111bd565b610769565b0190565b919461124661123b6112509360a09661122e6112579a9c9b999c61122460c08a01945f8b0190610da2565b602089019061045f565b86820360408801526111c8565b986060850190610dbc565b60808301906102e6565b01906102e6565b565b346112905761128c61127461126f366004610363565b611157565b92611283969496929192610282565b968796876111f9565b0390f35b610288565b346112c6576112c26112b16112ab3660046105a1565b90612dd1565b6112b9610282565b918291826102f3565b0390f35b610288565b90565b5f1b90565b6112e76112e26112ec926112cb565b6112ce565b61033d565b90565b6112f85f6112d3565b90565b6113036112ef565b90565b3461133657611316366004610421565b6113326113216112fb565b611329610282565b9182918261046c565b0390f35b610288565b60018060a01b031690565b61135690600861135b93026103a3565b61133b565b90565b906113699154611346565b90565b61137860045f9061135e565b90565b61138490610aa7565b90565b6113909061137b565b9052565b91906113a7905f60208501940190611387565b565b346113d9576113b9366004610421565b6113d56113c461136c565b6113cc610282565b91829182611394565b0390f35b610288565b67ffffffffffffffff81116113fc576113f8602091610769565b0190565b610773565b9061141361140e836113de565b6107b0565b918252565b5f7f352e302e30000000000000000000000000000000000000000000000000000000910152565b6114496005611401565b9061145660208301611418565b565b61146061143f565b90565b61146b611458565b90565b611476611463565b90565b61148e9160208201915f8184039101526111c8565b90565b346114c1576114a1366004610421565b6114bd6114ac61146e565b6114b4610282565b91829182611479565b0390f35b610288565b906114d090610381565b5f5260205260405f2090565b6114e86114ed91610c9f565b6103a7565b90565b6114fa90546114dc565b90565b6115089060076114c6565b6115135f8201610ce7565b9161152c600261152560018501610cbb565b93016114f0565b90565b60409061155861155f949695939661154e60608401985f850190610da2565b602083019061045f565b01906102e6565b565b346115945761159061157c611577366004610363565b6114fd565b611587939193610282565b9384938461152f565b0390f35b610288565b6115a560055f9061070f565b90565b346115d8576115b8366004610421565b6115d46115c3611599565b6115cb610282565b9182918261060f565b0390f35b610288565b3461160c576115f66115f03660046105a1565b90612e24565b6115fe610282565b80611608816104fa565b0390f35b610288565b7fdaf9ac3a6308052428e8806fd908cf472318416ed7d78b3f35dd94bbbafde56a90565b61163d611611565b90565b3461167057611650366004610421565b61166c61165b611635565b611663610282565b9182918261046c565b0390f35b610288565b9061167f90610381565b5f5260205260405f2090565b6116a19061169c600d915f92611675565b61070f565b90565b346116d4576116d06116bf6116ba366004610363565b61168b565b6116c7610282565b9182918261060f565b0390f35b610288565b34611707576116f16116ec366004610363565b613467565b6116f9610282565b80611703816104fa565b0390f35b610288565b7f65d7a28e3265b37a6474929f336521b332c1681b933f6cb9f3376673440d862a90565b61173861170c565b90565b3461176b5761174b366004610421565b611767611756611730565b61175e610282565b9182918261046c565b0390f35b610288565b3461179e576117886117833660046104dc565b6134ce565b611790610282565b8061179a816104fa565b0390f35b610288565b7f189ab7a9244df0848122154315af71fe140f3db0fe014031783b0946b8c9d2e390565b6117cf6117a3565b90565b34611802576117e2366004610421565b6117fe6117ed6117c7565b6117f5610282565b9182918261046c565b0390f35b610288565b5f80fd5b5f90565b61181761180b565b508061183261182c637965db0b60e01b610294565b91610294565b1490811561183f575b5090565b61184991506134d9565b5f61183b565b6118689061186361185e6112ef565b6134ff565b6118fe565b565b61187e611879611883926112cb565b610a88565b6104b6565b90565b906118925f19916112ce565b9181191691161790565b6118b06118ab6118b5926104b6565b610a88565b6104b6565b90565b90565b906118d06118cb6118d79261189c565b6118b8565b8254611886565b9055565b9160206118fc9294936118f560408201965f830190610602565b0190610602565b565b8061191161190b5f61186a565b916104b6565b14611967576119206005610d08565b61192b8260056118bb565b907f52d6fea3ebb885fb57a2b1e62465f4883c03b0930558cc3d514d806b9c6ed83391611962611959610282565b928392836118db565b0390a1565b5f633802588b60e01b81528061197f600482016104fa565b0390fd5b61198c9061184f565b565b5f90565b9061199c90610381565b5f5260205260405f2090565b60016119c06119c6926119b961198e565b505f611992565b01610cbb565b90565b906119e4916119df6119da826119a8565b6134ff565b6119e6565b565b906119f091613513565b50565b906119fd916119c9565b565b5f90565b611a0b6119ff565b50611a166008610ef8565b90565b90611a3c611a36611a28611611565b611a306135c2565b90612dd1565b156102e1565b611a4b57611a4991611ccb565b565b5f63949fc64d60e01b815280611a63600482016104fa565b0390fd5b611a7b611a76611a80926112cb565b610a88565b610567565b90565b611a8c90611a67565b90565b90565b5f5260205f2090565b5490565b611aa881611a9b565b821015611ac257611aba600191611a92565b910201905f90565b610c56565b1b90565b91906008611ae6910291611ae05f1984611ac7565b92611ac7565b9181191691161790565b611af990610c9f565b90565b9190611b12611b0d611b1a93610381565b611af0565b908354611acb565b9055565b9081549168010000000000000000831015611b4e5782611b46916001611b4c95018155611a9f565b90611afc565b565b610773565b611b5d60606107b0565b90565b90611b6a90610572565b9052565b90611b789061033d565b9052565b90611b86906102e1565b9052565b634e487b7160e01b5f525f60045260245ffd5b611ba79051610572565b90565b90611bbb60018060a01b03916112ce565b9181191691161790565b611bce90610aa7565b90565b90565b90611be9611be4611bf092611bc5565b611bd1565b8254611baa565b9055565b611bfe905161033d565b90565b90611c16611c11611c1d92610381565b611af0565b8254611886565b9055565b611c2b90516102e1565b90565b90611c3a60ff916112ce565b9181191691161790565b611c4d906102e1565b90565b90565b90611c68611c63611c6f92611c44565b611c50565b8254611c2e565b9055565b90611cb760406002611cbd94611c965f8201611c905f8801611b9d565b90611bd4565b611caf60018201611ca960208801611bf4565b90611c01565b019201611c21565b90611c53565b565b90611cc991611c73565b565b80611ce6611ce0611cdb5f6112d3565b61033d565b9161033d565b14611e075781611d06611d00611cfb5f611a83565b610572565b91610572565b14611deb57611d215f611d1b600784906114c6565b01610ce7565b611d3b611d35611d305f611a83565b610572565b91610572565b14611dd2575b611d8682611d7583611d6c600191611d63611d5a611b53565b955f8701611b60565b60208501611b6e565b60408301611b7c565b611d81600784906114c6565b611cbf565b90611dba611db47f6cedacb14e1e8a818c7aec54125e7471dba6129fb346b97fe9ada4b43329eb8193610381565b91611bc5565b91611dc3610282565b80611dcd816104fa565b0390a3565b611de6611ddf6008611a8f565b8290611b1e565b611d41565b5f63d92e233d60e01b815280611e03600482016104fa565b0390fd5b5f63fd8b66e960e01b815280611e1f600482016104fa565b0390fd5b90611e2d91611a19565b565b9080611e4a611e44611e3f6135c2565b610572565b91610572565b03611e5b57611e58916135cf565b50565b5f63334bd91960e11b815280611e73600482016104fa565b0390fd5b611e87611e8261170c565b6134ff565b611e8f611e91565b565b611e996136e5565b565b611ea3611e77565b565b90611eb791611eb26136fb565b611eb9565b565b90611ecc91611ec7816137b5565b613811565b565b90611ed891611ea5565b565b611ef390611eee611ee96112ef565b6134ff565b611ef5565b565b611f0090600c6118bb565b565b611f0b90611eda565b565b611f1e90611f1961390f565b611f6c565b90565b90565b611f38611f33611f3d92611f21565b6112ce565b61033d565b90565b611f697f360894a13ba1a3210667c828492db98dca3e2076cc3735a920a3ca505d382bbc611f24565b90565b50611f75611f40565b90565b611f88611f8361198e565b611f0d565b90565b611f9361180b565b50611f9e60016114f0565b90565b90611fb49291611faf613999565b611fbe565b611fbc613a1d565b565b90611fd19291611fcc613a31565b611fd3565b565b9190611ff7611ff1611fe3610430565b611feb6135c2565b90612dd1565b156102e1565b61200657612004926123a2565b565b5f634c785e0d60e11b81528061201e600482016104fa565b0390fd5b60209181520190565b90565b5061203d906020810190610354565b90565b6120499061033d565b9052565b5061205c906020810190610592565b90565b61206890610572565b9052565b5061207b9060208101906104cd565b90565b612087906104b6565b9052565b61209481610daf565b0361209b57565b5f80fd5b905035906120ac8261208b565b565b506120bd90602081019061209f565b90565b6120c990610daf565b9052565b90606061212c612134936120ef6120e65f83018361202e565b5f860190612040565b6121096120ff602083018361204d565b602086019061205f565b612123612119604083018361206c565b604086019061207e565b828101906120ae565b9101906120c0565b565b90612143816080936120cd565b0190565b5090565b60800190565b9161215f8261216592612022565b9261202b565b90815f905b828210612178575050505090565b9091929361219a61219460019261218f8886612147565b612136565b9561214b565b92019092919261216a565b90916121bc9260208301925f818503910152612151565b90565b60200190565b5190565b90565b60016121d891016104b6565b90565b5090565b91908110156121ef576080020190565b610c56565b5f5260205f2090565b5490565b61220a816121fd565b8210156122245761221c6004916121f4565b910201905f90565b610c56565b3561223381610340565b90565b356122408161057e565b90565b3561224d816104b9565b90565b3561225a8161208b565b90565b9061227067ffffffffffffffff916112ce565b9181191691161790565b61228e61228961229392610daf565b610a88565b610daf565b90565b90565b906122ae6122a96122b59261227a565b612296565b825461225d565b9055565b906123166060600361231c946122dc5f82016122d65f8801612229565b90611c01565b6122f5600182016122ef60208801612236565b90611bd4565b61230e6002820161230860408801612243565b906118bb565b019201612250565b90612299565b565b919061232f5761232d916122b9565b565b611b8a565b9081549168010000000000000000831015612364578261235c91600161236295018155612201565b9061231e565b565b610773565b634e487b7160e01b5f52601160045260245ffd5b61238c612392919392936104b6565b926104b6565b820180921161239d57565b612369565b9092816123d085916123c16123b5610282565b938492602084016121a5565b60208201810382520382610787565b6123e26123dc826121c5565b916121bf565b20926123f86123f36006869061038d565b6114f0565b61255c5761241061240b600d8690611675565b610d08565b61242261241c5f61186a565b916104b6565b036125405761243861243e918490879091613a7e565b156102e1565b61252457612456612451600b8590610c40565b6121c9565b906124605f61186a565b5b8061247e612478612473878a906121db565b6104b6565b916104b6565b10156124a8576124a39061249e84612498878a85916121df565b90612334565b6121cc565b612461565b50936124df91506124c3426124bd600c610d08565b9061237d565b936124d9856124d4600d8490611675565b6118bb565b926121db565b9161250a7f6cd89f29dba6c301ac9f6dbd1c0017eb2d9652f5b7201d3d946aaefd6347a1b292610381565b9261251f612516610282565b928392836118db565b0390a2565b5f632b688d7760e21b81528061253c600482016104fa565b0390fd5b5f63434ddb8d60e01b815280612558600482016104fa565b0390fd5b5f6338ac7c6560e21b815280612574600482016104fa565b0390fd5b906125839291611fa1565b565b906125989291612593613999565b6125a2565b6125a0613a1d565b565b906125b592916125b0613a31565b612965565b565b6125cb6125c66125d0926104b6565b610a88565b610daf565b90565b6125dd60c06107b0565b90565b909291926125f56125f0826113de565b6107b0565b938185526020850190828401116126115761260f926107e8565b565b610765565b6126219136916125e0565b90565b52565b9061263190610daf565b9052565b5190565b601f602091010490565b91906126596126546126619361189c565b6118b8565b908354611acb565b9055565b612677916126716119ff565b91612643565b565b5b818110612685575050565b806126925f600193612665565b0161267a565b9190601f81116126a8575b505050565b6126b46126d993611045565b9060206126c084612639565b830193106126e1575b6126d290612639565b0190612679565b5f80806126a3565b91506126d2819290506126c9565b906126ff905f19906008026103a3565b191690565b8161270e916126ef565b906002021790565b90612720816111b0565b9067ffffffffffffffff82116127e0576127448261273e8554611012565b85612698565b602090601f831160011461277857918091612767935f9261276c575b5050612704565b90555b565b90915001515f80612760565b601f1983169161278785611045565b925f5b8181106127c8575091600293918560019694106127ae575b5050500201905561276a565b6127be910151601f8416906126ef565b90555f80806127a2565b9193602060018192878701518155019501920161278a565b610773565b906127ef91612716565b565b6127fb9051610daf565b90565b60401b90565b9061281868ff0000000000000000916127fe565b9181191691161790565b9061283761283261283e92611c44565b611c50565b8254612804565b9055565b60481b90565b9061285d69ff00000000000000000091612842565b9181191691161790565b9061287c61287761288392611c44565b611c50565b8254612848565b9055565b9061291460a0600361291a946128aa5f82016128a45f8801611b9d565b90611bd4565b6128c3600182016128bd60208801611bf4565b90611c01565b6128dc600282016128d660408801612635565b906127e5565b6128f48282016128ee606088016127f1565b90612299565b61290c82820161290660808801611c21565b90612822565b019201611c21565b90612867565b565b9061292691612887565b565b91906129428161293b81612947956111b4565b80956107e8565b610769565b0190565b90916129629260208301925f818503910152612928565b90565b612979612974600d8390611675565b610d08565b8061298c6129865f61186a565b916104b6565b14612b19576129a461299e42926104b6565b916104b6565b1015612afd576129be6129b96006839061038d565b6114f0565b612ae1576129d85f6129d2600a8490610fe8565b01610ce7565b6129f26129ec6129e75f611a83565b610572565b91610572565b03612ac557612a755f612a6433612a5b85612a5288612a49612a408c612a17426125b7565b93612a3b8b97612a328d9b612a2a6125d3565b9e8f01611b60565b60208d01611b6e565b612616565b60408901612624565b60608701612627565b60808501611b7c565b60a08301611b7c565b612a70600a8490610fe8565b61291c565b339192612aab612aa57f0f9f5c3df79ff3f1c73de526110a901f830460789fde1737fd291195c75bdee893610381565b93611bc5565b93612ac0612ab7610282565b9283928361294b565b0390a3565b5f630a46d8b360e11b815280612add600482016104fa565b0390fd5b5f6338ac7c6560e21b815280612af9600482016104fa565b0390fd5b5f630f54175160e41b815280612b15600482016104fa565b0390fd5b5f637e047af960e11b815280612b31600482016104fa565b0390fd5b90612b409291612585565b565b90612b5c91612b57612b526112ef565b6134ff565b612b5e565b565b612b745f612b6e600a8490610fe8565b01610ce7565b612b8e612b88612b835f611a83565b610572565b91610572565b14612c5f57612baa6003612ba4600a8490610fe8565b01611123565b612c4357612bc760016003612bc1600a8590610fe8565b01612822565b612bdf826003612bd9600a8590610fe8565b01612867565b81612c29575b612c24612c127fbf0625141f8955c67e8538833525be4a25b700bc19e4f2ddc96d3a4cce43308892610381565b92612c1b610282565b918291826102f3565b0390a2565b612c3e5f612c39600d8490611675565b612665565b612be5565b5f632d921dad60e01b815280612c5b600482016104fa565b0390fd5b5f632b8829ff60e21b815280612c77600482016104fa565b0390fd5b90612c8591612b42565b565b612c97612c9261170c565b6134ff565b612c9f612ca1565b565b612ca9613bcd565b565b612cb3612c87565b565b90612cd8612cd2612cc4611611565b612ccc6135c2565b90612dd1565b156102e1565b612ce757612ce591612d03565b565b5f63949fc64d60e01b815280612cff600482016104fa565b0390fd5b612d195f612d13600784906114c6565b01610ce7565b612d33612d2d612d285f611a83565b610572565b91610572565b14612d9457612d50826002612d4a600785906114c6565b01611c53565b612d8f612d7d7fed2bf659025c6e41a9002b0f00cdfb398811c6fde9a8b71a04b6180ab7023a2592610381565b92612d86610282565b918291826102f3565b0390a2565b5f6229eaad60e31b815280612dab600482016104fa565b0390fd5b90612db991612cb5565b565b90612dc590611bc5565b5f5260205260405f2090565b612df7915f612dec612df293612de561180b565b5082611992565b01612dbb565b6114f0565b90565b90612e1591612e10612e0b826119a8565b6134ff565b612e17565b565b90612e21916135cf565b50565b90612e2e91612dfa565b565b612e4190612e3c613999565b612e4b565b612e49613a1d565b565b612e5c90612e57613a31565b612f88565b565b90565b612e70612e76919392936104b6565b926104b6565b91612e828382026104b6565b928184041490151715612e9157565b612369565b90565b612ead612ea8612eb292612e96565b610a88565b6104b6565b90565b634e487b7160e01b5f52601260045260245ffd5b612ed5612edb916104b6565b916104b6565b908115612ee6570490565b612eb5565b612ef7612efc91610c9f565b61133b565b90565b612f099054612eeb565b90565b5f80fd5b60e01b90565b5f910312612f2057565b61028c565b604090612f4e612f559496959396612f4460608401985f850190610da2565b6020830190610602565b0190610dbc565b565b612f5f610282565b3d5f823e3d90fd5b612f73612f7891610c9f565b610a48565b90565b612f859054612f67565b90565b612f9c612f97600d8390611675565b610d08565b80612faf612fa95f61186a565b916104b6565b1461344b57612fc7612fc142926104b6565b916104b6565b1061342f57612fe0612fdb6006839061038d565b6114f0565b61341357612ffa5f612ff4600a8490610fe8565b01610ce7565b61301461300e6130095f611a83565b610572565b91610572565b1415806133ed575b6133d1576130376003613031600a8490610fe8565b01611123565b806133b4575b61339857613055613050600b8390610c40565b6121c9565b61305e5f61186a565b92613068826121fd565b6130715f61186a565b5b8061308561307f846104b6565b916104b6565b101561328a5761309f613099858390612201565b50612e5e565b906130ac60018301610ce7565b6130c66130c06130bb5f611a83565b610572565b91610572565b14613280576130d760028301610d08565b6130e96130e35f61186a565b916104b6565b146132765761312361311061310060028501610d08565b61310a6005610d08565b90612e61565b61311d633b9aca00612e99565b90612ec9565b806131366131305f61186a565b916104b6565b11613263575b5061314960018301610ce7565b61316361315d6131585f611a83565b610572565b91610572565b14158061323e575b613180575b61317b91505b6121cc565b613072565b61319261318d6004612eff565b61137b565b634e06f353906131a460018501610ce7565b906131bd60036131b660028801610d08565b9601610d36565b92813b15613239575f6131e3916131ee82966131d7610282565b998a9788968795612f10565b855260048501612f25565b03925af19182156132345761317b92613208575b50613170565b613227905f3d811161322d575b61321f8183610787565b810190612f16565b5f613202565b503d613215565b612f57565b612f0c565b5061324b60028301610d08565b61325d6132575f61186a565b916104b6565b1161316b565b9661326f91979061237d565b955f61313c565b61317b9150613176565b61317b9150613176565b509290939150816132a361329d5f61186a565b916104b6565b11613305575b6132bf60016132ba6006849061038d565b611c53565b90916132eb7f7329a6d2220bdcd2e0f894c159b5bc028a43c58f3bca4f2ddfadcd9f12c535c692610381565b926133006132f7610282565b928392836118db565b0390a2565b6133176133126003612f7b565b610ab3565b63a65948a383823b156133935761334d926133425f8094613336610282565b96879586948593612f10565b83526004830161060f565b03925af1801561338e57613362575b506132a9565b613381905f3d8111613387575b6133798183610787565b810190612f16565b5f61335c565b503d61336f565b612f57565b612f0c565b5f63c1c51c8160e01b8152806133b0600482016104fa565b0390fd5b506133cc60036133c6600a8490610fe8565b0161114a565b61303d565b5f634b809d9d60e01b8152806133e9600482016104fa565b0390fd5b5061340e6134086003613402600a8590610fe8565b01611123565b156102e1565b61301c565b5f6338ac7c6560e21b81528061342b600482016104fa565b0390fd5b5f63d1312e9f60e01b815280613447600482016104fa565b0390fd5b5f637e047af960e11b815280613463600482016104fa565b0390fd5b61347090612e30565b565b61348b906134866134816112ef565b6134ff565b61348d565b565b806134a061349a5f61186a565b916104b6565b146134b2576134b09060096118bb565b565b5f632730045360e21b8152806134ca600482016104fa565b0390fd5b6134d790613472565b565b6134e161180b565b506134fb6134f56301ffc9a760e01b610294565b91610294565b1490565b6135119061350b6135c2565b90613bfa565b565b61351b61180b565b5061353061352a828490612dd1565b156102e1565b5f146135b85761355760016135525f61354a818690611992565b018590612dbb565b611c53565b906135606135c2565b9061359d6135976135917f2f8788117e7eff1d82e926ec794901d17c78024a50270940304540a733656f0d95610381565b92611bc5565b92611bc5565b926135a6610282565b806135b0816104fa565b0390a4600190565b50505f90565b5f90565b6135ca6135be565b503390565b6135d761180b565b506135e3818390612dd1565b5f1461366a576136095f6136045f6135fc818690611992565b018590612dbb565b611c53565b906136126135c2565b9061364f6136496136437ff6391f5c32d9c69d2a47ea670b442974b53935d1edc7fd64eb21e047a839171b95610381565b92611bc5565b92611bc5565b92613658610282565b80613662816104fa565b0390a4600190565b50505f90565b613678613c35565b613680613697565b565b9190613695905f60208501940190610da2565b565b6136a25f6001611c53565b6136aa6135c2565b6136e07f5db9ee0a495bf2e6ff9c91a7834c1ba4fdd244a5e8aa4e537bd38aeae4b073aa916136d7610282565b91829182613682565b0390a1565b6136ed613670565b565b6136f890610aa7565b90565b613704306136ef565b6137366137307f0000000000000000000000000000000000000000000000000000000000000000610572565b91610572565b148015613760575b61374457565b5f63703e46dd60e11b81528061375c600482016104fa565b0390fd5b50613769613c68565b61379b6137957f0000000000000000000000000000000000000000000000000000000000000000610572565b91610572565b141561373e565b506137b36137ae6117a3565b6134ff565b565b6137be906137a2565b565b6137c990610a8b565b90565b6137d5906137c0565b90565b6137e190610aa7565b90565b905051906137f182610340565b565b9060208282031261380c57613809915f016137e4565b90565b61028c565b919061383f6020613829613824866137cc565b6137d8565b6352d1902d90613837610282565b938492612f10565b8252818061384f600482016104fa565b03915afa80915f926138df575b50155f1461389057505090600161387157505b565b61388c905f918291634c9c8ce360e01b835260048301613682565b0390fd5b92836138ab6138a56138a0611f40565b61033d565b9161033d565b036138c0576138bb929350613c8e565b61386f565b6138db845f918291632a87526960e21b83526004830161046c565b0390fd5b61390191925060203d8111613908575b6138f98183610787565b8101906137f3565b905f61385c565b503d6138ef565b613918306136ef565b61394a6139447f0000000000000000000000000000000000000000000000000000000000000000610572565b91610572565b0361395157565b5f63703e46dd60e11b815280613969600482016104fa565b0390fd5b90565b61398461397f6139899261396d565b610a88565b6104b6565b90565b6139966002613970565b90565b6139a36002610d08565b6139bc6139b66139b161398c565b6104b6565b916104b6565b146139d5576139d36139cc61398c565b60026118bb565b565b5f633ee5aeb560e01b8152806139ed600482016104fa565b0390fd5b90565b613a08613a03613a0d926139f1565b610a88565b6104b6565b90565b613a1a60016139f4565b90565b613a2f613a28613a10565b60026118bb565b565b613a39611f8b565b613a3f57565b5f63d93c066560e01b815280613a57600482016104fa565b0390fd5b916020613a7c929493613a7560408201965f83019061045f565b019061045f565b565b90613a8761180b565b50613a9460208401612243565b613aaf613aa9613aa46009610d08565b6104b6565b916104b6565b10613b6657613b4d6040613b5893613b33613b5294613af9613ad25f8a01612229565b93613aea613ade610282565b938492602084016121a5565b60208201810382520382610787565b613b0b613b05826121c5565b916121bf565b2091613b24613b18610282565b93849260208401613a5b565b60208201810382520382610787565b613b45613b3f826121c5565b916121bf565b209401612229565b61033d565b9161033d565b03613b6257600190565b5f90565b5050505f90565b613b75613a31565b613b7d613b7f565b565b613b8a600180611c53565b613b926135c2565b613bc87f62e78cea01bee320cd4e420270b5ea74000d11b0c9f74754ebdbfc544b05a25891613bbf610282565b91829182613682565b0390a1565b613bd5613b6d565b565b916020613bf8929493613bf160408201965f830190610da2565b019061045f565b565b90613c0f613c09838390612dd1565b156102e1565b613c17575050565b613c315f92839263e2517d3f60e01b845260048401613bd7565b0390fd5b613c46613c40611f8b565b156102e1565b613c4c57565b5f638dfc202b60e01b815280613c64600482016104fa565b0390fd5b613c706135be565b50613c8b5f613c85613c80611f40565b613d17565b01610ce7565b90565b90613c9882613d1a565b81613cc37fbc7cd75a20ee27fd9adebab32041f755214dbc6bffa90cc0225b39da2e5c2d3b91611bc5565b90613ccc610282565b80613cd6816104fa565b0390a2613ce2816121c5565b613cf4613cee5f61186a565b916104b6565b115f14613d0857613d0491613dea565b505b565b5050613d12613d6f565b613d06565b90565b803b613d2e613d285f61186a565b916104b6565b14613d5057613d4e905f613d48613d43611f40565b613d17565b01611bd4565b565b613d6b905f918291634c9c8ce360e01b835260048301613682565b0390fd5b34613d82613d7c5f61186a565b916104b6565b11613d8957565b5f63b398979f60e01b815280613da1600482016104fa565b0390fd5b606090565b90613dbc613db7836107c5565b6107b0565b918252565b3d5f14613ddc57613dd13d613daa565b903d5f602084013e5b565b613de4613da5565b90613dda565b5f80613e1693613df8613da5565b508390602081019051915af490613e0d613dc1565b90919091613e19565b90565b90613e2d90613e26613da5565b50156102e1565b5f14613e395750613e9d565b613e42826121c5565b613e54613e4e5f61186a565b916104b6565b1480613e82575b613e63575090565b613e7e905f918291639996b31560e01b835260048301613682565b0390fd5b50803b613e97613e915f61186a565b916104b6565b14613e5b565b613ea6816121c5565b613eb8613eb25f61186a565b916104b6565b115f14613ec757805190602001fd5b5f63d6bda27560e01b815280613edf600482016104fa565b0390fdfea26469706673582212205c436746d9bcdae05348d0482e9b2b3854400dec749399737543e0c67bc4f8d764736f6c634300081a0033",
    "linkReferences": {}
  },
  "methodIdentifiers": {
    "DATA_SUBMITTER_ROLE()": "1b2b49a6",
    "DEFAULT_ADMIN_ROLE()": "a217fddf",
    "NODE_MANAGER_ROLE()": "d59f9fe0",
    "PAUSER_ROLE()": "e63ab1e9",
    "UPGRADER_ROLE()": "f72c0d8b",
    "UPGRADE_INTERFACE_VERSION()": "ad3cb1cc",
    "batchChallenges(bytes32)": "8ca5d972",
    "batchProcessingDelay()": "474508cf",
    "batchSubmissionTimes(bytes32)": "d68de31b",
    "carbonCreditToken()": "66dea358",
    "challengeBatch(bytes32,string)": "686ddc7a",
    "emissionFactor()": "b3def2f5",
    "getPeerIdCount()": "33be17f8",
    "getRoleAdmin(bytes32)": "248a9ca3",
    "grantRole(bytes32,address)": "2f2ff15d",
    "hasRole(bytes32,address)": "91d14854",
    "pause()": "8456cb59",
    "paused()": "5c975abb",
    "peerIds(uint256)": "897453f1",
    "processBatch(bytes32)": "dffe86ae",
    "processedBatchHashes(bytes32)": "06c52e7c",
    "proxiableUUID()": "52d1902d",
    "registerNode(bytes32,address)": "34083de7",
    "registeredNodes(bytes32)": "ad573d3e",
    "renounceRole(bytes32,address)": "36568abe",
    "requiredConsensusNodes()": "6facc105",
    "resolveChallenge(bytes32,bool)": "7d89122d",
    "revokeRole(bytes32,address)": "d547741f",
    "rewardDistributor()": "acc2166a",
    "setBatchProcessingDelay(uint256)": "514bab55",
    "setEmissionFactor(uint256)": "1bacfcc1",
    "setRequiredConsensusNodes(uint256)": "e9ae4094",
    "storedBatches(bytes32,uint256)": "7a6ab57d",
    "submitEnergyDataBatch((bytes32,address,uint256,uint64)[],(bytes32,uint256,bytes32,bytes))": "66b5b2c5",
    "supportsInterface(bytes4)": "01ffc9a7",
    "unpause()": "3f4ba83a",
    "updateNodeStatus(bytes32,bool)": "8be2b073",
    "upgradeToAndCall(address,bytes)": "4f1ef286"
  },
  "id": 44
}