{
  "abi": [
    {
      "type": "function",
      "name": "DEFAULT_ADMIN_ROLE",
      "inputs": [],
      "outputs": [
        {
          "name": "",
          "type": "bytes32",
          "internalType": "bytes32"
        }
      ],
      "stateMutability": "view"
    },
    {
      "type": "function",
      "name": "UPGRADE_INTERFACE_VERSION",
      "inputs": [],
      "outputs": [
        {
          "name": "",
          "type": "string",
          "internalType": "string"
        }
      ],
      "stateMutability": "view"
    },
    {
      "type": "function",
      "name": "calculateCapitalRaisingFee",
      "inputs": [
        {
          "name": "projectId",
          "type": "uint256",
          "internalType": "uint256"
        },
        {
          "name": "developer",
          "type": "address",
          "internalType": "address"
        }
      ],
      "outputs": [
        {
          "name": "feeAmount",
          "type": "uint256",
          "internalType": "uint256"
        }
      ],
      "stateMutability": "view"
    },
    {
      "type": "function",
      "name": "calculateManagementFee",
      "inputs": [
        {
          "name": "projectId",
          "type": "uint256",
          "internalType": "uint256"
        },
        {
          "name": "outstandingPrincipal",
          "type": "uint256",
          "internalType": "uint256"
        }
      ],
      "outputs": [
        {
          "name": "feeAmount",
          "type": "uint256",
          "internalType": "uint256"
        }
      ],
      "stateMutability": "view"
    },
    {
      "type": "function",
      "name": "calculateTransactionFee",
      "inputs": [
        {
          "name": "transactionAmount",
          "type": "uint256",
          "internalType": "uint256"
        }
      ],
      "outputs": [
        {
          "name": "feeAmount",
          "type": "uint256",
          "internalType": "uint256"
        }
      ],
      "stateMutability": "pure"
    },
    {
      "type": "function",
      "name": "carbonTreasury",
      "inputs": [],
      "outputs": [
        {
          "name": "",
          "type": "address",
          "internalType": "address"
        }
      ],
      "stateMutability": "view"
    },
    {
      "type": "function",
      "name": "developerRegistry",
      "inputs": [],
      "outputs": [
        {
          "name": "",
          "type": "address",
          "internalType": "contract IDeveloperRegistry"
        }
      ],
      "stateMutability": "view"
    },
    {
      "type": "function",
      "name": "getCarbonTreasury",
      "inputs": [],
      "outputs": [
        {
          "name": "",
          "type": "address",
          "internalType": "address"
        }
      ],
      "stateMutability": "view"
    },
    {
      "type": "function",
      "name": "getNextPaymentInfo",
      "inputs": [
        {
          "name": "projectId",
          "type": "uint256",
          "internalType": "uint256"
        }
      ],
      "outputs": [
        {
          "name": "dueDate",
          "type": "uint64",
          "internalType": "uint64"
        },
        {
          "name": "amount",
          "type": "uint256",
          "internalType": "uint256"
        }
      ],
      "stateMutability": "view"
    },
    {
      "type": "function",
      "name": "getProjectFeeDetails",
      "inputs": [
        {
          "name": "projectId",
          "type": "uint256",
          "internalType": "uint256"
        }
      ],
      "outputs": [
        {
          "name": "",
          "type": "tuple",
          "internalType": "struct FeeRouter.ProjectFeeDetails",
          "components": [
            {
              "name": "creationTime",
              "type": "uint64",
              "internalType": "uint64"
            },
            {
              "name": "lastMgmtFeeTimestamp",
              "type": "uint64",
              "internalType": "uint64"
            },
            {
              "name": "loanAmount",
              "type": "uint256",
              "internalType": "uint256"
            },
            {
              "name": "developer",
              "type": "address",
              "internalType": "address"
            },
            {
              "name": "repaymentSchedule",
              "type": "tuple",
              "internalType": "struct FeeRouter.RepaymentSchedule",
              "components": [
                {
                  "name": "scheduleType",
                  "type": "uint8",
                  "internalType": "uint8"
                },
                {
                  "name": "nextPaymentDue",
                  "type": "uint64",
                  "internalType": "uint64"
                },
                {
                  "name": "paymentAmount",
                  "type": "uint256",
                  "internalType": "uint256"
                }
              ]
            }
          ]
        }
      ],
      "stateMutability": "view"
    },
    {
      "type": "function",
      "name": "getProtocolTreasury",
      "inputs": [],
      "outputs": [
        {
          "name": "",
          "type": "address",
          "internalType": "address"
        }
      ],
      "stateMutability": "view"
    },
    {
      "type": "function",
      "name": "getRoleAdmin",
      "inputs": [
        {
          "name": "role",
          "type": "bytes32",
          "internalType": "bytes32"
        }
      ],
      "outputs": [
        {
          "name": "",
          "type": "bytes32",
          "internalType": "bytes32"
        }
      ],
      "stateMutability": "view"
    },
    {
      "type": "function",
      "name": "getRoleMember",
      "inputs": [
        {
          "name": "role",
          "type": "bytes32",
          "internalType": "bytes32"
        },
        {
          "name": "index",
          "type": "uint256",
          "internalType": "uint256"
        }
      ],
      "outputs": [
        {
          "name": "",
          "type": "address",
          "internalType": "address"
        }
      ],
      "stateMutability": "view"
    },
    {
      "type": "function",
      "name": "getRoleMemberCount",
      "inputs": [
        {
          "name": "role",
          "type": "bytes32",
          "internalType": "bytes32"
        }
      ],
      "outputs": [
        {
          "name": "",
          "type": "uint256",
          "internalType": "uint256"
        }
      ],
      "stateMutability": "view"
    },
    {
      "type": "function",
      "name": "getRoleMembers",
      "inputs": [
        {
          "name": "role",
          "type": "bytes32",
          "internalType": "bytes32"
        }
      ],
      "outputs": [
        {
          "name": "",
          "type": "address[]",
          "internalType": "address[]"
        }
      ],
      "stateMutability": "view"
    },
    {
      "type": "function",
      "name": "grantRole",
      "inputs": [
        {
          "name": "role",
          "type": "bytes32",
          "internalType": "bytes32"
        },
        {
          "name": "account",
          "type": "address",
          "internalType": "address"
        }
      ],
      "outputs": [],
      "stateMutability": "nonpayable"
    },
    {
      "type": "function",
      "name": "hasRole",
      "inputs": [
        {
          "name": "role",
          "type": "bytes32",
          "internalType": "bytes32"
        },
        {
          "name": "account",
          "type": "address",
          "internalType": "address"
        }
      ],
      "outputs": [
        {
          "name": "",
          "type": "bool",
          "internalType": "bool"
        }
      ],
      "stateMutability": "view"
    },
    {
      "type": "function",
      "name": "initialize",
      "inputs": [
        {
          "name": "_admin",
          "type": "address",
          "internalType": "address"
        },
        {
          "name": "_usdcToken",
          "type": "address",
          "internalType": "address"
        },
        {
          "name": "_developerRegistry",
          "type": "address",
          "internalType": "address"
        },
        {
          "name": "_protocolTreasury",
          "type": "address",
          "internalType": "address"
        },
        {
          "name": "_carbonTreasury",
          "type": "address",
          "internalType": "address"
        }
      ],
      "outputs": [],
      "stateMutability": "nonpayable"
    },
    {
      "type": "function",
      "name": "projectFeeInfo",
      "inputs": [
        {
          "name": "",
          "type": "uint256",
          "internalType": "uint256"
        }
      ],
      "outputs": [
        {
          "name": "creationTime",
          "type": "uint64",
          "internalType": "uint64"
        },
        {
          "name": "lastMgmtFeeTimestamp",
          "type": "uint64",
          "internalType": "uint64"
        },
        {
          "name": "loanAmount",
          "type": "uint256",
          "internalType": "uint256"
        },
        {
          "name": "developer",
          "type": "address",
          "internalType": "address"
        },
        {
          "name": "repaymentSchedule",
          "type": "tuple",
          "internalType": "struct FeeRouter.RepaymentSchedule",
          "components": [
            {
              "name": "scheduleType",
              "type": "uint8",
              "internalType": "uint8"
            },
            {
              "name": "nextPaymentDue",
              "type": "uint64",
              "internalType": "uint64"
            },
            {
              "name": "paymentAmount",
              "type": "uint256",
              "internalType": "uint256"
            }
          ]
        }
      ],
      "stateMutability": "view"
    },
    {
      "type": "function",
      "name": "protocolTreasury",
      "inputs": [],
      "outputs": [
        {
          "name": "",
          "type": "address",
          "internalType": "address"
        }
      ],
      "stateMutability": "view"
    },
    {
      "type": "function",
      "name": "proxiableUUID",
      "inputs": [],
      "outputs": [
        {
          "name": "",
          "type": "bytes32",
          "internalType": "bytes32"
        }
      ],
      "stateMutability": "view"
    },
    {
      "type": "function",
      "name": "renounceRole",
      "inputs": [
        {
          "name": "role",
          "type": "bytes32",
          "internalType": "bytes32"
        },
        {
          "name": "callerConfirmation",
          "type": "address",
          "internalType": "address"
        }
      ],
      "outputs": [],
      "stateMutability": "nonpayable"
    },
    {
      "type": "function",
      "name": "revokeRole",
      "inputs": [
        {
          "name": "role",
          "type": "bytes32",
          "internalType": "bytes32"
        },
        {
          "name": "account",
          "type": "address",
          "internalType": "address"
        }
      ],
      "outputs": [],
      "stateMutability": "nonpayable"
    },
    {
      "type": "function",
      "name": "routeFees",
      "inputs": [
        {
          "name": "feeAmount",
          "type": "uint256",
          "internalType": "uint256"
        }
      ],
      "outputs": [],
      "stateMutability": "nonpayable"
    },
    {
      "type": "function",
      "name": "setCarbonTreasury",
      "inputs": [
        {
          "name": "_newTreasury",
          "type": "address",
          "internalType": "address"
        }
      ],
      "outputs": [],
      "stateMutability": "nonpayable"
    },
    {
      "type": "function",
      "name": "setProjectDetails",
      "inputs": [
        {
          "name": "projectId",
          "type": "uint256",
          "internalType": "uint256"
        },
        {
          "name": "loanAmount",
          "type": "uint256",
          "internalType": "uint256"
        },
        {
          "name": "developer",
          "type": "address",
          "internalType": "address"
        },
        {
          "name": "creationTime",
          "type": "uint64",
          "internalType": "uint64"
        }
      ],
      "outputs": [],
      "stateMutability": "nonpayable"
    },
    {
      "type": "function",
      "name": "setProtocolTreasury",
      "inputs": [
        {
          "name": "_newTreasury",
          "type": "address",
          "internalType": "address"
        }
      ],
      "outputs": [],
      "stateMutability": "nonpayable"
    },
    {
      "type": "function",
      "name": "setRepaymentSchedule",
      "inputs": [
        {
          "name": "projectId",
          "type": "uint256",
          "internalType": "uint256"
        },
        {
          "name": "scheduleType",
          "type": "uint8",
          "internalType": "uint8"
        },
        {
          "name": "paymentAmount",
          "type": "uint256",
          "internalType": "uint256"
        }
      ],
      "outputs": [],
      "stateMutability": "nonpayable"
    },
    {
      "type": "function",
      "name": "supportsInterface",
      "inputs": [
        {
          "name": "interfaceId",
          "type": "bytes4",
          "internalType": "bytes4"
        }
      ],
      "outputs": [
        {
          "name": "",
          "type": "bool",
          "internalType": "bool"
        }
      ],
      "stateMutability": "view"
    },
    {
      "type": "function",
      "name": "updateLastMgmtFeeTimestamp",
      "inputs": [
        {
          "name": "projectId",
          "type": "uint256",
          "internalType": "uint256"
        }
      ],
      "outputs": [],
      "stateMutability": "nonpayable"
    },
    {
      "type": "function",
      "name": "updatePaymentSchedule",
      "inputs": [
        {
          "name": "projectId",
          "type": "uint256",
          "internalType": "uint256"
        }
      ],
      "outputs": [],
      "stateMutability": "nonpayable"
    },
    {
      "type": "function",
      "name": "upgradeToAndCall",
      "inputs": [
        {
          "name": "newImplementation",
          "type": "address",
          "internalType": "address"
        },
        {
          "name": "data",
          "type": "bytes",
          "internalType": "bytes"
        }
      ],
      "outputs": [],
      "stateMutability": "payable"
    },
    {
      "type": "function",
      "name": "usdcToken",
      "inputs": [],
      "outputs": [
        {
          "name": "",
          "type": "address",
          "internalType": "contract IERC20"
        }
      ],
      "stateMutability": "view"
    },
    {
      "type": "event",
      "name": "FeeRouted",
      "inputs": [
        {
          "name": "repaymentRouter",
          "type": "address",
          "indexed": true,
          "internalType": "address"
        },
        {
          "name": "totalFeeAmount",
          "type": "uint256",
          "indexed": false,
          "internalType": "uint256"
        },
        {
          "name": "protocolTreasuryAmount",
          "type": "uint256",
          "indexed": false,
          "internalType": "uint256"
        },
        {
          "name": "carbonTreasuryAmount",
          "type": "uint256",
          "indexed": false,
          "internalType": "uint256"
        }
      ],
      "anonymous": false
    },
    {
      "type": "event",
      "name": "Initialized",
      "inputs": [
        {
          "name": "version",
          "type": "uint64",
          "indexed": false,
          "internalType": "uint64"
        }
      ],
      "anonymous": false
    },
    {
      "type": "event",
      "name": "RoleAdminChanged",
      "inputs": [
        {
          "name": "role",
          "type": "bytes32",
          "indexed": true,
          "internalType": "bytes32"
        },
        {
          "name": "previousAdminRole",
          "type": "bytes32",
          "indexed": true,
          "internalType": "bytes32"
        },
        {
          "name": "newAdminRole",
          "type": "bytes32",
          "indexed": true,
          "internalType": "bytes32"
        }
      ],
      "anonymous": false
    },
    {
      "type": "event",
      "name": "RoleGranted",
      "inputs": [
        {
          "name": "role",
          "type": "bytes32",
          "indexed": true,
          "internalType": "bytes32"
        },
        {
          "name": "account",
          "type": "address",
          "indexed": true,
          "internalType": "address"
        },
        {
          "name": "sender",
          "type": "address",
          "indexed": true,
          "internalType": "address"
        }
      ],
      "anonymous": false
    },
    {
      "type": "event",
      "name": "RoleRevoked",
      "inputs": [
        {
          "name": "role",
          "type": "bytes32",
          "indexed": true,
          "internalType": "bytes32"
        },
        {
          "name": "account",
          "type": "address",
          "indexed": true,
          "internalType": "address"
        },
        {
          "name": "sender",
          "type": "address",
          "indexed": true,
          "internalType": "address"
        }
      ],
      "anonymous": false
    },
    {
      "type": "event",
      "name": "Upgraded",
      "inputs": [
        {
          "name": "implementation",
          "type": "address",
          "indexed": true,
          "internalType": "address"
        }
      ],
      "anonymous": false
    },
    {
      "type": "error",
      "name": "AccessControlBadConfirmation",
      "inputs": []
    },
    {
      "type": "error",
      "name": "AccessControlUnauthorizedAccount",
      "inputs": [
        {
          "name": "account",
          "type": "address",
          "internalType": "address"
        },
        {
          "name": "neededRole",
          "type": "bytes32",
          "internalType": "bytes32"
        }
      ]
    },
    {
      "type": "error",
      "name": "AddressEmptyCode",
      "inputs": [
        {
          "name": "target",
          "type": "address",
          "internalType": "address"
        }
      ]
    },
    {
      "type": "error",
      "name": "AmountCannotBeZero",
      "inputs": []
    },
    {
      "type": "error",
      "name": "ERC1967InvalidImplementation",
      "inputs": [
        {
          "name": "implementation",
          "type": "address",
          "internalType": "address"
        }
      ]
    },
    {
      "type": "error",
      "name": "ERC1967NonPayable",
      "inputs": []
    },
    {
      "type": "error",
      "name": "FailedCall",
      "inputs": []
    },
    {
      "type": "error",
      "name": "InvalidAmount",
      "inputs": [
        {
          "name": "amount",
          "type": "uint256",
          "internalType": "uint256"
        }
      ]
    },
    {
      "type": "error",
      "name": "InvalidInitialization",
      "inputs": []
    },
    {
      "type": "error",
      "name": "InvalidValue",
      "inputs": [
        {
          "name": "reason",
          "type": "string",
          "internalType": "string"
        }
      ]
    },
    {
      "type": "error",
      "name": "NotInitializing",
      "inputs": []
    },
    {
      "type": "error",
      "name": "PRBMath_MulDiv18_Overflow",
      "inputs": [
        {
          "name": "x",
          "type": "uint256",
          "internalType": "uint256"
        },
        {
          "name": "y",
          "type": "uint256",
          "internalType": "uint256"
        }
      ]
    },
    {
      "type": "error",
      "name": "PRBMath_MulDiv_Overflow",
      "inputs": [
        {
          "name": "x",
          "type": "uint256",
          "internalType": "uint256"
        },
        {
          "name": "y",
          "type": "uint256",
          "internalType": "uint256"
        },
        {
          "name": "denominator",
          "type": "uint256",
          "internalType": "uint256"
        }
      ]
    },
    {
      "type": "error",
      "name": "SafeERC20FailedOperation",
      "inputs": [
        {
          "name": "token",
          "type": "address",
          "internalType": "address"
        }
      ]
    },
    {
      "type": "error",
      "name": "UUPSUnauthorizedCallContext",
      "inputs": []
    },
    {
      "type": "error",
      "name": "UUPSUnsupportedProxiableUUID",
      "inputs": [
        {
          "name": "slot",
          "type": "bytes32",
          "internalType": "bytes32"
        }
      ]
    },
    {
      "type": "error",
      "name": "ZeroAddressNotAllowed",
      "inputs": []
    }
  ],
  "bytecode": {
    "object": "0x60a0604052306080523480156012575f80fd5b50608051612f646100395f395f8181611b3c01528181611b650152611d970152612f645ff3fe6080604052600436106101f5575f3560e01c8063767d279b1161011757806391d14854116100ac578063a670900d1161007c578063ca15c87311610062578063ca15c873146106d5578063d223521d146106f4578063d547741f14610713575f80fd5b8063a670900d146105db578063ad3cb1cc14610680575f80fd5b806391d148541461053d5780639611f3d91461057f578063a217fddf1461059c578063a3246ad3146105af575f80fd5b8063835e9eb4116100e7578063835e9eb4146104c1578063850e63d4146104e057806385548dbd146104ff5780639010d07c1461051e575f80fd5b8063767d279b1461044557806377ba3cbe146104645780637836425e14610483578063803db96d146104a2575f80fd5b80632f2ff15d1161018d5780634f1ef2861161015d5780634f1ef286146103e057806352d1902d146103f35780636457be56146104075780636ed0537d14610426575f80fd5b80632f2ff15d1461035757806332f7a37f1461037657806336568abe146103955780634dd7963f146103b4575f80fd5b806311eac855116101c857806311eac8551461029e5780631459457a146102bd5780631df0065c146102dc578063248a9ca31461031b575f80fd5b806301ffc9a7146101f95780630c5a61f81461022d5780630c7eb4b51461024e578063107d0be11461027f575b5f80fd5b348015610204575f80fd5b506102186102133660046127dd565b610732565b60405190151581526020015b60405180910390f35b348015610238575f80fd5b5061024c610247366004612837565b610742565b005b348015610259575f80fd5b506005546001600160a01b03165b6040516001600160a01b039091168152602001610224565b34801561028a575f80fd5b50600354610267906001600160a01b031681565b3480156102a9575f80fd5b50600254610267906001600160a01b031681565b3480156102c8575f80fd5b5061024c6102d7366004612850565b6107c7565b3480156102e7575f80fd5b506102fb6102f63660046128b1565b610b4a565b6040805167ffffffffffffffff9093168352602083019190915201610224565b348015610326575f80fd5b506103496103353660046128b1565b5f9081526020819052604090206001015490565b604051908152602001610224565b348015610362575f80fd5b5061024c6103713660046128c8565b610bf2565b348015610381575f80fd5b5061024c6103903660046128b1565b610c1c565b3480156103a0575f80fd5b5061024c6103af3660046128c8565b610d29565b3480156103bf575f80fd5b506103d36103ce3660046128b1565b610d75565b60405161022491906128f2565b61024c6103ee366004612998565b610e4c565b3480156103fe575f80fd5b50610349610e6b565b348015610412575f80fd5b5061024c6104213660046128b1565b610e99565b348015610431575f80fd5b50600554610267906001600160a01b031681565b348015610450575f80fd5b5061024c61045f3660046128b1565b611003565b34801561046f575f80fd5b5061024c61047e366004612837565b611221565b34801561048e575f80fd5b5061034961049d3660046128c8565b6112a6565b3480156104ad575f80fd5b50600454610267906001600160a01b031681565b3480156104cc575f80fd5b506103496104db366004612a99565b611472565b3480156104eb575f80fd5b5061024c6104fa366004612ab9565b6115a9565b34801561050a575f80fd5b5061024c610519366004612b0a565b611743565b348015610529575f80fd5b50610267610538366004612a99565b61195c565b348015610548575f80fd5b506102186105573660046128c8565b5f918252602082815260408084206001600160a01b0393909316845291905290205460ff1690565b34801561058a575f80fd5b506004546001600160a01b0316610267565b3480156105a7575f80fd5b506103495f81565b3480156105ba575f80fd5b506105ce6105c93660046128b1565b61197a565b6040516102249190612b44565b3480156105e6575f80fd5b5061066f6105f53660046128b1565b600660209081525f9182526040918290208054600182015460028301548551606081018752600385015460ff81168252610100900467ffffffffffffffff9081169682019690965260049094015495840195909552838216946801000000000000000090920490931692916001600160a01b039091169085565b604051610224959493929190612b8f565b34801561068b575f80fd5b506106c86040518060400160405280600581526020017f352e302e3000000000000000000000000000000000000000000000000000000081525081565b6040516102249190612bec565b3480156106e0575f80fd5b506103496106ef3660046128b1565b611993565b3480156106ff575f80fd5b5061034961070e3660046128b1565b6119a9565b34801561071e575f80fd5b5061024c61072d3660046128c8565b611a25565b5f61073c82611a49565b92915050565b5f61074c81611a9e565b6001600160a01b03821661078c576040517f8579befe00000000000000000000000000000000000000000000000000000000815260040160405180910390fd5b50600480547fffffffffffffffffffffffff0000000000000000000000000000000000000000166001600160a01b0392909216919091179055565b5f6107d0611aab565b805490915060ff68010000000000000000820416159067ffffffffffffffff165f811580156107fc5750825b90505f8267ffffffffffffffff1660011480156108185750303b155b905081158015610826575080155b1561085d576040517ff92ee8a900000000000000000000000000000000000000000000000000000000815260040160405180910390fd5b84547fffffffffffffffffffffffffffffffffffffffffffffffff000000000000000016600117855583156108be5784547fffffffffffffffffffffffffffffffffffffffffffffff00ffffffffffffffff16680100000000000000001785555b6001600160a01b038a1615806108db57506001600160a01b038916155b806108ed57506001600160a01b038816155b806108ff57506001600160a01b038716155b8061091157506001600160a01b038616155b15610948576040517f8579befe00000000000000000000000000000000000000000000000000000000815260040160405180910390fd5b600280546001600160a01b03808c167fffffffffffffffffffffffff000000000000000000000000000000000000000092831617909255600380548b8416908316179055600480548a841690831617905560058054928916929091169190911790556109b45f8b611ad3565b506109df7f189ab7a9244df0848122154315af71fe140f3db0fe014031783b0946b8c9d2e38b611ad3565b50610a0a7f3f57c52536792344d29a07b54000a77b3ed100d4e466b7a4fda1fc52c2bdee628b611ad3565b50610a357f42847befda217a8205614b97eeba0062d90a739902cf3467520ceec1447115398b611ad3565b50612710610a476107d0611f40612c6c565b61ffff1614610add576040517f432f5b4a00000000000000000000000000000000000000000000000000000000815260206004820152602760248201527f54726561737572792073686172657320646f206e6f742073756d20746f20313060448201527f303030204250530000000000000000000000000000000000000000000000000060648201526084015b60405180910390fd5b8315610b3e5784547fffffffffffffffffffffffffffffffffffffffffffffff00ffffffffffffffff168555604051600181527fc7f505b2f371ae2175ee4913f4499e1f2633a7b5936321eed1cdaeb6115181d29060200160405180910390a15b50505050505050505050565b5f81815260066020526040812060028101548291906001600160a01b0316610bce576040517f432f5b4a00000000000000000000000000000000000000000000000000000000815260206004820152601760248201527f50726f6a6563742064657461696c73206e6f74207365740000000000000000006044820152606401610ad4565b600381015460049091015461010090910467ffffffffffffffff1694909350915050565b5f82815260208190526040902060010154610c0c81611a9e565b610c168383611ad3565b50505050565b7f3f57c52536792344d29a07b54000a77b3ed100d4e466b7a4fda1fc52c2bdee62610c4681611a9e565b5f82815260066020526040902060028101546001600160a01b0316610cc7576040517f432f5b4a00000000000000000000000000000000000000000000000000000000815260206004820152601760248201527f50726f6a6563742064657461696c73206e6f74207365740000000000000000006044820152606401610ad4565b805468010000000000000000900467ffffffffffffffff16421115610d245780547fffffffffffffffffffffffffffffffff0000000000000000ffffffffffffffff16680100000000000000004267ffffffffffffffff16021781555b505050565b6001600160a01b0381163314610d6b576040517f6697b23200000000000000000000000000000000000000000000000000000000815260040160405180910390fd5b610d248282611b06565b610db96040805160a0810182525f80825260208083018290528284018290526060808401839052845190810185528281529081018290529283015290608082015290565b505f90815260066020908152604091829020825160a081018452815467ffffffffffffffff80821683526801000000000000000090910481168285015260018301548286015260028301546001600160a01b031660608084019190915285519081018652600384015460ff8116825261010090049091169381019390935260049091015492820192909252608082015290565b610e54611b31565b610e5d82611c03565b610e678282611c6d565b5050565b5f610e74611d8c565b507f360894a13ba1a3210667c828492db98dca3e2076cc3735a920a3ca505d382bbc90565b7f3f57c52536792344d29a07b54000a77b3ed100d4e466b7a4fda1fc52c2bdee62610ec381611a9e565b5f82815260066020526040902060028101546001600160a01b0316610f44576040517f432f5b4a00000000000000000000000000000000000000000000000000000000815260206004820152601760248201527f50726f6a6563742064657461696c73206e6f74207365740000000000000000006044820152606401610ad4565b60038101805460ff16600103610fa557805462093a80908290600190610f7a908490610100900467ffffffffffffffff16612c86565b92506101000a81548167ffffffffffffffff021916908367ffffffffffffffff160217905550610c16565b805460ff16600203610c1657805462278d00908290600190610fd7908490610100900467ffffffffffffffff16612c86565b92506101000a81548167ffffffffffffffff021916908367ffffffffffffffff16021790555050505050565b7f3f57c52536792344d29a07b54000a77b3ed100d4e466b7a4fda1fc52c2bdee6261102d81611a9e565b8115610e67576002546040517f70a0823100000000000000000000000000000000000000000000000000000000815230600482015283916001600160a01b0316906370a0823190602401602060405180830381865afa158015611092573d5f803e3d5ffd5b505050506040513d601f19601f820116820180604052508101906110b69190612ca6565b1015611174576002546040517f70a082310000000000000000000000000000000000000000000000000000000081523060048201526001600160a01b03909116906370a0823190602401602060405180830381865afa15801561111b573d5f803e3d5ffd5b505050506040513d601f19601f8201168201806040525081019061113f9190612ca6565b6040517f3728b83d000000000000000000000000000000000000000000000000000000008152600401610ad491815260200190565b5f612710611184611f4085612cbd565b61118e9190612d01565b90505f61119b8285612d39565b6004546002549192506111bb916001600160a01b03908116911684611dee565b6005546002546111d8916001600160a01b03918216911683611dee565b604080518581526020810184905290810182905233907fbadecf78c3722b919eb75bb4c46534f7bf7fa780abd95f846a122308c76bb6c99060600160405180910390a250505050565b5f61122b81611a9e565b6001600160a01b03821661126b576040517f8579befe00000000000000000000000000000000000000000000000000000000815260040160405180910390fd5b50600580547fffffffffffffffffffffffff0000000000000000000000000000000000000000166001600160a01b0392909216919091179055565b5f82815260066020526040812060028101546001600160a01b0316611327576040517f432f5b4a00000000000000000000000000000000000000000000000000000000815260206004820152601760248201527f50726f6a6563742064657461696c73206e6f74207365740000000000000000006044820152606401610ad4565b60028101546001600160a01b038481169116146113a0576040517f432f5b4a00000000000000000000000000000000000000000000000000000000815260206004820152601260248201527f446576656c6f706572206d69736d6174636800000000000000000000000000006044820152606401610ad4565b6003546040517f4993b60a0000000000000000000000000000000000000000000000000000000081526001600160a01b0385811660048301525f921690634993b60a90602401602060405180830381865afa158015611401573d5f803e3d5ffd5b505050506040513d601f19601f820116820180604052508101906114259190612d4c565b90505f60018263ffffffff16111561143e576096611441565b60c85b905061271061ffff168161ffff16846001015461145e9190612cbd565b6114689190612d01565b9695505050505050565b5f82815260066020526040812060028101546001600160a01b03166114f3576040517f432f5b4a00000000000000000000000000000000000000000000000000000000815260206004820152601760248201527f50726f6a6563742064657461696c73206e6f74207365740000000000000000006044820152606401610ad4565b805467ffffffffffffffff68010000000000000000909104811690429081168210611523575f935050505061073c565b5f61152e8383612d6f565b67ffffffffffffffff1690505f6115476006600a612eb0565b61155490620f4240612cbd565b8560010154111561156657604b611569565b60645b90505f61157e61271061ffff84165b90611e6e565b90505f61159b6301e1338061157886611595868e82565b90611e88565b9a9950505050505050505050565b7f42847befda217a8205614b97eeba0062d90a739902cf3467520ceec1447115396115d381611a9e565b6001600160a01b038316611613576040517f8579befe00000000000000000000000000000000000000000000000000000000815260040160405180910390fd5b506040805160a08101825267ffffffffffffffff92831680825260208083019182528284019687526001600160a01b039586166060808501918252855190810186525f80825281840181905281870181905260808601918252998a526006835298859020935184549351871668010000000000000000027fffffffffffffffffffffffffffffffff00000000000000000000000000000000909416908716179290921783559551600183015551600282018054919095167fffffffffffffffffffffffff0000000000000000000000000000000000000000909116179093559351805160038401805495830151909316610100027fffffffffffffffffffffffffffffffffffffffffffffff00000000000000000090951660ff9190911617939093179055910151600490910155565b7f42847befda217a8205614b97eeba0062d90a739902cf3467520ceec14471153961176d81611a9e565b8260ff1660011415801561178557508260ff16600214155b156117ec576040517f432f5b4a00000000000000000000000000000000000000000000000000000000815260206004820152601560248201527f496e76616c6964207363686564756c65207479706500000000000000000000006044820152606401610ad4565b815f03611825576040517fd11b25af00000000000000000000000000000000000000000000000000000000815260040160405180910390fd5b5f84815260066020526040902060028101546001600160a01b03166118a6576040517f432f5b4a00000000000000000000000000000000000000000000000000000000815260206004820152601760248201527f50726f6a6563742064657461696c73206e6f74207365740000000000000000006044820152606401610ad4565b5f8460ff166001036118d25781546118cb9067ffffffffffffffff1662093a80612c86565b90506118ee565b81546118eb9067ffffffffffffffff1662278d00612c86565b90505b6040805160608101825260ff90961680875267ffffffffffffffff9092166020870181905295018490526003820180546101009096027fffffffffffffffffffffffffffffffffffffffffffffff000000000000000000909616909117949094179093555060049091015550565b5f8281526001602052604081206119739083611e96565b9392505050565b5f81815260016020526040902060609061073c90611ea1565b5f81815260016020526040812061073c90611ead565b5f815f036119b857505f919050565b5f6119c56006600a612eb0565b6119d190612710612cbd565b83116119df57506032611a0a565b6119eb6006600a612eb0565b6119f890620186a0612cbd565b8311611a0657506023611a0a565b5060145b612710611a1b61ffff831685612cbd565b6119739190612d01565b5f82815260208190526040902060010154611a3f81611a9e565b610c168383611b06565b5f7fffffffff0000000000000000000000000000000000000000000000000000000082167f5a05180f00000000000000000000000000000000000000000000000000000000148061073c575061073c82611eb6565b611aa88133611f4c565b50565b5f807ff0c57e16840df040f15088dc2f81fe391c3923bec73e23a9662efc9c229c6a0061073c565b5f80611adf8484611fb7565b90508015611973575f848152600160205260409020611afe908461207c565b509392505050565b5f80611b128484612090565b90508015611973575f848152600160205260409020611afe908461212f565b306001600160a01b037f0000000000000000000000000000000000000000000000000000000000000000161480611bca57507f00000000000000000000000000000000000000000000000000000000000000006001600160a01b0316611bbe7f360894a13ba1a3210667c828492db98dca3e2076cc3735a920a3ca505d382bbc546001600160a01b031690565b6001600160a01b031614155b15611c01576040517fe07c8dba00000000000000000000000000000000000000000000000000000000815260040160405180910390fd5b565b7f189ab7a9244df0848122154315af71fe140f3db0fe014031783b0946b8c9d2e3611c2d81611a9e565b6001600160a01b038216610e67576040517f8579befe00000000000000000000000000000000000000000000000000000000815260040160405180910390fd5b816001600160a01b03166352d1902d6040518163ffffffff1660e01b8152600401602060405180830381865afa925050508015611ce5575060408051601f3d9081017fffffffffffffffffffffffffffffffffffffffffffffffffffffffffffffffe0168201909252611ce291810190612ca6565b60015b611d26576040517f4c9c8ce30000000000000000000000000000000000000000000000000000000081526001600160a01b0383166004820152602401610ad4565b7f360894a13ba1a3210667c828492db98dca3e2076cc3735a920a3ca505d382bbc8114611d82576040517faa1d49a400000000000000000000000000000000000000000000000000000000815260048101829052602401610ad4565b610d248383612143565b306001600160a01b037f00000000000000000000000000000000000000000000000000000000000000001614611c01576040517fe07c8dba00000000000000000000000000000000000000000000000000000000815260040160405180910390fd5b604080516001600160a01b038416602482015260448082018490528251808303909101815260649091019091526020810180517bffffffffffffffffffffffffffffffffffffffffffffffffffffffff167fa9059cbb00000000000000000000000000000000000000000000000000000000179052610d24908490612198565b5f611973611e8584670de0b6b3a76400008561221d565b90565b5f611973611e858484612323565b5f6119738383612427565b60605f6119738361244d565b5f61073c825490565b5f7fffffffff0000000000000000000000000000000000000000000000000000000082167f7965db0b00000000000000000000000000000000000000000000000000000000148061073c57507f01ffc9a7000000000000000000000000000000000000000000000000000000007fffffffff0000000000000000000000000000000000000000000000000000000083161461073c565b5f828152602081815260408083206001600160a01b038516845290915290205460ff16610e67576040517fe2517d3f0000000000000000000000000000000000000000000000000000000081526001600160a01b038216600482015260248101839052604401610ad4565b5f828152602081815260408083206001600160a01b038516845290915281205460ff16612075575f838152602081815260408083206001600160a01b0386168452909152902080547fffffffffffffffffffffffffffffffffffffffffffffffffffffffffffffff0016600117905561202d3390565b6001600160a01b0316826001600160a01b0316847f2f8788117e7eff1d82e926ec794901d17c78024a50270940304540a733656f0d60405160405180910390a450600161073c565b505f61073c565b5f611973836001600160a01b0384166124a6565b5f828152602081815260408083206001600160a01b038516845290915281205460ff1615612075575f838152602081815260408083206001600160a01b038616808552925280832080547fffffffffffffffffffffffffffffffffffffffffffffffffffffffffffffff0016905551339286917ff6391f5c32d9c69d2a47ea670b442974b53935d1edc7fd64eb21e047a839171b9190a450600161073c565b5f611973836001600160a01b0384166124eb565b61214c826125d5565b6040516001600160a01b038316907fbc7cd75a20ee27fd9adebab32041f755214dbc6bffa90cc0225b39da2e5c2d3b905f90a280511561219057610d24828261267c565b610e676126ee565b5f8060205f8451602086015f885af1806121b7576040513d5f823e3d81fd5b50505f513d915081156121ce5780600114156121db565b6001600160a01b0384163b155b15610c16576040517f5274afe70000000000000000000000000000000000000000000000000000000081526001600160a01b0385166004820152602401610ad4565b5f80807fffffffffffffffffffffffffffffffffffffffffffffffffffffffffffffffff858709858702925082811083820303915050805f036122735783828161226957612269612cd4565b0492505050611973565b8381106122bd576040517f63a05778000000000000000000000000000000000000000000000000000000008152600481018790526024810186905260448101859052606401610ad4565b5f84868809600260036001881981018916988990049182028318808302840302808302840302808302840302808302840302808302840302918202909203025f889003889004909101858311909403939093029303949094049190911702949350505050565b5f80807fffffffffffffffffffffffffffffffffffffffffffffffffffffffffffffffff848609848602925082811083820303915050805f036123735750670de0b6b3a76400009004905061073c565b670de0b6b3a764000081106123be576040517f5173648d0000000000000000000000000000000000000000000000000000000081526004810186905260248101859052604401610ad4565b5f670de0b6b3a7640000858709620400008185030493109091037d40000000000000000000000000000000000000000000000000000000000002919091177faccb18165bd6fe31ae1cf318dc5b51eee0e1ba569b88cd74c1773b91fac106690291505092915050565b5f825f01828154811061243c5761243c612ebe565b905f5260205f200154905092915050565b6060815f0180548060200260200160405190810160405280929190818152602001828054801561249a57602002820191905f5260205f20905b815481526020019060010190808311612486575b50505050509050919050565b5f81815260018301602052604081205461207557508154600181810184555f84815260208082209093018490558454848252828601909352604090209190915561073c565b5f81815260018301602052604081205480156125c5575f61250d600183612d39565b85549091505f9061252090600190612d39565b905080821461257f575f865f01828154811061253e5761253e612ebe565b905f5260205f200154905080875f01848154811061255e5761255e612ebe565b5f918252602080832090910192909255918252600188019052604090208390555b855486908061259057612590612eeb565b600190038181905f5260205f20015f90559055856001015f8681526020019081526020015f205f90556001935050505061073c565b5f91505061073c565b5092915050565b806001600160a01b03163b5f03612623576040517f4c9c8ce30000000000000000000000000000000000000000000000000000000081526001600160a01b0382166004820152602401610ad4565b7f360894a13ba1a3210667c828492db98dca3e2076cc3735a920a3ca505d382bbc80547fffffffffffffffffffffffff0000000000000000000000000000000000000000166001600160a01b0392909216919091179055565b60605f80846001600160a01b0316846040516126989190612f18565b5f60405180830381855af49150503d805f81146126d0576040519150601f19603f3d011682016040523d82523d5f602084013e6126d5565b606091505b50915091506126e5858383612726565b95945050505050565b3415611c01576040517fb398979f00000000000000000000000000000000000000000000000000000000815260040160405180910390fd5b60608261273b576127368261279b565b611973565b815115801561275257506001600160a01b0384163b155b15612794576040517f9996b3150000000000000000000000000000000000000000000000000000000081526001600160a01b0385166004820152602401610ad4565b5080611973565b8051156127ab5780518082602001fd5b6040517fd6bda27500000000000000000000000000000000000000000000000000000000815260040160405180910390fd5b5f602082840312156127ed575f80fd5b81357fffffffff0000000000000000000000000000000000000000000000000000000081168114611973575f80fd5b80356001600160a01b0381168114612832575f80fd5b919050565b5f60208284031215612847575f80fd5b6119738261281c565b5f805f805f60a08688031215612864575f80fd5b61286d8661281c565b945061287b6020870161281c565b93506128896040870161281c565b92506128976060870161281c565b91506128a56080870161281c565b90509295509295909350565b5f602082840312156128c1575f80fd5b5035919050565b5f80604083850312156128d9575f80fd5b823591506128e96020840161281c565b90509250929050565b5f60e08201905067ffffffffffffffff835116825267ffffffffffffffff6020840151166020830152604083015160408301526001600160a01b03606084015116606083015260808301516125ce6080840182805160ff16825260208082015167ffffffffffffffff1690830152604090810151910152565b7f4e487b71000000000000000000000000000000000000000000000000000000005f52604160045260245ffd5b5f80604083850312156129a9575f80fd5b6129b28361281c565b9150602083013567ffffffffffffffff8111156129cd575f80fd5b8301601f810185136129dd575f80fd5b803567ffffffffffffffff8111156129f7576129f761296b565b6040517fffffffffffffffffffffffffffffffffffffffffffffffffffffffffffffffe0603f7fffffffffffffffffffffffffffffffffffffffffffffffffffffffffffffffe0601f8501160116810181811067ffffffffffffffff82111715612a6357612a6361296b565b604052818152828201602001871015612a7a575f80fd5b816020840160208301375f602083830101528093505050509250929050565b5f8060408385031215612aaa575f80fd5b50508035926020909101359150565b5f805f8060808587031215612acc575f80fd5b8435935060208501359250612ae36040860161281c565b9150606085013567ffffffffffffffff81168114612aff575f80fd5b939692955090935050565b5f805f60608486031215612b1c575f80fd5b83359250602084013560ff81168114612b33575f80fd5b929592945050506040919091013590565b602080825282518282018190525f918401906040840190835b81811015612b845783516001600160a01b0316835260209384019390920191600101612b5d565b509095945050505050565b67ffffffffffffffff868116825285166020820152604081018490526001600160a01b038316606082015260e081016114686080830184805160ff16825260208082015167ffffffffffffffff1690830152604090810151910152565b602081525f82518060208401528060208501604085015e5f6040828501015260407fffffffffffffffffffffffffffffffffffffffffffffffffffffffffffffffe0601f83011684010191505092915050565b7f4e487b71000000000000000000000000000000000000000000000000000000005f52601160045260245ffd5b61ffff818116838216019081111561073c5761073c612c3f565b67ffffffffffffffff818116838216019081111561073c5761073c612c3f565b5f60208284031215612cb6575f80fd5b5051919050565b808202811582820484141761073c5761073c612c3f565b7f4e487b71000000000000000000000000000000000000000000000000000000005f52601260045260245ffd5b5f82612d34577f4e487b71000000000000000000000000000000000000000000000000000000005f52601260045260245ffd5b500490565b8181038181111561073c5761073c612c3f565b5f60208284031215612d5c575f80fd5b815163ffffffff81168114611973575f80fd5b67ffffffffffffffff828116828216039081111561073c5761073c612c3f565b6001815b6001841115612dca57808504811115612dae57612dae612c3f565b6001841615612dbc57908102905b60019390931c928002612d93565b935093915050565b5f82612de05750600161073c565b81612dec57505f61073c565b8160018114612e025760028114612e0c57612e28565b600191505061073c565b60ff841115612e1d57612e1d612c3f565b50506001821b61073c565b5060208310610133831016604e8410600b8410161715612e4b575081810a61073c565b612e767fffffffffffffffffffffffffffffffffffffffffffffffffffffffffffffffff8484612d8f565b807fffffffffffffffffffffffffffffffffffffffffffffffffffffffffffffffff04821115612ea857612ea8612c3f565b029392505050565b5f61197360ff841683612dd2565b7f4e487b71000000000000000000000000000000000000000000000000000000005f52603260045260245ffd5b7f4e487b71000000000000000000000000000000000000000000000000000000005f52603160045260245ffd5b5f82518060208501845e5f92019182525091905056fea2646970667358221220b161fd9a154db1a616c176fa9a9dd3a4614de5b5758b77acb68f348bfb5605ca64736f6c634300081a0033",
    "linkReferences": {}
  },
  "methodIdentifiers": {
    "DEFAULT_ADMIN_ROLE()": "a217fddf",
    "UPGRADE_INTERFACE_VERSION()": "ad3cb1cc",
    "calculateCapitalRaisingFee(uint256,address)": "7836425e",
    "calculateManagementFee(uint256,uint256)": "835e9eb4",
    "calculateTransactionFee(uint256)": "d223521d",
    "carbonTreasury()": "6ed0537d",
    "developerRegistry()": "107d0be1",
    "getCarbonTreasury()": "0c7eb4b5",
    "getNextPaymentInfo(uint256)": "1df0065c",
    "getProjectFeeDetails(uint256)": "4dd7963f",
    "getProtocolTreasury()": "9611f3d9",
    "getRoleAdmin(bytes32)": "248a9ca3",
    "getRoleMember(bytes32,uint256)": "9010d07c",
    "getRoleMemberCount(bytes32)": "ca15c873",
    "getRoleMembers(bytes32)": "a3246ad3",
    "grantRole(bytes32,address)": "2f2ff15d",
    "hasRole(bytes32,address)": "91d14854",
    "initialize(address,address,address,address,address)": "1459457a",
    "projectFeeInfo(uint256)": "a670900d",
    "protocolTreasury()": "803db96d",
    "proxiableUUID()": "52d1902d",
    "renounceRole(bytes32,address)": "36568abe",
    "revokeRole(bytes32,address)": "d547741f",
    "routeFees(uint256)": "767d279b",
    "setCarbonTreasury(address)": "77ba3cbe",
    "setProjectDetails(uint256,uint256,address,uint64)": "850e63d4",
    "setProtocolTreasury(address)": "0c5a61f8",
    "setRepaymentSchedule(uint256,uint8,uint256)": "85548dbd",
    "supportsInterface(bytes4)": "01ffc9a7",
    "updateLastMgmtFeeTimestamp(uint256)": "32f7a37f",
    "updatePaymentSchedule(uint256)": "6457be56",
    "upgradeToAndCall(address,bytes)": "4f1ef286",
    "usdcToken()": "11eac855"
  },
  "id": 105
}