{
  "abi": [
    {
      "type": "function",
      "name": "DEFAULT_ADMIN_ROLE",
      "inputs": [],
      "outputs": [
        {
          "name": "",
          "type": "bytes32",
          "internalType": "bytes32"
        }
      ],
      "stateMutability": "view"
    },
    {
      "type": "function",
      "name": "UPGRADE_INTERFACE_VERSION",
      "inputs": [],
      "outputs": [
        {
          "name": "",
          "type": "string",
          "internalType": "string"
        }
      ],
      "stateMutability": "view"
    },
    {
      "type": "function",
      "name": "createPool",
      "inputs": [
        {
          "name": "",
          "type": "uint256",
          "internalType": "uint256"
        },
        {
          "name": "name",
          "type": "string",
          "internalType": "string"
        }
      ],
      "outputs": [],
      "stateMutability": "nonpayable"
    },
    {
      "type": "function",
      "name": "depositToPool",
      "inputs": [
        {
          "name": "poolId",
          "type": "uint256",
          "internalType": "uint256"
        },
        {
          "name": "amount",
          "type": "uint256",
          "internalType": "uint256"
        }
      ],
      "outputs": [
        {
          "name": "shares",
          "type": "uint256",
          "internalType": "uint256"
        }
      ],
      "stateMutability": "nonpayable"
    },
    {
      "type": "function",
      "name": "devEscrowImplementation",
      "inputs": [],
      "outputs": [
        {
          "name": "",
          "type": "address",
          "internalType": "address"
        }
      ],
      "stateMutability": "view"
    },
    {
      "type": "function",
      "name": "developerRegistry",
      "inputs": [],
      "outputs": [
        {
          "name": "",
          "type": "address",
          "internalType": "contract IDeveloperRegistry"
        }
      ],
      "stateMutability": "view"
    },
    {
      "type": "function",
      "name": "feeRouter",
      "inputs": [],
      "outputs": [
        {
          "name": "",
          "type": "address",
          "internalType": "contract IFeeRouter"
        }
      ],
      "stateMutability": "view"
    },
    {
      "type": "function",
      "name": "getPoolInfo",
      "inputs": [
        {
          "name": "poolId",
          "type": "uint256",
          "internalType": "uint256"
        }
      ],
      "outputs": [
        {
          "name": "",
          "type": "tuple",
          "internalType": "struct ILiquidityPoolManager.PoolInfo",
          "components": [
            {
              "name": "exists",
              "type": "bool",
              "internalType": "bool"
            },
            {
              "name": "name",
              "type": "string",
              "internalType": "string"
            },
            {
              "name": "totalAssets",
              "type": "uint256",
              "internalType": "uint256"
            },
            {
              "name": "totalShares",
              "type": "uint256",
              "internalType": "uint256"
            }
          ]
        }
      ],
      "stateMutability": "view"
    },
    {
      "type": "function",
      "name": "getPoolLoanRecord",
      "inputs": [
        {
          "name": "poolId",
          "type": "uint256",
          "internalType": "uint256"
        },
        {
          "name": "projectId",
          "type": "uint256",
          "internalType": "uint256"
        }
      ],
      "outputs": [
        {
          "name": "",
          "type": "tuple",
          "internalType": "struct ILiquidityPoolManager.LoanRecord",
          "components": [
            {
              "name": "exists",
              "type": "bool",
              "internalType": "bool"
            },
            {
              "name": "developer",
              "type": "address",
              "internalType": "address"
            },
            {
              "name": "devEscrow",
              "type": "address",
              "internalType": "address"
            },
            {
              "name": "principal",
              "type": "uint256",
              "internalType": "uint256"
            },
            {
              "name": "aprBps",
              "type": "uint16",
              "internalType": "uint16"
            },
            {
              "name": "loanTenor",
              "type": "uint48",
              "internalType": "uint48"
            },
            {
              "name": "principalRepaid",
              "type": "uint256",
              "internalType": "uint256"
            },
            {
              "name": "interestAccrued",
              "type": "uint256",
              "internalType": "uint256"
            },
            {
              "name": "startTime",
              "type": "uint64",
              "internalType": "uint64"
            },
            {
              "name": "isActive",
              "type": "bool",
              "internalType": "bool"
            }
          ]
        }
      ],
      "stateMutability": "view"
    },
    {
      "type": "function",
      "name": "getRoleAdmin",
      "inputs": [
        {
          "name": "role",
          "type": "bytes32",
          "internalType": "bytes32"
        }
      ],
      "outputs": [
        {
          "name": "",
          "type": "bytes32",
          "internalType": "bytes32"
        }
      ],
      "stateMutability": "view"
    },
    {
      "type": "function",
      "name": "getRoleMember",
      "inputs": [
        {
          "name": "role",
          "type": "bytes32",
          "internalType": "bytes32"
        },
        {
          "name": "index",
          "type": "uint256",
          "internalType": "uint256"
        }
      ],
      "outputs": [
        {
          "name": "",
          "type": "address",
          "internalType": "address"
        }
      ],
      "stateMutability": "view"
    },
    {
      "type": "function",
      "name": "getRoleMemberCount",
      "inputs": [
        {
          "name": "role",
          "type": "bytes32",
          "internalType": "bytes32"
        }
      ],
      "outputs": [
        {
          "name": "",
          "type": "uint256",
          "internalType": "uint256"
        }
      ],
      "stateMutability": "view"
    },
    {
      "type": "function",
      "name": "getRoleMembers",
      "inputs": [
        {
          "name": "role",
          "type": "bytes32",
          "internalType": "bytes32"
        }
      ],
      "outputs": [
        {
          "name": "",
          "type": "address[]",
          "internalType": "address[]"
        }
      ],
      "stateMutability": "view"
    },
    {
      "type": "function",
      "name": "getUserShares",
      "inputs": [
        {
          "name": "poolId",
          "type": "uint256",
          "internalType": "uint256"
        },
        {
          "name": "user",
          "type": "address",
          "internalType": "address"
        }
      ],
      "outputs": [
        {
          "name": "",
          "type": "uint256",
          "internalType": "uint256"
        }
      ],
      "stateMutability": "view"
    },
    {
      "type": "function",
      "name": "grantRole",
      "inputs": [
        {
          "name": "role",
          "type": "bytes32",
          "internalType": "bytes32"
        },
        {
          "name": "account",
          "type": "address",
          "internalType": "address"
        }
      ],
      "outputs": [],
      "stateMutability": "nonpayable"
    },
    {
      "type": "function",
      "name": "handleRepayment",
      "inputs": [
        {
          "name": "poolId",
          "type": "uint256",
          "internalType": "uint256"
        },
        {
          "name": "projectId",
          "type": "uint256",
          "internalType": "uint256"
        },
        {
          "name": "netAmountReceived",
          "type": "uint256",
          "internalType": "uint256"
        }
      ],
      "outputs": [
        {
          "name": "principalPaid",
          "type": "uint256",
          "internalType": "uint256"
        },
        {
          "name": "interestPaid",
          "type": "uint256",
          "internalType": "uint256"
        }
      ],
      "stateMutability": "nonpayable"
    },
    {
      "type": "function",
      "name": "hasRole",
      "inputs": [
        {
          "name": "role",
          "type": "bytes32",
          "internalType": "bytes32"
        },
        {
          "name": "account",
          "type": "address",
          "internalType": "address"
        }
      ],
      "outputs": [
        {
          "name": "",
          "type": "bool",
          "internalType": "bool"
        }
      ],
      "stateMutability": "view"
    },
    {
      "type": "function",
      "name": "initialize",
      "inputs": [
        {
          "name": "_admin",
          "type": "address",
          "internalType": "address"
        },
        {
          "name": "_usdcToken",
          "type": "address",
          "internalType": "address"
        },
        {
          "name": "_feeRouter",
          "type": "address",
          "internalType": "address"
        },
        {
          "name": "_developerRegistry",
          "type": "address",
          "internalType": "address"
        },
        {
          "name": "_riskRateOracleAdapter",
          "type": "address",
          "internalType": "address"
        },
        {
          "name": "_devEscrowImplementation",
          "type": "address",
          "internalType": "address"
        },
        {
          "name": "_repaymentRouter",
          "type": "address",
          "internalType": "address"
        },
        {
          "name": "_milestoneAuthorizer",
          "type": "address",
          "internalType": "address"
        }
      ],
      "outputs": [],
      "stateMutability": "nonpayable"
    },
    {
      "type": "function",
      "name": "milestoneAuthorizer",
      "inputs": [],
      "outputs": [
        {
          "name": "",
          "type": "address",
          "internalType": "address"
        }
      ],
      "stateMutability": "view"
    },
    {
      "type": "function",
      "name": "pause",
      "inputs": [],
      "outputs": [],
      "stateMutability": "nonpayable"
    },
    {
      "type": "function",
      "name": "paused",
      "inputs": [],
      "outputs": [
        {
          "name": "",
          "type": "bool",
          "internalType": "bool"
        }
      ],
      "stateMutability": "view"
    },
    {
      "type": "function",
      "name": "poolAprRates",
      "inputs": [
        {
          "name": "",
          "type": "uint256",
          "internalType": "uint256"
        }
      ],
      "outputs": [
        {
          "name": "",
          "type": "uint16",
          "internalType": "uint16"
        }
      ],
      "stateMutability": "view"
    },
    {
      "type": "function",
      "name": "poolCount",
      "inputs": [],
      "outputs": [
        {
          "name": "",
          "type": "uint256",
          "internalType": "uint256"
        }
      ],
      "stateMutability": "view"
    },
    {
      "type": "function",
      "name": "poolLoans",
      "inputs": [
        {
          "name": "",
          "type": "uint256",
          "internalType": "uint256"
        },
        {
          "name": "",
          "type": "uint256",
          "internalType": "uint256"
        }
      ],
      "outputs": [
        {
          "name": "exists",
          "type": "bool",
          "internalType": "bool"
        },
        {
          "name": "developer",
          "type": "address",
          "internalType": "address"
        },
        {
          "name": "devEscrow",
          "type": "address",
          "internalType": "address"
        },
        {
          "name": "principal",
          "type": "uint256",
          "internalType": "uint256"
        },
        {
          "name": "aprBps",
          "type": "uint16",
          "internalType": "uint16"
        },
        {
          "name": "loanTenor",
          "type": "uint48",
          "internalType": "uint48"
        },
        {
          "name": "principalRepaid",
          "type": "uint256",
          "internalType": "uint256"
        },
        {
          "name": "interestAccrued",
          "type": "uint256",
          "internalType": "uint256"
        },
        {
          "name": "startTime",
          "type": "uint64",
          "internalType": "uint64"
        },
        {
          "name": "isActive",
          "type": "bool",
          "internalType": "bool"
        }
      ],
      "stateMutability": "view"
    },
    {
      "type": "function",
      "name": "poolRiskLevels",
      "inputs": [
        {
          "name": "",
          "type": "uint256",
          "internalType": "uint256"
        }
      ],
      "outputs": [
        {
          "name": "",
          "type": "uint16",
          "internalType": "uint16"
        }
      ],
      "stateMutability": "view"
    },
    {
      "type": "function",
      "name": "pools",
      "inputs": [
        {
          "name": "",
          "type": "uint256",
          "internalType": "uint256"
        }
      ],
      "outputs": [
        {
          "name": "exists",
          "type": "bool",
          "internalType": "bool"
        },
        {
          "name": "name",
          "type": "string",
          "internalType": "string"
        },
        {
          "name": "totalAssets",
          "type": "uint256",
          "internalType": "uint256"
        },
        {
          "name": "totalShares",
          "type": "uint256",
          "internalType": "uint256"
        }
      ],
      "stateMutability": "view"
    },
    {
      "type": "function",
      "name": "proxiableUUID",
      "inputs": [],
      "outputs": [
        {
          "name": "",
          "type": "bytes32",
          "internalType": "bytes32"
        }
      ],
      "stateMutability": "view"
    },
    {
      "type": "function",
      "name": "redeem",
      "inputs": [
        {
          "name": "poolId",
          "type": "uint256",
          "internalType": "uint256"
        },
        {
          "name": "shares",
          "type": "uint256",
          "internalType": "uint256"
        }
      ],
      "outputs": [
        {
          "name": "assets",
          "type": "uint256",
          "internalType": "uint256"
        }
      ],
      "stateMutability": "nonpayable"
    },
    {
      "type": "function",
      "name": "registerAndFundProject",
      "inputs": [
        {
          "name": "projectId",
          "type": "uint256",
          "internalType": "uint256"
        },
        {
          "name": "developer",
          "type": "address",
          "internalType": "address"
        },
        {
          "name": "params",
          "type": "tuple",
          "internalType": "struct ILiquidityPoolManager.ProjectParams",
          "components": [
            {
              "name": "loanAmountRequested",
              "type": "uint256",
              "internalType": "uint256"
            },
            {
              "name": "totalProjectCost",
              "type": "uint256",
              "internalType": "uint256"
            },
            {
              "name": "requestedTenor",
              "type": "uint48",
              "internalType": "uint48"
            },
            {
              "name": "metadataCID",
              "type": "string",
              "internalType": "string"
            }
          ]
        }
      ],
      "outputs": [
        {
          "name": "success",
          "type": "bool",
          "internalType": "bool"
        },
        {
          "name": "poolId",
          "type": "uint256",
          "internalType": "uint256"
        }
      ],
      "stateMutability": "nonpayable"
    },
    {
      "type": "function",
      "name": "renounceRole",
      "inputs": [
        {
          "name": "role",
          "type": "bytes32",
          "internalType": "bytes32"
        },
        {
          "name": "callerConfirmation",
          "type": "address",
          "internalType": "address"
        }
      ],
      "outputs": [],
      "stateMutability": "nonpayable"
    },
    {
      "type": "function",
      "name": "repaymentRouter",
      "inputs": [],
      "outputs": [
        {
          "name": "",
          "type": "address",
          "internalType": "address"
        }
      ],
      "stateMutability": "view"
    },
    {
      "type": "function",
      "name": "revokeRole",
      "inputs": [
        {
          "name": "role",
          "type": "bytes32",
          "internalType": "bytes32"
        },
        {
          "name": "account",
          "type": "address",
          "internalType": "address"
        }
      ],
      "outputs": [],
      "stateMutability": "nonpayable"
    },
    {
      "type": "function",
      "name": "riskOracleAdapter",
      "inputs": [],
      "outputs": [
        {
          "name": "",
          "type": "address",
          "internalType": "contract IRiskRateOracleAdapter"
        }
      ],
      "stateMutability": "view"
    },
    {
      "type": "function",
      "name": "setPoolRiskLevel",
      "inputs": [
        {
          "name": "poolId",
          "type": "uint256",
          "internalType": "uint256"
        },
        {
          "name": "riskLevel",
          "type": "uint16",
          "internalType": "uint16"
        },
        {
          "name": "baseAprBps",
          "type": "uint16",
          "internalType": "uint16"
        }
      ],
      "outputs": [],
      "stateMutability": "nonpayable"
    },
    {
      "type": "function",
      "name": "supportsInterface",
      "inputs": [
        {
          "name": "interfaceId",
          "type": "bytes4",
          "internalType": "bytes4"
        }
      ],
      "outputs": [
        {
          "name": "",
          "type": "bool",
          "internalType": "bool"
        }
      ],
      "stateMutability": "view"
    },
    {
      "type": "function",
      "name": "unpause",
      "inputs": [],
      "outputs": [],
      "stateMutability": "nonpayable"
    },
    {
      "type": "function",
      "name": "updateRiskParams",
      "inputs": [
        {
          "name": "poolId",
          "type": "uint256",
          "internalType": "uint256"
        },
        {
          "name": "projectId",
          "type": "uint256",
          "internalType": "uint256"
        },
        {
          "name": "newAprBps",
          "type": "uint16",
          "internalType": "uint16"
        }
      ],
      "outputs": [],
      "stateMutability": "nonpayable"
    },
    {
      "type": "function",
      "name": "upgradeToAndCall",
      "inputs": [
        {
          "name": "newImplementation",
          "type": "address",
          "internalType": "address"
        },
        {
          "name": "data",
          "type": "bytes",
          "internalType": "bytes"
        }
      ],
      "outputs": [],
      "stateMutability": "payable"
    },
    {
      "type": "function",
      "name": "usdcToken",
      "inputs": [],
      "outputs": [
        {
          "name": "",
          "type": "address",
          "internalType": "contract IERC20"
        }
      ],
      "stateMutability": "view"
    },
    {
      "type": "function",
      "name": "userShares",
      "inputs": [
        {
          "name": "",
          "type": "address",
          "internalType": "address"
        },
        {
          "name": "",
          "type": "uint256",
          "internalType": "uint256"
        }
      ],
      "outputs": [
        {
          "name": "",
          "type": "uint256",
          "internalType": "uint256"
        }
      ],
      "stateMutability": "view"
    },
    {
      "type": "event",
      "name": "Initialized",
      "inputs": [
        {
          "name": "version",
          "type": "uint64",
          "indexed": false,
          "internalType": "uint64"
        }
      ],
      "anonymous": false
    },
    {
      "type": "event",
      "name": "Paused",
      "inputs": [
        {
          "name": "account",
          "type": "address",
          "indexed": false,
          "internalType": "address"
        }
      ],
      "anonymous": false
    },
    {
      "type": "event",
      "name": "PoolCreated",
      "inputs": [
        {
          "name": "poolId",
          "type": "uint256",
          "indexed": true,
          "internalType": "uint256"
        },
        {
          "name": "name",
          "type": "string",
          "indexed": false,
          "internalType": "string"
        },
        {
          "name": "creator",
          "type": "address",
          "indexed": true,
          "internalType": "address"
        }
      ],
      "anonymous": false
    },
    {
      "type": "event",
      "name": "PoolDeposit",
      "inputs": [
        {
          "name": "poolId",
          "type": "uint256",
          "indexed": true,
          "internalType": "uint256"
        },
        {
          "name": "investor",
          "type": "address",
          "indexed": true,
          "internalType": "address"
        },
        {
          "name": "assetsDeposited",
          "type": "uint256",
          "indexed": false,
          "internalType": "uint256"
        },
        {
          "name": "sharesMinted",
          "type": "uint256",
          "indexed": false,
          "internalType": "uint256"
        }
      ],
      "anonymous": false
    },
    {
      "type": "event",
      "name": "PoolProjectFunded",
      "inputs": [
        {
          "name": "poolId",
          "type": "uint256",
          "indexed": true,
          "internalType": "uint256"
        },
        {
          "name": "projectId",
          "type": "uint256",
          "indexed": true,
          "internalType": "uint256"
        },
        {
          "name": "developer",
          "type": "address",
          "indexed": true,
          "internalType": "address"
        },
        {
          "name": "devEscrow",
          "type": "address",
          "indexed": false,
          "internalType": "address"
        },
        {
          "name": "amountFunded",
          "type": "uint256",
          "indexed": false,
          "internalType": "uint256"
        },
        {
          "name": "aprBps",
          "type": "uint16",
          "indexed": false,
          "internalType": "uint16"
        }
      ],
      "anonymous": false
    },
    {
      "type": "event",
      "name": "PoolRedeem",
      "inputs": [
        {
          "name": "poolId",
          "type": "uint256",
          "indexed": true,
          "internalType": "uint256"
        },
        {
          "name": "redeemer",
          "type": "address",
          "indexed": true,
          "internalType": "address"
        },
        {
          "name": "sharesBurned",
          "type": "uint256",
          "indexed": false,
          "internalType": "uint256"
        },
        {
          "name": "assetsWithdrawn",
          "type": "uint256",
          "indexed": false,
          "internalType": "uint256"
        }
      ],
      "anonymous": false
    },
    {
      "type": "event",
      "name": "PoolRepaymentReceived",
      "inputs": [
        {
          "name": "poolId",
          "type": "uint256",
          "indexed": true,
          "internalType": "uint256"
        },
        {
          "name": "projectId",
          "type": "uint256",
          "indexed": true,
          "internalType": "uint256"
        },
        {
          "name": "payer",
          "type": "address",
          "indexed": true,
          "internalType": "address"
        },
        {
          "name": "principalReceived",
          "type": "uint256",
          "indexed": false,
          "internalType": "uint256"
        },
        {
          "name": "interestReceived",
          "type": "uint256",
          "indexed": false,
          "internalType": "uint256"
        }
      ],
      "anonymous": false
    },
    {
      "type": "event",
      "name": "RoleAdminChanged",
      "inputs": [
        {
          "name": "role",
          "type": "bytes32",
          "indexed": true,
          "internalType": "bytes32"
        },
        {
          "name": "previousAdminRole",
          "type": "bytes32",
          "indexed": true,
          "internalType": "bytes32"
        },
        {
          "name": "newAdminRole",
          "type": "bytes32",
          "indexed": true,
          "internalType": "bytes32"
        }
      ],
      "anonymous": false
    },
    {
      "type": "event",
      "name": "RoleGranted",
      "inputs": [
        {
          "name": "role",
          "type": "bytes32",
          "indexed": true,
          "internalType": "bytes32"
        },
        {
          "name": "account",
          "type": "address",
          "indexed": true,
          "internalType": "address"
        },
        {
          "name": "sender",
          "type": "address",
          "indexed": true,
          "internalType": "address"
        }
      ],
      "anonymous": false
    },
    {
      "type": "event",
      "name": "RoleRevoked",
      "inputs": [
        {
          "name": "role",
          "type": "bytes32",
          "indexed": true,
          "internalType": "bytes32"
        },
        {
          "name": "account",
          "type": "address",
          "indexed": true,
          "internalType": "address"
        },
        {
          "name": "sender",
          "type": "address",
          "indexed": true,
          "internalType": "address"
        }
      ],
      "anonymous": false
    },
    {
      "type": "event",
      "name": "Unpaused",
      "inputs": [
        {
          "name": "account",
          "type": "address",
          "indexed": false,
          "internalType": "address"
        }
      ],
      "anonymous": false
    },
    {
      "type": "event",
      "name": "Upgraded",
      "inputs": [
        {
          "name": "implementation",
          "type": "address",
          "indexed": true,
          "internalType": "address"
        }
      ],
      "anonymous": false
    },
    {
      "type": "error",
      "name": "AccessControlBadConfirmation",
      "inputs": []
    },
    {
      "type": "error",
      "name": "AccessControlUnauthorizedAccount",
      "inputs": [
        {
          "name": "account",
          "type": "address",
          "internalType": "address"
        },
        {
          "name": "neededRole",
          "type": "bytes32",
          "internalType": "bytes32"
        }
      ]
    },
    {
      "type": "error",
      "name": "AddressEmptyCode",
      "inputs": [
        {
          "name": "target",
          "type": "address",
          "internalType": "address"
        }
      ]
    },
    {
      "type": "error",
      "name": "AmountCannotBeZero",
      "inputs": []
    },
    {
      "type": "error",
      "name": "CannotInvestZero",
      "inputs": []
    },
    {
      "type": "error",
      "name": "CannotRedeemZeroShares",
      "inputs": []
    },
    {
      "type": "error",
      "name": "ERC1967InvalidImplementation",
      "inputs": [
        {
          "name": "implementation",
          "type": "address",
          "internalType": "address"
        }
      ]
    },
    {
      "type": "error",
      "name": "ERC1967NonPayable",
      "inputs": []
    },
    {
      "type": "error",
      "name": "EnforcedPause",
      "inputs": []
    },
    {
      "type": "error",
      "name": "ExpectedPause",
      "inputs": []
    },
    {
      "type": "error",
      "name": "FailedCall",
      "inputs": []
    },
    {
      "type": "error",
      "name": "FailedDeployment",
      "inputs": []
    },
    {
      "type": "error",
      "name": "InsufficientBalance",
      "inputs": [
        {
          "name": "balance",
          "type": "uint256",
          "internalType": "uint256"
        },
        {
          "name": "needed",
          "type": "uint256",
          "internalType": "uint256"
        }
      ]
    },
    {
      "type": "error",
      "name": "InsufficientLiquidity",
      "inputs": []
    },
    {
      "type": "error",
      "name": "InsufficientShares",
      "inputs": [
        {
          "name": "required",
          "type": "uint256",
          "internalType": "uint256"
        },
        {
          "name": "available",
          "type": "uint256",
          "internalType": "uint256"
        }
      ]
    },
    {
      "type": "error",
      "name": "InvalidInitialization",
      "inputs": []
    },
    {
      "type": "error",
      "name": "InvalidState",
      "inputs": [
        {
          "name": "reason",
          "type": "string",
          "internalType": "string"
        }
      ]
    },
    {
      "type": "error",
      "name": "InvalidValue",
      "inputs": [
        {
          "name": "reason",
          "type": "string",
          "internalType": "string"
        }
      ]
    },
    {
      "type": "error",
      "name": "InvestmentBelowMinimum",
      "inputs": [
        {
          "name": "minimum",
          "type": "uint256",
          "internalType": "uint256"
        }
      ]
    },
    {
      "type": "error",
      "name": "NotInitializing",
      "inputs": []
    },
    {
      "type": "error",
      "name": "PoolAlreadyExists",
      "inputs": [
        {
          "name": "poolId",
          "type": "uint256",
          "internalType": "uint256"
        }
      ]
    },
    {
      "type": "error",
      "name": "PoolDoesNotExist",
      "inputs": [
        {
          "name": "poolId",
          "type": "uint256",
          "internalType": "uint256"
        }
      ]
    },
    {
      "type": "error",
      "name": "ReentrancyGuardReentrantCall",
      "inputs": []
    },
    {
      "type": "error",
      "name": "SafeERC20FailedOperation",
      "inputs": [
        {
          "name": "token",
          "type": "address",
          "internalType": "address"
        }
      ]
    },
    {
      "type": "error",
      "name": "StringCannotBeEmpty",
      "inputs": []
    },
    {
      "type": "error",
      "name": "UUPSUnauthorizedCallContext",
      "inputs": []
    },
    {
      "type": "error",
      "name": "UUPSUnsupportedProxiableUUID",
      "inputs": [
        {
          "name": "slot",
          "type": "bytes32",
          "internalType": "bytes32"
        }
      ]
    },
    {
      "type": "error",
      "name": "ZeroAddressNotAllowed",
      "inputs": []
    }
  ],
  "bytecode": {
    "object": "0x60a0604052306080523480156012575f80fd5b5060016003556080516142c161003e5f395f818161257a015281816125a301526127b501526142c15ff3fe6080604052600436106102ab575f3560e01c8063835dc40b11610165578063a3246ad3116100c6578063d547741f1161007c578063eb82055111610062578063eb82055114610a62578063f29ebf6114610a81578063f525cb6814610aa0575f80fd5b8063d547741f14610a0d578063e53dc68014610a2c575f80fd5b8063ad3cb1cc116100ac578063ad3cb1cc1461097a578063ca15c873146109cf578063ce4a37fe146109ee575f80fd5b8063a3246ad31461091f578063ac4afa381461094b575f80fd5b80639010d07c1161011b578063960503171161010157806396050317146106b95780639676c1cb146107fa578063a217fddf1461090c575f80fd5b80639010d07c1461065857806391d1485414610677575f80fd5b806385cc27fb1161014b57806385cc27fb146105eb5780638a29e2de1461061a5780638b29ab4914610639575f80fd5b8063835dc40b146105995780638456cb59146105d7575f80fd5b80634674810d1161020f5780635c975abb116101c55780637080b938116101ab5780637080b938146105255780637113fe4e1461055b5780637cbc23731461057a575f80fd5b80635c975abb146104ef5780636fa9d05614610506575f80fd5b80634f1ef286116101f55780634f1ef286146104a957806352d1902d146104bc57806359b2d294146104d0575f80fd5b80634674810d14610433578063496179ac14610475575f80fd5b8063248a9ca3116102645780632f380b351161024a5780632f380b35146103d457806336568abe146104005780633f4ba83a1461041f575f80fd5b8063248a9ca3146103795780632f2ff15d146103b5575f80fd5b806311eac8551161029457806311eac8551461031a57806312d06cf214610339578063171eb0ee1461035a575f80fd5b806301ffc9a7146102af578063107d0be1146102e3575b5f80fd5b3480156102ba575f80fd5b506102ce6102c936600461381e565b610ab5565b60405190151581526020015b60405180910390f35b3480156102ee575f80fd5b50600654610302906001600160a01b031681565b6040516001600160a01b0390911681526020016102da565b348015610325575f80fd5b50600454610302906001600160a01b031681565b348015610344575f80fd5b5061035861035336600461386c565b610ac5565b005b348015610365575f80fd5b50600854610302906001600160a01b031681565b348015610384575f80fd5b506103a76103933660046138a2565b5f9081526020819052604090206001015490565b6040519081526020016102da565b3480156103c0575f80fd5b506103586103cf3660046138d4565b610bd7565b3480156103df575f80fd5b506103f36103ee3660046138a2565b610c01565b6040516102da919061392c565b34801561040b575f80fd5b5061035861041a3660046138d4565b610d47565b34801561042a575f80fd5b50610358610d98565b34801561043e575f80fd5b5061046261044d3660046138a2565b60126020525f908152604090205461ffff1681565b60405161ffff90911681526020016102da565b348015610480575f80fd5b5061049461048f366004613973565b610dcd565b604080519283526020830191909152016102da565b6103586104b73660046139c9565b611014565b3480156104c7575f80fd5b506103a7611033565b3480156104db575f80fd5b50600754610302906001600160a01b031681565b3480156104fa575f80fd5b5060025460ff166102ce565b348015610511575f80fd5b50600954610302906001600160a01b031681565b348015610530575f80fd5b5061054461053f366004613a8e565b611061565b6040805192151583526020830191909152016102da565b348015610566575f80fd5b50610358610575366004613adc565b6116e2565b348015610585575f80fd5b506103a7610594366004613b10565b611809565b3480156105a4575f80fd5b506103a76105b33660046138d4565b6001600160a01b03165f908152600e60209081526040808320938352929052205490565b3480156105e2575f80fd5b50610358611afe565b3480156105f6575f80fd5b506104626106053660046138a2565b60116020525f908152604090205461ffff1681565b348015610625575f80fd5b50610358610634366004613b30565b611b30565b348015610644575f80fd5b50600a54610302906001600160a01b031681565b348015610663575f80fd5b50610302610672366004613b10565b611ebf565b348015610682575f80fd5b506102ce6106913660046138d4565b5f918252602082815260408084206001600160a01b0393909316845291905290205460ff1690565b3480156106c4575f80fd5b506107ed6106d3366004613b10565b60408051610140810182525f80825260208201819052918101829052606081018290526080810182905260a0810182905260c0810182905260e081018290526101008101829052610120810191909152505f828152600d60209081526040808320848452825291829020825161014081018452815460ff808216151583526001600160a01b036101009283900481169584019590955260018401549094169482019490945260028201546060820152600382015461ffff8116608083015265ffffffffffff620100009091041660a0820152600482015460c0820152600582015460e082015260069091015467ffffffffffffffff8116938201939093526801000000000000000090920416151561012082015292915050565b6040516102da9190613bc2565b348015610805575f80fd5b5061089c610814366004613b10565b600d60209081525f9283526040808420909152908252902080546001820154600283015460038401546004850154600586015460069096015460ff808716976101009097046001600160a01b039081169796169561ffff85169462010000900465ffffffffffff169392909167ffffffffffffffff821691680100000000000000009004168a565b604080519a15158b526001600160a01b03998a1660208c01529790981696890196909652606088019490945261ffff92909216608087015265ffffffffffff1660a086015260c085015260e084015267ffffffffffffffff166101008301521515610120820152610140016102da565b348015610917575f80fd5b506103a75f81565b34801561092a575f80fd5b5061093e6109393660046138a2565b611edd565b6040516102da9190613c84565b348015610956575f80fd5b5061096a6109653660046138a2565b611ef6565b6040516102da9493929190613ccf565b348015610985575f80fd5b506109c26040518060400160405280600581526020017f352e302e3000000000000000000000000000000000000000000000000000000081525081565b6040516102da9190613cfc565b3480156109da575f80fd5b506103a76109e93660046138a2565b611fa8565b3480156109f9575f80fd5b50610358610a08366004613d0e565b611fbe565b348015610a18575f80fd5b50610358610a273660046138d4565b612173565b348015610a37575f80fd5b506103a7610a46366004613d85565b600e60209081525f928352604080842090915290825290205481565b348015610a6d575f80fd5b506103a7610a7c366004613b10565b612197565b348015610a8c575f80fd5b50600554610302906001600160a01b031681565b348015610aab575f80fd5b506103a7600c5481565b5f610abf826123c0565b92915050565b7f02509c39826ef4d4fc9a6478dd388f892df655e831b495ea37e26344d4c48aca610aef81612415565b610af761241f565b5f848152600d602090815260408083208684529091529020805460ff161580610b315750600681015468010000000000000000900460ff16155b15610b9d576040517f432f5b4a00000000000000000000000000000000000000000000000000000000815260206004820152601c60248201527f4c6f616e206e6f7420616374697665206f72206e6f7420666f756e640000000060448201526064015b60405180910390fd5b60030180547fffffffffffffffffffffffffffffffffffffffffffffffffffffffffffff00001661ffff9390931692909217909155505050565b5f82815260208190526040902060010154610bf181612415565b610bfb838361245e565b50505050565b610c2b60405180608001604052805f15158152602001606081526020015f81526020015f81525090565b5f828152600b602052604090205460ff16610c75576040517f1e657b1d00000000000000000000000000000000000000000000000000000000815260048101839052602401610b94565b5f828152600b6020908152604091829020825160808101909352805460ff16151583526001810180549192840191610cac90613dad565b80601f0160208091040260200160405190810160405280929190818152602001828054610cd890613dad565b8015610d235780601f10610cfa57610100808354040283529160200191610d23565b820191905f5260205f20905b815481529060010190602001808311610d0657829003601f168201915b50505050508152602001600282015481526020016003820154815250509050919050565b6001600160a01b0381163314610d89576040517f6697b23200000000000000000000000000000000000000000000000000000000815260040160405180910390fd5b610d938282612491565b505050565b7f65d7a28e3265b37a6474929f336521b332c1681b933f6cb9f3376673440d862a610dc281612415565b610dca6124bc565b50565b5f80610dd761252c565b610ddf61241f565b7f51a687be621618bb42f5dcbb17ee3798544ce951156fd30a67d800a241b48019610e0981612415565b5f868152600b60205260409020805460ff16610e54576040517f1e657b1d00000000000000000000000000000000000000000000000000000000815260048101889052602401610b94565b5f878152600d602090815260408083208984529091529020805460ff161580610e8e5750600681015468010000000000000000900460ff16155b15610ef5576040517f432f5b4a00000000000000000000000000000000000000000000000000000000815260206004820152601c60248201527f4c6f616e206e6f7420616374697665206f72206e6f7420666f756e64000000006044820152606401610b94565b5f81600401548260020154610f0a9190613e2b565b9050808710610f2757945084610f208188613e2b565b9450610f2e565b8695505f94505b85826004015f828254610f419190613e3e565b9250508190555084826005015f828254610f5b9190613e3e565b9250508190555086836002015f828254610f759190613e3e565b90915550506002820154600483015410610fbe57600282015460048301556006820180547fffffffffffffffffffffffffffffffffffffffffffffff00ffffffffffffffff1690555b604080518781526020810187905233918a918c917f56ab6a9fb8beed983212ba8dac7e660f7280fbded340421fe12a5308f8d5ebe1910160405180910390a45050505b5061100c6001600355565b935093915050565b61101c61256f565b6110258261263f565b61102f82826126a9565b5050565b5f61103c6127aa565b507f360894a13ba1a3210667c828492db98dca3e2076cc3735a920a3ca505d382bbc90565b5f8061106b61252c565b61107361241f565b7f42847befda217a8205614b97eeba0062d90a739902cf3467520ceec14471153961109d81612415565b6001600160a01b0385166110dd576040517f8579befe00000000000000000000000000000000000000000000000000000000815260040160405180910390fd5b83355f03611117576040517fd11b25af00000000000000000000000000000000000000000000000000000000815260040160405180910390fd5b5f61112061280c565b5f818152600f60209081526040918290208a81556002810180547fffffffffffffffffffffffff0000000000000000000000000000000000000000166001600160a01b038c161790558835600482015590880135600582015591925061118c9060608801908801613e51565b60068201805465ffffffffffff9290921662010000027fffffffffffffffffffffffffffffffffffffffffffffffff000000000000ffff9092169190911790556007546040517f0630bcd7000000000000000000000000000000000000000000000000000000008152600481018a90526001600160a01b0390911690630630bcd790602401602060405180830381865afa92505050801561124a575060408051601f3d908101601f1916820190925261124791810190613e76565b60015b611288576006810180547fffffffffffffffffffffffffffffffffffffffffffff0000ffffffffffffffff16680200000000000000001790556112ca565b60068201805461ffff90921668010000000000000000027fffffffffffffffffffffffffffffffffffffffffffff0000ffffffffffffffff9092169190911790555b6112eb828260060160089054906101000a900461ffff168360040154612825565b61134c57604080515f808252602082018190529181018290526001600160a01b038916918a917fbb2f62ae3b9038da2cd27cd1997d416d28a24ce61d66c065905f88d9840e7052906060015b60405180910390a45f80945094505050611001565b6113558261296c565b6113a557604080515f808252602082018190529181018290526001600160a01b038916918a917fbb2f62ae3b9038da2cd27cd1997d416d28a24ce61d66c065905f88d9840e705290606001611337565b6001810154815460028301546003840154600485015460068601546115ba9594936001600160a01b039081169316919061ffff81169065ffffffffffff6201000090910416604051806101400160405280600115158152602001866001600160a01b03168152602001856001600160a01b031681526020018481526020018361ffff1681526020018265ffffffffffff1681526020015f81526020015f81526020014267ffffffffffffffff16815260200160011515815250600d5f8981526020019081526020015f205f8881526020019081526020015f205f820151815f015f6101000a81548160ff0219169083151502179055506020820151815f0160016101000a8154816001600160a01b0302191690836001600160a01b031602179055506040820151816001015f6101000a8154816001600160a01b0302191690836001600160a01b03160217905550606082015181600201556080820151816003015f6101000a81548161ffff021916908361ffff16021790555060a08201518160030160026101000a81548165ffffffffffff021916908365ffffffffffff16021790555060c0820151816004015560e08201518160050155610100820151816006015f6101000a81548167ffffffffffffffff021916908367ffffffffffffffff1602179055506101208201518160060160086101000a81548160ff02191690831515021790555090505050505050505050565b6115c382612b4c565b506115cd82612bf7565b6115d682612d23565b6001818101545f848152600f602052604081208181558084018290556002810180547fffffffffffffffffffffffff0000000000000000000000000000000000000000908116909155600382018054909116905560048101829055600581019190915560060180547fffffffffffffffffffffffffffffffffffffffffffff00000000000000000000169055600283015483546001850154600386015460048701546006880154604080516001600160a01b039485168152602081019390935261ffff909116908201529316927fbb2f62ae3b9038da2cd27cd1997d416d28a24ce61d66c065905f88d9840e70529060600160405180910390a4909550935050505061100c6001600355565b5f6116ec81612415565b5f848152600b602052604090205460ff16611736576040517f1e657b1d00000000000000000000000000000000000000000000000000000000815260048101859052602401610b94565b60018361ffff16108061174d575060038361ffff16115b156117b4576040517f432f5b4a00000000000000000000000000000000000000000000000000000000815260206004820152601660248201527f5269736b206c6576656c206d75737420626520312d33000000000000000000006044820152606401610b94565b505f92835260116020908152604080852080547fffffffffffffffffffffffffffffffffffffffffffffffffffffffffffff000090811661ffff96871617909155601290925290932080549093169116179055565b5f61181261252c565b61181a61241f565b815f03611853576040517f2bf6e4ea00000000000000000000000000000000000000000000000000000000815260040160405180910390fd5b5f838152600b60205260409020805460ff1661189e576040517f1e657b1d00000000000000000000000000000000000000000000000000000000815260048101859052602401610b94565b335f908152600e60209081526040808320878452909152902054838110156118fc576040517fcb1d8bba0000000000000000000000000000000000000000000000000000000081526004810185905260248101829052604401610b94565b600282015460038301545f819003611995576040517f8c3685b8000000000000000000000000000000000000000000000000000000008152602060048201526024808201527f43616e6e6f742072656465656d2066726f6d20656d70747920706f6f6c20736860448201527f61726573000000000000000000000000000000000000000000000000000000006064820152608401610b94565b806119a08388613e91565b6119aa9190613ed5565b9450845f03611a15576040517f432f5b4a00000000000000000000000000000000000000000000000000000000815260206004820152601b60248201527f53686172657320746f6f20736d616c6c20666f722061737365747300000000006044820152606401610b94565b81851115611a7f576040517f8c3685b800000000000000000000000000000000000000000000000000000000815260206004820152601c60248201527f526564656d7074696f6e2063616c63756c6174696f6e206572726f72000000006044820152606401610b94565b611a898682613e2b565b6003850155611a988684613e2b565b335f818152600e602090815260408083208c8452825291829020939093558051898152928301889052909189917ff0251db1454f88c8e8294c42d324ba89e0192d1f40b3350af5aa350755a208a9910160405180910390a350505050610abf6001600355565b7f65d7a28e3265b37a6474929f336521b332c1681b933f6cb9f3376673440d862a611b2881612415565b610dca612e65565b5f611b39612ec0565b805490915060ff68010000000000000000820416159067ffffffffffffffff165f81158015611b655750825b90505f8267ffffffffffffffff166001148015611b815750303b155b905081158015611b8f575080155b15611bc6576040517ff92ee8a900000000000000000000000000000000000000000000000000000000815260040160405180910390fd5b84547fffffffffffffffffffffffffffffffffffffffffffffffff00000000000000001660011785558315611c275784547fffffffffffffffffffffffffffffffffffffffffffffff00ffffffffffffffff16680100000000000000001785555b6001600160a01b038d161580611c4457506001600160a01b038c16155b80611c5657506001600160a01b038b16155b80611c6857506001600160a01b038a16155b80611c7a57506001600160a01b038916155b80611c8c57506001600160a01b038816155b80611c9e57506001600160a01b038716155b80611cb057506001600160a01b038616155b15611ce7576040517f8579befe00000000000000000000000000000000000000000000000000000000815260040160405180910390fd5b600480547fffffffffffffffffffffffff00000000000000000000000000000000000000009081166001600160a01b038f8116919091179092556005805482168e84161790556006805482168d84161790556007805482168c84161790556008805482168b84161790556009805482168a8416179055600a8054909116918816919091179055611d775f8e61245e565b50611da27f65d7a28e3265b37a6474929f336521b332c1681b933f6cb9f3376673440d862a8e61245e565b50611dcd7f189ab7a9244df0848122154315af71fe140f3db0fe014031783b0946b8c9d2e38e61245e565b50611df87f42847befda217a8205614b97eeba0062d90a739902cf3467520ceec1447115398e61245e565b50611e237f51a687be621618bb42f5dcbb17ee3798544ce951156fd30a67d800a241b480198861245e565b50611e4e7f02509c39826ef4d4fc9a6478dd388f892df655e831b495ea37e26344d4c48aca8e61245e565b508315611eb05784547fffffffffffffffffffffffffffffffffffffffffffffff00ffffffffffffffff168555604051600181527fc7f505b2f371ae2175ee4913f4499e1f2633a7b5936321eed1cdaeb6115181d29060200160405180910390a15b50505050505050505050505050565b5f828152600160205260408120611ed69083612ee8565b9392505050565b5f818152600160205260409020606090610abf90612ef3565b600b6020525f90815260409020805460018201805460ff9092169291611f1b90613dad565b80601f0160208091040260200160405190810160405280929190818152602001828054611f4790613dad565b8015611f925780601f10611f6957610100808354040283529160200191611f92565b820191905f5260205f20905b815481529060010190602001808311611f7557829003601f168201915b5050505050908060020154908060030154905084565b5f818152600160205260408120610abf90612eff565b5f611fc881612415565b611fd061241f565b5f600c5f8154611fdf90613ee8565b91829055505f818152600b602052604090205490915060ff1615612032576040517f988c4d7800000000000000000000000000000000000000000000000000000000815260048101829052602401610b94565b5f83900361206c576040517faabcb66800000000000000000000000000000000000000000000000000000000815260040160405180910390fd5b604051806080016040528060011515815260200185858080601f0160208091040260200160405190810160405280939291908181526020018383808284375f92018290525093855250505060208083018290526040928301829052848252600b8152919020825181547fffffffffffffffffffffffffffffffffffffffffffffffffffffffffffffff00169015151781559082015160018201906121109082613f6a565b506040820151816002015560608201518160030155905050336001600160a01b0316817f7eb8d63c0f8c2fb1b61dd0947e2f9eb707c7d44ec5d65a0761976cbc070197a58686604051612164929190614063565b60405180910390a35050505050565b5f8281526020819052604090206001015461218d81612415565b610bfb8383612491565b5f6121a061252c565b6121a861241f565b815f036121e1576040517f8ff9ef0b00000000000000000000000000000000000000000000000000000000815260040160405180910390fd5b6121ed6006600a6141aa565b6121f8906001613e91565b82101561224b5761220b6006600a6141aa565b612216906001613e91565b6040517fbec095db000000000000000000000000000000000000000000000000000000008152600401610b9491815260200190565b5f838152600b60205260409020805460ff16612296576040517f1e657b1d00000000000000000000000000000000000000000000000000000000815260048101859052602401610b94565b600281015460038201548115806122ab575080155b156122b8578493506122d0565b816122c38287613e91565b6122cd9190613ed5565b93505b835f03612339576040517f432f5b4a00000000000000000000000000000000000000000000000000000000815260206004820152601c60248201527f4465706f73697420746f6f20736d616c6c20666f7220736861726573000000006044820152606401610b94565b6123438482613e3e565b6003840155335f908152600e6020908152604080832089845290915281208054869290612371908490613e3e565b90915550506040805186815260208101869052339188917f8235d65791fe2c87bd88b1c43846194851f3cbbbd7f4ee6a0952b1072bd9417f910160405180910390a3505050610abf6001600355565b5f7fffffffff0000000000000000000000000000000000000000000000000000000082167f5a05180f000000000000000000000000000000000000000000000000000000001480610abf5750610abf82612f08565b610dca8133612f9e565b60025460ff161561245c576040517fd93c066500000000000000000000000000000000000000000000000000000000815260040160405180910390fd5b565b5f8061246a8484613009565b90508015611ed6575f84815260016020526040902061248990846130ce565b509392505050565b5f8061249d84846130e2565b90508015611ed6575f8481526001602052604090206124899084613181565b6124c4613195565b600280547fffffffffffffffffffffffffffffffffffffffffffffffffffffffffffffff001690557f5db9ee0a495bf2e6ff9c91a7834c1ba4fdd244a5e8aa4e537bd38aeae4b073aa335b6040516001600160a01b03909116815260200160405180910390a1565b600260035403612568576040517f3ee5aeb500000000000000000000000000000000000000000000000000000000815260040160405180910390fd5b6002600355565b306001600160a01b037f000000000000000000000000000000000000000000000000000000000000000016148061260857507f00000000000000000000000000000000000000000000000000000000000000006001600160a01b03166125fc7f360894a13ba1a3210667c828492db98dca3e2076cc3735a920a3ca505d382bbc546001600160a01b031690565b6001600160a01b031614155b1561245c576040517fe07c8dba00000000000000000000000000000000000000000000000000000000815260040160405180910390fd5b7f189ab7a9244df0848122154315af71fe140f3db0fe014031783b0946b8c9d2e361266981612415565b6001600160a01b03821661102f576040517f8579befe00000000000000000000000000000000000000000000000000000000815260040160405180910390fd5b816001600160a01b03166352d1902d6040518163ffffffff1660e01b8152600401602060405180830381865afa925050508015612703575060408051601f3d908101601f19168201909252612700918101906141b8565b60015b612744576040517f4c9c8ce30000000000000000000000000000000000000000000000000000000081526001600160a01b0383166004820152602401610b94565b7f360894a13ba1a3210667c828492db98dca3e2076cc3735a920a3ca505d382bbc81146127a0576040517faa1d49a400000000000000000000000000000000000000000000000000000000815260048101829052602401610b94565b610d9383836131d1565b306001600160a01b037f0000000000000000000000000000000000000000000000000000000000000000161461245c576040517fe07c8dba00000000000000000000000000000000000000000000000000000000815260040160405180910390fd5b5f60105f815461281b90613ee8565b9182905550919050565b5f838152600f602052604081208161ffff60015b600c548111612911575f818152600b602052604090205460ff16801561286f57505f818152600b60205260409020600201548611155b156128ff575f8181526011602052604090205461ffff90811690881681036128bc575f8281526012602052604090205461ffff9081169084168110156128b6578294508093505b506128fd565b831580156128d157508761ffff168161ffff16115b156128fd575f8281526012602052604090205461ffff9081169084168110156128fb578294508093505b505b505b8061290981613ee8565b915050612839565b50815f03612924575f9350505050611ed6565b600183810192909255600690920180547fffffffffffffffffffffffffffffffffffffffffffffffffffffffffffff00001661ffff9093169290921790915590509392505050565b5f818152600f602052604081206008548290612990906001600160a01b0316613226565b90506001600160a01b038116612a02576040517f8c3685b800000000000000000000000000000000000000000000000000000000815260206004820152601660248201527f446576457363726f7720636c6f6e65206661696c6564000000000000000000006044820152606401610b94565b600480546002840154918401546040516001600160a01b0392831660248201529282166044840152306064840181905260848401919091525f60a4840181905260c4840191909152919083169060e40160408051601f198184030181529181526020820180517bffffffffffffffffffffffffffffffffffffffffffffffffffffffff167f32b5a1b30000000000000000000000000000000000000000000000000000000017905251612ab591906141cf565b5f604051808303815f865af19150503d805f8114612aee576040519150601f19603f3d011682016040523d82523d5f602084013e612af3565b606091505b50508091505080612b0857505f949350505050565b5060039190910180547fffffffffffffffffffffffff0000000000000000000000000000000000000000166001600160a01b03909216919091179055506001919050565b5f818152600f6020908152604080832060018101548452600b9092528220600482015460028201541015612bac576040517fbb55fd2700000000000000000000000000000000000000000000000000000000815260040160405180910390fd5b8160040154816002015f828254612bc39190613e2b565b909155505060028201546004808401549054612bed926001600160a01b0391821692911690613231565b5060019392505050565b5f818152600f6020526040908190206003810154600582015492517fdd92ffe500000000000000000000000000000000000000000000000000000000815291926001600160a01b039091169163dd92ffe591612c599160040190815260200190565b5f604051808303815f87803b158015612c70575f80fd5b505af1925050508015612c81575060015b506005805482549183015460028401546040517f850e63d4000000000000000000000000000000000000000000000000000000008152600481019490945260248401919091526001600160a01b03908116604484015267ffffffffffffffff42166064840152169063850e63d4906084015f604051808303815f87803b158015612d09575f80fd5b505af1925050508015612d1a575060015b1561102f575050565b5f818152600f6020526040812060048101546006820154919291612d5b919061ffff81169062010000900465ffffffffffff166132b1565b60055483546040517f85548dbd000000000000000000000000000000000000000000000000000000008152600481019190915260016024820152604481018390529192506001600160a01b0316906385548dbd906064015f604051808303815f87803b158015612dc9575f80fd5b505af1925050508015612dda575060015b50600754825460018401546040517fb6ec0db3000000000000000000000000000000000000000000000000000000008152600481019290925230602483015260448201526001600160a01b039091169063b6ec0db3906064015f604051808303815f87803b158015612e4a575f80fd5b505af1925050508015612e5b575060015b15610d9357505050565b612e6d61241f565b600280547fffffffffffffffffffffffffffffffffffffffffffffffffffffffffffffff001660011790557f62e78cea01bee320cd4e420270b5ea74000d11b0c9f74754ebdbfc544b05a25861250f3390565b5f807ff0c57e16840df040f15088dc2f81fe391c3923bec73e23a9662efc9c229c6a00610abf565b5f611ed6838361331d565b60605f611ed683613343565b5f610abf825490565b5f7fffffffff0000000000000000000000000000000000000000000000000000000082167f7965db0b000000000000000000000000000000000000000000000000000000001480610abf57507f01ffc9a7000000000000000000000000000000000000000000000000000000007fffffffff00000000000000000000000000000000000000000000000000000000831614610abf565b5f828152602081815260408083206001600160a01b038516845290915290205460ff1661102f576040517fe2517d3f0000000000000000000000000000000000000000000000000000000081526001600160a01b038216600482015260248101839052604401610b94565b5f828152602081815260408083206001600160a01b038516845290915281205460ff166130c7575f838152602081815260408083206001600160a01b0386168452909152902080547fffffffffffffffffffffffffffffffffffffffffffffffffffffffffffffff0016600117905561307f3390565b6001600160a01b0316826001600160a01b0316847f2f8788117e7eff1d82e926ec794901d17c78024a50270940304540a733656f0d60405160405180910390a4506001610abf565b505f610abf565b5f611ed6836001600160a01b03841661339c565b5f828152602081815260408083206001600160a01b038516845290915281205460ff16156130c7575f838152602081815260408083206001600160a01b038616808552925280832080547fffffffffffffffffffffffffffffffffffffffffffffffffffffffffffffff0016905551339286917ff6391f5c32d9c69d2a47ea670b442974b53935d1edc7fd64eb21e047a839171b9190a4506001610abf565b5f611ed6836001600160a01b0384166133e1565b60025460ff1661245c576040517f8dfc202b00000000000000000000000000000000000000000000000000000000815260040160405180910390fd5b6131da826134cb565b6040516001600160a01b038316907fbc7cd75a20ee27fd9adebab32041f755214dbc6bffa90cc0225b39da2e5c2d3b905f90a280511561321e57610d938282613572565b61102f6135e4565b5f610abf825f61361c565b604080516001600160a01b038416602482015260448082018490528251808303909101815260649091019091526020810180517bffffffffffffffffffffffffffffffffffffffffffffffffffffffff167fa9059cbb00000000000000000000000000000000000000000000000000000000179052610d939084906136e2565b5f8061016d6132c18460076141e5565b6132cb9190614206565b6132dd9065ffffffffffff1686613ed5565b90505f60346127106132f361ffff881689613e91565b6132fd9190613ed5565b6133079190613ed5565b90506133138183613e3e565b9695505050505050565b5f825f01828154811061333257613332614231565b905f5260205f200154905092915050565b6060815f0180548060200260200160405190810160405280929190818152602001828054801561339057602002820191905f5260205f20905b81548152602001906001019080831161337c575b50505050509050919050565b5f8181526001830160205260408120546130c757508154600181810184555f848152602080822090930184905584548482528286019093526040902091909155610abf565b5f81815260018301602052604081205480156134bb575f613403600183613e2b565b85549091505f9061341690600190613e2b565b9050808214613475575f865f01828154811061343457613434614231565b905f5260205f200154905080875f01848154811061345457613454614231565b5f918252602080832090910192909255918252600188019052604090208390555b85548690806134865761348661425e565b600190038181905f5260205f20015f90559055856001015f8681526020019081526020015f205f905560019350505050610abf565b5f915050610abf565b5092915050565b806001600160a01b03163b5f03613519576040517f4c9c8ce30000000000000000000000000000000000000000000000000000000081526001600160a01b0382166004820152602401610b94565b7f360894a13ba1a3210667c828492db98dca3e2076cc3735a920a3ca505d382bbc80547fffffffffffffffffffffffff0000000000000000000000000000000000000000166001600160a01b0392909216919091179055565b60605f80846001600160a01b03168460405161358e91906141cf565b5f60405180830381855af49150503d805f81146135c6576040519150601f19603f3d011682016040523d82523d5f602084013e6135cb565b606091505b50915091506135db858383613767565b95945050505050565b341561245c576040517fb398979f00000000000000000000000000000000000000000000000000000000815260040160405180910390fd5b5f81471015613660576040517fcf47918100000000000000000000000000000000000000000000000000000000815247600482015260248101839052604401610b94565b763d602d80600a3d3981f3363d3d373d3d3d363d730000008360601b60e81c175f526e5af43d82803e903d91602b57fd5bf38360781b176020526037600983f090506001600160a01b038116610abf576040517fb06ebf3d00000000000000000000000000000000000000000000000000000000815260040160405180910390fd5b5f8060205f8451602086015f885af180613701576040513d5f823e3d81fd5b50505f513d91508115613718578060011415613725565b6001600160a01b0384163b155b15610bfb576040517f5274afe70000000000000000000000000000000000000000000000000000000081526001600160a01b0385166004820152602401610b94565b60608261377c57613777826137dc565b611ed6565b815115801561379357506001600160a01b0384163b155b156137d5576040517f9996b3150000000000000000000000000000000000000000000000000000000081526001600160a01b0385166004820152602401610b94565b5080611ed6565b8051156137ec5780518082602001fd5b6040517fd6bda27500000000000000000000000000000000000000000000000000000000815260040160405180910390fd5b5f6020828403121561382e575f80fd5b81357fffffffff0000000000000000000000000000000000000000000000000000000081168114611ed6575f80fd5b61ffff81168114610dca575f80fd5b5f805f6060848603121561387e575f80fd5b833592506020840135915060408401356138978161385d565b809150509250925092565b5f602082840312156138b2575f80fd5b5035919050565b80356001600160a01b03811681146138cf575f80fd5b919050565b5f80604083850312156138e5575f80fd5b823591506138f5602084016138b9565b90509250929050565b5f81518084528060208401602086015e5f602082860101526020601f19601f83011685010191505092915050565b602081528151151560208201525f60208301516080604084015261395360a08401826138fe565b905060408401516060840152606084015160808401528091505092915050565b5f805f60608486031215613985575f80fd5b505081359360208301359350604090920135919050565b7f4e487b71000000000000000000000000000000000000000000000000000000005f52604160045260245ffd5b5f80604083850312156139da575f80fd5b6139e3836138b9565b9150602083013567ffffffffffffffff8111156139fe575f80fd5b8301601f81018513613a0e575f80fd5b803567ffffffffffffffff811115613a2857613a2861399c565b604051601f19603f601f19601f8501160116810181811067ffffffffffffffff82111715613a5857613a5861399c565b604052818152828201602001871015613a6f575f80fd5b816020840160208301375f602083830101528093505050509250929050565b5f805f60608486031215613aa0575f80fd5b83359250613ab0602085016138b9565b9150604084013567ffffffffffffffff811115613acb575f80fd5b840160808187031215613897575f80fd5b5f805f60608486031215613aee575f80fd5b833592506020840135613b008161385d565b915060408401356138978161385d565b5f8060408385031215613b21575f80fd5b50508035926020909101359150565b5f805f805f805f80610100898b031215613b48575f80fd5b613b51896138b9565b9750613b5f60208a016138b9565b9650613b6d60408a016138b9565b9550613b7b60608a016138b9565b9450613b8960808a016138b9565b9350613b9760a08a016138b9565b9250613ba560c08a016138b9565b9150613bb360e08a016138b9565b90509295985092959890939650565b81511515815261014081016020830151613be760208401826001600160a01b03169052565b506040830151613c0260408401826001600160a01b03169052565b50606083015160608301526080830151613c22608084018261ffff169052565b5060a0830151613c3c60a084018265ffffffffffff169052565b5060c083015160c083015260e083015160e0830152610100830151613c6e61010084018267ffffffffffffffff169052565b506101208301516134c461012084018215159052565b602080825282518282018190525f918401906040840190835b81811015613cc45783516001600160a01b0316835260209384019390920191600101613c9d565b509095945050505050565b8415158152608060208201525f613ce960808301866138fe565b6040830194909452506060015292915050565b602081525f611ed660208301846138fe565b5f805f60408486031215613d20575f80fd5b83359250602084013567ffffffffffffffff811115613d3d575f80fd5b8401601f81018613613d4d575f80fd5b803567ffffffffffffffff811115613d63575f80fd5b866020828401011115613d74575f80fd5b939660209190910195509293505050565b5f8060408385031215613d96575f80fd5b613d9f836138b9565b946020939093013593505050565b600181811c90821680613dc157607f821691505b602082108103613df8577f4e487b71000000000000000000000000000000000000000000000000000000005f52602260045260245ffd5b50919050565b7f4e487b71000000000000000000000000000000000000000000000000000000005f52601160045260245ffd5b81810381811115610abf57610abf613dfe565b80820180821115610abf57610abf613dfe565b5f60208284031215613e61575f80fd5b813565ffffffffffff81168114611ed6575f80fd5b5f60208284031215613e86575f80fd5b8151611ed68161385d565b8082028115828204841417610abf57610abf613dfe565b7f4e487b71000000000000000000000000000000000000000000000000000000005f52601260045260245ffd5b5f82613ee357613ee3613ea8565b500490565b5f7fffffffffffffffffffffffffffffffffffffffffffffffffffffffffffffffff8203613f1857613f18613dfe565b5060010190565b601f821115610d9357805f5260205f20601f840160051c81016020851015613f445750805b601f840160051c820191505b81811015613f63575f8155600101613f50565b5050505050565b815167ffffffffffffffff811115613f8457613f8461399c565b613f9881613f928454613dad565b84613f1f565b6020601f821160018114613fe9575f8315613fb35750848201515b7fffffffffffffffffffffffffffffffffffffffffffffffffffffffffffffffff600385901b1c1916600184901b178455613f63565b5f84815260208120601f198516915b828110156140185787850151825560209485019460019092019101613ff8565b508482101561405457868401517fffffffffffffffffffffffffffffffffffffffffffffffffffffffffffffffff600387901b60f8161c191681555b50505050600190811b01905550565b60208152816020820152818360408301375f818301604090810191909152601f909201601f19160101919050565b6001815b600184111561100c578085048111156140b0576140b0613dfe565b60018416156140be57908102905b60019390931c928002614095565b5f826140da57506001610abf565b816140e657505f610abf565b81600181146140fc576002811461410657614122565b6001915050610abf565b60ff84111561411757614117613dfe565b50506001821b610abf565b5060208310610133831016604e8410600b8410161715614145575081810a610abf565b6141707fffffffffffffffffffffffffffffffffffffffffffffffffffffffffffffffff8484614091565b807fffffffffffffffffffffffffffffffffffffffffffffffffffffffffffffffff048211156141a2576141a2613dfe565b029392505050565b5f611ed660ff8416836140cc565b5f602082840312156141c8575f80fd5b5051919050565b5f82518060208501845e5f920191825250919050565b65ffffffffffff81811683821602908116908181146134c4576134c4613dfe565b5f65ffffffffffff83168061421d5761421d613ea8565b8065ffffffffffff84160491505092915050565b7f4e487b71000000000000000000000000000000000000000000000000000000005f52603260045260245ffd5b7f4e487b71000000000000000000000000000000000000000000000000000000005f52603160045260245ffdfea2646970667358221220d65e46de8c29fb523fad8d79262856233cea64ceec4dc9fee228af1f0289ac5964736f6c634300081a0033",
    "linkReferences": {}
  },
  "methodIdentifiers": {
    "DEFAULT_ADMIN_ROLE()": "a217fddf",
    "UPGRADE_INTERFACE_VERSION()": "ad3cb1cc",
    "createPool(uint256,string)": "ce4a37fe",
    "depositToPool(uint256,uint256)": "eb820551",
    "devEscrowImplementation()": "171eb0ee",
    "developerRegistry()": "107d0be1",
    "feeRouter()": "f29ebf61",
    "getPoolInfo(uint256)": "2f380b35",
    "getPoolLoanRecord(uint256,uint256)": "96050317",
    "getRoleAdmin(bytes32)": "248a9ca3",
    "getRoleMember(bytes32,uint256)": "9010d07c",
    "getRoleMemberCount(bytes32)": "ca15c873",
    "getRoleMembers(bytes32)": "a3246ad3",
    "getUserShares(uint256,address)": "835dc40b",
    "grantRole(bytes32,address)": "2f2ff15d",
    "handleRepayment(uint256,uint256,uint256)": "496179ac",
    "hasRole(bytes32,address)": "91d14854",
    "initialize(address,address,address,address,address,address,address,address)": "8a29e2de",
    "milestoneAuthorizer()": "8b29ab49",
    "pause()": "8456cb59",
    "paused()": "5c975abb",
    "poolAprRates(uint256)": "4674810d",
    "poolCount()": "f525cb68",
    "poolLoans(uint256,uint256)": "9676c1cb",
    "poolRiskLevels(uint256)": "85cc27fb",
    "pools(uint256)": "ac4afa38",
    "proxiableUUID()": "52d1902d",
    "redeem(uint256,uint256)": "7cbc2373",
    "registerAndFundProject(uint256,address,(uint256,uint256,uint48,string))": "7080b938",
    "renounceRole(bytes32,address)": "36568abe",
    "repaymentRouter()": "6fa9d056",
    "revokeRole(bytes32,address)": "d547741f",
    "riskOracleAdapter()": "59b2d294",
    "setPoolRiskLevel(uint256,uint16,uint16)": "7113fe4e",
    "supportsInterface(bytes4)": "01ffc9a7",
    "unpause()": "3f4ba83a",
    "updateRiskParams(uint256,uint256,uint16)": "12d06cf2",
    "upgradeToAndCall(address,bytes)": "4f1ef286",
    "usdcToken()": "11eac855",
    "userShares(address,uint256)": "e53dc680"
  },
  "id": 109
}