{
  "abi": [
    {
      "type": "function",
      "name": "DEFAULT_ADMIN_ROLE",
      "inputs": [],
      "outputs": [
        {
          "name": "",
          "type": "bytes32",
          "internalType": "bytes32"
        }
      ],
      "stateMutability": "view"
    },
    {
      "type": "function",
      "name": "UPGRADE_INTERFACE_VERSION",
      "inputs": [],
      "outputs": [
        {
          "name": "",
          "type": "string",
          "internalType": "string"
        }
      ],
      "stateMutability": "view"
    },
    {
      "type": "function",
      "name": "adminAddress",
      "inputs": [],
      "outputs": [
        {
          "name": "",
          "type": "address",
          "internalType": "address"
        }
      ],
      "stateMutability": "view"
    },
    {
      "type": "function",
      "name": "createProject",
      "inputs": [
        {
          "name": "params",
          "type": "tuple",
          "internalType": "struct ProjectFactory.ProjectParams",
          "components": [
            {
              "name": "loanAmountRequested",
              "type": "uint256",
              "internalType": "uint256"
            },
            {
              "name": "requestedTenor",
              "type": "uint48",
              "internalType": "uint48"
            },
            {
              "name": "metadataCID",
              "type": "string",
              "internalType": "string"
            }
          ]
        }
      ],
      "outputs": [
        {
          "name": "projectId",
          "type": "uint256",
          "internalType": "uint256"
        }
      ],
      "stateMutability": "nonpayable"
    },
    {
      "type": "function",
      "name": "depositEscrow",
      "inputs": [],
      "outputs": [
        {
          "name": "",
          "type": "address",
          "internalType": "contract IDeveloperDepositEscrow"
        }
      ],
      "stateMutability": "view"
    },
    {
      "type": "function",
      "name": "devEscrowImplementation",
      "inputs": [],
      "outputs": [
        {
          "name": "",
          "type": "address",
          "internalType": "address"
        }
      ],
      "stateMutability": "view"
    },
    {
      "type": "function",
      "name": "developerRegistry",
      "inputs": [],
      "outputs": [
        {
          "name": "",
          "type": "address",
          "internalType": "contract IDeveloperRegistry"
        }
      ],
      "stateMutability": "view"
    },
    {
      "type": "function",
      "name": "getRoleAdmin",
      "inputs": [
        {
          "name": "role",
          "type": "bytes32",
          "internalType": "bytes32"
        }
      ],
      "outputs": [
        {
          "name": "",
          "type": "bytes32",
          "internalType": "bytes32"
        }
      ],
      "stateMutability": "view"
    },
    {
      "type": "function",
      "name": "getRoleMember",
      "inputs": [
        {
          "name": "role",
          "type": "bytes32",
          "internalType": "bytes32"
        },
        {
          "name": "index",
          "type": "uint256",
          "internalType": "uint256"
        }
      ],
      "outputs": [
        {
          "name": "",
          "type": "address",
          "internalType": "address"
        }
      ],
      "stateMutability": "view"
    },
    {
      "type": "function",
      "name": "getRoleMemberCount",
      "inputs": [
        {
          "name": "role",
          "type": "bytes32",
          "internalType": "bytes32"
        }
      ],
      "outputs": [
        {
          "name": "",
          "type": "uint256",
          "internalType": "uint256"
        }
      ],
      "stateMutability": "view"
    },
    {
      "type": "function",
      "name": "getRoleMembers",
      "inputs": [
        {
          "name": "role",
          "type": "bytes32",
          "internalType": "bytes32"
        }
      ],
      "outputs": [
        {
          "name": "",
          "type": "address[]",
          "internalType": "address[]"
        }
      ],
      "stateMutability": "view"
    },
    {
      "type": "function",
      "name": "grantRole",
      "inputs": [
        {
          "name": "role",
          "type": "bytes32",
          "internalType": "bytes32"
        },
        {
          "name": "account",
          "type": "address",
          "internalType": "address"
        }
      ],
      "outputs": [],
      "stateMutability": "nonpayable"
    },
    {
      "type": "function",
      "name": "hasRole",
      "inputs": [
        {
          "name": "role",
          "type": "bytes32",
          "internalType": "bytes32"
        },
        {
          "name": "account",
          "type": "address",
          "internalType": "address"
        }
      ],
      "outputs": [
        {
          "name": "",
          "type": "bool",
          "internalType": "bool"
        }
      ],
      "stateMutability": "view"
    },
    {
      "type": "function",
      "name": "initialize",
      "inputs": [
        {
          "name": "_registry",
          "type": "address",
          "internalType": "address"
        },
        {
          "name": "_depositEscrow",
          "type": "address",
          "internalType": "address"
        },
        {
          "name": "_usdc",
          "type": "address",
          "internalType": "address"
        },
        {
          "name": "_initialAdmin",
          "type": "address",
          "internalType": "address"
        }
      ],
      "outputs": [],
      "stateMutability": "nonpayable"
    },
    {
      "type": "function",
      "name": "liquidityPoolManager",
      "inputs": [],
      "outputs": [
        {
          "name": "",
          "type": "address",
          "internalType": "contract ILiquidityPoolManager"
        }
      ],
      "stateMutability": "view"
    },
    {
      "type": "function",
      "name": "milestoneAuthorizerAddress",
      "inputs": [],
      "outputs": [
        {
          "name": "",
          "type": "address",
          "internalType": "address"
        }
      ],
      "stateMutability": "view"
    },
    {
      "type": "function",
      "name": "pause",
      "inputs": [],
      "outputs": [],
      "stateMutability": "nonpayable"
    },
    {
      "type": "function",
      "name": "paused",
      "inputs": [],
      "outputs": [
        {
          "name": "",
          "type": "bool",
          "internalType": "bool"
        }
      ],
      "stateMutability": "view"
    },
    {
      "type": "function",
      "name": "pauserAddress",
      "inputs": [],
      "outputs": [
        {
          "name": "",
          "type": "address",
          "internalType": "address"
        }
      ],
      "stateMutability": "view"
    },
    {
      "type": "function",
      "name": "projectCounter",
      "inputs": [],
      "outputs": [
        {
          "name": "",
          "type": "uint256",
          "internalType": "uint256"
        }
      ],
      "stateMutability": "view"
    },
    {
      "type": "function",
      "name": "proxiableUUID",
      "inputs": [],
      "outputs": [
        {
          "name": "",
          "type": "bytes32",
          "internalType": "bytes32"
        }
      ],
      "stateMutability": "view"
    },
    {
      "type": "function",
      "name": "renounceRole",
      "inputs": [
        {
          "name": "role",
          "type": "bytes32",
          "internalType": "bytes32"
        },
        {
          "name": "callerConfirmation",
          "type": "address",
          "internalType": "address"
        }
      ],
      "outputs": [],
      "stateMutability": "nonpayable"
    },
    {
      "type": "function",
      "name": "repaymentRouterAddress",
      "inputs": [],
      "outputs": [
        {
          "name": "",
          "type": "address",
          "internalType": "address"
        }
      ],
      "stateMutability": "view"
    },
    {
      "type": "function",
      "name": "revokeRole",
      "inputs": [
        {
          "name": "role",
          "type": "bytes32",
          "internalType": "bytes32"
        },
        {
          "name": "account",
          "type": "address",
          "internalType": "address"
        }
      ],
      "outputs": [],
      "stateMutability": "nonpayable"
    },
    {
      "type": "function",
      "name": "setAddresses",
      "inputs": [
        {
          "name": "_poolManager",
          "type": "address",
          "internalType": "address"
        },
        {
          "name": "_vaultImpl",
          "type": "address",
          "internalType": "address"
        },
        {
          "name": "_escrowImpl",
          "type": "address",
          "internalType": "address"
        },
        {
          "name": "_repaymentRouter",
          "type": "address",
          "internalType": "address"
        },
        {
          "name": "_milestoneAuth",
          "type": "address",
          "internalType": "address"
        },
        {
          "name": "_pauser",
          "type": "address",
          "internalType": "address"
        },
        {
          "name": "_admin",
          "type": "address",
          "internalType": "address"
        }
      ],
      "outputs": [],
      "stateMutability": "nonpayable"
    },
    {
      "type": "function",
      "name": "supportsInterface",
      "inputs": [
        {
          "name": "interfaceId",
          "type": "bytes4",
          "internalType": "bytes4"
        }
      ],
      "outputs": [
        {
          "name": "",
          "type": "bool",
          "internalType": "bool"
        }
      ],
      "stateMutability": "view"
    },
    {
      "type": "function",
      "name": "unpause",
      "inputs": [],
      "outputs": [],
      "stateMutability": "nonpayable"
    },
    {
      "type": "function",
      "name": "upgradeToAndCall",
      "inputs": [
        {
          "name": "newImplementation",
          "type": "address",
          "internalType": "address"
        },
        {
          "name": "data",
          "type": "bytes",
          "internalType": "bytes"
        }
      ],
      "outputs": [],
      "stateMutability": "payable"
    },
    {
      "type": "function",
      "name": "usdcToken",
      "inputs": [],
      "outputs": [
        {
          "name": "",
          "type": "address",
          "internalType": "contract IERC20"
        }
      ],
      "stateMutability": "view"
    },
    {
      "type": "function",
      "name": "vaultImplementation",
      "inputs": [],
      "outputs": [
        {
          "name": "",
          "type": "address",
          "internalType": "address"
        }
      ],
      "stateMutability": "view"
    },
    {
      "type": "event",
      "name": "AddressesSet",
      "inputs": [
        {
          "name": "poolManager",
          "type": "address",
          "indexed": false,
          "internalType": "address"
        },
        {
          "name": "vaultImpl",
          "type": "address",
          "indexed": false,
          "internalType": "address"
        },
        {
          "name": "escrowImpl",
          "type": "address",
          "indexed": false,
          "internalType": "address"
        },
        {
          "name": "repaymentRouter",
          "type": "address",
          "indexed": false,
          "internalType": "address"
        },
        {
          "name": "milestoneAuth",
          "type": "address",
          "indexed": false,
          "internalType": "address"
        },
        {
          "name": "pauser",
          "type": "address",
          "indexed": false,
          "internalType": "address"
        },
        {
          "name": "admin",
          "type": "address",
          "indexed": false,
          "internalType": "address"
        }
      ],
      "anonymous": false
    },
    {
      "type": "event",
      "name": "Initialized",
      "inputs": [
        {
          "name": "version",
          "type": "uint64",
          "indexed": false,
          "internalType": "uint64"
        }
      ],
      "anonymous": false
    },
    {
      "type": "event",
      "name": "LowValueProjectSubmitted",
      "inputs": [
        {
          "name": "projectId",
          "type": "uint256",
          "indexed": true,
          "internalType": "uint256"
        },
        {
          "name": "developer",
          "type": "address",
          "indexed": true,
          "internalType": "address"
        },
        {
          "name": "poolId",
          "type": "uint256",
          "indexed": false,
          "internalType": "uint256"
        },
        {
          "name": "loanAmount",
          "type": "uint256",
          "indexed": false,
          "internalType": "uint256"
        },
        {
          "name": "success",
          "type": "bool",
          "indexed": false,
          "internalType": "bool"
        }
      ],
      "anonymous": false
    },
    {
      "type": "event",
      "name": "Paused",
      "inputs": [
        {
          "name": "account",
          "type": "address",
          "indexed": false,
          "internalType": "address"
        }
      ],
      "anonymous": false
    },
    {
      "type": "event",
      "name": "ProjectCreated",
      "inputs": [
        {
          "name": "projectId",
          "type": "uint256",
          "indexed": true,
          "internalType": "uint256"
        },
        {
          "name": "developer",
          "type": "address",
          "indexed": true,
          "internalType": "address"
        },
        {
          "name": "vaultAddress",
          "type": "address",
          "indexed": false,
          "internalType": "address"
        },
        {
          "name": "devEscrowAddress",
          "type": "address",
          "indexed": false,
          "internalType": "address"
        },
        {
          "name": "loanAmount",
          "type": "uint256",
          "indexed": false,
          "internalType": "uint256"
        }
      ],
      "anonymous": false
    },
    {
      "type": "event",
      "name": "RoleAdminChanged",
      "inputs": [
        {
          "name": "role",
          "type": "bytes32",
          "indexed": true,
          "internalType": "bytes32"
        },
        {
          "name": "previousAdminRole",
          "type": "bytes32",
          "indexed": true,
          "internalType": "bytes32"
        },
        {
          "name": "newAdminRole",
          "type": "bytes32",
          "indexed": true,
          "internalType": "bytes32"
        }
      ],
      "anonymous": false
    },
    {
      "type": "event",
      "name": "RoleGranted",
      "inputs": [
        {
          "name": "role",
          "type": "bytes32",
          "indexed": true,
          "internalType": "bytes32"
        },
        {
          "name": "account",
          "type": "address",
          "indexed": true,
          "internalType": "address"
        },
        {
          "name": "sender",
          "type": "address",
          "indexed": true,
          "internalType": "address"
        }
      ],
      "anonymous": false
    },
    {
      "type": "event",
      "name": "RoleRevoked",
      "inputs": [
        {
          "name": "role",
          "type": "bytes32",
          "indexed": true,
          "internalType": "bytes32"
        },
        {
          "name": "account",
          "type": "address",
          "indexed": true,
          "internalType": "address"
        },
        {
          "name": "sender",
          "type": "address",
          "indexed": true,
          "internalType": "address"
        }
      ],
      "anonymous": false
    },
    {
      "type": "event",
      "name": "Unpaused",
      "inputs": [
        {
          "name": "account",
          "type": "address",
          "indexed": false,
          "internalType": "address"
        }
      ],
      "anonymous": false
    },
    {
      "type": "event",
      "name": "Upgraded",
      "inputs": [
        {
          "name": "implementation",
          "type": "address",
          "indexed": true,
          "internalType": "address"
        }
      ],
      "anonymous": false
    },
    {
      "type": "error",
      "name": "AccessControlBadConfirmation",
      "inputs": []
    },
    {
      "type": "error",
      "name": "AccessControlUnauthorizedAccount",
      "inputs": [
        {
          "name": "account",
          "type": "address",
          "internalType": "address"
        },
        {
          "name": "neededRole",
          "type": "bytes32",
          "internalType": "bytes32"
        }
      ]
    },
    {
      "type": "error",
      "name": "AddressEmptyCode",
      "inputs": [
        {
          "name": "target",
          "type": "address",
          "internalType": "address"
        }
      ]
    },
    {
      "type": "error",
      "name": "AmountCannotBeZero",
      "inputs": []
    },
    {
      "type": "error",
      "name": "ERC1967InvalidImplementation",
      "inputs": [
        {
          "name": "implementation",
          "type": "address",
          "internalType": "address"
        }
      ]
    },
    {
      "type": "error",
      "name": "ERC1967NonPayable",
      "inputs": []
    },
    {
      "type": "error",
      "name": "EnforcedPause",
      "inputs": []
    },
    {
      "type": "error",
      "name": "ExpectedPause",
      "inputs": []
    },
    {
      "type": "error",
      "name": "FailedCall",
      "inputs": []
    },
    {
      "type": "error",
      "name": "FailedDeployment",
      "inputs": []
    },
    {
      "type": "error",
      "name": "InsufficientBalance",
      "inputs": [
        {
          "name": "balance",
          "type": "uint256",
          "internalType": "uint256"
        },
        {
          "name": "needed",
          "type": "uint256",
          "internalType": "uint256"
        }
      ]
    },
    {
      "type": "error",
      "name": "InvalidAmount",
      "inputs": [
        {
          "name": "amount",
          "type": "uint256",
          "internalType": "uint256"
        }
      ]
    },
    {
      "type": "error",
      "name": "InvalidInitialization",
      "inputs": []
    },
    {
      "type": "error",
      "name": "InvalidState",
      "inputs": [
        {
          "name": "reason",
          "type": "string",
          "internalType": "string"
        }
      ]
    },
    {
      "type": "error",
      "name": "InvalidValue",
      "inputs": [
        {
          "name": "reason",
          "type": "string",
          "internalType": "string"
        }
      ]
    },
    {
      "type": "error",
      "name": "NotInitialized",
      "inputs": []
    },
    {
      "type": "error",
      "name": "NotInitializing",
      "inputs": []
    },
    {
      "type": "error",
      "name": "NotVerified",
      "inputs": [
        {
          "name": "developer",
          "type": "address",
          "internalType": "address"
        }
      ]
    },
    {
      "type": "error",
      "name": "ReentrancyGuardReentrantCall",
      "inputs": []
    },
    {
      "type": "error",
      "name": "StringCannotBeEmpty",
      "inputs": []
    },
    {
      "type": "error",
      "name": "UUPSUnauthorizedCallContext",
      "inputs": []
    },
    {
      "type": "error",
      "name": "UUPSUnsupportedProxiableUUID",
      "inputs": [
        {
          "name": "slot",
          "type": "bytes32",
          "internalType": "bytes32"
        }
      ]
    },
    {
      "type": "error",
      "name": "ZeroAddressNotAllowed",
      "inputs": []
    }
  ],
  "bytecode": {
    "object": "0x60a0604052306080523480156012575f80fd5b506001600355608051612d2761003e5f395f81816114dc0152818161150501526117170152612d275ff3fe6080604052600436106101c5575f3560e01c80639010d07c116100f2578063d547741f11610092578063f8a518ed11610062578063f8a518ed14610560578063f8c8765e14610575578063fc6f946814610594578063fe60b45d146105b3575f80fd5b8063d547741f146104e4578063deed8d0414610503578063eaa8ba7f14610522578063f7fb869b14610541575f80fd5b8063a3246ad3116100cd578063a3246ad314610425578063ad3cb1cc14610451578063bba48a90146104a6578063ca15c873146104c5575f80fd5b80639010d07c146103b157806391d14854146103d0578063a217fddf14610412575f80fd5b80633c4afa70116101685780635c975abb116101385780635c975abb1461034857806367d43fc91461035f5780638456cb591461037e5780638aa1c0dc14610392575f80fd5b80633c4afa70146102ee5780633f4ba83a1461030d5780634f1ef2861461032157806352d1902d14610334575f80fd5b8063171eb0ee116101a3578063171eb0ee14610253578063248a9ca3146102725780632f2ff15d146102ae57806336568abe146102cf575f80fd5b806301ffc9a7146101c9578063107d0be1146101fd57806311eac85514610234575b5f80fd5b3480156101d4575f80fd5b506101e86101e33660046123f0565b6105d2565b60405190151581526020015b60405180910390f35b348015610208575f80fd5b5060045461021c906001600160a01b031681565b6040516001600160a01b0390911681526020016101f4565b34801561023f575f80fd5b5060065461021c906001600160a01b031681565b34801561025e575f80fd5b5060095461021c906001600160a01b031681565b34801561027d575f80fd5b506102a061028c36600461242f565b5f9081526020819052604090206001015490565b6040519081526020016101f4565b3480156102b9575f80fd5b506102cd6102c836600461245c565b6105e2565b005b3480156102da575f80fd5b506102cd6102e936600461245c565b61060c565b3480156102f9575f80fd5b506102a0610308366004612486565b61065d565b348015610318575f80fd5b506102cd610c7f565b6102cd61032f366004612517565b610cb4565b34801561033f575f80fd5b506102a0610cd3565b348015610353575f80fd5b5060025460ff166101e8565b34801561036a575f80fd5b50600b5461021c906001600160a01b031681565b348015610389575f80fd5b506102cd610d02565b34801561039d575f80fd5b5060055461021c906001600160a01b031681565b3480156103bc575f80fd5b5061021c6103cb3660046125c0565b610d34565b3480156103db575f80fd5b506101e86103ea36600461245c565b5f918252602082815260408084206001600160a01b0393909316845291905290205460ff1690565b34801561041d575f80fd5b506102a05f81565b348015610430575f80fd5b5061044461043f36600461242f565b610d52565b6040516101f491906125e0565b34801561045c575f80fd5b506104996040518060400160405280600581526020017f352e302e3000000000000000000000000000000000000000000000000000000081525081565b6040516101f49190612659565b3480156104b1575f80fd5b5060085461021c906001600160a01b031681565b3480156104d0575f80fd5b506102a06104df36600461242f565b610d6b565b3480156104ef575f80fd5b506102cd6104fe36600461245c565b610d81565b34801561050e575f80fd5b50600a5461021c906001600160a01b031681565b34801561052d575f80fd5b506102cd61053c36600461266b565b610da5565b34801561054c575f80fd5b50600c5461021c906001600160a01b031681565b34801561056b575f80fd5b506102a0600e5481565b348015610580575f80fd5b506102cd61058f3660046126ec565b610f54565b34801561059f575f80fd5b50600d5461021c906001600160a01b031681565b3480156105be575f80fd5b5060075461021c906001600160a01b031681565b5f6105dc826111e5565b92915050565b5f828152602081905260409020600101546105fc8161123a565b6106068383611244565b50505050565b6001600160a01b038116331461064e576040517f6697b23200000000000000000000000000000000000000000000000000000000815260040160405180910390fd5b6106588282611277565b505050565b5f6106666112a2565b61066e6112e5565b81355f036106a8576040517fd11b25af00000000000000000000000000000000000000000000000000000000815260040160405180910390fd5b6106b8604083016020840161273d565b65ffffffffffff165f0361072d576040517f432f5b4a00000000000000000000000000000000000000000000000000000000815260206004820152601460248201527f54656e6f722063616e6e6f74206265207a65726f00000000000000000000000060448201526064015b60405180910390fd5b61073a6040830183612762565b90505f03610774576040517faabcb66800000000000000000000000000000000000000000000000000000000815260040160405180910390fd5b6004546001600160a01b0316158061079557506005546001600160a01b0316155b156107cc576040517f87138d5c00000000000000000000000000000000000000000000000000000000815260040160405180910390fd5b600480546040517fb9209e33000000000000000000000000000000000000000000000000000000008152339281018390526001600160a01b039091169063b9209e3390602401602060405180830381865afa15801561082d573d5f803e3d5ffd5b505050506040513d601f19601f8201168201806040525081019061085191906127d9565b610892576040517fb12c8f910000000000000000000000000000000000000000000000000000000081526001600160a01b0382166004820152602401610724565b600e8054905f6108a18361281f565b9091555050600e54915082355f6127106108bd6107d084612856565b6108c7919061286d565b90505f6108d482846128a5565b9050815f03610911576040517f3728b83d0000000000000000000000000000000000000000000000000000000081525f6004820152602401610724565b6005546040517f7077a778000000000000000000000000000000000000000000000000000000008152600481018790526001600160a01b0386811660248301526044820185905290911690637077a778906064015f604051808303815f87803b15801561097c575f80fd5b505af115801561098e573d5f803e3d5ffd5b505050506006600a6109a091906129d9565b6109ac9061c350612856565b83106109c4576109bf8486888585611324565b610bf7565b6007546001600160a01b0316610a06576040517f87138d5c00000000000000000000000000000000000000000000000000000000815260040160405180910390fd5b5f6040518060800160405280838152602001858152602001886020016020810190610a31919061273d565b65ffffffffffff168152602001610a4b60408a018a612762565b8080601f0160208091040260200160405190810160405280939291908181526020018383808284375f9201829052509390945250506007546040517f7080b93800000000000000000000000000000000000000000000000000000000815293945090928392506001600160a01b0390911690637080b93890610ad5908b908b9088906004016129e7565b60408051808303815f875af1158015610af0573d5f803e3d5ffd5b505050506040513d601f19601f82011682018060405250810190610b149190612a47565b915091508115610ba5576005546040517f2d3bc857000000000000000000000000000000000000000000000000000000008152600481018a90526001600160a01b0390911690632d3bc857906024016020604051808303815f875af1158015610b7f573d5f803e3d5ffd5b505050506040513d601f19601f82011682018060405250810190610ba39190612a71565b505b60408051828152602081018690528315158183015290516001600160a01b038916918a917fbce4397d5ee101010266d0c0d2ee30af5a345bb6ba7212fd5569b24e4f8249679181900360600190a35050505b600480546040517f9962b5b50000000000000000000000000000000000000000000000000000000081526001600160a01b0387811693820193909352911690639962b5b5906024015f604051808303815f87803b158015610c56575f80fd5b505af1158015610c68573d5f803e3d5ffd5b5050505050505050610c7a6001600355565b919050565b7f65d7a28e3265b37a6474929f336521b332c1681b933f6cb9f3376673440d862a610ca98161123a565b610cb1611461565b50565b610cbc6114d1565b610cc5826115a1565b610ccf828261160b565b5050565b5f610cdc61170c565b507f360894a13ba1a3210667c828492db98dca3e2076cc3735a920a3ca505d382bbc5b90565b7f65d7a28e3265b37a6474929f336521b332c1681b933f6cb9f3376673440d862a610d2c8161123a565b610cb161176e565b5f828152600160205260408120610d4b90836117c9565b9392505050565b5f8181526001602052604090206060906105dc906117d4565b5f8181526001602052604081206105dc906117e0565b5f82815260208190526040902060010154610d9b8161123a565b6106068383611277565b5f610daf8161123a565b6001600160a01b0388161580610dcc57506001600160a01b038716155b80610dde57506001600160a01b038616155b80610df057506001600160a01b038516155b80610e0257506001600160a01b038416155b80610e1457506001600160a01b038316155b80610e2657506001600160a01b038216155b15610e5d576040517f8579befe00000000000000000000000000000000000000000000000000000000815260040160405180910390fd5b600780546001600160a01b038a81167fffffffffffffffffffffffff00000000000000000000000000000000000000009283168117909355600880548b83169084168117909155600980548b84169085168117909155600a80548b85169086168117909155600b80548b86169087168117909155600c80548b87169088168117909155600d8054968b16969097168617909655604080519788526020880194909452928601919091526060850152608084015260a083019190915260c08201527ff6409549cf8ba8bf1c5a0b2a8c472fd1b5a9c8ff7067cebd4e713cf4d15f3f329060e00160405180910390a15050505050505050565b5f610f5d6117e9565b805490915060ff68010000000000000000820416159067ffffffffffffffff165f81158015610f895750825b90505f8267ffffffffffffffff166001148015610fa55750303b155b905081158015610fb3575080155b15610fea576040517ff92ee8a900000000000000000000000000000000000000000000000000000000815260040160405180910390fd5b84547fffffffffffffffffffffffffffffffffffffffffffffffff0000000000000000166001178555831561104b5784547fffffffffffffffffffffffffffffffffffffffffffffff00ffffffffffffffff16680100000000000000001785555b6001600160a01b038916158061106857506001600160a01b038816155b8061107a57506001600160a01b038716155b8061108c57506001600160a01b038616155b156110c3576040517f8579befe00000000000000000000000000000000000000000000000000000000815260040160405180910390fd5b600480546001600160a01b03808c167fffffffffffffffffffffffff000000000000000000000000000000000000000092831617909255600580548b841690831617905560068054928a16929091169190911790556111225f87611244565b5061114d7f65d7a28e3265b37a6474929f336521b332c1681b933f6cb9f3376673440d862a87611244565b506111787f189ab7a9244df0848122154315af71fe140f3db0fe014031783b0946b8c9d2e387611244565b5083156111da5784547fffffffffffffffffffffffffffffffffffffffffffffff00ffffffffffffffff168555604051600181527fc7f505b2f371ae2175ee4913f4499e1f2633a7b5936321eed1cdaeb6115181d29060200160405180910390a15b505050505050505050565b5f7fffffffff0000000000000000000000000000000000000000000000000000000082167f5a05180f0000000000000000000000000000000000000000000000000000000014806105dc57506105dc82611811565b610cb181336118a7565b5f806112508484611912565b90508015610d4b575f84815260016020526040902061126f90846119d7565b509392505050565b5f8061128384846119eb565b90508015610d4b575f84815260016020526040902061126f9084611a8a565b6002600354036112de576040517f3ee5aeb500000000000000000000000000000000000000000000000000000000815260040160405180910390fd5b6002600355565b60025460ff1615611322576040517fd93c066500000000000000000000000000000000000000000000000000000000815260040160405180910390fd5b565b6008546001600160a01b0316158061134557506009546001600160a01b0316155b806113595750600a546001600160a01b0316155b8061136d5750600b546001600160a01b0316155b806113815750600c546001600160a01b0316155b806113955750600d546001600160a01b0316155b156113cc576040517f87138d5c00000000000000000000000000000000000000000000000000000000815260040160405180910390fd5b5f6113d8863084611a9e565b90505f61140487838886886113f360408c0160208d0161273d565b6005546001600160a01b0316611c88565b604080516001600160a01b038084168252858116602083015291810186905291925088169087907f609811090a5d46b0f41071adda594666ab60dc11a6bb94fa6286d5d224864ea99060600160405180910390a350505050505050565b611469611ed8565b600280547fffffffffffffffffffffffffffffffffffffffffffffffffffffffffffffff001690557f5db9ee0a495bf2e6ff9c91a7834c1ba4fdd244a5e8aa4e537bd38aeae4b073aa335b6040516001600160a01b03909116815260200160405180910390a1565b306001600160a01b037f000000000000000000000000000000000000000000000000000000000000000016148061156a57507f00000000000000000000000000000000000000000000000000000000000000006001600160a01b031661155e7f360894a13ba1a3210667c828492db98dca3e2076cc3735a920a3ca505d382bbc546001600160a01b031690565b6001600160a01b031614155b15611322576040517fe07c8dba00000000000000000000000000000000000000000000000000000000815260040160405180910390fd5b7f189ab7a9244df0848122154315af71fe140f3db0fe014031783b0946b8c9d2e36115cb8161123a565b6001600160a01b038216610ccf576040517f8579befe00000000000000000000000000000000000000000000000000000000815260040160405180910390fd5b816001600160a01b03166352d1902d6040518163ffffffff1660e01b8152600401602060405180830381865afa925050508015611665575060408051601f3d908101601f1916820190925261166291810190612a71565b60015b6116a6576040517f4c9c8ce30000000000000000000000000000000000000000000000000000000081526001600160a01b0383166004820152602401610724565b7f360894a13ba1a3210667c828492db98dca3e2076cc3735a920a3ca505d382bbc8114611702576040517faa1d49a400000000000000000000000000000000000000000000000000000000815260048101829052602401610724565b6106588383611f14565b306001600160a01b037f00000000000000000000000000000000000000000000000000000000000000001614611322576040517fe07c8dba00000000000000000000000000000000000000000000000000000000815260040160405180910390fd5b6117766112e5565b600280547fffffffffffffffffffffffffffffffffffffffffffffffffffffffffffffff001660011790557f62e78cea01bee320cd4e420270b5ea74000d11b0c9f74754ebdbfc544b05a2586114b43390565b5f610d4b8383611f69565b60605f610d4b83611f8f565b5f6105dc825490565b5f807ff0c57e16840df040f15088dc2f81fe391c3923bec73e23a9662efc9c229c6a006105dc565b5f7fffffffff0000000000000000000000000000000000000000000000000000000082167f7965db0b0000000000000000000000000000000000000000000000000000000014806105dc57507f01ffc9a7000000000000000000000000000000000000000000000000000000007fffffffff000000000000000000000000000000000000000000000000000000008316146105dc565b5f828152602081815260408083206001600160a01b038516845290915290205460ff16610ccf576040517fe2517d3f0000000000000000000000000000000000000000000000000000000081526001600160a01b038216600482015260248101839052604401610724565b5f828152602081815260408083206001600160a01b038516845290915281205460ff166119d0575f838152602081815260408083206001600160a01b0386168452909152902080547fffffffffffffffffffffffffffffffffffffffffffffffffffffffffffffff001660011790556119883390565b6001600160a01b0316826001600160a01b0316847f2f8788117e7eff1d82e926ec794901d17c78024a50270940304540a733656f0d60405160405180910390a45060016105dc565b505f6105dc565b5f610d4b836001600160a01b038416611fe8565b5f828152602081815260408083206001600160a01b038516845290915281205460ff16156119d0575f838152602081815260408083206001600160a01b038616808552925280832080547fffffffffffffffffffffffffffffffffffffffffffffffffffffffffffffff0016905551339286917ff6391f5c32d9c69d2a47ea670b442974b53935d1edc7fd64eb21e047a839171b9190a45060016105dc565b5f610d4b836001600160a01b03841661202d565b6009545f908190611ab7906001600160a01b0316612117565b90506001600160a01b038116611b29576040517f8c3685b800000000000000000000000000000000000000000000000000000000815260206004820152601660248201527f446576457363726f7720636c6f6e65206661696c6564000000000000000000006044820152606401610724565b600654600b54600c546040516001600160a01b039384166024820152888416604482015287841660648201526084810187905291831660a4830152821660c48201525f9183169060e40160408051601f198184030181529181526020820180517bffffffffffffffffffffffffffffffffffffffffffffffffffffffff167f32b5a1b30000000000000000000000000000000000000000000000000000000017905251611bd69190612a9f565b5f604051808303815f865af19150503d805f8114611c0f576040519150601f19603f3d011682016040523d82523d5f602084013e611c14565b606091505b5050905080611c7f576040517f8c3685b800000000000000000000000000000000000000000000000000000000815260206004820152601560248201527f446576457363726f7720696e6974206661696c656400000000000000000000006044820152606401610724565b50949350505050565b6008545f908190611ca1906001600160a01b0316612117565b90506001600160a01b038116611d13576040517f8c3685b800000000000000000000000000000000000000000000000000000000815260206004820152601260248201527f5661756c7420636c6f6e65206661696c656400000000000000000000000000006044820152606401610724565b6040805161016081018252600d546001600160a01b039081168252600654811660208301528b8116828401528a81166060830152600a548116608083015260a082018a905260c0820189905260e0820188905265ffffffffffff87166101008301525f61012083015285811661014083015291517f7394c5110000000000000000000000000000000000000000000000000000000081529091831690637394c51190611dc3908490600401612aaa565b5f604051808303815f87803b158015611dda575f80fd5b505af1925050508015611deb575060015b611ecb57611df7612b96565b806308c379a003611e675750611e0b612bae565b80611e165750611e69565b80604051602001611e279190612c66565b60408051601f19818403018152908290527f08c379a000000000000000000000000000000000000000000000000000000000825261072491600401612659565b505b6040517f8c3685b800000000000000000000000000000000000000000000000000000000815260206004820152601160248201527f5661756c7420696e6974206661696c65640000000000000000000000000000006044820152606401610724565b5098975050505050505050565b60025460ff16611322576040517f8dfc202b00000000000000000000000000000000000000000000000000000000815260040160405180910390fd5b611f1d82612122565b6040516001600160a01b038316907fbc7cd75a20ee27fd9adebab32041f755214dbc6bffa90cc0225b39da2e5c2d3b905f90a2805115611f615761065882826121c9565b610ccf61223b565b5f825f018281548110611f7e57611f7e612c97565b905f5260205f200154905092915050565b6060815f01805480602002602001604051908101604052809291908181526020018280548015611fdc57602002820191905f5260205f20905b815481526020019060010190808311611fc8575b50505050509050919050565b5f8181526001830160205260408120546119d057508154600181810184555f8481526020808220909301849055845484825282860190935260409020919091556105dc565b5f8181526001830160205260408120548015612107575f61204f6001836128a5565b85549091505f90612062906001906128a5565b90508082146120c1575f865f01828154811061208057612080612c97565b905f5260205f200154905080875f0184815481106120a0576120a0612c97565b5f918252602080832090910192909255918252600188019052604090208390555b85548690806120d2576120d2612cc4565b600190038181905f5260205f20015f90559055856001015f8681526020019081526020015f205f9055600193505050506105dc565b5f9150506105dc565b5092915050565b5f6105dc825f612273565b806001600160a01b03163b5f03612170576040517f4c9c8ce30000000000000000000000000000000000000000000000000000000081526001600160a01b0382166004820152602401610724565b7f360894a13ba1a3210667c828492db98dca3e2076cc3735a920a3ca505d382bbc80547fffffffffffffffffffffffff0000000000000000000000000000000000000000166001600160a01b0392909216919091179055565b60605f80846001600160a01b0316846040516121e59190612a9f565b5f60405180830381855af49150503d805f811461221d576040519150601f19603f3d011682016040523d82523d5f602084013e612222565b606091505b5091509150612232858383612339565b95945050505050565b3415611322576040517fb398979f00000000000000000000000000000000000000000000000000000000815260040160405180910390fd5b5f814710156122b7576040517fcf47918100000000000000000000000000000000000000000000000000000000815247600482015260248101839052604401610724565b763d602d80600a3d3981f3363d3d373d3d3d363d730000008360601b60e81c175f526e5af43d82803e903d91602b57fd5bf38360781b176020526037600983f090506001600160a01b0381166105dc576040517fb06ebf3d00000000000000000000000000000000000000000000000000000000815260040160405180910390fd5b60608261234e57612349826123ae565b610d4b565b815115801561236557506001600160a01b0384163b155b156123a7576040517f9996b3150000000000000000000000000000000000000000000000000000000081526001600160a01b0385166004820152602401610724565b5080610d4b565b8051156123be5780518082602001fd5b6040517fd6bda27500000000000000000000000000000000000000000000000000000000815260040160405180910390fd5b5f60208284031215612400575f80fd5b81357fffffffff0000000000000000000000000000000000000000000000000000000081168114610d4b575f80fd5b5f6020828403121561243f575f80fd5b5035919050565b80356001600160a01b0381168114610c7a575f80fd5b5f806040838503121561246d575f80fd5b8235915061247d60208401612446565b90509250929050565b5f60208284031215612496575f80fd5b813567ffffffffffffffff8111156124ac575f80fd5b820160608185031215610d4b575f80fd5b7f4e487b71000000000000000000000000000000000000000000000000000000005f52604160045260245ffd5b601f19601f830116810181811067ffffffffffffffff82111715612510576125106124bd565b6040525050565b5f8060408385031215612528575f80fd5b61253183612446565b9150602083013567ffffffffffffffff81111561254c575f80fd5b8301601f8101851361255c575f80fd5b803567ffffffffffffffff811115612576576125766124bd565b60405161258d6020601f19601f85011601826124ea565b8181528660208385010111156125a1575f80fd5b816020840160208301375f602083830101528093505050509250929050565b5f80604083850312156125d1575f80fd5b50508035926020909101359150565b602080825282518282018190525f918401906040840190835b818110156126205783516001600160a01b03168352602093840193909201916001016125f9565b509095945050505050565b5f81518084528060208401602086015e5f602082860101526020601f19601f83011685010191505092915050565b602081525f610d4b602083018461262b565b5f805f805f805f60e0888a031215612681575f80fd5b61268a88612446565b965061269860208901612446565b95506126a660408901612446565b94506126b460608901612446565b93506126c260808901612446565b92506126d060a08901612446565b91506126de60c08901612446565b905092959891949750929550565b5f805f80608085870312156126ff575f80fd5b61270885612446565b935061271660208601612446565b925061272460408601612446565b915061273260608601612446565b905092959194509250565b5f6020828403121561274d575f80fd5b813565ffffffffffff81168114610d4b575f80fd5b5f8083357fffffffffffffffffffffffffffffffffffffffffffffffffffffffffffffffe1843603018112612795575f80fd5b83018035915067ffffffffffffffff8211156127af575f80fd5b6020019150368190038213156127c3575f80fd5b9250929050565b80518015158114610c7a575f80fd5b5f602082840312156127e9575f80fd5b610d4b826127ca565b7f4e487b71000000000000000000000000000000000000000000000000000000005f52601160045260245ffd5b5f7fffffffffffffffffffffffffffffffffffffffffffffffffffffffffffffffff820361284f5761284f6127f2565b5060010190565b80820281158282048414176105dc576105dc6127f2565b5f826128a0577f4e487b71000000000000000000000000000000000000000000000000000000005f52601260045260245ffd5b500490565b818103818111156105dc576105dc6127f2565b6001815b60018411156128f3578085048111156128d7576128d76127f2565b60018416156128e557908102905b60019390931c9280026128bc565b935093915050565b5f82612909575060016105dc565b8161291557505f6105dc565b816001811461292b576002811461293557612951565b60019150506105dc565b60ff841115612946576129466127f2565b50506001821b6105dc565b5060208310610133831016604e8410600b8410161715612974575081810a6105dc565b61299f7fffffffffffffffffffffffffffffffffffffffffffffffffffffffffffffffff84846128b8565b807fffffffffffffffffffffffffffffffffffffffffffffffffffffffffffffffff048211156129d1576129d16127f2565b029392505050565b5f610d4b60ff8416836128fb565b8381526001600160a01b038316602082015260606040820152815160608201526020820151608082015265ffffffffffff60408301511660a08201525f6060830151608060c0840152612a3d60e084018261262b565b9695505050505050565b5f8060408385031215612a58575f80fd5b612a61836127ca565b6020939093015192949293505050565b5f60208284031215612a81575f80fd5b5051919050565b5f81518060208401855e5f93019283525090919050565b5f610d4b8284612a88565b81516001600160a01b0316815261016081016020830151612ad660208401826001600160a01b03169052565b506040830151612af160408401826001600160a01b03169052565b506060830151612b0c60608401826001600160a01b03169052565b506080830151612b2760808401826001600160a01b03169052565b5060a083015160a083015260c083015160c083015260e083015160e0830152610100830151612b6161010084018265ffffffffffff169052565b50610120830151612b7961012084018261ffff169052565b506101408301516121106101408401826001600160a01b03169052565b5f60033d1115610cff5760045f803e505f5160e01c90565b5f60443d1015612bbb5790565b6040517ffffffffffffffffffffffffffffffffffffffffffffffffffffffffffffffffc3d016004823e80513d602482011167ffffffffffffffff82111715612c0357505090565b808201805167ffffffffffffffff811115612c1f575050505090565b7ffffffffffffffffffffffffffffffffffffffffffffffffffffffffffffffffc3d8501016020828401011115612c57575050505090565b61126f602082850101856124ea565b7f5661756c7420696e6974206661696c65643a200000000000000000000000000081525f610d4b6013830184612a88565b7f4e487b71000000000000000000000000000000000000000000000000000000005f52603260045260245ffd5b7f4e487b71000000000000000000000000000000000000000000000000000000005f52603160045260245ffdfea2646970667358221220517b725ac311404fca2dfca6aa8d193cba94c77b90df10143941148089a5ee2b64736f6c634300081a0033",
    "linkReferences": {}
  },
  "methodIdentifiers": {
    "DEFAULT_ADMIN_ROLE()": "a217fddf",
    "UPGRADE_INTERFACE_VERSION()": "ad3cb1cc",
    "adminAddress()": "fc6f9468",
    "createProject((uint256,uint48,string))": "3c4afa70",
    "depositEscrow()": "8aa1c0dc",
    "devEscrowImplementation()": "171eb0ee",
    "developerRegistry()": "107d0be1",
    "getRoleAdmin(bytes32)": "248a9ca3",
    "getRoleMember(bytes32,uint256)": "9010d07c",
    "getRoleMemberCount(bytes32)": "ca15c873",
    "getRoleMembers(bytes32)": "a3246ad3",
    "grantRole(bytes32,address)": "2f2ff15d",
    "hasRole(bytes32,address)": "91d14854",
    "initialize(address,address,address,address)": "f8c8765e",
    "liquidityPoolManager()": "fe60b45d",
    "milestoneAuthorizerAddress()": "67d43fc9",
    "pause()": "8456cb59",
    "paused()": "5c975abb",
    "pauserAddress()": "f7fb869b",
    "projectCounter()": "f8a518ed",
    "proxiableUUID()": "52d1902d",
    "renounceRole(bytes32,address)": "36568abe",
    "repaymentRouterAddress()": "deed8d04",
    "revokeRole(bytes32,address)": "d547741f",
    "setAddresses(address,address,address,address,address,address,address)": "eaa8ba7f",
    "supportsInterface(bytes4)": "01ffc9a7",
    "unpause()": "3f4ba83a",
    "upgradeToAndCall(address,bytes)": "4f1ef286",
    "usdcToken()": "11eac855",
    "vaultImplementation()": "bba48a90"
  },
  "id": 92
}