{
  "abi": [
    {
      "type": "constructor",
      "inputs": [
        {
          "name": "_admin",
          "type": "address",
          "internalType": "address"
        },
        {
          "name": "_usdcToken",
          "type": "address",
          "internalType": "address"
        },
        {
          "name": "_feeRouter",
          "type": "address",
          "internalType": "address"
        }
      ],
      "stateMutability": "nonpayable"
    },
    {
      "type": "function",
      "name": "DEFAULT_ADMIN_ROLE",
      "inputs": [],
      "outputs": [
        {
          "name": "",
          "type": "bytes32",
          "internalType": "bytes32"
        }
      ],
      "stateMutability": "view"
    },
    {
      "type": "function",
      "name": "feeRouter",
      "inputs": [],
      "outputs": [
        {
          "name": "",
          "type": "address",
          "internalType": "contract IFeeRouter"
        }
      ],
      "stateMutability": "view"
    },
    {
      "type": "function",
      "name": "getFundingSource",
      "inputs": [
        {
          "name": "projectId",
          "type": "uint256",
          "internalType": "uint256"
        }
      ],
      "outputs": [
        {
          "name": "",
          "type": "address",
          "internalType": "address"
        }
      ],
      "stateMutability": "view"
    },
    {
      "type": "function",
      "name": "getPoolId",
      "inputs": [
        {
          "name": "projectId",
          "type": "uint256",
          "internalType": "uint256"
        }
      ],
      "outputs": [
        {
          "name": "",
          "type": "uint256",
          "internalType": "uint256"
        }
      ],
      "stateMutability": "view"
    },
    {
      "type": "function",
      "name": "getRoleAdmin",
      "inputs": [
        {
          "name": "role",
          "type": "bytes32",
          "internalType": "bytes32"
        }
      ],
      "outputs": [
        {
          "name": "",
          "type": "bytes32",
          "internalType": "bytes32"
        }
      ],
      "stateMutability": "view"
    },
    {
      "type": "function",
      "name": "getRoleMember",
      "inputs": [
        {
          "name": "role",
          "type": "bytes32",
          "internalType": "bytes32"
        },
        {
          "name": "index",
          "type": "uint256",
          "internalType": "uint256"
        }
      ],
      "outputs": [
        {
          "name": "",
          "type": "address",
          "internalType": "address"
        }
      ],
      "stateMutability": "view"
    },
    {
      "type": "function",
      "name": "getRoleMemberCount",
      "inputs": [
        {
          "name": "role",
          "type": "bytes32",
          "internalType": "bytes32"
        }
      ],
      "outputs": [
        {
          "name": "",
          "type": "uint256",
          "internalType": "uint256"
        }
      ],
      "stateMutability": "view"
    },
    {
      "type": "function",
      "name": "getRoleMembers",
      "inputs": [
        {
          "name": "role",
          "type": "bytes32",
          "internalType": "bytes32"
        }
      ],
      "outputs": [
        {
          "name": "",
          "type": "address[]",
          "internalType": "address[]"
        }
      ],
      "stateMutability": "view"
    },
    {
      "type": "function",
      "name": "grantRole",
      "inputs": [
        {
          "name": "role",
          "type": "bytes32",
          "internalType": "bytes32"
        },
        {
          "name": "account",
          "type": "address",
          "internalType": "address"
        }
      ],
      "outputs": [],
      "stateMutability": "nonpayable"
    },
    {
      "type": "function",
      "name": "hasRole",
      "inputs": [
        {
          "name": "role",
          "type": "bytes32",
          "internalType": "bytes32"
        },
        {
          "name": "account",
          "type": "address",
          "internalType": "address"
        }
      ],
      "outputs": [
        {
          "name": "",
          "type": "bool",
          "internalType": "bool"
        }
      ],
      "stateMutability": "view"
    },
    {
      "type": "function",
      "name": "pause",
      "inputs": [],
      "outputs": [],
      "stateMutability": "nonpayable"
    },
    {
      "type": "function",
      "name": "paused",
      "inputs": [],
      "outputs": [
        {
          "name": "",
          "type": "bool",
          "internalType": "bool"
        }
      ],
      "stateMutability": "view"
    },
    {
      "type": "function",
      "name": "projectFundingSource",
      "inputs": [
        {
          "name": "",
          "type": "uint256",
          "internalType": "uint256"
        }
      ],
      "outputs": [
        {
          "name": "",
          "type": "address",
          "internalType": "address"
        }
      ],
      "stateMutability": "view"
    },
    {
      "type": "function",
      "name": "projectPoolId",
      "inputs": [
        {
          "name": "",
          "type": "uint256",
          "internalType": "uint256"
        }
      ],
      "outputs": [
        {
          "name": "",
          "type": "uint256",
          "internalType": "uint256"
        }
      ],
      "stateMutability": "view"
    },
    {
      "type": "function",
      "name": "renounceRole",
      "inputs": [
        {
          "name": "role",
          "type": "bytes32",
          "internalType": "bytes32"
        },
        {
          "name": "callerConfirmation",
          "type": "address",
          "internalType": "address"
        }
      ],
      "outputs": [],
      "stateMutability": "nonpayable"
    },
    {
      "type": "function",
      "name": "repay",
      "inputs": [
        {
          "name": "projectId",
          "type": "uint256",
          "internalType": "uint256"
        },
        {
          "name": "amount",
          "type": "uint256",
          "internalType": "uint256"
        }
      ],
      "outputs": [],
      "stateMutability": "nonpayable"
    },
    {
      "type": "function",
      "name": "revokeRole",
      "inputs": [
        {
          "name": "role",
          "type": "bytes32",
          "internalType": "bytes32"
        },
        {
          "name": "account",
          "type": "address",
          "internalType": "address"
        }
      ],
      "outputs": [],
      "stateMutability": "nonpayable"
    },
    {
      "type": "function",
      "name": "setFundingSource",
      "inputs": [
        {
          "name": "projectId",
          "type": "uint256",
          "internalType": "uint256"
        },
        {
          "name": "fundingSource",
          "type": "address",
          "internalType": "address"
        },
        {
          "name": "poolId",
          "type": "uint256",
          "internalType": "uint256"
        }
      ],
      "outputs": [],
      "stateMutability": "nonpayable"
    },
    {
      "type": "function",
      "name": "supportsInterface",
      "inputs": [
        {
          "name": "interfaceId",
          "type": "bytes4",
          "internalType": "bytes4"
        }
      ],
      "outputs": [
        {
          "name": "",
          "type": "bool",
          "internalType": "bool"
        }
      ],
      "stateMutability": "view"
    },
    {
      "type": "function",
      "name": "unpause",
      "inputs": [],
      "outputs": [],
      "stateMutability": "nonpayable"
    },
    {
      "type": "function",
      "name": "usdcToken",
      "inputs": [],
      "outputs": [
        {
          "name": "",
          "type": "address",
          "internalType": "contract IERC20"
        }
      ],
      "stateMutability": "view"
    },
    {
      "type": "event",
      "name": "FundingSourceSet",
      "inputs": [
        {
          "name": "projectId",
          "type": "uint256",
          "indexed": true,
          "internalType": "uint256"
        },
        {
          "name": "fundingSource",
          "type": "address",
          "indexed": true,
          "internalType": "address"
        },
        {
          "name": "poolId",
          "type": "uint256",
          "indexed": false,
          "internalType": "uint256"
        },
        {
          "name": "setter",
          "type": "address",
          "indexed": true,
          "internalType": "address"
        }
      ],
      "anonymous": false
    },
    {
      "type": "event",
      "name": "Paused",
      "inputs": [
        {
          "name": "account",
          "type": "address",
          "indexed": false,
          "internalType": "address"
        }
      ],
      "anonymous": false
    },
    {
      "type": "event",
      "name": "RepaymentRouted",
      "inputs": [
        {
          "name": "projectId",
          "type": "uint256",
          "indexed": true,
          "internalType": "uint256"
        },
        {
          "name": "payer",
          "type": "address",
          "indexed": true,
          "internalType": "address"
        },
        {
          "name": "totalAmountRepaid",
          "type": "uint256",
          "indexed": false,
          "internalType": "uint256"
        },
        {
          "name": "feeAmount",
          "type": "uint256",
          "indexed": false,
          "internalType": "uint256"
        },
        {
          "name": "principalAmount",
          "type": "uint256",
          "indexed": false,
          "internalType": "uint256"
        },
        {
          "name": "interestAmount",
          "type": "uint256",
          "indexed": false,
          "internalType": "uint256"
        },
        {
          "name": "fundingSource",
          "type": "address",
          "indexed": true,
          "internalType": "address"
        }
      ],
      "anonymous": false
    },
    {
      "type": "event",
      "name": "RoleAdminChanged",
      "inputs": [
        {
          "name": "role",
          "type": "bytes32",
          "indexed": true,
          "internalType": "bytes32"
        },
        {
          "name": "previousAdminRole",
          "type": "bytes32",
          "indexed": true,
          "internalType": "bytes32"
        },
        {
          "name": "newAdminRole",
          "type": "bytes32",
          "indexed": true,
          "internalType": "bytes32"
        }
      ],
      "anonymous": false
    },
    {
      "type": "event",
      "name": "RoleGranted",
      "inputs": [
        {
          "name": "role",
          "type": "bytes32",
          "indexed": true,
          "internalType": "bytes32"
        },
        {
          "name": "account",
          "type": "address",
          "indexed": true,
          "internalType": "address"
        },
        {
          "name": "sender",
          "type": "address",
          "indexed": true,
          "internalType": "address"
        }
      ],
      "anonymous": false
    },
    {
      "type": "event",
      "name": "RoleRevoked",
      "inputs": [
        {
          "name": "role",
          "type": "bytes32",
          "indexed": true,
          "internalType": "bytes32"
        },
        {
          "name": "account",
          "type": "address",
          "indexed": true,
          "internalType": "address"
        },
        {
          "name": "sender",
          "type": "address",
          "indexed": true,
          "internalType": "address"
        }
      ],
      "anonymous": false
    },
    {
      "type": "event",
      "name": "Unpaused",
      "inputs": [
        {
          "name": "account",
          "type": "address",
          "indexed": false,
          "internalType": "address"
        }
      ],
      "anonymous": false
    },
    {
      "type": "error",
      "name": "AccessControlBadConfirmation",
      "inputs": []
    },
    {
      "type": "error",
      "name": "AccessControlUnauthorizedAccount",
      "inputs": [
        {
          "name": "account",
          "type": "address",
          "internalType": "address"
        },
        {
          "name": "neededRole",
          "type": "bytes32",
          "internalType": "bytes32"
        }
      ]
    },
    {
      "type": "error",
      "name": "AmountCannotBeZero",
      "inputs": []
    },
    {
      "type": "error",
      "name": "EnforcedPause",
      "inputs": []
    },
    {
      "type": "error",
      "name": "ExpectedPause",
      "inputs": []
    },
    {
      "type": "error",
      "name": "InvalidAmount",
      "inputs": [
        {
          "name": "amount",
          "type": "uint256",
          "internalType": "uint256"
        }
      ]
    },
    {
      "type": "error",
      "name": "InvalidValue",
      "inputs": [
        {
          "name": "reason",
          "type": "string",
          "internalType": "string"
        }
      ]
    },
    {
      "type": "error",
      "name": "ReentrancyGuardReentrantCall",
      "inputs": []
    },
    {
      "type": "error",
      "name": "SafeERC20FailedOperation",
      "inputs": [
        {
          "name": "token",
          "type": "address",
          "internalType": "address"
        }
      ]
    },
    {
      "type": "error",
      "name": "ZeroAddressNotAllowed",
      "inputs": []
    }
  ],
  "bytecode": {
    "object": "0x60c060405234801561000f575f80fd5b50604051611ccb380380611ccb83398101604081905261002e9161021d565b60016003556001600160a01b038316158061005057506001600160a01b038216155b8061006257506001600160a01b038116155b15610080576040516342bcdf7f60e11b815260040160405180910390fd5b6001600160a01b03808316608052811660a05261009d5f846100d1565b506100c87f65d7a28e3265b37a6474929f336521b332c1681b933f6cb9f3376673440d862a846100d1565b5050505061025d565b5f806100dd8484610107565b905080156100fe575f8481526001602052604090206100fc90846101ae565b505b90505b92915050565b5f828152602081815260408083206001600160a01b038516845290915281205460ff166101a7575f838152602081815260408083206001600160a01b03861684529091529020805460ff1916600117905561015f3390565b6001600160a01b0316826001600160a01b0316847f2f8788117e7eff1d82e926ec794901d17c78024a50270940304540a733656f0d60405160405180910390a4506001610101565b505f610101565b5f6100fe836001600160a01b0384165f8181526001830160205260408120546101a757508154600181810184555f848152602080822090930184905584548482528286019093526040902091909155610101565b80516001600160a01b0381168114610218575f80fd5b919050565b5f805f6060848603121561022f575f80fd5b61023884610202565b925061024660208501610202565b915061025460408501610202565b90509250925092565b60805160a051611a236102a85f395f81816103cf0152818161080d01528181610923015281816109770152610c6a01525f818161019f015281816107b401526109010152611a235ff3fe608060405234801561000f575f80fd5b506004361061016e575f3560e01c806391d14854116100d2578063ca15c87311610088578063d8aed14511610063578063d8aed14514610398578063e7ef0fdc146103ab578063f29ebf61146103ca575f80fd5b8063ca15c8731461033d578063d5449fbe14610350578063d547741f14610385575f80fd5b8063a3246ad3116100b8578063a3246ad3146102eb578063aaed1b7f1461030b578063bcfaa30e1461031e575f80fd5b806391d14854146102a1578063a217fddf146102e4575f80fd5b80633f4ba83a11610127578063771212b91161010d578063771212b9146102515780638456cb59146102865780639010d07c1461028e575f80fd5b80633f4ba83a1461023e5780635c975abb14610246575f80fd5b8063248a9ca311610157578063248a9ca3146101e65780632f2ff15d1461021657806336568abe1461022b575f80fd5b806301ffc9a71461017257806311eac8551461019a575b5f80fd5b6101856101803660046115e1565b6103f1565b60405190151581526020015b60405180910390f35b6101c17f000000000000000000000000000000000000000000000000000000000000000081565b60405173ffffffffffffffffffffffffffffffffffffffff9091168152602001610191565b6102086101f4366004611620565b5f9081526020819052604090206001015490565b604051908152602001610191565b61022961022436600461165f565b610401565b005b61022961023936600461165f565b61042b565b610229610489565b60025460ff16610185565b6101c161025f366004611620565b5f9081526004602052604090205473ffffffffffffffffffffffffffffffffffffffff1690565b6102296104be565b6101c161029c366004611689565b6104f0565b6101856102af36600461165f565b5f9182526020828152604080842073ffffffffffffffffffffffffffffffffffffffff93909316845291905290205460ff1690565b6102085f81565b6102fe6102f9366004611620565b61050e565b60405161019191906116a9565b610229610319366004611701565b610527565b61020861032c366004611620565b60056020525f908152604090205481565b61020861034b366004611620565b610660565b6101c161035e366004611620565b60046020525f908152604090205473ffffffffffffffffffffffffffffffffffffffff1681565b61022961039336600461165f565b610676565b6102296103a6366004611689565b61069a565b6102086103b9366004611620565b5f9081526005602052604090205490565b6101c17f000000000000000000000000000000000000000000000000000000000000000081565b5f6103fb82610d52565b92915050565b5f8281526020819052604090206001015461041b81610da7565b6104258383610db1565b50505050565b73ffffffffffffffffffffffffffffffffffffffff8116331461047a576040517f6697b23200000000000000000000000000000000000000000000000000000000815260040160405180910390fd5b6104848282610de4565b505050565b7f65d7a28e3265b37a6474929f336521b332c1681b933f6cb9f3376673440d862a6104b381610da7565b6104bb610e0f565b50565b7f65d7a28e3265b37a6474929f336521b332c1681b933f6cb9f3376673440d862a6104e881610da7565b6104bb610e8c565b5f8281526001602052604081206105079083610ee7565b9392505050565b5f8181526001602052604090206060906103fb90610ef2565b5f61053181610da7565b73ffffffffffffffffffffffffffffffffffffffff831661057e576040517f8579befe00000000000000000000000000000000000000000000000000000000815260040160405180910390fd5b5f84815260046020526040902080547fffffffffffffffffffffffff00000000000000000000000000000000000000001673ffffffffffffffffffffffffffffffffffffffff851617905581156105e4575f8481526005602052604090208290556105f3565b5f848152600560205260408120555b3373ffffffffffffffffffffffffffffffffffffffff168373ffffffffffffffffffffffffffffffffffffffff16857ee8dab5729ebe0339cee67446518f213eecf9fac7081abbcdc1d63a868b75c28560405161065291815260200190565b60405180910390a450505050565b5f8181526001602052604081206103fb90610efe565b5f8281526020819052604090206001015461069081610da7565b6104258383610de4565b6106a2610f07565b6106aa610f4a565b805f036106e3576040517fd11b25af00000000000000000000000000000000000000000000000000000000815260040160405180910390fd5b5f8281526004602052604090205473ffffffffffffffffffffffffffffffffffffffff1680610799576040517f432f5b4a00000000000000000000000000000000000000000000000000000000815260206004820152602260248201527f46756e64696e6720736f75726365206e6f742073657420666f722070726f6a6560448201527f637400000000000000000000000000000000000000000000000000000000000060648201526084015b60405180910390fd5b336107dc73ffffffffffffffffffffffffffffffffffffffff7f000000000000000000000000000000000000000000000000000000000000000016823086610f89565b6040517fd223521d000000000000000000000000000000000000000000000000000000008152600481018490525f907f000000000000000000000000000000000000000000000000000000000000000073ffffffffffffffffffffffffffffffffffffffff169063d223521d90602401602060405180830381865afa158015610867573d5f803e3d5ffd5b505050506040513d601f19601f8201168201806040525081019061088b9190611734565b90505f6108988286611778565b9050801580156108a757505f82115b6108e7578482106108e7576040517f3728b83d00000000000000000000000000000000000000000000000000000000815260048101869052602401610790565b61094873ffffffffffffffffffffffffffffffffffffffff7f0000000000000000000000000000000000000000000000000000000000000000167f000000000000000000000000000000000000000000000000000000000000000084611012565b6040517f767d279b000000000000000000000000000000000000000000000000000000008152600481018390527f000000000000000000000000000000000000000000000000000000000000000073ffffffffffffffffffffffffffffffffffffffff169063767d279b906024015f604051808303815f87803b1580156109cd575f80fd5b505af11580156109df573d5f803e3d5ffd5b5050505f87815260056020526040812054909150819080151573ffffffffffffffffffffffffffffffffffffffff881663496179ac82610a1f575f610a21565b835b6040517fffffffff0000000000000000000000000000000000000000000000000000000060e084901b1681526004810191909152602481018d90526044810188905260640160408051808303815f875af1925050508015610abd575060408051601f3d9081017fffffffffffffffffffffffffffffffffffffffffffffffffffffffffffffffe0168201909252610aba9181019061178b565b60015b610b9957610ac96117ad565b806308c379a003610b575750610add611836565b80610ae85750610b59565b80604051602001610af991906118ee565b604080517fffffffffffffffffffffffffffffffffffffffffffffffffffffffffffffffe0818403018152908290527f08c379a00000000000000000000000000000000000000000000000000000000082526107909160040161192d565b505b3d808015610b82576040519150601f19603f3d011682016040523d82523d5f602084013e610b87565b606091505b5080604051602001610af991906118ee565b9094509250838386610bab8284611980565b1115610c39576040517f432f5b4a00000000000000000000000000000000000000000000000000000000815260206004820152603260248201527f54617267657420636f6e74726163742072657061796d656e742073706c69742060448201527f65786365656473206e657420616d6f756e7400000000000000000000000000006064820152608401610790565b50506040517f32f7a37f000000000000000000000000000000000000000000000000000000008152600481018b90527f000000000000000000000000000000000000000000000000000000000000000073ffffffffffffffffffffffffffffffffffffffff16906332f7a37f906024015f604051808303815f87803b158015610cc0575f80fd5b505af1158015610cd2573d5f803e3d5ffd5b5050604080518c8152602081018a90529081018790526060810186905273ffffffffffffffffffffffffffffffffffffffff808c1693508a1691508c907fc4c2537307ee2181469ea3e2b6811cb4df9e4ae60864bd5fab335bca539c58cc9060800160405180910390a45050505050505050610d4e6001600355565b5050565b5f7fffffffff0000000000000000000000000000000000000000000000000000000082167f5a05180f0000000000000000000000000000000000000000000000000000000014806103fb57506103fb82611050565b6104bb81336110e6565b5f80610dbd848461116b565b90508015610507575f848152600160205260409020610ddc9084611264565b509392505050565b5f80610df08484611285565b90508015610507575f848152600160205260409020610ddc908461133e565b610e1761135f565b600280547fffffffffffffffffffffffffffffffffffffffffffffffffffffffffffffff001690557f5db9ee0a495bf2e6ff9c91a7834c1ba4fdd244a5e8aa4e537bd38aeae4b073aa335b60405173ffffffffffffffffffffffffffffffffffffffff909116815260200160405180910390a1565b610e94610f4a565b600280547fffffffffffffffffffffffffffffffffffffffffffffffffffffffffffffff001660011790557f62e78cea01bee320cd4e420270b5ea74000d11b0c9f74754ebdbfc544b05a258610e623390565b5f610507838361139b565b60605f610507836113c1565b5f6103fb825490565b600260035403610f43576040517f3ee5aeb500000000000000000000000000000000000000000000000000000000815260040160405180910390fd5b6002600355565b60025460ff1615610f87576040517fd93c066500000000000000000000000000000000000000000000000000000000815260040160405180910390fd5b565b60405173ffffffffffffffffffffffffffffffffffffffff84811660248301528381166044830152606482018390526104259186918216906323b872dd906084015b604051602081830303815290604052915060e01b6020820180517bffffffffffffffffffffffffffffffffffffffffffffffffffffffff838183161783525050505061141a565b60405173ffffffffffffffffffffffffffffffffffffffff83811660248301526044820183905261048491859182169063a9059cbb90606401610fcb565b5f7fffffffff0000000000000000000000000000000000000000000000000000000082167f7965db0b0000000000000000000000000000000000000000000000000000000014806103fb57507f01ffc9a7000000000000000000000000000000000000000000000000000000007fffffffff000000000000000000000000000000000000000000000000000000008316146103fb565b5f8281526020818152604080832073ffffffffffffffffffffffffffffffffffffffff8516845290915290205460ff16610d4e576040517fe2517d3f00000000000000000000000000000000000000000000000000000000815273ffffffffffffffffffffffffffffffffffffffff8216600482015260248101839052604401610790565b5f8281526020818152604080832073ffffffffffffffffffffffffffffffffffffffff8516845290915281205460ff1661125d575f8381526020818152604080832073ffffffffffffffffffffffffffffffffffffffff86168452909152902080547fffffffffffffffffffffffffffffffffffffffffffffffffffffffffffffff001660011790556111fb3390565b73ffffffffffffffffffffffffffffffffffffffff168273ffffffffffffffffffffffffffffffffffffffff16847f2f8788117e7eff1d82e926ec794901d17c78024a50270940304540a733656f0d60405160405180910390a45060016103fb565b505f6103fb565b5f6105078373ffffffffffffffffffffffffffffffffffffffff84166114b9565b5f8281526020818152604080832073ffffffffffffffffffffffffffffffffffffffff8516845290915281205460ff161561125d575f8381526020818152604080832073ffffffffffffffffffffffffffffffffffffffff8616808552925280832080547fffffffffffffffffffffffffffffffffffffffffffffffffffffffffffffff0016905551339286917ff6391f5c32d9c69d2a47ea670b442974b53935d1edc7fd64eb21e047a839171b9190a45060016103fb565b5f6105078373ffffffffffffffffffffffffffffffffffffffff84166114fe565b60025460ff16610f87576040517f8dfc202b00000000000000000000000000000000000000000000000000000000815260040160405180910390fd5b5f825f0182815481106113b0576113b0611993565b905f5260205f200154905092915050565b6060815f0180548060200260200160405190810160405280929190818152602001828054801561140e57602002820191905f5260205f20905b8154815260200190600101908083116113fa575b50505050509050919050565b5f8060205f8451602086015f885af180611439576040513d5f823e3d81fd5b50505f513d9150811561145057806001141561146a565b73ffffffffffffffffffffffffffffffffffffffff84163b155b15610425576040517f5274afe700000000000000000000000000000000000000000000000000000000815273ffffffffffffffffffffffffffffffffffffffff85166004820152602401610790565b5f81815260018301602052604081205461125d57508154600181810184555f8481526020808220909301849055845484825282860190935260409020919091556103fb565b5f81815260018301602052604081205480156115d8575f611520600183611778565b85549091505f9061153390600190611778565b9050808214611592575f865f01828154811061155157611551611993565b905f5260205f200154905080875f01848154811061157157611571611993565b5f918252602080832090910192909255918252600188019052604090208390555b85548690806115a3576115a36119c0565b600190038181905f5260205f20015f90559055856001015f8681526020019081526020015f205f9055600193505050506103fb565b5f9150506103fb565b5f602082840312156115f1575f80fd5b81357fffffffff0000000000000000000000000000000000000000000000000000000081168114610507575f80fd5b5f60208284031215611630575f80fd5b5035919050565b803573ffffffffffffffffffffffffffffffffffffffff8116811461165a575f80fd5b919050565b5f8060408385031215611670575f80fd5b8235915061168060208401611637565b90509250929050565b5f806040838503121561169a575f80fd5b50508035926020909101359150565b602080825282518282018190525f918401906040840190835b818110156116f657835173ffffffffffffffffffffffffffffffffffffffff168352602093840193909201916001016116c2565b509095945050505050565b5f805f60608486031215611713575f80fd5b8335925061172360208501611637565b929592945050506040919091013590565b5f60208284031215611744575f80fd5b5051919050565b7f4e487b71000000000000000000000000000000000000000000000000000000005f52601160045260245ffd5b818103818111156103fb576103fb61174b565b5f806040838503121561179c575f80fd5b505080516020909101519092909150565b5f60033d11156117c35760045f803e505f5160e01c5b90565b7fffffffffffffffffffffffffffffffffffffffffffffffffffffffffffffffe0601f830116810181811067ffffffffffffffff8211171561182f577f4e487b71000000000000000000000000000000000000000000000000000000005f52604160045260245ffd5b6040525050565b5f60443d10156118435790565b6040517ffffffffffffffffffffffffffffffffffffffffffffffffffffffffffffffffc3d016004823e80513d602482011167ffffffffffffffff8211171561188b57505090565b808201805167ffffffffffffffff8111156118a7575050505090565b7ffffffffffffffffffffffffffffffffffffffffffffffffffffffffffffffffc3d85010160208284010111156118df575050505090565b610ddc602082850101856117c6565b7f5461726765742068616e646c6552657061796d656e74206661696c65643a200081525f82518060208501601f85015e5f9201601f0191825250919050565b602081525f82518060208401528060208501604085015e5f6040828501015260407fffffffffffffffffffffffffffffffffffffffffffffffffffffffffffffffe0601f83011684010191505092915050565b808201808211156103fb576103fb61174b565b7f4e487b71000000000000000000000000000000000000000000000000000000005f52603260045260245ffd5b7f4e487b71000000000000000000000000000000000000000000000000000000005f52603160045260245ffdfea2646970667358221220d74e079d9dc60ef4c247f693ae036def7c8fc066a8c4cc94ee04d2f27f4388f864736f6c634300081a0033",
    "linkReferences": {}
  },
  "methodIdentifiers": {
    "DEFAULT_ADMIN_ROLE()": "a217fddf",
    "feeRouter()": "f29ebf61",
    "getFundingSource(uint256)": "771212b9",
    "getPoolId(uint256)": "e7ef0fdc",
    "getRoleAdmin(bytes32)": "248a9ca3",
    "getRoleMember(bytes32,uint256)": "9010d07c",
    "getRoleMemberCount(bytes32)": "ca15c873",
    "getRoleMembers(bytes32)": "a3246ad3",
    "grantRole(bytes32,address)": "2f2ff15d",
    "hasRole(bytes32,address)": "91d14854",
    "pause()": "8456cb59",
    "paused()": "5c975abb",
    "projectFundingSource(uint256)": "d5449fbe",
    "projectPoolId(uint256)": "bcfaa30e",
    "renounceRole(bytes32,address)": "36568abe",
    "repay(uint256,uint256)": "d8aed145",
    "revokeRole(bytes32,address)": "d547741f",
    "setFundingSource(uint256,address,uint256)": "aaed1b7f",
    "supportsInterface(bytes4)": "01ffc9a7",
    "unpause()": "3f4ba83a",
    "usdcToken()": "11eac855"
  },
  "id": 106
}