{
  "abi": [
    {
      "type": "constructor",
      "inputs": [
        {
          "name": "_rewardToken",
          "type": "address",
          "internalType": "address"
        },
        {
          "name": "_initialAdmin",
          "type": "address",
          "internalType": "address"
        }
      ],
      "stateMutability": "nonpayable"
    },
    {
      "type": "function",
      "name": "DEFAULT_ADMIN_ROLE",
      "inputs": [],
      "outputs": [
        {
          "name": "",
          "type": "bytes32",
          "internalType": "bytes32"
        }
      ],
      "stateMutability": "view"
    },
    {
      "type": "function",
      "name": "METRIC_UPDATER_ROLE",
      "inputs": [],
      "outputs": [
        {
          "name": "",
          "type": "bytes32",
          "internalType": "bytes32"
        }
      ],
      "stateMutability": "view"
    },
    {
      "type": "function",
      "name": "PAUSER_ROLE",
      "inputs": [],
      "outputs": [
        {
          "name": "",
          "type": "bytes32",
          "internalType": "bytes32"
        }
      ],
      "stateMutability": "view"
    },
    {
      "type": "function",
      "name": "REWARD_DEPOSITOR_ROLE",
      "inputs": [],
      "outputs": [
        {
          "name": "",
          "type": "bytes32",
          "internalType": "bytes32"
        }
      ],
      "stateMutability": "view"
    },
    {
      "type": "function",
      "name": "UPGRADER_ROLE",
      "inputs": [],
      "outputs": [
        {
          "name": "",
          "type": "bytes32",
          "internalType": "bytes32"
        }
      ],
      "stateMutability": "view"
    },
    {
      "type": "function",
      "name": "UPGRADE_INTERFACE_VERSION",
      "inputs": [],
      "outputs": [
        {
          "name": "",
          "type": "string",
          "internalType": "string"
        }
      ],
      "stateMutability": "view"
    },
    {
      "type": "function",
      "name": "accumulatedRewardsPerScoreUnit",
      "inputs": [],
      "outputs": [
        {
          "name": "",
          "type": "uint256",
          "internalType": "uint256"
        }
      ],
      "stateMutability": "view"
    },
    {
      "type": "function",
      "name": "claimRewards",
      "inputs": [],
      "outputs": [],
      "stateMutability": "nonpayable"
    },
    {
      "type": "function",
      "name": "claimableRewards",
      "inputs": [
        {
          "name": "operator",
          "type": "address",
          "internalType": "address"
        }
      ],
      "outputs": [
        {
          "name": "",
          "type": "uint256",
          "internalType": "uint256"
        }
      ],
      "stateMutability": "view"
    },
    {
      "type": "function",
      "name": "currentRewardRate",
      "inputs": [],
      "outputs": [
        {
          "name": "",
          "type": "uint256",
          "internalType": "uint256"
        }
      ],
      "stateMutability": "view"
    },
    {
      "type": "function",
      "name": "depositRewards",
      "inputs": [
        {
          "name": "amount",
          "type": "uint256",
          "internalType": "uint256"
        }
      ],
      "outputs": [],
      "stateMutability": "nonpayable"
    },
    {
      "type": "function",
      "name": "getRoleAdmin",
      "inputs": [
        {
          "name": "role",
          "type": "bytes32",
          "internalType": "bytes32"
        }
      ],
      "outputs": [
        {
          "name": "",
          "type": "bytes32",
          "internalType": "bytes32"
        }
      ],
      "stateMutability": "view"
    },
    {
      "type": "function",
      "name": "grantRole",
      "inputs": [
        {
          "name": "role",
          "type": "bytes32",
          "internalType": "bytes32"
        },
        {
          "name": "account",
          "type": "address",
          "internalType": "address"
        }
      ],
      "outputs": [],
      "stateMutability": "nonpayable"
    },
    {
      "type": "function",
      "name": "hasRole",
      "inputs": [
        {
          "name": "role",
          "type": "bytes32",
          "internalType": "bytes32"
        },
        {
          "name": "account",
          "type": "address",
          "internalType": "address"
        }
      ],
      "outputs": [
        {
          "name": "",
          "type": "bool",
          "internalType": "bool"
        }
      ],
      "stateMutability": "view"
    },
    {
      "type": "function",
      "name": "lastGlobalUpdateTime",
      "inputs": [],
      "outputs": [
        {
          "name": "",
          "type": "uint48",
          "internalType": "uint48"
        }
      ],
      "stateMutability": "view"
    },
    {
      "type": "function",
      "name": "nodeInfo",
      "inputs": [
        {
          "name": "",
          "type": "address",
          "internalType": "address"
        }
      ],
      "outputs": [
        {
          "name": "contributionScore",
          "type": "uint256",
          "internalType": "uint256"
        },
        {
          "name": "rewardDebt",
          "type": "uint256",
          "internalType": "uint256"
        }
      ],
      "stateMutability": "view"
    },
    {
      "type": "function",
      "name": "pause",
      "inputs": [],
      "outputs": [],
      "stateMutability": "nonpayable"
    },
    {
      "type": "function",
      "name": "paused",
      "inputs": [],
      "outputs": [
        {
          "name": "",
          "type": "bool",
          "internalType": "bool"
        }
      ],
      "stateMutability": "view"
    },
    {
      "type": "function",
      "name": "proxiableUUID",
      "inputs": [],
      "outputs": [
        {
          "name": "",
          "type": "bytes32",
          "internalType": "bytes32"
        }
      ],
      "stateMutability": "view"
    },
    {
      "type": "function",
      "name": "renounceRole",
      "inputs": [
        {
          "name": "role",
          "type": "bytes32",
          "internalType": "bytes32"
        },
        {
          "name": "callerConfirmation",
          "type": "address",
          "internalType": "address"
        }
      ],
      "outputs": [],
      "stateMutability": "nonpayable"
    },
    {
      "type": "function",
      "name": "revokeRole",
      "inputs": [
        {
          "name": "role",
          "type": "bytes32",
          "internalType": "bytes32"
        },
        {
          "name": "account",
          "type": "address",
          "internalType": "address"
        }
      ],
      "outputs": [],
      "stateMutability": "nonpayable"
    },
    {
      "type": "function",
      "name": "rewardToken",
      "inputs": [],
      "outputs": [
        {
          "name": "",
          "type": "address",
          "internalType": "contract IERC20"
        }
      ],
      "stateMutability": "view"
    },
    {
      "type": "function",
      "name": "setRewardRate",
      "inputs": [
        {
          "name": "_rate",
          "type": "uint256",
          "internalType": "uint256"
        }
      ],
      "outputs": [],
      "stateMutability": "nonpayable"
    },
    {
      "type": "function",
      "name": "supportsInterface",
      "inputs": [
        {
          "name": "interfaceId",
          "type": "bytes4",
          "internalType": "bytes4"
        }
      ],
      "outputs": [
        {
          "name": "",
          "type": "bool",
          "internalType": "bool"
        }
      ],
      "stateMutability": "view"
    },
    {
      "type": "function",
      "name": "totalContributionScore",
      "inputs": [],
      "outputs": [
        {
          "name": "",
          "type": "uint256",
          "internalType": "uint256"
        }
      ],
      "stateMutability": "view"
    },
    {
      "type": "function",
      "name": "unpause",
      "inputs": [],
      "outputs": [],
      "stateMutability": "nonpayable"
    },
    {
      "type": "function",
      "name": "updateNodeContribution",
      "inputs": [
        {
          "name": "operator",
          "type": "address",
          "internalType": "address"
        },
        {
          "name": "contributionDelta",
          "type": "uint256",
          "internalType": "uint256"
        },
        {
          "name": "timestamp",
          "type": "uint64",
          "internalType": "uint64"
        }
      ],
      "outputs": [],
      "stateMutability": "nonpayable"
    },
    {
      "type": "function",
      "name": "upgradeToAndCall",
      "inputs": [
        {
          "name": "newImplementation",
          "type": "address",
          "internalType": "address"
        },
        {
          "name": "data",
          "type": "bytes",
          "internalType": "bytes"
        }
      ],
      "outputs": [],
      "stateMutability": "payable"
    },
    {
      "type": "event",
      "name": "NodeContributionUpdated",
      "inputs": [
        {
          "name": "operator",
          "type": "address",
          "indexed": true,
          "internalType": "address"
        },
        {
          "name": "newScore",
          "type": "uint256",
          "indexed": false,
          "internalType": "uint256"
        },
        {
          "name": "timestamp",
          "type": "uint64",
          "indexed": false,
          "internalType": "uint64"
        }
      ],
      "anonymous": false
    },
    {
      "type": "event",
      "name": "Paused",
      "inputs": [
        {
          "name": "account",
          "type": "address",
          "indexed": false,
          "internalType": "address"
        }
      ],
      "anonymous": false
    },
    {
      "type": "event",
      "name": "RewardRateSet",
      "inputs": [
        {
          "name": "newRate",
          "type": "uint256",
          "indexed": false,
          "internalType": "uint256"
        }
      ],
      "anonymous": false
    },
    {
      "type": "event",
      "name": "RewardsClaimed",
      "inputs": [
        {
          "name": "operator",
          "type": "address",
          "indexed": true,
          "internalType": "address"
        },
        {
          "name": "amount",
          "type": "uint256",
          "indexed": false,
          "internalType": "uint256"
        }
      ],
      "anonymous": false
    },
    {
      "type": "event",
      "name": "RewardsDeposited",
      "inputs": [
        {
          "name": "depositor",
          "type": "address",
          "indexed": true,
          "internalType": "address"
        },
        {
          "name": "amount",
          "type": "uint256",
          "indexed": false,
          "internalType": "uint256"
        }
      ],
      "anonymous": false
    },
    {
      "type": "event",
      "name": "RoleAdminChanged",
      "inputs": [
        {
          "name": "role",
          "type": "bytes32",
          "indexed": true,
          "internalType": "bytes32"
        },
        {
          "name": "previousAdminRole",
          "type": "bytes32",
          "indexed": true,
          "internalType": "bytes32"
        },
        {
          "name": "newAdminRole",
          "type": "bytes32",
          "indexed": true,
          "internalType": "bytes32"
        }
      ],
      "anonymous": false
    },
    {
      "type": "event",
      "name": "RoleGranted",
      "inputs": [
        {
          "name": "role",
          "type": "bytes32",
          "indexed": true,
          "internalType": "bytes32"
        },
        {
          "name": "account",
          "type": "address",
          "indexed": true,
          "internalType": "address"
        },
        {
          "name": "sender",
          "type": "address",
          "indexed": true,
          "internalType": "address"
        }
      ],
      "anonymous": false
    },
    {
      "type": "event",
      "name": "RoleRevoked",
      "inputs": [
        {
          "name": "role",
          "type": "bytes32",
          "indexed": true,
          "internalType": "bytes32"
        },
        {
          "name": "account",
          "type": "address",
          "indexed": true,
          "internalType": "address"
        },
        {
          "name": "sender",
          "type": "address",
          "indexed": true,
          "internalType": "address"
        }
      ],
      "anonymous": false
    },
    {
      "type": "event",
      "name": "Unpaused",
      "inputs": [
        {
          "name": "account",
          "type": "address",
          "indexed": false,
          "internalType": "address"
        }
      ],
      "anonymous": false
    },
    {
      "type": "event",
      "name": "Upgraded",
      "inputs": [
        {
          "name": "implementation",
          "type": "address",
          "indexed": true,
          "internalType": "address"
        }
      ],
      "anonymous": false
    },
    {
      "type": "error",
      "name": "AccessControlBadConfirmation",
      "inputs": []
    },
    {
      "type": "error",
      "name": "AccessControlUnauthorizedAccount",
      "inputs": [
        {
          "name": "account",
          "type": "address",
          "internalType": "address"
        },
        {
          "name": "neededRole",
          "type": "bytes32",
          "internalType": "bytes32"
        }
      ]
    },
    {
      "type": "error",
      "name": "AddressEmptyCode",
      "inputs": [
        {
          "name": "target",
          "type": "address",
          "internalType": "address"
        }
      ]
    },
    {
      "type": "error",
      "name": "CallerNotMetricUpdater",
      "inputs": []
    },
    {
      "type": "error",
      "name": "ERC1967InvalidImplementation",
      "inputs": [
        {
          "name": "implementation",
          "type": "address",
          "internalType": "address"
        }
      ]
    },
    {
      "type": "error",
      "name": "ERC1967NonPayable",
      "inputs": []
    },
    {
      "type": "error",
      "name": "EnforcedPause",
      "inputs": []
    },
    {
      "type": "error",
      "name": "ExpectedPause",
      "inputs": []
    },
    {
      "type": "error",
      "name": "FailedCall",
      "inputs": []
    },
    {
      "type": "error",
      "name": "InsufficientFundsForRewards",
      "inputs": []
    },
    {
      "type": "error",
      "name": "InvalidAmount",
      "inputs": [
        {
          "name": "amount",
          "type": "uint256",
          "internalType": "uint256"
        }
      ]
    },
    {
      "type": "error",
      "name": "NoRewardsClaimable",
      "inputs": []
    },
    {
      "type": "error",
      "name": "ReentrancyGuardReentrantCall",
      "inputs": []
    },
    {
      "type": "error",
      "name": "SafeERC20FailedOperation",
      "inputs": [
        {
          "name": "token",
          "type": "address",
          "internalType": "address"
        }
      ]
    },
    {
      "type": "error",
      "name": "UUPSUnauthorizedCallContext",
      "inputs": []
    },
    {
      "type": "error",
      "name": "UUPSUnsupportedProxiableUUID",
      "inputs": [
        {
          "name": "slot",
          "type": "bytes32",
          "internalType": "bytes32"
        }
      ]
    },
    {
      "type": "error",
      "name": "ZeroAddress",
      "inputs": []
    }
  ],
  "bytecode": {
    "object": "0x60c0604052346100655761001a610014610139565b906102be565b61002261006a565b6127306106458239608051818181611e2b01528181611e90015261203f015260a051818181610e5f01528181611264015281816112ea0152611752015261273090f35b610070565b60405190565b5f80fd5b601f801991011690565b634e487b7160e01b5f52604160045260245ffd5b9061009c90610074565b810190811060018060401b038211176100b457604052565b61007e565b906100cc6100c561006a565b9283610092565b565b5f80fd5b60018060a01b031690565b6100e6906100d2565b90565b6100f2816100dd565b036100f957565b5f80fd5b9050519061010a826100e9565b565b91906040838203126101345780610128610131925f86016100fd565b936020016100fd565b90565b6100ce565b610157612d758038038061014c816100b9565b92833981019061010c565b9091565b90565b90565b61017561017061017a9261015b565b61015e565b6100d2565b90565b61018690610161565b90565b5f0190565b6101a261019d6101a7926100d2565b61015e565b6100d2565b90565b6101b39061018e565b90565b6101bf906101aa565b90565b90565b5f1b90565b6101de6101d96101e39261015b565b6101c5565b6101c2565b90565b6101ef5f6101ca565b90565b7f65d7a28e3265b37a6474929f336521b332c1681b933f6cb9f3376673440d862a90565b7f189ab7a9244df0848122154315af71fe140f3db0fe014031783b0946b8c9d2e390565b90565b65ffffffffffff1690565b61025c6102576102619261023a565b61015e565b61023d565b90565b9061027565ffffffffffff916101c5565b9181191691161790565b61029361028e6102989261023d565b61015e565b61023d565b90565b90565b906102b36102ae6102ba9261027f565b61029b565b8254610264565b9055565b906102c76103af565b816102e26102dc6102d75f61017d565b6100dd565b916100dd565b1461037b57806103026102fc6102f75f61017d565b6100dd565b916100dd565b1461035f57610313610349926101b6565b60a0526103286103216101e6565b8290610531565b5061033b6103346101f2565b8290610531565b50610344610216565b610531565b5061035d61035642610248565b600661029e565b565b5f63d92e233d60e01b81528061037760048201610189565b0390fd5b5f63d92e233d60e01b81528061039360048201610189565b0390fd5b6103a09061018e565b90565b6103ac90610397565b90565b6103b76103c5565b6103c0306103a3565b608052565b6103cd6103cf565b565b6103d76103d9565b565b6103e16103e3565b565b6103eb6103ed565b565b6103f56103f7565b565b6103ff610401565b565b61040961048c565b565b90565b61042261041d6104279261040b565b61015e565b61023a565b90565b610434600161040e565b90565b906104435f19916101c5565b9181191691161790565b61046161045c6104669261023a565b61015e565b61023a565b90565b90565b9061048161047c6104889261044d565b610469565b8254610437565b9055565b61049d61049761042a565b5f61046c565b565b5f90565b151590565b6104b1906101c2565b90565b906104be906104a8565b5f5260205260405f2090565b6104d390610397565b90565b906104e0906104ca565b5f5260205260405f2090565b906104f860ff916101c5565b9181191691161790565b61050b906104a3565b90565b90565b9061052661052161052d92610502565b61050e565b82546104ec565b9055565b61053961049f565b5061054e610548828490610609565b156104a3565b5f146105d75761057660016105715f610569600286906104b4565b0185906104d6565b610511565b9061057f610637565b906105bc6105b66105b07f2f8788117e7eff1d82e926ec794901d17c78024a50270940304540a733656f0d956104a8565b926104ca565b926104ca565b926105c561006a565b806105cf81610189565b0390a4600190565b50505f90565b5f1c90565b60ff1690565b6105f46105f9916105dd565b6105e2565b90565b61060690546105e8565b90565b610630915f61062561062b9361061d61049f565b5060026104b4565b016104d6565b6105fc565b90565b5f90565b61063f610633565b50339056fe60806040526004361015610013575b610ee4565b61001d5f356101dc565b806301ffc9a7146101d7578063136f08c2146101d257806323c2e2bc146101cd578063248a9ca3146101c85780632f2ff15d146101c357806336568abe146101be578063372500ab146101b95780633f4ba83a146101b45780634e06f353146101af5780634f1ef286146101aa57806352d1902d146101a55780635c975abb146101a0578063803b31a91461019b5780638456cb59146101965780638bdf67f2146101915780638d77ca571461018c57806391d14854146101875780639e447fc614610182578063a217fddf1461017d578063ab305d2014610178578063ad3cb1cc14610173578063d547741f1461016e578063dc01f60d14610169578063e63ab1e914610164578063f51ace701461015f578063f58a86071461015a578063f72c0d8b146101555763f7c618c10361000e57610eaf565b610e28565b610dc4565b610d60565b610d1c565b610cb8565b610c84565b610c4f565b610b1e565b610ada565b610a6c565b610a36565b610a01565b61099f565b61094e565b610919565b610877565b610842565b610818565b6106b4565b6105f4565b6105c1565b61058d565b610559565b6104f2565b610456565b61030d565b610268565b60e01c90565b60405190565b5f80fd5b5f80fd5b5f80fd5b63ffffffff60e01b1690565b610209816101f4565b0361021057565b5f80fd5b9050359061022182610200565b565b9060208282031261023c57610239915f01610214565b90565b6101ec565b151590565b61024f90610241565b9052565b9190610266905f60208501940190610246565b565b346102985761029461028361027e366004610223565b610eec565b61028b6101e2565b91829182610253565b0390f35b6101e8565b5f9103126102a757565b6101ec565b1c90565b90565b6102c39060086102c893026102ac565b6102b0565b90565b906102d691546102b3565b90565b6102e560055f906102cb565b90565b90565b6102f4906102e8565b9052565b919061030b905f602085019401906102eb565b565b3461033d5761031d36600461029d565b6103396103286102d9565b6103306101e2565b918291826102f8565b0390f35b6101e8565b60018060a01b031690565b61035690610342565b90565b6103628161034d565b0361036957565b5f80fd5b9050359061037a82610359565b565b9060208282031261039557610392915f0161036d565b90565b6101ec565b90565b6103b16103ac6103b692610342565b61039a565b610342565b90565b6103c29061039d565b90565b6103ce906103b9565b90565b906103db906103c5565b5f5260205260405f2090565b5f1c90565b6103f86103fd916103e7565b6102b0565b90565b61040a90546103ec565b90565b6104189060036103d1565b9061043060016104295f8501610400565b9301610400565b90565b91602061045492949361044d60408201965f8301906102eb565b01906102eb565b565b346104875761046e61046936600461037c565b61040d565b9061048361047a6101e2565b92839283610433565b0390f35b6101e8565b90565b6104988161048c565b0361049f57565b5f80fd5b905035906104b08261048f565b565b906020828203126104cb576104c8915f016104a3565b90565b6101ec565b6104d99061048c565b9052565b91906104f0905f602085019401906104d0565b565b346105225761051e61050d6105083660046104b2565b610f76565b6105156101e2565b918291826104dd565b0390f35b6101e8565b919060408382031261054f578061054361054c925f86016104a3565b9360200161036d565b90565b6101ec565b5f0190565b346105885761057261056c366004610527565b90610fc2565b61057a6101e2565b8061058481610554565b0390f35b6101e8565b346105bc576105a66105a0366004610527565b90610fce565b6105ae6101e2565b806105b881610554565b0390f35b6101e8565b346105ef576105d136600461029d565b6105d96113c0565b6105e16101e2565b806105eb81610554565b0390f35b6101e8565b346106225761060436600461029d565b61060c6113ee565b6106146101e2565b8061061e81610554565b0390f35b6101e8565b610630816102e8565b0361063757565b5f80fd5b9050359061064882610627565b565b67ffffffffffffffff1690565b6106608161064a565b0361066757565b5f80fd5b9050359061067882610657565b565b90916060828403126106af576106ac610695845f850161036d565b936106a3816020860161063b565b9360400161066b565b90565b6101ec565b346106e3576106cd6106c736600461067a565b916115c1565b6106d56101e2565b806106df81610554565b0390f35b6101e8565b5f80fd5b5f80fd5b601f801991011690565b634e487b7160e01b5f52604160045260245ffd5b90610718906106f0565b810190811067ffffffffffffffff82111761073257604052565b6106fa565b9061074a6107436101e2565b928361070e565b565b67ffffffffffffffff811161076a576107666020916106f0565b0190565b6106fa565b90825f939282370152565b9092919261078f61078a8261074c565b610737565b938185526020850190828401116107ab576107a99261076f565b565b6106ec565b9080601f830112156107ce578160206107cb9335910161077a565b90565b6106e8565b919091604081840312610813576107ec835f830161036d565b92602082013567ffffffffffffffff811161080e5761080b92016107b0565b90565b6101f0565b6101ec565b61082c6108263660046107d3565b906115f7565b6108346101e2565b8061083e81610554565b0390f35b346108725761085236600461029d565b61086e61085d61166e565b6108656101e2565b918291826104dd565b0390f35b6101e8565b346108a75761088736600461029d565b6108a36108926116a8565b61089a6101e2565b91829182610253565b0390f35b6101e8565b65ffffffffffff1690565b6108c79060086108cc93026102ac565b6108ac565b90565b906108da91546108b7565b90565b6108e960065f906108cf565b90565b65ffffffffffff1690565b610900906108ec565b9052565b9190610917905f602085019401906108f7565b565b346109495761092936600461029d565b6109456109346108dd565b61093c6101e2565b91829182610904565b0390f35b6101e8565b3461097c5761095e36600461029d565b6109666116e2565b61096e6101e2565b8061097881610554565b0390f35b6101e8565b9060208282031261099a57610997915f0161063b565b90565b6101ec565b346109cd576109b76109b2366004610981565b6117f5565b6109bf6101e2565b806109c981610554565b0390f35b6101e8565b7f2b3b34d8f2cbfb9866f3463c0bc43f6d821c949e95f5ca06701a7756b45ebc8e90565b6109fe6109d2565b90565b34610a3157610a1136600461029d565b610a2d610a1c6109f6565b610a246101e2565b918291826104dd565b0390f35b6101e8565b34610a6757610a63610a52610a4c366004610527565b90611816565b610a5a6101e2565b91829182610253565b0390f35b6101e8565b34610a9a57610a84610a7f366004610981565b6118a9565b610a8c6101e2565b80610a9681610554565b0390f35b6101e8565b90565b5f1b90565b610abb610ab6610ac092610a9f565b610aa2565b61048c565b90565b610acc5f610aa7565b90565b610ad7610ac3565b90565b34610b0a57610aea36600461029d565b610b06610af5610acf565b610afd6101e2565b918291826104dd565b0390f35b6101e8565b610b1b60075f906102cb565b90565b34610b4e57610b2e36600461029d565b610b4a610b39610b0f565b610b416101e2565b918291826102f8565b0390f35b6101e8565b67ffffffffffffffff8111610b7157610b6d6020916106f0565b0190565b6106fa565b90610b88610b8383610b53565b610737565b918252565b5f7f352e302e30000000000000000000000000000000000000000000000000000000910152565b610bbe6005610b76565b90610bcb60208301610b8d565b565b610bd5610bb4565b90565b610be0610bcd565b90565b610beb610bd8565b90565b5190565b60209181520190565b90825f9392825e0152565b610c25610c2e602093610c3393610c1c81610bee565b93848093610bf2565b95869101610bfb565b6106f0565b0190565b610c4c9160208201915f818403910152610c06565b90565b34610c7f57610c5f36600461029d565b610c7b610c6a610be3565b610c726101e2565b91829182610c37565b0390f35b6101e8565b34610cb357610c9d610c97366004610527565b906118de565b610ca56101e2565b80610caf81610554565b0390f35b6101e8565b34610ce857610ce4610cd3610cce36600461037c565b61192b565b610cdb6101e2565b918291826102f8565b0390f35b6101e8565b7f65d7a28e3265b37a6474929f336521b332c1681b933f6cb9f3376673440d862a90565b610d19610ced565b90565b34610d4c57610d2c36600461029d565b610d48610d37610d11565b610d3f6101e2565b918291826104dd565b0390f35b6101e8565b610d5d60045f906102cb565b90565b34610d9057610d7036600461029d565b610d8c610d7b610d51565b610d836101e2565b918291826102f8565b0390f35b6101e8565b7f32e2871f61ddc79b070eebfaed80c8f55027023b24db38fa6a5c980e039ec39890565b610dc1610d95565b90565b34610df457610dd436600461029d565b610df0610ddf610db9565b610de76101e2565b918291826104dd565b0390f35b6101e8565b7f189ab7a9244df0848122154315af71fe140f3db0fe014031783b0946b8c9d2e390565b610e25610df9565b90565b34610e5857610e3836600461029d565b610e54610e43610e1d565b610e4b6101e2565b918291826104dd565b0390f35b6101e8565b7f000000000000000000000000000000000000000000000000000000000000000090565b610e8a906103b9565b90565b610e9690610e81565b9052565b9190610ead905f60208501940190610e8d565b565b34610edf57610ebf36600461029d565b610edb610eca610e5d565b610ed26101e2565b91829182610e9a565b0390f35b6101e8565b5f80fd5b5f90565b610ef4610ee8565b5080610f0f610f09637965db0b60e01b6101f4565b916101f4565b14908115610f1c575b5090565b610f269150611a3a565b5f610f18565b5f90565b610f399061048c565b90565b90610f4690610f30565b5f5260205260405f2090565b90565b610f61610f66916103e7565b610f52565b90565b610f739054610f55565b90565b6001610f8f610f9592610f87610f2c565b506002610f3c565b01610f69565b90565b90610fb391610fae610fa982610f76565b611a60565b610fb5565b565b90610fbf91611ab9565b50565b90610fcc91610f98565b565b9080610fe9610fe3610fde611b69565b61034d565b9161034d565b03610ffa57610ff791611b76565b50565b5f63334bd91960e11b81528061101260048201610554565b0390fd5b61101e611c44565b611026611030565b61102e611cc6565b565b611038611cd9565b6110406111d6565b565b61105661105161105b92610a9f565b61039a565b6102e8565b90565b634e487b7160e01b5f52601160045260245ffd5b611081611087919392936102e8565b926102e8565b916110938382026102e8565b9281840414901517156110a257565b61105e565b90565b6110be6110b96110c3926110a7565b61039a565b6102e8565b90565b6110d7670de0b6b3a76400006110aa565b90565b634e487b7160e01b5f52601260045260245ffd5b6110fa611100916102e8565b916102e8565b90811561110b570490565b6110da565b9061111c5f1991610aa2565b9181191691161790565b61113a61113561113f926102e8565b61039a565b6102e8565b90565b90565b9061115a61115561116192611126565b611142565b8254611110565b9055565b61116e906103b9565b90565b60e01b90565b9050519061118482610627565b565b9060208282031261119f5761119c915f01611177565b90565b6101ec565b6111ad9061034d565b9052565b91906111c4905f602085019401906111a4565b565b6111ce6101e2565b3d5f823e3d90fd5b6111de611b69565b6111e781611d03565b6111f08161192b565b90816112046111fe5f611042565b916102e8565b146113a45761125a6112466112386112285f611222600387906103d1565b01610400565b6112326007610400565b90611072565b6112406110c6565b906110ee565b6001611254600385906103d1565b01611145565b6112ba60206112887f0000000000000000000000000000000000000000000000000000000000000000610e81565b6370a08231906112af61129a30611165565b926112a36101e2565b95869485938493611171565b8352600483016111b1565b03915afa90811561139f575f91611371575b506112e06112da84926102e8565b916102e8565b11611355576113117f0000000000000000000000000000000000000000000000000000000000000000828491611d56565b61135061133e7ffc30cddea38e2bf4d6ea7d3f9ed3b6ad7f176419f4963bd81318067a4aee73fe926103c5565b926113476101e2565b918291826102f8565b0390a2565b5f630ca407a360e31b81528061136d60048201610554565b0390fd5b611392915060203d8111611398575b61138a818361070e565b810190611186565b5f6112cc565b503d611380565b6111c6565b5f635d113c7560e01b8152806113bc60048201610554565b0390fd5b6113c8611016565b565b6113da6113d5610ced565b611a60565b6113e26113e4565b565b6113ec611e04565b565b6113f66113ca565b565b919061141c611416611408610d95565b611410611b69565b90611816565b15610241565b61142b57611429926114c4565b565b5f637db1d23b60e11b81528061144360048201610554565b0390fd5b90565b61145961145f919392936102e8565b926102e8565b820180921161146a57565b61105e565b61147e611484919392936102e8565b926102e8565b820391821161148f57565b61105e565b61149d9061064a565b9052565b9160206114c29294936114bb60408201965f8301906102eb565b0190611494565b565b6114cd81611d03565b6114e16114dc600383906103d1565b611447565b916114ed5f8401610400565b92816115016114fb5f611042565b916102e8565b146115ba5761153a61153361152c61151c611574958861144a565b966115276005610400565b61146f565b869061144a565b6005611145565b611546845f8301611145565b600161156d61155f866115596007610400565b90611072565b6115676110c6565b906110ee565b9101611145565b90916115a07f79a059279b48fa426829d9e62f7e6d3dcff2136e7ce4d0bc446e87f72a997810926103c5565b926115b56115ac6101e2565b928392836114a1565b0390a2565b5050505050565b906115cc92916113f8565b565b906115e0916115db611e1a565b6115e2565b565b906115f5916115f081611ed4565b611f30565b565b90611601916115ce565b565b6116149061160f61202e565b611662565b90565b90565b61162e61162961163392611617565b610aa2565b61048c565b90565b61165f7f360894a13ba1a3210667c828492db98dca3e2076cc3735a920a3ca505d382bbc61161a565b90565b5061166b611636565b90565b61167e611679610f2c565b611603565b90565b60ff1690565b611693611698916103e7565b611681565b90565b6116a59054611687565b90565b6116b0610ee8565b506116bb600161169b565b90565b6116ce6116c9610ced565b611a60565b6116d66116d8565b565b6116e06120ec565b565b6116ea6116be565b565b6116fd906116f8611c44565b611707565b611705611cc6565b565b61171890611713611cd9565b61171a565b565b6117339061172e6117296109d2565b611a60565b611735565b565b806117486117425f611042565b916102e8565b146117d65761178a7f0000000000000000000000000000000000000000000000000000000000000000611779611b69565b61178230611165565b908492612128565b611792611b69565b6117d16117bf7fb8b27d0db504fa5d914f1fd330347096e88d5ff94b6c612d32797e7c12a8f66f926103c5565b926117c86101e2565b918291826102f8565b0390a2565b6117f1905f918291633728b83d60e01b8352600483016102f8565b0390fd5b6117fe906116ec565b565b9061180a906103c5565b5f5260205260405f2090565b61183d915f6118326118389361182a610ee8565b506002610f3c565b01611800565b61169b565b90565b6118599061185461184f610ac3565b611a60565b61185b565b565b6118636121ee565b61186e816004611145565b6118a47f8cbfafc8e0d9c5c81401c4b9c6e7d201198adc7eb8f8f1556c195ecd4c0a0e7b9161189b6101e2565b918291826102f8565b0390a1565b6118b290611840565b565b906118cf916118ca6118c582610f76565b611a60565b6118d1565b565b906118db91611b76565b50565b906118e8916118b4565b565b5f90565b6118fa6118ff916103e7565b6108ac565b90565b61190c90546118ee565b90565b61192361191e611928926108ec565b61039a565b6102e8565b90565b61194a6119456119b29261193d6118ea565b5060036103d1565b611447565b6119ac60016119a561199761195f6007610400565b6119696005610400565b61197b6119755f611042565b916102e8565b1180611a17575b6119b5575b6119925f8701610400565b611072565b61199f6110c6565b906110ee565b9201610400565b9061146f565b90565b611a1290611a0c6119fc6119ee6119de426119d86119d36006611902565b61190f565b9061146f565b6119e86004610400565b90611072565b6119f66110c6565b90611072565b611a066005610400565b906110ee565b9061144a565b611987565b5042611a34611a2e611a296006611902565b61190f565b916102e8565b11611982565b611a42610ee8565b50611a5c611a566301ffc9a760e01b6101f4565b916101f4565b1490565b611a7290611a6c611b69565b906122ef565b565b90611a8060ff91610aa2565b9181191691161790565b611a9390610241565b90565b90565b90611aae611aa9611ab592611a8a565b611a96565b8254611a74565b9055565b611ac1610ee8565b50611ad6611ad0828490611816565b15610241565b5f14611b5f57611afe6001611af95f611af160028690610f3c565b018590611800565b611a99565b90611b07611b69565b90611b44611b3e611b387f2f8788117e7eff1d82e926ec794901d17c78024a50270940304540a733656f0d95610f30565b926103c5565b926103c5565b92611b4d6101e2565b80611b5781610554565b0390a4600190565b50505f90565b5f90565b611b71611b65565b503390565b611b7e610ee8565b50611b8a818390611816565b5f14611c1257611bb15f611bac5f611ba460028690610f3c565b018590611800565b611a99565b90611bba611b69565b90611bf7611bf1611beb7ff6391f5c32d9c69d2a47ea670b442974b53935d1edc7fd64eb21e047a839171b95610f30565b926103c5565b926103c5565b92611c006101e2565b80611c0a81610554565b0390a4600190565b50505f90565b90565b611c2f611c2a611c3492611c18565b61039a565b6102e8565b90565b611c416002611c1b565b90565b611c4d5f610400565b611c66611c60611c5b611c37565b6102e8565b916102e8565b14611c7e57611c7c611c76611c37565b5f611145565b565b5f633ee5aeb560e01b815280611c9660048201610554565b0390fd5b90565b611cb1611cac611cb692611c9a565b61039a565b6102e8565b90565b611cc36001611c9d565b90565b611cd7611cd1611cb9565b5f611145565b565b611ce16116a8565b611ce757565b5f63d93c066560e01b815280611cff60048201610554565b0390fd5b50611d0c6121ee565b565b63ffffffff1690565b611d2b611d26611d3092611d0e565b611171565b6101f4565b90565b916020611d54929493611d4d60408201965f8301906111a4565b01906102eb565b565b90611d9d611da293611d8e60049493611d7563a9059cbb919391611d17565b92611d7e6101e2565b9687946020860190815201611d33565b6020820181038252038361070e565b61232a565b565b611dac6123de565b611db4611db6565b565b611dc15f6001611a99565b611dc9611b69565b611dff7f5db9ee0a495bf2e6ff9c91a7834c1ba4fdd244a5e8aa4e537bd38aeae4b073aa91611df66101e2565b918291826111b1565b0390a1565b611e0c611da4565b565b611e17906103b9565b90565b611e2330611e0e565b611e55611e4f7f000000000000000000000000000000000000000000000000000000000000000061034d565b9161034d565b148015611e7f575b611e6357565b5f63703e46dd60e11b815280611e7b60048201610554565b0390fd5b50611e8861243d565b611eba611eb47f000000000000000000000000000000000000000000000000000000000000000061034d565b9161034d565b1415611e5d565b50611ed2611ecd610df9565b611a60565b565b611edd90611ec1565b565b611ee89061039d565b90565b611ef490611edf565b90565b611f00906103b9565b90565b90505190611f108261048f565b565b90602082820312611f2b57611f28915f01611f03565b90565b6101ec565b9190611f5e6020611f48611f4386611eeb565b611ef7565b6352d1902d90611f566101e2565b938492611171565b82528180611f6e60048201610554565b03915afa80915f92611ffe575b50155f14611faf575050906001611f9057505b565b611fab905f918291634c9c8ce360e01b8352600483016111b1565b0390fd5b9283611fca611fc4611fbf611636565b61048c565b9161048c565b03611fdf57611fda929350612467565b611f8e565b611ffa845f918291632a87526960e21b8352600483016104dd565b0390fd5b61202091925060203d8111612027575b612018818361070e565b810190611f12565b905f611f7b565b503d61200e565b61203730611e0e565b6120696120637f000000000000000000000000000000000000000000000000000000000000000061034d565b9161034d565b0361207057565b5f63703e46dd60e11b81528061208860048201610554565b0390fd5b612094611cd9565b61209c61209e565b565b6120a9600180611a99565b6120b1611b69565b6120e77f62e78cea01bee320cd4e420270b5ea74000d11b0c9f74754ebdbfc544b05a258916120de6101e2565b918291826111b1565b0390a1565b6120f461208c565b565b60409061211f612126949695939661211560608401985f8501906111a4565b60208301906111a4565b01906102eb565b565b600492612162612176959361217193946121496323b872dd92949192611d17565b936121526101e2565b97889560208701908152016120f6565b6020820181038252038361070e565b61232a565b565b61218c612187612191926102e8565b61039a565b6108ec565b90565b906121a565ffffffffffff91610aa2565b9181191691161790565b6121c36121be6121c8926108ec565b61039a565b6108ec565b90565b90565b906121e36121de6121ea926121af565b6121cb565b8254612194565b9055565b4261220a6122046121ff6006611902565b61190f565b916102e8565b11156122ca5761221a6005610400565b61222c6122265f611042565b916102e8565b146122b5576122a061229961228a61227a61226c61225c426122566122516006611902565b61190f565b9061146f565b6122666004610400565b90611072565b6122746110c6565b90611072565b6122846005610400565b906110ee565b6122946007610400565b61144a565b6007611145565b6122b36122ac42612178565b60066121ce565b565b6122c86122c142612178565b60066121ce565b565b565b9160206122ed9294936122e660408201965f8301906111a4565b01906104d0565b565b906123046122fe838390611816565b15610241565b61230c575050565b6123265f92839263e2517d3f60e01b8452600484016122cc565b0390fd5b905f6020916123376118ea565b506123406118ea565b50828151910182855af1156123d3573d5f519061236561235f5f611042565b916102e8565b145f146123b9575061237681610e81565b3b6123896123835f611042565b916102e8565b145b6123925750565b61239e6123b591610e81565b5f918291635274afe760e01b8352600483016111b1565b0390fd5b6123cc6123c66001611c9d565b916102e8565b141561238b565b6040513d5f823e3d90fd5b6123ef6123e96116a8565b15610241565b6123f557565b5f638dfc202b60e01b81528061240d60048201610554565b0390fd5b60018060a01b031690565b61242861242d916103e7565b612411565b90565b61243a905461241c565b90565b612445611b65565b506124605f61245a612455611636565b6124f0565b01612430565b90565b5190565b9061247182612531565b8161249c7fbc7cd75a20ee27fd9adebab32041f755214dbc6bffa90cc0225b39da2e5c2d3b916103c5565b906124a56101e2565b806124af81610554565b0390a26124bb81612463565b6124cd6124c75f611042565b916102e8565b115f146124e1576124dd91612601565b505b565b50506124eb612586565b6124df565b90565b9061250460018060a01b0391610aa2565b9181191691161790565b90565b9061252661252161252d926103c5565b61250e565b82546124f3565b9055565b803b61254561253f5f611042565b916102e8565b1461256757612565905f61255f61255a611636565b6124f0565b01612511565b565b612582905f918291634c9c8ce360e01b8352600483016111b1565b0390fd5b346125996125935f611042565b916102e8565b116125a057565b5f63b398979f60e01b8152806125b860048201610554565b0390fd5b606090565b906125d36125ce8361074c565b610737565b918252565b3d5f146125f3576125e83d6125c1565b903d5f602084013e5b565b6125fb6125bc565b906125f1565b5f8061262d9361260f6125bc565b508390602081019051915af4906126246125d8565b90919091612630565b90565b906126449061263d6125bc565b5015610241565b5f1461265057506126b4565b61265982612463565b61266b6126655f611042565b916102e8565b1480612699575b61267a575090565b612695905f918291639996b31560e01b8352600483016111b1565b0390fd5b50803b6126ae6126a85f611042565b916102e8565b14612672565b6126bd81612463565b6126cf6126c95f611042565b916102e8565b115f146126de57805190602001fd5b5f63d6bda27560e01b8152806126f660048201610554565b0390fdfea26469706673582212209958ff396e5c17a6ae0f681803de4a8067e09c49ac66eeee94c716aa9e49d99464736f6c634300081a0033",
    "linkReferences": {}
  },
  "methodIdentifiers": {
    "DEFAULT_ADMIN_ROLE()": "a217fddf",
    "METRIC_UPDATER_ROLE()": "f58a8607",
    "PAUSER_ROLE()": "e63ab1e9",
    "REWARD_DEPOSITOR_ROLE()": "8d77ca57",
    "UPGRADER_ROLE()": "f72c0d8b",
    "UPGRADE_INTERFACE_VERSION()": "ad3cb1cc",
    "accumulatedRewardsPerScoreUnit()": "ab305d20",
    "claimRewards()": "372500ab",
    "claimableRewards(address)": "dc01f60d",
    "currentRewardRate()": "f51ace70",
    "depositRewards(uint256)": "8bdf67f2",
    "getRoleAdmin(bytes32)": "248a9ca3",
    "grantRole(bytes32,address)": "2f2ff15d",
    "hasRole(bytes32,address)": "91d14854",
    "lastGlobalUpdateTime()": "803b31a9",
    "nodeInfo(address)": "23c2e2bc",
    "pause()": "8456cb59",
    "paused()": "5c975abb",
    "proxiableUUID()": "52d1902d",
    "renounceRole(bytes32,address)": "36568abe",
    "revokeRole(bytes32,address)": "d547741f",
    "rewardToken()": "f7c618c1",
    "setRewardRate(uint256)": "9e447fc6",
    "supportsInterface(bytes4)": "01ffc9a7",
    "totalContributionScore()": "136f08c2",
    "unpause()": "3f4ba83a",
    "updateNodeContribution(address,uint256,uint64)": "4e06f353",
    "upgradeToAndCall(address,bytes)": "4f1ef286"
  },
  "id": 51
}