{
  "abi": [
    {
      "type": "function",
      "name": "DEFAULT_ADMIN_ROLE",
      "inputs": [],
      "outputs": [
        {
          "name": "",
          "type": "bytes32",
          "internalType": "bytes32"
        }
      ],
      "stateMutability": "view"
    },
    {
      "type": "function",
      "name": "UPGRADE_INTERFACE_VERSION",
      "inputs": [],
      "outputs": [
        {
          "name": "",
          "type": "string",
          "internalType": "string"
        }
      ],
      "stateMutability": "view"
    },
    {
      "type": "function",
      "name": "assessmentInterval",
      "inputs": [],
      "outputs": [
        {
          "name": "",
          "type": "uint256",
          "internalType": "uint256"
        }
      ],
      "stateMutability": "view"
    },
    {
      "type": "function",
      "name": "getPoolId",
      "inputs": [
        {
          "name": "projectId",
          "type": "uint256",
          "internalType": "uint256"
        }
      ],
      "outputs": [
        {
          "name": "",
          "type": "uint256",
          "internalType": "uint256"
        }
      ],
      "stateMutability": "view"
    },
    {
      "type": "function",
      "name": "getProjectRiskLevel",
      "inputs": [
        {
          "name": "projectId",
          "type": "uint256",
          "internalType": "uint256"
        }
      ],
      "outputs": [
        {
          "name": "",
          "type": "uint16",
          "internalType": "uint16"
        }
      ],
      "stateMutability": "view"
    },
    {
      "type": "function",
      "name": "getRoleAdmin",
      "inputs": [
        {
          "name": "role",
          "type": "bytes32",
          "internalType": "bytes32"
        }
      ],
      "outputs": [
        {
          "name": "",
          "type": "bytes32",
          "internalType": "bytes32"
        }
      ],
      "stateMutability": "view"
    },
    {
      "type": "function",
      "name": "getRoleMember",
      "inputs": [
        {
          "name": "role",
          "type": "bytes32",
          "internalType": "bytes32"
        },
        {
          "name": "index",
          "type": "uint256",
          "internalType": "uint256"
        }
      ],
      "outputs": [
        {
          "name": "",
          "type": "address",
          "internalType": "address"
        }
      ],
      "stateMutability": "view"
    },
    {
      "type": "function",
      "name": "getRoleMemberCount",
      "inputs": [
        {
          "name": "role",
          "type": "bytes32",
          "internalType": "bytes32"
        }
      ],
      "outputs": [
        {
          "name": "",
          "type": "uint256",
          "internalType": "uint256"
        }
      ],
      "stateMutability": "view"
    },
    {
      "type": "function",
      "name": "getRoleMembers",
      "inputs": [
        {
          "name": "role",
          "type": "bytes32",
          "internalType": "bytes32"
        }
      ],
      "outputs": [
        {
          "name": "",
          "type": "address[]",
          "internalType": "address[]"
        }
      ],
      "stateMutability": "view"
    },
    {
      "type": "function",
      "name": "getTargetContract",
      "inputs": [
        {
          "name": "projectId",
          "type": "uint256",
          "internalType": "uint256"
        }
      ],
      "outputs": [
        {
          "name": "",
          "type": "address",
          "internalType": "address"
        }
      ],
      "stateMutability": "view"
    },
    {
      "type": "function",
      "name": "grantRole",
      "inputs": [
        {
          "name": "role",
          "type": "bytes32",
          "internalType": "bytes32"
        },
        {
          "name": "account",
          "type": "address",
          "internalType": "address"
        }
      ],
      "outputs": [],
      "stateMutability": "nonpayable"
    },
    {
      "type": "function",
      "name": "hasRole",
      "inputs": [
        {
          "name": "role",
          "type": "bytes32",
          "internalType": "bytes32"
        },
        {
          "name": "account",
          "type": "address",
          "internalType": "address"
        }
      ],
      "outputs": [
        {
          "name": "",
          "type": "bool",
          "internalType": "bool"
        }
      ],
      "stateMutability": "view"
    },
    {
      "type": "function",
      "name": "initialize",
      "inputs": [
        {
          "name": "_admin",
          "type": "address",
          "internalType": "address"
        }
      ],
      "outputs": [],
      "stateMutability": "nonpayable"
    },
    {
      "type": "function",
      "name": "lastAssessmentTimestamp",
      "inputs": [
        {
          "name": "",
          "type": "uint256",
          "internalType": "uint256"
        }
      ],
      "outputs": [
        {
          "name": "",
          "type": "uint256",
          "internalType": "uint256"
        }
      ],
      "stateMutability": "view"
    },
    {
      "type": "function",
      "name": "projectPoolId",
      "inputs": [
        {
          "name": "",
          "type": "uint256",
          "internalType": "uint256"
        }
      ],
      "outputs": [
        {
          "name": "",
          "type": "uint256",
          "internalType": "uint256"
        }
      ],
      "stateMutability": "view"
    },
    {
      "type": "function",
      "name": "projectRiskLevels",
      "inputs": [
        {
          "name": "",
          "type": "uint256",
          "internalType": "uint256"
        }
      ],
      "outputs": [
        {
          "name": "",
          "type": "uint16",
          "internalType": "uint16"
        }
      ],
      "stateMutability": "view"
    },
    {
      "type": "function",
      "name": "projectTargetContract",
      "inputs": [
        {
          "name": "",
          "type": "uint256",
          "internalType": "uint256"
        }
      ],
      "outputs": [
        {
          "name": "",
          "type": "address",
          "internalType": "address"
        }
      ],
      "stateMutability": "view"
    },
    {
      "type": "function",
      "name": "proxiableUUID",
      "inputs": [],
      "outputs": [
        {
          "name": "",
          "type": "bytes32",
          "internalType": "bytes32"
        }
      ],
      "stateMutability": "view"
    },
    {
      "type": "function",
      "name": "pushRiskParams",
      "inputs": [
        {
          "name": "projectId",
          "type": "uint256",
          "internalType": "uint256"
        },
        {
          "name": "aprBps",
          "type": "uint16",
          "internalType": "uint16"
        },
        {
          "name": "tenor",
          "type": "uint48",
          "internalType": "uint48"
        }
      ],
      "outputs": [],
      "stateMutability": "nonpayable"
    },
    {
      "type": "function",
      "name": "renounceRole",
      "inputs": [
        {
          "name": "role",
          "type": "bytes32",
          "internalType": "bytes32"
        },
        {
          "name": "callerConfirmation",
          "type": "address",
          "internalType": "address"
        }
      ],
      "outputs": [],
      "stateMutability": "nonpayable"
    },
    {
      "type": "function",
      "name": "requestPeriodicAssessment",
      "inputs": [
        {
          "name": "projectId",
          "type": "uint256",
          "internalType": "uint256"
        }
      ],
      "outputs": [],
      "stateMutability": "nonpayable"
    },
    {
      "type": "function",
      "name": "revokeRole",
      "inputs": [
        {
          "name": "role",
          "type": "bytes32",
          "internalType": "bytes32"
        },
        {
          "name": "account",
          "type": "address",
          "internalType": "address"
        }
      ],
      "outputs": [],
      "stateMutability": "nonpayable"
    },
    {
      "type": "function",
      "name": "setAssessmentInterval",
      "inputs": [
        {
          "name": "newInterval",
          "type": "uint256",
          "internalType": "uint256"
        }
      ],
      "outputs": [],
      "stateMutability": "nonpayable"
    },
    {
      "type": "function",
      "name": "setProjectRiskLevel",
      "inputs": [
        {
          "name": "projectId",
          "type": "uint256",
          "internalType": "uint256"
        },
        {
          "name": "riskLevel",
          "type": "uint16",
          "internalType": "uint16"
        }
      ],
      "outputs": [],
      "stateMutability": "nonpayable"
    },
    {
      "type": "function",
      "name": "setTargetContract",
      "inputs": [
        {
          "name": "projectId",
          "type": "uint256",
          "internalType": "uint256"
        },
        {
          "name": "targetContract",
          "type": "address",
          "internalType": "address"
        },
        {
          "name": "poolId",
          "type": "uint256",
          "internalType": "uint256"
        }
      ],
      "outputs": [],
      "stateMutability": "nonpayable"
    },
    {
      "type": "function",
      "name": "supportsInterface",
      "inputs": [
        {
          "name": "interfaceId",
          "type": "bytes4",
          "internalType": "bytes4"
        }
      ],
      "outputs": [
        {
          "name": "",
          "type": "bool",
          "internalType": "bool"
        }
      ],
      "stateMutability": "view"
    },
    {
      "type": "function",
      "name": "triggerBatchRiskAssessment",
      "inputs": [],
      "outputs": [],
      "stateMutability": "nonpayable"
    },
    {
      "type": "function",
      "name": "upgradeToAndCall",
      "inputs": [
        {
          "name": "newImplementation",
          "type": "address",
          "internalType": "address"
        },
        {
          "name": "data",
          "type": "bytes",
          "internalType": "bytes"
        }
      ],
      "outputs": [],
      "stateMutability": "payable"
    },
    {
      "type": "event",
      "name": "AssessmentIntervalUpdated",
      "inputs": [
        {
          "name": "oldInterval",
          "type": "uint256",
          "indexed": false,
          "internalType": "uint256"
        },
        {
          "name": "newInterval",
          "type": "uint256",
          "indexed": false,
          "internalType": "uint256"
        }
      ],
      "anonymous": false
    },
    {
      "type": "event",
      "name": "BatchRiskAssessmentTriggered",
      "inputs": [
        {
          "name": "timestamp",
          "type": "uint256",
          "indexed": false,
          "internalType": "uint256"
        }
      ],
      "anonymous": false
    },
    {
      "type": "event",
      "name": "Initialized",
      "inputs": [
        {
          "name": "version",
          "type": "uint64",
          "indexed": false,
          "internalType": "uint64"
        }
      ],
      "anonymous": false
    },
    {
      "type": "event",
      "name": "PeriodicAssessmentRequested",
      "inputs": [
        {
          "name": "projectId",
          "type": "uint256",
          "indexed": true,
          "internalType": "uint256"
        },
        {
          "name": "timestamp",
          "type": "uint256",
          "indexed": false,
          "internalType": "uint256"
        },
        {
          "name": "targetContract",
          "type": "address",
          "indexed": false,
          "internalType": "address"
        },
        {
          "name": "poolId",
          "type": "uint256",
          "indexed": false,
          "internalType": "uint256"
        }
      ],
      "anonymous": false
    },
    {
      "type": "event",
      "name": "ProjectRiskLevelSet",
      "inputs": [
        {
          "name": "projectId",
          "type": "uint256",
          "indexed": true,
          "internalType": "uint256"
        },
        {
          "name": "riskLevel",
          "type": "uint16",
          "indexed": false,
          "internalType": "uint16"
        }
      ],
      "anonymous": false
    },
    {
      "type": "event",
      "name": "RiskParamsPushed",
      "inputs": [
        {
          "name": "projectId",
          "type": "uint256",
          "indexed": true,
          "internalType": "uint256"
        },
        {
          "name": "targetContract",
          "type": "address",
          "indexed": true,
          "internalType": "address"
        },
        {
          "name": "oracle",
          "type": "address",
          "indexed": true,
          "internalType": "address"
        },
        {
          "name": "aprBps",
          "type": "uint16",
          "indexed": false,
          "internalType": "uint16"
        },
        {
          "name": "tenor",
          "type": "uint48",
          "indexed": false,
          "internalType": "uint48"
        }
      ],
      "anonymous": false
    },
    {
      "type": "event",
      "name": "RoleAdminChanged",
      "inputs": [
        {
          "name": "role",
          "type": "bytes32",
          "indexed": true,
          "internalType": "bytes32"
        },
        {
          "name": "previousAdminRole",
          "type": "bytes32",
          "indexed": true,
          "internalType": "bytes32"
        },
        {
          "name": "newAdminRole",
          "type": "bytes32",
          "indexed": true,
          "internalType": "bytes32"
        }
      ],
      "anonymous": false
    },
    {
      "type": "event",
      "name": "RoleGranted",
      "inputs": [
        {
          "name": "role",
          "type": "bytes32",
          "indexed": true,
          "internalType": "bytes32"
        },
        {
          "name": "account",
          "type": "address",
          "indexed": true,
          "internalType": "address"
        },
        {
          "name": "sender",
          "type": "address",
          "indexed": true,
          "internalType": "address"
        }
      ],
      "anonymous": false
    },
    {
      "type": "event",
      "name": "RoleRevoked",
      "inputs": [
        {
          "name": "role",
          "type": "bytes32",
          "indexed": true,
          "internalType": "bytes32"
        },
        {
          "name": "account",
          "type": "address",
          "indexed": true,
          "internalType": "address"
        },
        {
          "name": "sender",
          "type": "address",
          "indexed": true,
          "internalType": "address"
        }
      ],
      "anonymous": false
    },
    {
      "type": "event",
      "name": "TargetContractSet",
      "inputs": [
        {
          "name": "projectId",
          "type": "uint256",
          "indexed": true,
          "internalType": "uint256"
        },
        {
          "name": "targetContract",
          "type": "address",
          "indexed": true,
          "internalType": "address"
        },
        {
          "name": "setter",
          "type": "address",
          "indexed": true,
          "internalType": "address"
        }
      ],
      "anonymous": false
    },
    {
      "type": "event",
      "name": "Upgraded",
      "inputs": [
        {
          "name": "implementation",
          "type": "address",
          "indexed": true,
          "internalType": "address"
        }
      ],
      "anonymous": false
    },
    {
      "type": "error",
      "name": "AccessControlBadConfirmation",
      "inputs": []
    },
    {
      "type": "error",
      "name": "AccessControlUnauthorizedAccount",
      "inputs": [
        {
          "name": "account",
          "type": "address",
          "internalType": "address"
        },
        {
          "name": "neededRole",
          "type": "bytes32",
          "internalType": "bytes32"
        }
      ]
    },
    {
      "type": "error",
      "name": "AddressEmptyCode",
      "inputs": [
        {
          "name": "target",
          "type": "address",
          "internalType": "address"
        }
      ]
    },
    {
      "type": "error",
      "name": "ERC1967InvalidImplementation",
      "inputs": [
        {
          "name": "implementation",
          "type": "address",
          "internalType": "address"
        }
      ]
    },
    {
      "type": "error",
      "name": "ERC1967NonPayable",
      "inputs": []
    },
    {
      "type": "error",
      "name": "FailedCall",
      "inputs": []
    },
    {
      "type": "error",
      "name": "InvalidInitialization",
      "inputs": []
    },
    {
      "type": "error",
      "name": "InvalidOracleData",
      "inputs": [
        {
          "name": "reason",
          "type": "string",
          "internalType": "string"
        }
      ]
    },
    {
      "type": "error",
      "name": "InvalidValue",
      "inputs": [
        {
          "name": "reason",
          "type": "string",
          "internalType": "string"
        }
      ]
    },
    {
      "type": "error",
      "name": "NotInitializing",
      "inputs": []
    },
    {
      "type": "error",
      "name": "TargetContractNotSet",
      "inputs": [
        {
          "name": "projectId",
          "type": "uint256",
          "internalType": "uint256"
        }
      ]
    },
    {
      "type": "error",
      "name": "UUPSUnauthorizedCallContext",
      "inputs": []
    },
    {
      "type": "error",
      "name": "UUPSUnsupportedProxiableUUID",
      "inputs": [
        {
          "name": "slot",
          "type": "bytes32",
          "internalType": "bytes32"
        }
      ]
    },
    {
      "type": "error",
      "name": "ZeroAddressNotAllowed",
      "inputs": []
    }
  ],
  "bytecode": {
    "object": "0x60a06040523060805262093a806005553480156019575f80fd5b506080516123c76100405f395f81816113190152818161134201526115cf01526123c75ff3fe6080604052600436106101af575f3560e01c8063a217fddf116100e7578063c4d66de811610087578063d8d98d0b11610062578063d8d98d0b146105ac578063e7ef0fdc146105d7578063ebd1544814610602578063f322b0ae14610621575f80fd5b8063c4d66de81461054f578063ca15c8731461056e578063d547741f1461058d575f80fd5b8063ad3cb1cc116100c2578063ad3cb1cc1461046f578063b6ec0db3146104c4578063bccd5eee146104e3578063bcfaa30e14610524575f80fd5b8063a217fddf14610401578063a3246ad314610414578063a884fac214610440575f80fd5b806352d1902d1161015257806375cef6c81161012d57806375cef6c81461030e57806389a413c7146103745780639010d07c1461039357806391d14854146103b2575f80fd5b806352d1902d146102c75780636c4d71c3146102db5780636df8683f146102ef575f80fd5b8063248a9ca31161018d578063248a9ca31461023a5780632f2ff15d1461027657806336568abe146102955780634f1ef286146102b4575f80fd5b806301ffc9a7146101b35780630630bcd7146101e75780630802010414610219575b5f80fd5b3480156101be575f80fd5b506101d26101cd366004611ddc565b610636565b60405190151581526020015b60405180910390f35b3480156101f2575f80fd5b50610206610201366004611e1b565b610646565b60405161ffff90911681526020016101de565b348015610224575f80fd5b50610238610233366004611e48565b6106c6565b005b348015610245575f80fd5b50610268610254366004611e1b565b5f9081526020819052604090206001015490565b6040519081526020016101de565b348015610281575f80fd5b50610238610290366004611e95565b6107e6565b3480156102a0575f80fd5b506102386102af366004611e95565b610810565b6102386102c2366004611f2e565b61086e565b3480156102d2575f80fd5b5061026861088d565b3480156102e6575f80fd5b506102386108bc565b3480156102fa575f80fd5b50610238610309366004611ff5565b61091b565b348015610319575f80fd5b5061034f610328366004611e1b565b5f9081526002602052604090205473ffffffffffffffffffffffffffffffffffffffff1690565b60405173ffffffffffffffffffffffffffffffffffffffff90911681526020016101de565b34801561037f575f80fd5b5061023861038e366004611e1b565b610ce9565b34801561039e575f80fd5b5061034f6103ad36600461203c565b610da6565b3480156103bd575f80fd5b506101d26103cc366004611e95565b5f9182526020828152604080842073ffffffffffffffffffffffffffffffffffffffff93909316845291905290205460ff1690565b34801561040c575f80fd5b506102685f81565b34801561041f575f80fd5b5061043361042e366004611e1b565b610dc4565b6040516101de919061205c565b34801561044b575f80fd5b5061020661045a366004611e1b565b60066020525f908152604090205461ffff1681565b34801561047a575f80fd5b506104b76040518060400160405280600581526020017f352e302e3000000000000000000000000000000000000000000000000000000081525081565b6040516101de91906120b4565b3480156104cf575f80fd5b506102386104de366004612107565b610ddd565b3480156104ee575f80fd5b5061034f6104fd366004611e1b565b60026020525f908152604090205473ffffffffffffffffffffffffffffffffffffffff1681565b34801561052f575f80fd5b5061026861053e366004611e1b565b60036020525f908152604090205481565b34801561055a575f80fd5b5061023861056936600461213a565b610ee0565b348015610579575f80fd5b50610268610588366004611e1b565b6110ee565b348015610598575f80fd5b506102386105a7366004611e95565b611104565b3480156105b7575f80fd5b506102686105c6366004611e1b565b60046020525f908152604090205481565b3480156105e2575f80fd5b506102686105f1366004611e1b565b5f9081526003602052604090205490565b34801561060d575f80fd5b5061023861061c366004611e1b565b611128565b34801561062c575f80fd5b5061026860055481565b5f61064082611241565b92915050565b5f8181526006602052604081205461ffff16808203610640576040517f2ce0c3cc00000000000000000000000000000000000000000000000000000000815260206004820152601260248201527f5269736b206c6576656c206e6f7420736574000000000000000000000000000060448201526064015b60405180910390fd5b7f02509c39826ef4d4fc9a6478dd388f892df655e831b495ea37e26344d4c48aca6106f081611296565b60018261ffff161080610707575060038261ffff16115b1561076e576040517f432f5b4a00000000000000000000000000000000000000000000000000000000815260206004820152601660248201527f5269736b206c6576656c206d75737420626520312d330000000000000000000060448201526064016106bd565b5f8381526006602090815260409182902080547fffffffffffffffffffffffffffffffffffffffffffffffffffffffffffff00001661ffff8616908117909155915191825284917fe55bcf3cfceceb262801aac3279813f2aec4eb9b94ee1708c8d491ccde6fe09e91015b60405180910390a2505050565b5f8281526020819052604090206001015461080081611296565b61080a83836112a3565b50505050565b73ffffffffffffffffffffffffffffffffffffffff8116331461085f576040517f6697b23200000000000000000000000000000000000000000000000000000000815260040160405180910390fd5b61086982826112d6565b505050565b610876611301565b61087f82611407565b610889828261147e565b5050565b5f6108966115b7565b507f360894a13ba1a3210667c828492db98dca3e2076cc3735a920a3ca505d382bbc5b90565b7f02509c39826ef4d4fc9a6478dd388f892df655e831b495ea37e26344d4c48aca6108e681611296565b6040514281527e6a76cff23a87e5d05452703cf1f9e30f22e4860d9e5cfd8ffaa4a45082eb3f9060200160405180910390a150565b7f02509c39826ef4d4fc9a6478dd388f892df655e831b495ea37e26344d4c48aca61094581611296565b5f8481526002602052604090205473ffffffffffffffffffffffffffffffffffffffff16806109a3576040517fbf15cfed000000000000000000000000000000000000000000000000000000008152600481018690526024016106bd565b6040517f1940fe3100000000000000000000000000000000000000000000000000000000815261ffff851660048201525f9060609073ffffffffffffffffffffffffffffffffffffffff841690631940fe31906024015f604051808303815f87803b158015610a10575f80fd5b505af1925050508015610a21575060015b610bee573d808015610a4e576040519150601f19603f3d011682016040523d82523d5f602084013e610a53565b606091505b505f88815260036020526040812054919250829190819003610ade5782604051602001610a80919061216a565b604080517fffffffffffffffffffffffffffffffffffffffffffffffffffffffffffffffe0818403018152908290527f08c379a00000000000000000000000000000000000000000000000000000000082526106bd916004016120b4565b6040517f12d06cf200000000000000000000000000000000000000000000000000000000815260048101829052602481018a905261ffff8916604482015273ffffffffffffffffffffffffffffffffffffffff8616906312d06cf2906064015f604051808303815f87803b158015610b54575f80fd5b505af1925050508015610b65575060015b610be357610b716121c1565b806308c379a003610ba15750610b856121d9565b80610b905750610ba3565b80604051602001610a809190612291565b505b3d808015610bcc576040519150601f19603f3d011682016040523d82523d5f602084013e610bd1565b606091505b5080604051602001610a809190612291565b600193505050610bf3565b600191505b81610c80576040517f2ce0c3cc00000000000000000000000000000000000000000000000000000000815260206004820152603260248201527f4661696c656420746f2063616c6c207570646174655269736b506172616d732060448201527f6f6e2074617267657420636f6e7472616374000000000000000000000000000060648201526084016106bd565b6040805161ffff8816815265ffffffffffff87166020820152339173ffffffffffffffffffffffffffffffffffffffff8616918a917f05354e87a68aa5cb6999aa5ac964ce3abdfcdcd93133bf8b146f36fa0a8cd05e910160405180910390a450505050505050565b5f610cf381611296565b62015180821015610d60576040517f432f5b4a00000000000000000000000000000000000000000000000000000000815260206004820152601260248201527f496e74657276616c20746f6f2073686f7274000000000000000000000000000060448201526064016106bd565b600580549083905560408051828152602081018590527fa94a2e20bf04427921927a71afc87f5d4db15af2aa853cd909781260a4d70157910160405180910390a1505050565b5f828152600160205260408120610dbd9083611626565b9392505050565b5f81815260016020526040902060609061064090611631565b5f610de781611296565b73ffffffffffffffffffffffffffffffffffffffff8316610e34576040517f8579befe00000000000000000000000000000000000000000000000000000000815260040160405180910390fd5b5f84815260026020526040902080547fffffffffffffffffffffffff00000000000000000000000000000000000000001673ffffffffffffffffffffffffffffffffffffffff85161790558115610e96575f8481526003602052604090208290555b604051339073ffffffffffffffffffffffffffffffffffffffff85169086907f449aa4a50afa84d7de8a6dc2c62b582a6d6ad1b49073604bccb3e16fbda47fe0905f90a450505050565b5f610ee961163d565b805490915060ff68010000000000000000820416159067ffffffffffffffff165f81158015610f155750825b90505f8267ffffffffffffffff166001148015610f315750303b155b905081158015610f3f575080155b15610f76576040517ff92ee8a900000000000000000000000000000000000000000000000000000000815260040160405180910390fd5b84547fffffffffffffffffffffffffffffffffffffffffffffffff00000000000000001660011785558315610fd75784547fffffffffffffffffffffffffffffffffffffffffffffff00ffffffffffffffff16680100000000000000001785555b73ffffffffffffffffffffffffffffffffffffffff8616611024576040517f8579befe00000000000000000000000000000000000000000000000000000000815260040160405180910390fd5b61102e5f876112a3565b506110597f189ab7a9244df0848122154315af71fe140f3db0fe014031783b0946b8c9d2e3876112a3565b506110847f02509c39826ef4d4fc9a6478dd388f892df655e831b495ea37e26344d4c48aca876112a3565b5083156110e65784547fffffffffffffffffffffffffffffffffffffffffffffff00ffffffffffffffff168555604051600181527fc7f505b2f371ae2175ee4913f4499e1f2633a7b5936321eed1cdaeb6115181d29060200160405180910390a15b505050505050565b5f81815260016020526040812061064090611665565b5f8281526020819052604090206001015461111e81611296565b61080a83836112d6565b7f02509c39826ef4d4fc9a6478dd388f892df655e831b495ea37e26344d4c48aca61115281611296565b5f8281526002602052604090205473ffffffffffffffffffffffffffffffffffffffff16806111b0576040517fbf15cfed000000000000000000000000000000000000000000000000000000008152600481018490526024016106bd565b6005545f848152600460205260409020546111cb91906122ef565b4210610869575f8381526004602090815260408083204290819055600383529281902054815193845273ffffffffffffffffffffffffffffffffffffffff85169284019290925282015283907f67dda5cc354a8a1ec0acdd2309ad8a99e81aecf5593fa9d6b1ecc071c2c7044d906060016107d9565b5f7fffffffff0000000000000000000000000000000000000000000000000000000082167f5a05180f00000000000000000000000000000000000000000000000000000000148061064057506106408261166e565b6112a08133611704565b50565b5f806112af8484611789565b90508015610dbd575f8481526001602052604090206112ce9084611882565b509392505050565b5f806112e284846118a3565b90508015610dbd575f8481526001602052604090206112ce908461195c565b3073ffffffffffffffffffffffffffffffffffffffff7f00000000000000000000000000000000000000000000000000000000000000001614806113ce57507f000000000000000000000000000000000000000000000000000000000000000073ffffffffffffffffffffffffffffffffffffffff166113b57f360894a13ba1a3210667c828492db98dca3e2076cc3735a920a3ca505d382bbc5473ffffffffffffffffffffffffffffffffffffffff1690565b73ffffffffffffffffffffffffffffffffffffffff1614155b15611405576040517fe07c8dba00000000000000000000000000000000000000000000000000000000815260040160405180910390fd5b565b7f189ab7a9244df0848122154315af71fe140f3db0fe014031783b0946b8c9d2e361143181611296565b73ffffffffffffffffffffffffffffffffffffffff8216610889576040517f8579befe00000000000000000000000000000000000000000000000000000000815260040160405180910390fd5b8173ffffffffffffffffffffffffffffffffffffffff166352d1902d6040518163ffffffff1660e01b8152600401602060405180830381865afa925050508015611503575060408051601f3d9081017fffffffffffffffffffffffffffffffffffffffffffffffffffffffffffffffe016820190925261150091810190612302565b60015b611551576040517f4c9c8ce300000000000000000000000000000000000000000000000000000000815273ffffffffffffffffffffffffffffffffffffffff831660048201526024016106bd565b7f360894a13ba1a3210667c828492db98dca3e2076cc3735a920a3ca505d382bbc81146115ad576040517faa1d49a4000000000000000000000000000000000000000000000000000000008152600481018290526024016106bd565b610869838361197d565b3073ffffffffffffffffffffffffffffffffffffffff7f00000000000000000000000000000000000000000000000000000000000000001614611405576040517fe07c8dba00000000000000000000000000000000000000000000000000000000815260040160405180910390fd5b5f610dbd83836119df565b60605f610dbd83611a05565b5f807ff0c57e16840df040f15088dc2f81fe391c3923bec73e23a9662efc9c229c6a00610640565b5f610640825490565b5f7fffffffff0000000000000000000000000000000000000000000000000000000082167f7965db0b00000000000000000000000000000000000000000000000000000000148061064057507f01ffc9a7000000000000000000000000000000000000000000000000000000007fffffffff00000000000000000000000000000000000000000000000000000000831614610640565b5f8281526020818152604080832073ffffffffffffffffffffffffffffffffffffffff8516845290915290205460ff16610889576040517fe2517d3f00000000000000000000000000000000000000000000000000000000815273ffffffffffffffffffffffffffffffffffffffff82166004820152602481018390526044016106bd565b5f8281526020818152604080832073ffffffffffffffffffffffffffffffffffffffff8516845290915281205460ff1661187b575f8381526020818152604080832073ffffffffffffffffffffffffffffffffffffffff86168452909152902080547fffffffffffffffffffffffffffffffffffffffffffffffffffffffffffffff001660011790556118193390565b73ffffffffffffffffffffffffffffffffffffffff168273ffffffffffffffffffffffffffffffffffffffff16847f2f8788117e7eff1d82e926ec794901d17c78024a50270940304540a733656f0d60405160405180910390a4506001610640565b505f610640565b5f610dbd8373ffffffffffffffffffffffffffffffffffffffff8416611a5e565b5f8281526020818152604080832073ffffffffffffffffffffffffffffffffffffffff8516845290915281205460ff161561187b575f8381526020818152604080832073ffffffffffffffffffffffffffffffffffffffff8616808552925280832080547fffffffffffffffffffffffffffffffffffffffffffffffffffffffffffffff0016905551339286917ff6391f5c32d9c69d2a47ea670b442974b53935d1edc7fd64eb21e047a839171b9190a4506001610640565b5f610dbd8373ffffffffffffffffffffffffffffffffffffffff8416611aa3565b61198682611b86565b60405173ffffffffffffffffffffffffffffffffffffffff8316907fbc7cd75a20ee27fd9adebab32041f755214dbc6bffa90cc0225b39da2e5c2d3b905f90a28051156119d7576108698282611c54565b610889611cd3565b5f825f0182815481106119f4576119f4612319565b905f5260205f200154905092915050565b6060815f01805480602002602001604051908101604052809291908181526020018280548015611a5257602002820191905f5260205f20905b815481526020019060010190808311611a3e575b50505050509050919050565b5f81815260018301602052604081205461187b57508154600181810184555f848152602080822090930184905584548482528286019093526040902091909155610640565b5f8181526001830160205260408120548015611b7d575f611ac5600183612346565b85549091505f90611ad890600190612346565b9050808214611b37575f865f018281548110611af657611af6612319565b905f5260205f200154905080875f018481548110611b1657611b16612319565b5f918252602080832090910192909255918252600188019052604090208390555b8554869080611b4857611b48612359565b600190038181905f5260205f20015f90559055856001015f8681526020019081526020015f205f905560019350505050610640565b5f915050610640565b8073ffffffffffffffffffffffffffffffffffffffff163b5f03611bee576040517f4c9c8ce300000000000000000000000000000000000000000000000000000000815273ffffffffffffffffffffffffffffffffffffffff821660048201526024016106bd565b7f360894a13ba1a3210667c828492db98dca3e2076cc3735a920a3ca505d382bbc80547fffffffffffffffffffffffff00000000000000000000000000000000000000001673ffffffffffffffffffffffffffffffffffffffff92909216919091179055565b60605f808473ffffffffffffffffffffffffffffffffffffffff1684604051611c7d9190612386565b5f60405180830381855af49150503d805f8114611cb5576040519150601f19603f3d011682016040523d82523d5f602084013e611cba565b606091505b5091509150611cca858383611d0b565b95945050505050565b3415611405576040517fb398979f00000000000000000000000000000000000000000000000000000000815260040160405180910390fd5b606082611d2057611d1b82611d9a565b610dbd565b8151158015611d44575073ffffffffffffffffffffffffffffffffffffffff84163b155b15611d93576040517f9996b31500000000000000000000000000000000000000000000000000000000815273ffffffffffffffffffffffffffffffffffffffff851660048201526024016106bd565b5092915050565b805115611daa5780518082602001fd5b6040517fd6bda27500000000000000000000000000000000000000000000000000000000815260040160405180910390fd5b5f60208284031215611dec575f80fd5b81357fffffffff0000000000000000000000000000000000000000000000000000000081168114610dbd575f80fd5b5f60208284031215611e2b575f80fd5b5035919050565b803561ffff81168114611e43575f80fd5b919050565b5f8060408385031215611e59575f80fd5b82359150611e6960208401611e32565b90509250929050565b803573ffffffffffffffffffffffffffffffffffffffff81168114611e43575f80fd5b5f8060408385031215611ea6575f80fd5b82359150611e6960208401611e72565b7f4e487b71000000000000000000000000000000000000000000000000000000005f52604160045260245ffd5b7fffffffffffffffffffffffffffffffffffffffffffffffffffffffffffffffe0601f830116810181811067ffffffffffffffff82111715611f2757611f27611eb6565b6040525050565b5f8060408385031215611f3f575f80fd5b611f4883611e72565b9150602083013567ffffffffffffffff811115611f63575f80fd5b8301601f81018513611f73575f80fd5b803567ffffffffffffffff811115611f8d57611f8d611eb6565b604051611fc260207fffffffffffffffffffffffffffffffffffffffffffffffffffffffffffffffe0601f8501160182611ee3565b818152866020838501011115611fd6575f80fd5b816020840160208301375f602083830101528093505050509250929050565b5f805f60608486031215612007575f80fd5b8335925061201760208501611e32565b9150604084013565ffffffffffff81168114612031575f80fd5b809150509250925092565b5f806040838503121561204d575f80fd5b50508035926020909101359150565b602080825282518282018190525f918401906040840190835b818110156120a957835173ffffffffffffffffffffffffffffffffffffffff16835260209384019390920191600101612075565b509095945050505050565b602081525f82518060208401528060208501604085015e5f6040828501015260407fffffffffffffffffffffffffffffffffffffffffffffffffffffffffffffffe0601f83011684010191505092915050565b5f805f60608486031215612119575f80fd5b8335925061212960208501611e72565b929592945050506040919091013590565b5f6020828403121561214a575f80fd5b610dbd82611e72565b5f81518060208401855e5f93019283525090919050565b7f5661756c742063616c6c206661696c656420616e64206e6f20706f6f6c49642081527f7365743a2000000000000000000000000000000000000000000000000000000060208201525f610dbd6025830184612153565b5f60033d11156108b95760045f803e505f5160e01c90565b5f60443d10156121e65790565b6040517ffffffffffffffffffffffffffffffffffffffffffffffffffffffffffffffffc3d016004823e80513d602482011167ffffffffffffffff8211171561222e57505090565b808201805167ffffffffffffffff81111561224a575050505090565b7ffffffffffffffffffffffffffffffffffffffffffffffffffffffffffffffffc3d8501016020828401011115612282575050505090565b6112ce60208285010185611ee3565b7f506f6f6c4d616e616765722063616c6c206661696c65643a200000000000000081525f610dbd6019830184612153565b7f4e487b71000000000000000000000000000000000000000000000000000000005f52601160045260245ffd5b80820180821115610640576106406122c2565b5f60208284031215612312575f80fd5b5051919050565b7f4e487b71000000000000000000000000000000000000000000000000000000005f52603260045260245ffd5b81810381811115610640576106406122c2565b7f4e487b71000000000000000000000000000000000000000000000000000000005f52603160045260245ffd5b5f610dbd828461215356fea2646970667358221220fe97859a181957ac94afd93aafe91def6786c5913fe2b3ec87636bd7ef73e40164736f6c634300081a0033",
    "linkReferences": {}
  },
  "methodIdentifiers": {
    "DEFAULT_ADMIN_ROLE()": "a217fddf",
    "UPGRADE_INTERFACE_VERSION()": "ad3cb1cc",
    "assessmentInterval()": "f322b0ae",
    "getPoolId(uint256)": "e7ef0fdc",
    "getProjectRiskLevel(uint256)": "0630bcd7",
    "getRoleAdmin(bytes32)": "248a9ca3",
    "getRoleMember(bytes32,uint256)": "9010d07c",
    "getRoleMemberCount(bytes32)": "ca15c873",
    "getRoleMembers(bytes32)": "a3246ad3",
    "getTargetContract(uint256)": "75cef6c8",
    "grantRole(bytes32,address)": "2f2ff15d",
    "hasRole(bytes32,address)": "91d14854",
    "initialize(address)": "c4d66de8",
    "lastAssessmentTimestamp(uint256)": "d8d98d0b",
    "projectPoolId(uint256)": "bcfaa30e",
    "projectRiskLevels(uint256)": "a884fac2",
    "projectTargetContract(uint256)": "bccd5eee",
    "proxiableUUID()": "52d1902d",
    "pushRiskParams(uint256,uint16,uint48)": "6df8683f",
    "renounceRole(bytes32,address)": "36568abe",
    "requestPeriodicAssessment(uint256)": "ebd15448",
    "revokeRole(bytes32,address)": "d547741f",
    "setAssessmentInterval(uint256)": "89a413c7",
    "setProjectRiskLevel(uint256,uint16)": "08020104",
    "setTargetContract(uint256,address,uint256)": "b6ec0db3",
    "supportsInterface(bytes4)": "01ffc9a7",
    "triggerBatchRiskAssessment()": "6c4d71c3",
    "upgradeToAndCall(address,bytes)": "4f1ef286"
  },
  "id": 103
}